:020000040800F2
:10000000E809002045010008211C000831140008FF
:100010001D1C0008B10B00081B3600080000000082
:100020000000000000000000000000009D24000807
:10003000790D000800000000B51C00089D2A00088A
:100040005F0100085F0100085F0100082922000825
:100050005F0100085F0100085F0100085F01000800
:100060005F0100085F0100085F0100085F010008F0
:100070005F0100085F0100085F0100085F010008E0
:100080005F0100085F0100085F0100085F010008D0
:100090005F0100085F0100085F0100087D0D000896
:1000A0005F0100085F0100085F0100085F010008B0
:1000B0005F0100085F010008A92E00085F01000829
:1000C0005F0100085F0100085F0100085F01000890
:1000D0005F010008393100085F0100087132000833
:1000E0005F0100085F0100085F0100085F01000870
:1000F0005F0100085F0100085F0100085F01000860
:100100005F0100085F0100085F0100085F0100084F
:100110005F0100085F0100085F010008D92E000898
:100120005F0100085F0100085F0100085F0100082F
:10013000DFF80CD000F0EEFA0048004799440008C0
:10014000E80900200648804706480047FEE7FEE72A
:10015000FEE7FEE7FEE7FEE7FEE7FEE7FEE7FEE777
:10016000DD2A000831010008421C10F8011B00299B
:10017000FBD1801A704710B5002200E0521C835C4E
:100180008C5CA34201D1002BF8D1D8B2E1B2401A65
:1001900010BD30B505460020034600E05B1C9342CD
:1001A00005D2EC5CC85C201A01D1002CF6D130BD20
:1001B00070B5064603F06AFA046805460A22002173
:1001C000304600F0CBF82C6070BD2DE9FE4F81EA7F
:1001D000030404F0004421F0004100944FF0000BB0
:1001E00023F0004350EA01045ED052EA03045BD0DE
:1001F000C3F30A54C1F30A552C44A4F2F334019416
:10020000A0FB0254C1F3130141F48011C3F31303A3
:1002100043F4801301FB024400FB034E840A970A57
:1002200044EA815447EA8357A4FB076802958D0A84
:1002300005FB07854FEA932C04FB0C542705029D10
:100240004FEA065847EA1637B5EB08056EEB070C80
:10025000870E920E47EA811742EA8312A7FB02013A
:10026000B6EB0B0164EB00042B0D43EA0C335E1874
:1002700044EB1C50DA465146E7FB0201C5F3130478
:100280004FEA0B3343EA14534FEA0432019C43EA2A
:100290000603A4F10C040294009CCDE900B400F024
:1002A000A4F803B0BDE8F08F00200146F9E730B5AF
:1002B0000B46014600202022012409E021FA02F524
:1002C0009D4205D303FA02F5491B04FA02F52844BE
:1002D000151EA2F10102F1DC30BD2DE9F05F0546EB
:1002E000002092469B4688460646814640241BE0F5
:1002F000284641464746224600F020F853465A46D3
:10030000C01A914110D311461846224600F014FA43
:100310002D1A67EB01084F4622460120002100F00C
:100320000BFA17EB00094E41201EA4F10104DFDC9B
:10033000484631462A464346BDE8F09F202A04DB62
:10034000203A21FA02F00021704721FA02F3D0404E
:10035000C2F1200291400843194670472DE9F04749
:1003600091460F4680460446002614F8015B2DB1E5
:1003700000F004FA0068405DC007F6D12B2D02D0D2
:100380002D2D18D0641E4A463946204600F0FAF951
:1003900027B13968A14201D1C7F8008071054FF03B
:1003A00002040BD54042002803DD03F06FF904601E
:1003B000A007BDE8F08746F48066E4E70028F8DA95
:1003C00003F064F904606FF00040F2E710B5141E0A
:1003D00073F1000408DA401C41F1000192185B41FE
:1003E0001A4301D120F0010010BD2DE9F04D9246D5
:1003F0009B4611B1B1FA81F202E0B0FA80F22032EC
:10040000904600F099F904460F4640EA0A0041EA96
:100410000B0153465A46084313D0114653EA0100D4
:1004200019D0C8F140025046FFF788FF05460E4636
:1004300050465946424600F07FF9084305D0012056
:1004400004E020463946BDE8F08D0020054346EA29
:10045000E0762C4337430A986305E40AA0EB0800D2
:100460000022FD0A44EA47540A3002D50020014622
:10047000E9E7010510196941DDE9084500196941FD
:10048000BDE8F04DA2E72DE9FE4F804681EA03006A
:10049000C00F0C46009021F0004123F00045B8EB5E
:1004A0000200A94105D24046214690461C460B4613
:1004B000024623F00040104347D0270DC7F30A003F
:1004C000C3F30A510290401A019040286BDAC3F33B
:1004D000130040F4801B0098924620B10023D2EB19
:1004E000030A63EB0B0B01985946C0F140025046DA
:1004F00000F022F906460D4650465946019A00F092
:100500002AF910EB08006141002487EA115284EABD
:10051000E7731A4340D0009A62B3019A012A4FEA66
:10052000075215DC001B61EB02014FF0004202EAAA
:100530000752CDE90042001C41F5801132462B469E
:10054000FFF753FF03B0BDE8F08F40462146F9E7BF
:10055000001B61EB0201001C41F5801300185B4198
:100560002018A2F5001747EB030140EAD570B61931
:100570006D4111E06D084FEA360645EAC0754FEA55
:100580000752001B61EB0201001C41F58011490874
:100590004FEA30000019514132462B4603B0BDE806
:1005A000F04FFFF713BF0098012240000023D0EB6B
:1005B000020263EBE073009821464FEAE074B8EB67
:1005C000000061EB0401E9E783F000435BE781F0A1
:1005D000004158E72DE9F04D81EA030404F0004B97
:1005E00021F0004514464FF0000A23F0004150EA84
:1005F000050220D054EA01021DD0C5F30A57024675
:10060000C5F31303C1F31300C1F30A5640F4801578
:1006100043F48013A7EB0608101BD64608F2FD38FA
:1006200073EB050002D308F1010801E092185B4169
:10063000B8F1000F03DA00200146BDE8F08D00207C
:100640004FF48011064684460EE0171B73EB050736
:1006500005D3121B63EB050306434CEA010C490862
:100660004FEA300092185B4150EA0107EDD152EA9F
:10067000030012D082EA040083EA0501084305D092
:10068000101BAB4106D20122002306E000224FF0EE
:10069000004302E06FF0010253101AEB06004CEB2E
:1006A000085110EB0A0041EB0B01BDE8F04DFFF7DC
:1006B0008DBEC1F30A52C1F3130140F2FF3341F47E
:1006C00080119A4202DA00200146704740F233431B
:1006D0009A42A2F2334202DC5242FFF72FBE00F0F0
:1006E0002BB8000030B5041E71F1000404DB4FF09C
:1006F0000044404264EB0101141E73F1000405DB69
:100700001C464FF00043524263EB0403994208BF7A
:10071000904230BD064C074D06E0E06840F0010312
:1007200094E8070098471034AC42F6D3FFF704FD75
:100730007893000898930008202A04DB203A00FAF6
:1007400002F1002070479140C2F1200320FA03F328
:10075000194390407047202A06DBCB17203A41FA14
:1007600002F043EAE07306E041FA02F3D040C2F13E
:100770002002914008431946704700000048704726
:10078000749300082DE9F05F824600780027154633
:100790008B460AF10104B946302801D09DB113E01F
:1007A00014F8010B0127782803D0582801D045B14F
:1007B0000AE00DB1102D07D10027102514F8010B08
:1007C00002E0082500E00A250026B0460EE005FB01
:1007D000080005FB06F1012701EB10461FFA80F81F
:1007E000B6F5803F00D3B94614F8010B294600F056
:1007F00018F80028EBDABBF1000F05D00FB1641E2A
:1008000000E05446CBF80040B9F1000F06D002F0EA
:100810003DFF02210160C81EBDE8F09F48EA064086
:10082000FAE73A2800D2303820F02002412A01D3DA
:10083000A2F13700884201D34FF0FF30704721B159
:10084000826842F00102826003E0826822F00102C5
:100850008260704710B504461248844208D10121D5
:10086000401501F027FB0021601501F023FB17E084
:100870000D48844208D10121001501F01BFB002125
:10088000201501F017FB0BE00848844208D1012134
:10089000C80301F00FFB00214FF4004001F00AFBF8
:1008A00010BD00000024014000280140003C014030
:1008B000014600208A6802F004020AB1012000E02B
:1008C000002070470146C86C80B270470246002085
:1008D00013680B400BB1012000E000207047014677
:1008E00000208A6802F008020AB1012000E000201E
:1008F0007047000030B502460020002350680F4CBE
:1009000020400D790C6844EA05242043506090682B
:100910000B4C2040D1E902542C434D7944EA450464
:1009200020439060D06A20F470000C7C641EE4B216
:10093000234340EA0350D06230BD0000FFFEF0FFC9
:10094000FDF7F1FFF0B504460D4600200021092D0A
:1009500011DDE068A5F10A0606EB4607072606FA50
:1009600007F18843A5F10A0606EB460603FA06F1ED
:100970000843E0600CE0206905EB4507072606FA0E
:1009800007F1884305EB450603FA06F108432061A9
:10099000072A0FDA606B561E06EB86071F2606FA3B
:1009A00007F18843561E06EB860605FA06F1084352
:1009B000606322E00D2A0FDA206BD61F06EB860754
:1009C0001F2606FA07F18843D61F06EB860605FAAE
:1009D00006F10843206310E0E06AA2F10D0606EB81
:1009E00086071F2606FA07F18843A2F10D0606EBDB
:1009F000860605FA06F10843E062F0BD816841F021
:100A000008018160704721B1826842F4A0028260CF
:100A100003E0826822F4A00282607047816841F09E
:100A2000040181607047000000B589B001210820F1
:100A300001F030FA0121042001F00CFA4FF480702B
:100A4000ADF8200018208DF8230003208DF8220037
:100A500008A91A4800F06BFA19480088401E80B2B5
:100A6000ADF818004720ADF814000020ADF81A00CA
:100A7000ADF8160005A9134802F00CFB6020ADF894
:100A800004000120ADF806000020ADF80A00ADF822
:100A90000C0001A90B4802F09FFA0821094802F056
:100AA000EBFA0121074802F061FA0121054802F042
:100AB0006CFA00200449087009B000BD000C014028
:100AC00028000020000800402C00002010B5002164
:100AD000034802F0DAFA00200249087010BD000055
:100AE000000800402C00002010B50648007838B9F6
:100AF00005480188054802F0C8FA0120014908703C
:100B000010BD00002C0000202A000020000800403A
:100B100010B50448007810B9FFF7E6FF01E0FFF7D1
:100B2000D5FF10BD2C00002010B50B4800880A38F6
:100B30000A49098888420DDD084800880A300749BB
:100B4000088007480078012804D108460188054834
:100B500002F09BFA10BD0000280000202A000020AF
:100B60002C0000200008004010B5012001F0B2F96F
:100B7000002001F0AFF910BD08B50146002000903B
:100B8000034800900098084400900098008808BD31
:100B9000006C004008B500220092044A0092009ABE
:100BA00002440092009A116008BD0000006C0040F1
:100BB00000BFFEE710B5002400F024F804E0601C3C
:100BC000C4B2012003F030FC0D48006808B1642C69
:100BD000F5DB642C01DB012010BD002404E0601C67
:100BE000C4B2012003F020FC0548006808B9642C59
:100BF000F5DB642C01DB0120EEE70020ECE70000D0
:100C00002C01244208B54FF40060ADF800004820E4
:100C10008DF803006946024800F089F908BD00001C
:100C20000020014008B54FF40060ADF8000010202E
:100C30008DF8030003208DF802006946014800F09A
:100C400076F908BD0020014008B50121080201F035
:100C500021F94FF40060ADF8000010208DF803007A
:100C600003208DF802006946064800F060F94FF451
:100C70000061044800F037FA00F068F8FFF79AFFC7
:100C800008BD00000020014010B5002404E0601CF5
:100C9000C4B2012003F0C8FB0D48006808B1642C01
:100CA000F5DB002404E0601CC4B2012003F0BCFBAF
:100CB0000748006808B9642CF5DB282003F0B4FB72
:100CC0000348006808B1012010BD0020FCE70000C7
:100CD0002C01244270B50024002506E06006040EB5
:100CE000FFF7D2FF0443681CC5B2082DF6DB20468F
:100CF00070BD7CB505460E4600F028F8FFF75AFF98
:100D0000F8B9002405E0FFF7E5FF0DF80400601CCA
:100D1000C4B2052CF7DB9DF800009DF801100844D3
:100D20009DF8021008449DF8031008449DF8041033
:100D3000884208D19DF8000030709DF802002870AC
:100D400001E001207CBD0020FCE7000010B5FFF7AA
:100D500069FF002006490860142003F03FFB0120D2
:100D60000449C1F8AC011E2003F05EFB10BD000079
:100D7000AC01244200002442704700002DE9F041FC
:100D800000240026002530E04FF400711B4800F0DD
:100D9000A1F9012829D100F033FB0446FA2C00DB2D
:100DA00024E0C82C03DBFA2C01DA01260AE03C2CF3
:100DB00003DB5A2C01DA012704E00A2C02DB322C77
:100DC00000DA0027012E0ED10D48006840000C49C2
:100DD00008600846006838440860202D03DB0120C5
:100DE0000849087002E0681CC5B2CDE700BF4FF4A7
:100DF000007000F009F8BDE8F0810000000C01402F
:100E000030000020340000200149086070470000D5
:100E10001404014051B18200A2F1C042126842F0B4
:100E200001038200A2F1C042136009E08200A2F136
:100E3000C0421268034B1A408300A3F1C0431A60FA
:100E400070470000FEFF0F00D0E901121143C26895
:100E50001143026911434269114382691143C26916
:100E60001143026A1143426A1143826A1143C26A02
:100E70001143026B114302689200A2F1C04211605B
:100E8000816808290BD101688900A1F1C041096876
:100E900041F0400201688900A1F1C0410A60416B44
:100EA0000968426B526841EA0211426B926841EA5A
:100EB0000221426B928941EA0241426B128A41EA65
:100EC0000251426B127D41EA0261426B9269114309
:100ED0000268521C9200A2F1C0421160C16AB1F5D1
:100EE000804F1BD1816B0968826B526841EA021105
:100EF000826B926841EA0221826B128A41EA0251B6
:100F0000826B127D41EA0261826B92691143026831
:100F10009200A2F1C042C2F8041107E06FF07042E3
:100F200001688900A1F1C041C1F8042170472DE991
:100F3000F04102460025002600200023002400275F
:100F400091F803C00CF00F0591F803C00CF0100CE1
:100F5000BCF1000F03D091F802C04CEA050591F8EE
:100F600000C0BCF1000F31D0146800202BE04FF01E
:100F7000010C0CFA00F3B1F800C00CEA03069E4223
:100F800020D183004FF00F0C0CFA03F7BC4305FA95
:100F900003FC4CEA040491F803C0BCF1280F06D10D
:100FA0004FF0010C0CFA00FCC2F814C00AE091F8F2
:100FB00003C0BCF1480F05D14FF0010C0CFA00FC46
:100FC000C2F810C0401C0828D1D31460B1F800C08A
:100FD000BCF1FF0F34DD546800202EE000F1080C56
:100FE0004FF0010808FA0CF3B1F800C00CEA030650
:100FF0009E4221D183004FF00F0C0CFA03F7BC4343
:1010000005FA03FC4CEA040491F803C0BCF1280F74
:1010100005D100F1080C08FA0CF8C2F8148091F818
:1010200003C0BCF1480F07D100F1080C4FF00108D4
:1010300008FA0CF8C2F81080401C0828CED354607F
:10104000BDE8F081F0B50A46002300240021002508
:1010500000F00046B6F1004F02D11D4EF16901E0EB
:101060001B4E7168C0F3034583B200F44016B6F519
:10107000401F08D121F07061154E766826F0706629
:10108000134F7E6012E000F48016B6F5801F06D183
:10109000032606FA05F4A14341F0706106E0460D0F
:1010A000360103FA06F6B14341F0706122B1460DF4
:1010B000360103FA06F6314300F00046B6F1004F60
:1010C00002D1034EF16101E0014E7160F0BD0000FC
:1010D000000001400246002093680B400BB1012044
:1010E00000E00020704701617047000010B5044621
:1010F0000723012221460948FFF724FC0121074864
:10110000FFF781FC00BF02210448FFF7DFFB002846
:10111000F9D00248FFF7D6FB10BD0000003C0140AB
:1011200070B50F2631E001201D4908600A2003F048
:1011300055F91CA003F01CFC00250AE00A2003F06E
:101140004DF91B48008800F4004000B103E0681C22
:10115000C5B2142DF2DB00BF00201149086014480D
:10116000008800F4004080B111480088C4B200201B
:101170000F4908800D2C08D10E4800782B2804D187
:101180000C4880793038C4B204E0301EA6F1010169
:10119000CEB2C8D100BF06B9FF24204670BD000002
:1011A0009001214241542B524F4C453F0D0A000003
:1011B0003A0000206A000020F8B50A260125012126
:1011C000042000F067FEE803ADF8000048208DF829
:1011D000030003208DF8020069463048FFF7A7FEA0
:1011E0001020ADF800008DF8030003208DF80200F8
:1011F00069462A48FFF79BFE10212848FFF773FF36
:1012000001212748FFF71EFF0120264908602649D3
:10121000C1F83C014FF4165002F062F833E00120AF
:10122000204908600A2003F0D9F820A003F0A0FBB1
:1012300000201D49C1F8900100240AE01D480088E3
:1012400000F4004000B106E0052003F0C7F8601C80
:10125000C4B20A2CF2DB00BF1648008800F400403C
:1012600088B114480088C5B2002012490880042DB6
:1012700009D1114800784F2805D10F4840784B28F4
:1012800001D1002504E0301EA6F10101CEB2C6D185
:1012900000BF06B901252846F8BD0000000801403E
:1012A00000023000900121420000214241540D0A09
:1012B000000000003A0000206A0000201CB5FFF783
:1012C0002FFF01280AD10BA010210B46C822CDE91F
:1012D00000108C210A2000F0C5FB09E008A01021B5
:1012E0000B46C822CDE900108C210A2000F0BAFB81
:1012F0001CBD0000524F4C453A4D6173746572003D
:10130000524F4C453A536C61766520002DE9F0410F
:1013100005460F2730E001201D4908600A2003F030
:101320005DF829461BA003F023FB00201B49C1F8F0
:10133000900100260AE01A48008800F4004000B13D
:1013400006E0052003F04AF8701CC6B2142EF2DB4A
:1013500000BF1348008800F4004068B110480088BE
:10136000C4B200200E490880042C05D10D48007835
:101370004F2801D1002404E0381EA7F10101CFB2AB
:10138000C9D100BF07B9FF242046BDE8F0810000A5
:101390009001214225730D0A000000000000214247
:1013A0003A0000206A0000201CB50C48006850B1CB
:1013B0000BA010210B467822CDE900108C216E2065
:1013C00000F050FB09E00AA010210B467822CDE97D
:1013D00000108C216E2000F045FB1CBD3C01214219
:1013E0005354413A436F6E6E656374656420000028
:1013F0005354413A446973636F6E6E6563740000C1
:1014000010B5002408E0601CC4B2142003F00CF8EE
:10141000FA2C01DB204610BD4FF400710348FFF7A2
:1014200059FE0128EFD02046F5E70000000C0140EE
:1014300000BFFEE77CB566480078012801D1002096
:101440007CBD64A010210B46C822CDE900106421A8
:101450000A2000F007FB65A010210B46DC22CDE935
:101460000010E6210A2000F0FDFA4FF4FA7002F0B5
:10147000B5FF4FF4165001F033FF03258BE0002039
:1014800000F05CF90446042C15D15EA010210B4637
:10149000C822CDE9001064210A2000F0E3FA5EA022
:1014A00002F0BEF803204A4908704FF4FA7002F0C7
:1014B00095FF0220C4E7FFF77FFEA8B95EA01021C8
:1014C0000B46C822CDE9001064210A2000F0CAFAB8
:1014D0005EA002F0A5F801203D4908704FF4FA70B3
:1014E00002F07CFF0020ABE75BA002F099F862A05D
:1014F00010210B46C822CDE9001064210A2000F01B
:10150000B1FA4FF4967002F069FF002000F016F96E
:101510000446042C15D13BA010210B46C822CDE96E
:10152000001064210A2000F09DFA3BA002F078F838
:101530000320274908704FF4FA7002F04FFF022091
:101540007EE752A010210B46C822CDE9001064218D
:101550000A2000F087FA4FF4967002F03FFF002057
:1015600000F0ECF80446042C15D126A010210B46FF
:10157000C822CDE9001064210A2000F073FA26A0E9
:1015800002F04EF80320124908704FF4FA7002F08E
:1015900025FF022054E7281EA5F10101CDB27FF4FA
:1015A0006EAF3FA002F03CF841A010210B46C822CC
:1015B000CDE9001064210A2000F054FA0220044909
:1015C00008704FF47A7002F009FF012038E700003C
:1015D00001000020496E697469616C697A696E67FF
:1015E00020484330352E2E2E000000004B45593246
:1015F0003A43616E63656C20262052657475726E85
:1016000000000000496E69742043616E63656C657B
:1016100064212020202020004843303520496E6975
:10162000742063616E63656C6564206279207573F4
:1016300065720D0A000000004843303520496E698C
:1016400074204F4B2120202020202000484330359B
:10165000204F4B210D0A00004843303520496E6968
:1016600074206661696C65642C2072657472796996
:101670006E672E2E2E0D0A004843303520457272BB
:101680006F722120202020202000000052657472FB
:1016900079696E672E2E2E20202020202000000049
:1016A00048433035204572726F72210D0A000000E8
:1016B0004843303520496E6974204661696C656421
:1016C000212000000146CA1701EB92729210A1EB93
:1016D000820292B9642091FBF0F200FB121050B923
:1016E0004FF4C87091FBF0F200FB121008B9012012
:1016F00070470020FCE70120FAE70020F8E700002F
:1017000008B50121442000F0C5FB0120ADF8000020
:1017100028208DF8030069460648FFF708FC1C20C6
:10172000ADF8000048208DF8030069460248FFF735
:10173000FEFB08BD000801400018014010B504463A
:10174000012C01D1224908702148007801282AD1B2
:101750002048006801280AD01F48006838B11E4898
:10176000001F006818B11C4808380068D8B90A2062
:1017700002F034FE0020164908701648006801285F
:1017800000D110BD1448006808B90220F9E71248DA
:10179000001F006808B90320F3E70F480838006805
:1017A000A0B90420EDE70B48006878B90A48006842
:1017B00001280BD10848001F0068012806D10648FF
:1017C00008380068012801D1014908700020D8E7D5
:1017D00035000020000121421001234270B5064669
:1017E0000F484088401E83B20D480088401E82B2D8
:1017F0000021084600F07CF800240CE0002504E0FD
:10180000304600F06FF9681C85B205484088A84250
:10181000F6DC601C84B202480088A042EEDC70BD99
:101820002000002000B502460F4882716AB93620B8
:1018300000F04CF94C2000F04FF94FF4F0700A49D9
:1018400048804FF4A07008800CE0362000F03EF98C
:101850002C2000F041F94FF4A070034948804FF468
:10186000F070088000BD00002000002070B5044624
:101870000D4616462B4622462946204600F038F8EB
:10188000304600F02FF970BD2DE9F04304460D46B7
:1018900016461F46DDF81C80B44201DCBD4201DD66
:1018A000BDE8F0833B4632462946204600F020F84A
:1018B000301B401C84B2781B401C85B20BE0A9464B
:1018C00002E0404600F00EF9B9F10000A9F1010173
:1018D0001FFA81F9F5D1201EA4F101018CB2EED1DD
:1018E00000BFDDE701480088704700000008006C79
:1018F00030B504460D462A2000F0E8F8201200F02A
:10190000EBF8E0B200F0E8F8101200F0E5F8D0B221
:1019100000F0E2F82B2000F0D9F8281200F0DCF8F3
:10192000E8B200F0D9F8181200F0D6F8D8B200F0FA
:10193000D3F82C2000F0CAF830BD00002DE9F84F94
:1019400080460E4617461C46B3462046E31704EB76
:101950005373DB1021464FEAE47C04EB5C7C4FEAD6
:10196000EC0CA4EBCC0CBCF1000F02D04FF0010C3E
:1019700001E04FF0000C6344224604EBD27C4FEAB6
:101980006C0C03FB0CF3DBB20093A7F12000C7B291
:10199000002556E00C2C07D107EB47002B4901EB43
:1019A000800010F8059013E0102C05D1284800EBBA
:1019B000071010F805900BE0182C07D107EBC700B3
:1019C000244901EB800010F8059001E0BDE8F88F94
:1019D0004FF0000A2FE009F0800030B11E48028865
:1019E00031464046FFF742FF07E00A9828B91B48F6
:1019F000028831464046FFF739FF4FEA49604FEA17
:101A00001069701C86B216484088B04200DCDDE7E1
:101A1000A6EB0B00A0420AD15E4608F101001FFAB6
:101A200080F80F480088404500DCCFE706E00AF167
:101A3000010000F0FF0ABAF1080FCCDB00BF681C00
:101A4000C5B200988542A5DB00BFBFE7C0490008CA
:101A5000344E0008245400081C0000201E00002002
:101A6000200000202DE9F84704460D46904699468F
:101A7000DDE9096704F0FF0A08EB04001FFA80F8AB
:101A800009EB05001FFA80F916E0444502DB5446D5
:101A9000A81985B24D4500DB14E0002000903A788B
:101AA000334629462046FFF749FF304606EBD07102
:101AB00004EB61018CB27F1C38787E2802DC387818
:101AC0002028E2DA00BFBDE8F8870000014908805D
:101AD00070470000FE07006C014908807047000055
:101AE0000008006C0112024A1180C1B211807047D7
:101AF0000008006C08B50121482000F0CBF9202037
:101B0000ADF8000010208DF8030003208DF80200CE
:101B100069460948FFF70BFA20210748FFF7E3FA67
:101B20002020ADF8000069460448FFF700FA2021A4
:101B30000248FFF7D8FA08BD000C01400018014028
:101B400070B50024002508E00620FFF7CFFA044412
:101B5000052002F043FC681CC5B20A2DF4DB0A2004
:101B6000B4FBF0F4B4F57A6F01D94FF47A6428200D
:101B7000B4FBF0F0C0F16400C0B270BD00B587B036
:101B80000121802000F086F90121C80300F082F9CC
:101B90000121C80300F08EF900214FF4004000F04D
:101BA00089F94FF48070ADF8180000208DF81B0003
:101BB00006A91848FFF7BBF91748FEF74BFE0020AF
:101BC00001908DF808008DF809004FF46020039013
:101BD0000020049001208DF8140001A90E48FEF7A2
:101BE00089FE01210C48FEF72AFE0B48FEF706FF8E
:101BF00000BF0948FEF773FE0028FAD10648FEF739
:101C00000DFF00BF0448FEF753FE0028FAD107B0CD
:101C100000BD0000001C0140003C014000BFFEE789
:101C20007047000070B5002100230F22C47804B370
:101C3000154C246804F4E064C4F5E064210AC1F1A1
:101C40000403CA40447804FA03F184781440214321
:101C500009010E4C0678A155047804F01F050124F3
:101C6000AC4005786D11AD0005F1E025C5F80041E7
:101C700009E0047804F01F050124AC40044D067807
:101C8000761145F8264070BD0CED00E000E400E060
:101C900080E100E002490143024A11607047000000
:101CA0000000FA050CED00E00149086270470000F1
:101CB00000000E42704700002DE9F0418AB0054651
:101CC00088463AA12846FEF756FA18B900203A4944
:101CD000086067E039A12846FEF74DFA18B90120DF
:101CE000354908605EE038A12846FEF744FA10B98D
:101CF000FEF7FAFE56E037A12846FEF73CFA10B987
:101D0000FEF7E4FE4EE0062235A12846FEF741FA32
:101D1000002847D1A81DFEF74BFAC4B2002C40DDC5
:101D200004EB840040003049088001202F490870EE
:101D30002F480078012803D121462EA002F018FE7A
:101D400021462CA001F06CFC3348007838BB4FF6DC
:101D5000FF704FF48A73DC224FF4827100900A20E6
:101D6000FFF792FD204800880A2190FBF1F201FB69
:101D700012061D48008890FBF1F733463A4627A12A
:101D800002A801F05DFC02A810210B46DC22CDE97F
:101D900000104FF482710A20FFF764FE01E000F0AA
:101DA000F3FB00BF0AB0BDE8F08100002B4C4544B6
:101DB00032204F4E0D0A0000940123422B4C454423
:101DC00032204F46460D0A002B42454550204F4ECB
:101DD0000D0A00002B42454550204F46460D0A0093
:101DE0002B42454550200000040000200600002042
:101DF0000100002057696C6C207475726E206F6E44
:101E0000204245455020696E202564207365636F2C
:101E10006E64730D0A00000000000020424545502A
:101E20002077696C6C204F4E20696E2025642E252A
:101E30006473000029B1064A52690243044B5A6197
:101E400004E0034A52698243014B5A617047000023
:101E50000010024029B1064AD2690243044BDA61FC
:101E600004E0034AD2698243014BDA617047000003
:101E70000010024029B1064A12690243044B1A615C
:101E800004E0034A12698243014B1A617047000063
:101E90000010024029B1064A92690243044B9A613C
:101EA00004E0034A92698243014B9A617047000043
:101EB0000010024029B1064AD2680243044BDA609E
:101EC00004E0034AD2688243014BDA6070470000A5
:101ED000001002400149086070470000400442427F
:101EE00030B500210022002400232D4D6D6805F03F
:101EF0000C0121B1042905D0082923D105E0294D81
:101F0000056022E0274D05601FE0254D6D6805F452
:101F10007012234D6D6805F48034022505EB924262
:101F20001CB9214D554305600BE01D4D6D6805F44E
:101F300000351DB11C4D5543056002E0194D554358
:101F4000056002E0174D056000BF00BF144D6D68CD
:101F500005F0F0010909154D6B5C0568DD40456031
:101F60000F4D6D6805F4E061090A104D6B5C456822
:101F7000DD4085600A4D6D6805F46051C90A0B4D5E
:101F80006B5C4568DD40C560054D6D6805F44041FA
:101F9000890B074D6B5CC568B5FBF3F5056130BD7A
:101FA0000010024000127A0000093D0007000020E6
:101FB0001700002010B501460022002300204A111E
:101FC000012A02D1094C236806E0022A02D1074CFB
:101FD000236A01E0054C636A01F01F02012494406A
:101FE0001C400CB1012000E0002010BD0010024098
:101FF00000210B4A11700A4A203A82F82010012869
:1020000002D0042808D103E00121054A117004E040
:102010000521034A117000E000BF00BF70470000B7
:102020002010024001490860704700003C04424211
:102030000249096A0143014A1162704700100240D7
:10204000024909888143014A1180704704280040F1
:102050000348008840F010000149088070470000E4
:1020600004280040034800884FF6EF7108400149FA
:10207000088070470428004070B500260024002521
:1020800000F07AF806463848B6FBF0F43748008886
:10209000A0423CD035490C8040F2B27510E0284691
:1020A000FFF710FB40B1B4F5B77F02D3A4F5B774C6
:1020B00004E0681C85B206E0A4F26D14681C85B2C9
:1020C000B4F5B67FEBD800BF29488580002516E01F
:1020D00027498888FFF7F6FA30B1012D04D11D2C6D
:1020E00001D31D3C09E00CE02248405DA04203D82A
:1020F0002048405D241A00E003E0681C85B21C2CD7
:10210000E6D200BF681C1A498871601CC871164865
:10211000B6FBF0F100FB11644FF46160B4FBF0F02A
:10212000134908704FF46160B4FBF0F100FB1140FB
:102130003C21B0FBF1F00E4948704FF46160B4FBF4
:10214000F0F100FB11403C21B0FBF1F201FB120069
:10215000074988700B46DA799979988800F028F851
:1021600003490872002070BD805101003800002032
:1021700060000020E4920008002103480188001F4D
:10218000008841EA004070471C28004001460020BA
:10219000064A12880A40D0B2044A121F12880A4026
:1021A00012B108B1012000E000207047042800406F
:1021B000F0B503460C461546642093FBF0F0C6B21A
:1021C000642093FBF0F700FB1730C1B2132E02DD41
:1021D00001F16400C1B20846CF1701EB977701EB1C
:1021E000A707BAB2072092FBF0F700FB172082B2D4
:1021F0005719601EDFF82CC01CF80000384482B26A
:10220000CF1701EB9777BF10A1EB87071FB9032CFE
:1022100001DA501E82B2072092FBF0F700FB172074
:10222000C0B2F0BDD892000810B50120FFF7AEFF94
:1022300020B1012009490870FFF71EFF0220FFF7B7
:10224000A5FF20B10220FFF7FBFEFFF715FF0520D9
:10225000FFF7F6FE00F006F910BD00003600002082
:1022600029B1064A12880243044B1A8004E0034A4B
:1022700012888243014B1A807047000000280040FA
:102280001CB5002401214FF0C050FFF7E3FD0120F1
:10229000FFF70AFD0420FEF76FFC4AF2A001884216
:1022A00040D0FEF761FC0120FFF7A2FE04E0601CB5
:1022B000C4B20A2002F092F84120FFF77BFE08B971
:1022C000FA2CF4DBFA2C01DB01201CBD4FF48070EA
:1022D000FFF7AEFE0120FFF7A5FE00F0C3F800F007
:1022E000CBF801210846FFF7BBFF00F0BBF8FFF772
:1022F000AFFE47F6FF7000F0A5F800F0B3F8372006
:10230000222111230122CDE900100B2140F2E370BC
:1023100000F026F8FFF7A6FE4AF2A0010420FEF71F
:1023200039FC07E000F0A8F801210846FFF798FF04
:1023300000F098F800F004F8FFF79EFE0020C4E7D4
:1023400008B503208DF8000000208DF801008DF8FD
:10235000020001208DF803006846FFF763FC08BD0A
:102360002DE9F05F06460F4690469946DDE90AAB37
:10237000002440F2B270864203DB40F6330086420E
:1023800002DD0120BDE8F09F40F2B2750AE0284668
:10239000FFF798F910B12048044401E01F480444B5
:1023A000681C85B2B542F2DB781EC7B2002510E08A
:1023B0001B48405D40F2A321484304EBC014304663
:1023C000FFF780F918B1012D01D116480444681CAB
:1023D00085B2BD42ECDBA8F1010040F2A3214843E5
:1023E00004EBC014C9EB4910C0EB092004EB001446
:1023F000CAEB0A1004EB80045C4401214FF0C0508A
:10240000FFF728FD0120FFF74FFC204600F00CF8F5
:1024100000F028F80020B5E70085E2018033E101F3
:10242000E49200088051010000B50246FFF710FE5B
:10243000100C03490880091D0A80FFF713FE00BD38
:102440001828004000B50246FFF702FEC2F3034021
:1024500003490880091D0A80FFF704FE00BD000043
:102460000828004000BF0348008800F02000002832
:10247000F9D0704704280040074800884FF6F771EC
:1024800008400549088000BF0348008800F00800A4
:102490000028F9D07047000004280040704710B5AC
:1024A00000F002F810BD00000CB500200190009073
:1024B0003348006840F480303149086000BF30483C
:1024C000006800F4003000900198401C01900098D2
:1024D00018B90198B0F5A06FF1D12948006800F44F
:1024E000003010B10120009001E000200090009821
:1024F000012843D12348006840F0100021490860BA
:102500000846006820F0030008600846006840F0B4
:10251000020008601A484068194948600846406847
:1025200048600846406840F480604860084640685B
:1025300020F47C1048600846406840F4E810486089
:102540000846006840F08070086000BF0C480068D2
:1025500000F000700028F9D00948406820F003001E
:10256000074948600846406840F00200486000BFE4
:102570000348406800F00C000828F9D10CBD0000A9
:10258000001002400020024030B58BB04FF6FF70C3
:10259000FFF724F94FF478403D4908803DA0102111
:1025A0000B46F022CDE900100A210846FFF75AFA3F
:1025B0003AA010210B46F022CDE900101E210A207E
:1025C000FFF750FA39A010210B46F022CDE9001098
:1025D00032210A20FFF746FA39A010210B46D222F9
:1025E000CDE900105A210A20FFF73CFA3CA0102147
:1025F0000B46C822CDE900106E210A20FFF732FAFF
:102600003BA010210B46C822CDE90010A0210A20D2
:10261000FFF728FA38A010210B46C822CDE9001098
:10262000B4210A20FFF71EFA36A010210B46DC2247
:10263000CDE90010E6210A20FFF714FA38480078A7
:10264000E0B1384800880A2190FBF1F201FB120446
:102650003448008890FBF1F523462A4632A103A8AE
:1026600000F0EEFF03A810210B46DC22CDE900109C
:102670004FF482710A20FFF7F5F900BF1F200449CB
:102680000880FEF71BFEFEF78FFE0BB030BD00008A
:102690001C0000205052454348494E007777772E62
:1026A0007072656368696E2E636F6D0042543035D9
:1026B00020426C7565546F6F7468205465737400A4
:1026C0004B45595F55503A524F4C452020204B45C1
:1026D00059313A53454E442F53544F500000000097
:1026E00048433035205374616E64627921000000E4
:1026F00053656E643A000000526563656976653A19
:10270000000000005072657373204B4559322074ED
:102710006F2053656E736F72206D6F6465000000EB
:102720000600002004000020424545502077696CD7
:102730006C204F4E20696E2025642E2564730000A6
:102740002DE9F0418CB004460D4616464FF6FF7059
:102750001A23C8220A2100903220FFF795F88CA096
:1027600010210B469622CDE900100A213220FFF7F6
:1027700079F94FF6FF704223DC22322100900A20C3
:10278000FFF782F82B46224684A104A800F058FFE8
:1027900004A810210B46DC22CDE9001032210A20CA
:1027A000FFF760F94FF6FF706023DC2250210090A4
:1027B0000A20FFF769F832467EA104A800F040FF26
:1027C00004A810210B46DC22CDE9001050210A207C
:1027D000FFF748F94FF6FF707E23DC226E21009050
:1027E0000A20FFF751F81C2C0ADD75A010210B46BA
:1027F000DC22CDE900106E210A20FFF733F916E044
:102800000F2C0ADA71A010210B46DC22CDE9001052
:102810006E210A20FFF726F909E070A010210B466F
:10282000DC22CDE900106E210A20FFF71BF94FF6DC
:10283000FF709C23DC228C2100900A20FFF724F8F3
:102840006948807868494978674A1278664BDB792D
:10285000CDE90032CDE9021063488379828863A113
:1028600004A800F0EDFE04A810210B46DC22CDE9FF
:1028700000108C210A20FFF7F5F84FF6FF70BA23FD
:10288000DC22AA2100900A20FEF7FEFF5F480078B4
:1028900008B15FA000E05FA002465FA104A800F0BD
:1028A000CFFE04A810210B46DC22CDE90010AA219E
:1028B0000A20FFF7D7F84FF6FF70D823DC22C82193
:1028C00000900A20FEF7E0FF564800886421484344
:1028D0005549098890FBF1F73A4654A104A800F045
:1028E000AFFE04A810210B46DC22CDE90010C82160
:1028F0000A20FFF7B7F85148007838B34FF6FF7059
:102900004FF48A73DC224FF4827100900A20FEF7A4
:10291000BBFF4B4800880A2190FBF1F201FB120734
:102920004748008890FBF1F83B46424645A104A881
:1029300000F086FE04A810210B46DC22CDE9001031
:102940004FF482710A20FFF78DF80AE04FF6FF700E
:102950004FF48A73DC224FF4827100900A20FEF754
:1029600093FF4FF6FF70F623DC22E62100900A2049
:10297000FEF78AFF39A010210B46DC22CDE90010BA
:10298000E6210A20FFF76EF80CB0BDE8F0810000E8
:1029900053656E736F7220446174610054656D708D
:1029A0003A20253264432048756D693A2025326407
:1029B000252500004C696768743A202533640000BF
:1029C0005374617475733A20486F74005374617462
:1029D00075733A20436F6C64000000005374617497
:1029E00075733A204F4B000060000020253034649E
:1029F0002D253032642D2530326420253032643A62
:102A0000253032643A253032640000002C0000206A
:102A10004F4E00004F464600424545503A20257330
:102A2000000000002A00002028000020566F6C756E
:102A30006D653A2025642525000000000600002071
:102A400004000020424545502077696C6C204F4EB1
:102A500020696E2025642E25647300005072657312
:102A600073204B45593220746F204254206D6F649F
:102A700065000000042808D14FF0E021096941F009
:102A800004014FF0E022116107E04FF0E0210969F5
:102A900021F004014FF0E0221161704770470000FF
:102AA00010B504466FF00400FFF7E4FFE11704EBF4
:102AB0005171C1F3C701074A11701046007800EB4D
:102AC0004001C1EBC0104FF6FF7101EAC00002499E
:102AD000088010BD3C0000203E00002010B51348C7
:102AE000006840F00100114908600846406810493C
:102AF00008400E494860084600680E4908400B49E6
:102B000008600846006820F4802008600846406895
:102B100020F4FE0048604FF41F008860FFF7BFFC00
:102B20004FF000600449086010BD00000010024032
:102B30000000FFF8FFFFF6FE08ED00E000B59DB0D5
:102B400001210802FFF776F9012007900020089084
:102B50000F20099000200A900B900C900D901520EA
:102B600000900190052002900020039004900590B1
:102B7000069006200E9000200F90109010201190CB
:102B80000020129014901390159016904FF48050DE
:102B90001790002018904FF48040199000201A9050
:102BA00007A81B90CDF870D00EA8FEF74DF90121B3
:102BB0000620FEF72FF91DB000BD000008B5012169
:102BC0004FF4B470FFF766F94CF23370ADF80000C3
:102BD00018208DF8030003208DF80200694618487C
:102BE000FEF7A5F94FF68070ADF8000018208DF8BB
:102BF000030003208DF8020069461248FEF797F99A
:102C000041F20100ADF8000018208DF80300032008
:102C10008DF8020069460C48FEF789F90120ADF8ED
:102C2000000010208DF8030003208DF80200694693
:102C30000648FEF77CF901200549086008BD000040
:102C4000001401400018014000200140000C014028
:102C50008081214210B5FFF7B1FFFFF76FFF3220EF
:102C600001F0BCFBD020FEF731FFFEF73BFE8949A7
:102C70008880FEF737FE874988800846818886A0CD
:102C800000F0CEFC1120FEF721FF4FF4FA7401E0B2
:102C9000601E84B2002CFBDCB920FEF717FFFF207A
:102CA000FEF71AFF8320FEF717FF5720FEF714FFE9
:102CB0004FF4FA7401E0601E84B2002CFBDCB120FA
:102CC000FEF704FF0020FEF707FF1420FEF704FFC5
:102CD0001C20FEF701FF1C20FEF7FEFEC320FEF7BE
:102CE000FBFE4420FEF7F8FE7020FEF7F5FE4FF4E1
:102CF000FA7401E0601E84B2002CFBDCB420FEF705
:102D0000E5FE2220FEF7E8FE4020FEF7E5FE00206B
:102D1000FEF7E2FE2A20FEF7DFFE2A20FEF7DCFEA9
:102D20002020FEF7D9FE9120FEF7D6FE4FF4FA746C
:102D300001E0601E84B2002CFBDC3620FEF7C6FEEC
:102D40004C20FEF7C9FEC020FEF7C0FE5020FEF763
:102D5000C3FE5020FEF7C0FE0120FEF7BDFE3C2062
:102D6000FEF7BAFEC820FEF7B7FE0820FEF7B4FE55
:102D70000020FEF7B1FE0820FEF7AEFE0420FEF7AD
:102D8000ABFE4FF4FA7401E0601E84B2002CFBDC51
:102D90004FF4FA7401E0601E84B2002CFBDCE020EA
:102DA000FEF794FE0B20FEF797FE1120FEF794FE2F
:102DB0001E20FEF791FE3020FEF78EFE3A20FEF731
:102DC0008BFE4320FEF788FE4E20FEF785FE562040
:102DD000FEF782FE4520FEF77FFE3F20FEF77CFED9
:102DE0003920FEF779FE3220FEF776FE2F20FEF71F
:102DF00073FE2A20FEF770FE2920FEF76DFE2120CB
:102E0000FEF76AFE0B20FEF767FE1120FEF764FE58
:102E10001E20FEF761FE3020FEF75EFE3A20FEF730
:102E20005BFE4320FEF758FE4E20FEF755FE56206F
:102E3000FEF752FE4520FEF74FFE3F20FEF74CFE08
:102E40003920FEF749FE3220FEF746FE2F20FEF71E
:102E500043FE2A20FEF740FE2920FEF73DFE2120FA
:102E6000FEF73AFE0020FEF737FE0120FEF734FEA3
:102E70003A20FEF72BFE0520FEF72EFE2920FEF756
:102E800025FE0020FEF7CEFC4FF6FF70FEF7A6FCF5
:102E900010BD000020000020204C43442049443A4B
:102EA00025780D0A0000000010B50121084800F047
:102EB00078F838B10748006808B9012000E0002020
:102EC000044908600121024800F05CF810BD0000D0
:102ED000000800409401234210B50121094800F088
:102EE00060F868B10848008840F40040064908804E
:102EF0000121044800F046F80021024800F045F89E
:102F000010BD0000001400403A0000207FB50546C7
:102F10000C4601212020FEF79DFFADF80450ADF8CE
:102F200000400020ADF80600ADF8020069460E48EA
:102F300000F0B0F8012211460B4800F043F80121DF
:102F4000094800F022F837208DF80C0000208DF899
:102F50000D0002208DF80E0001208DF80F0003A84F
:102F6000FEF760FE7FBD00000014004021B1028822
:102F700042F08002028004E002884FF67F731A401C
:102F800002807047CA430282704721B1028842F032
:102F90000102028004E002884FF6FE731A400280AC
:102FA000704730B50246002000230024158A05EA48
:102FB0000103958905EA010413B10CB1012000E079
:102FC000002030BD1AB183890B43838102E08389DD
:102FD0008B4383817047000070B5002400220023DA
:102FE000058C4FF6FF6635400584028C8388848B00
:102FF0004FF68F752C404FF6FC752C400D882C43F6
:103000004FF6FF552A400D894FF6FF7606EA052553
:103010002A434D8806EA05252A43154DA84202D0C9
:10302000144DA8421DD14FF2FF752A404D894FF62D
:10303000FF7606EA05252A434FF6FF352A408D889C
:1030400006EA05252A434EF6FF752B404DF6FF751F
:103050002B408D8906EA05152B43CD8906EA051517
:103060002B4383808483CD888587028470BD0000D4
:10307000002C0140003401400A460021818B4FF6AC
:10308000F7731940114381837047818770478184AA
:1030900070470000002202881D4B98420ED01D4B45
:1030A00098420BD0B0F1804F08D01B4B984205D00E
:1030B0001A4B984202D01A4B984204D14FF68F73A4
:1030C0001A404B881A43174B984207D0164B984228
:1030D00004D04FF6FF431A40CB881A4302808B88F6
:1030E00083850B8803850A4B98420BD0094B984285
:1030F00008D00E4B984205D00D4B984202D00D4B94
:10310000984201D10B7A0386012383827047000025
:10311000002C014000340140000400400008004041
:10312000000C00400010004000140040004001402E
:10313000004401400048014010B540F225511D48AF
:1031400000F0A7F910B31B4800F05EFAC4B21A48A9
:10315000008800F40040C8B91748008800F4804097
:1031600060B10A2C03D000201349088020E01248E7
:10317000008840F400401049088019E00D2C06D169
:103180000D48008840F480400B49088010E00A4850
:103190000088C0F30D0009490C5407480088401C02
:1031A0000549088008460088C72801DD00200880FE
:1031B00010BD000000380140400000201A0500202A
:1031C00010B586B0044601210420FEF763FE0121FC
:1031D0008803FEF75FFE4FF40070ADF81400032083
:1031E0008DF8160018208DF8170005A91E48FDF768
:1031F0009EFE4FF48060ADF8140004208DF8170097
:1032000005A91948FDF793FE01940020ADF80800C8
:10321000ADF80A00ADF80C00ADF810000C20ADF8C8
:103220000E0001A9114800F083F901210F4800F0B8
:10323000C8F840210D4800F0BBF8012240F22551AA
:103240000A4800F050F925208DF8000003208DF881
:1032500001008DF8020001208DF803006846FEF79A
:10326000E1FC06B010BD000000080140003801403C
:1032700010B540F22551164800F00BF9F8B114488A
:1032800000F0C2F9C4B21348008800F40040B0B99D
:1032900010480088B0F5167F12DA00210E48FFF7BB
:1032A000F6FE0C48008818B901210B48FFF76DFEA7
:1032B00008490888411C074A118008490C5405E058
:1032C0000448008840F400400249088010BD000016
:1032D000004800403A000020001400406A0000202E
:1032E00010B586B0044601210820FEF7D3FD012168
:1032F0008804FEF7AFFD2A4800F070F84FF48060B4
:10330000ADF8100003208DF8120018208DF813007E
:1033100004A92448FDF70BFE4FF40060ADF810003F
:1033200004208DF8130004A91E48FDF700FE009448
:103330000020ADF80400ADF80600ADF80800ADF8C7
:103340000C000C20ADF80A006946154800F0F0F8B2
:103350000121134800F035F8012240F225511048B0
:1033600000F0C1F827208DF8140002208DF8150018
:1033700003208DF8160001208DF8170005A8FEF730
:1033800051FC41F61F416320FFF7C0FD00200649B4
:10339000088000210548FFF7F8FD06B010BD0000C9
:1033A00000480040000C01403A000020001400409A
:1033B00001F40072B2F5007F00D100BFCA43028061
:1033C000704721B1828942F40052828104E08289EF
:1033D0004DF6FF731A4082817047000010B5044615
:1033E0002048844209D101218803FEF763FD0021B2
:1033F0004FF48040FEF75EFD32E01B48844209D165
:1034000001214804FEF736FD00214FF40030FEF79D
:1034100031FD25E01548844209D101218804FEF7D9
:1034200029FD00214FF48020FEF724FD18E010480C
:10343000844209D10121C804FEF71CFD00214FF48C
:103440000020FEF717FD0BE00A48844208D1012155
:103450000805FEF70FFD00214FF48010FEF70AFD6E
:1034600010BD00000038014000440040004800400A
:10347000004C00400050004002460020B1F5007FA3
:1034800000D100BF13880B400BB1012000E00020E9
:10349000704770B50246002400230025002040F646
:1034A0006A16B14200D100BFC1F3421501F01F03FB
:1034B000012606FA03F3012D02D19689334006E076
:1034C000022D02D1168A334001E0968A33400C1255
:1034D000012606FA04F41688344013B10CB1012019
:1034E00000E0002070BDF0B5034600240026002552
:1034F000002040F66A17B94200D100BF1846C1F358
:10350000421401F01F06012707FA06F5012C01D12C
:103510000C3004E0022C01D1103000E014301AB15C
:1035200007682F43076002E00768AF430760F0BDFC
:103530002DE9F04786B005460E460024A24600BF9E
:10354000A1460027B08900B100BF2F462C8A4CF657
:10355000FF700440F08804432C82AC894EF6F310CF
:103560000440B08831890843718908430443AC8121
:10357000AC8A4FF6FF400440B0890443AC8201A8F6
:10358000FEF7AEFC1F48874202D1DDF810A001E033
:10359000DDF80CA0A88900F4004040B10AEBCA0095
:1035A00000EB0A1031684900B0FBF1F807E00AEBC4
:1035B000CA0000EB0A1031688900B0FBF1F8642002
:1035C000B8FBF0F004012009642101FB1089A889EF
:1035D00000F4004040B1322000EBC900B0FBF1F034
:1035E00000F00700044308E0322000EB09106421DA
:1035F000B0FBF1F000F00F0004432C8106B0BDE8F1
:10360000F08700000038014001468888C0F30800B8
:103610007047C1F308028280704700BFFEE70000D8
:103620000FB4054B10B503A9044A029800F004F941
:1036300010BC5DF814FB0000754400084400002035
:103640000FB4084B10B504A902AA039800F0F4F8CF
:10365000044602A9002000F0B7FE204610BC5DF829
:1036600014FB0000C943000837B514460846064B52
:103670006A46214600F0E8FA04466946002000F058
:10368000A8FE20463EBD0000D34300080048704716
:103690004800002002E008C8121F08C1002AFAD121
:1036A00070477047002001E001C1121F002AFBD1C2
:1036B000704700002DE9FF5F82B00021DDE9043092
:1036C000020DDDF840B0034318D044F61050A2F2CA
:1036D000FF3242431514119801281FD0A5EB0B00AF
:1036E000401C5FEA000A4FF000064E4FDFF83891A9
:1036F000B046504615D5CAF1000413E011980124D4
:103700004AA3012801D16FEA0B010298119AC0E97E
:103710000031C0E9024206B0BDE8F09FCBF10000E5
:10372000DFE704460021404A491842EB0450CDE946
:10373000001012E0E00707D032463B4640464946BB
:10374000FCF743FD8046894632463B461046194603
:10375000FCF73BFD06460F466410002CEAD1DDE97C
:103760000401DDE90023BAF1000F06DAFCF72DFDB4
:1037700042464B46FCF729FD05E0FCF72BFF42468D
:103780004B46FCF727FF04460E460022284BFCF769
:10379000A9FF03D84FF0FF30014607E00022254B78
:1037A00020463146FCF76FFEFCF783FF102409E04A
:1037B000002C0ADB0A220023FCF78FFD039B30322A
:1037C0001A55641E50EA0102F2D1641C039AC4F136
:1037D00011031444119A012A03D0012208430DD188
:1037E0000AE0084304D000204FF0110B119072E75B
:1037F000A3EB0B056D1E0DE05B4504DD4FF00002F1
:1038000005F1010504E003DA4FF00002A5F101051E
:10381000002AECD002981199C0E90231C0E90045B4
:1038200079E70000000014400000F03F3000000085
:103830000000F0430000E03F2DE9FF4F8DB00F4640
:103840000546002606E025280BD0DDE90F1290473B
:103850006D1C761C28780028F5D111B03046BDE8E3
:10386000F08F0024A246A1460122EC4900E0044367
:1038700015F8013F203B02FA03F00842F7D12878FF
:103880002A2810D06FF02F022878A0F130010929E2
:1038900014D80AEB8A0102EB410144F0020400EB68
:1038A000010A6D1CF0E701CF5FEA000A03D544F47A
:1038B0000054CAF1000A44F002046D1C28782E2836
:1038C00017D115F8010F44F004042A280ED06FF028
:1038D0002F022878A0F1300109290AD809EB8901C3
:1038E00002EB410100EB01096D1CF2E757F8049B64
:1038F0006D1C28786C280FD006DC4C2817D068285F
:103900000DD06A2814D104E0742810D07A280FD181
:103910000DE044F400140AE044F4801401E044F49F
:1039200040146978814202D104F580146D1C6D1C2D
:103930002A786E2A1FD00CDC632A31D004DC002ADE
:103940008BD0582A11D1A3E0642A68D0692A0CD1FF
:1039500065E0732A2ED004DC6F2A73D0702A04D15C
:103960009BE0752A6FD0782A6ED01046DDE90F12E1
:103970009047761C50E1C4F30250022806D0032879
:1039800009D0042801CF09D0066045E101CFF11725
:10399000C0E9006140E101CF06803DE106703BE1F6
:1039A00017F8040B8DF8000000208DF80100EB469D
:1039B000012003E057F804BB4FF0FF3061074FF0E0
:1039C000000102D40DE008F10101884649450FDAF3
:1039D0008045F8DB1BF808100029F4D108E008F155
:1039E000010188468142FADB1BF808100029F6D154
:1039F000DDE90F23AAEB08008146214600F0B6FC62
:103A0000304400EB080604E0DDE90F121BF8010B5F
:103A10009047B8F10108F7D221464846F7E00A215D
:103A2000C4F302534FF0000B0891022B04D001CFD6
:103A3000C117032B09D00AE0FF1D27F00707F7E89D
:103A4000020108E032E01FE020E000B2C117042BC1
:103A500001D140B2C117031E71F1000307DA4FF024
:103A6000000CD0EB0C006CEB01012D2302E02305D0
:103A700004D52B238DF82430012303E0E30701D084
:103A80002023F7E7984658E00A2110E010210EE0C5
:103A900010204FF0000B08900CE010214FF0000BAD
:103AA00044F004044FF00809089103E008214FF0A6
:103AB000000B0891C4F30253022B04D001CF002164
:103AC000032B06D006E0FF1D27F00707F7E80201E9
:103AD00003E080B2042B00D1C0B24FF000082307EE
:103AE0002BD5702A07D0DDF820C08CF0100C5CEAD2
:103AF0000B0C05D00EE040238DF82430012308E0A4
:103B000050EA010306D030238DF824308DF82520AB
:103B100002239846DDF820C08CF0080C5CEA0B0C00
:103B20000BD150EA010301D1630706D530238DF88C
:103B300024304FF00108A9F10109582A04D038A215
:103B40000B9208AA0A920BE03AA2F9E75B46089AA0
:103B5000FCF7C3FB0B9B9B5C0A9A521E0A921370E4
:103B600050EA0102F2D10A98ADEB000000F1200BFF
:103B7000600702D524F4803401E04FF00109D945F3
:103B800002DDA9EB0B0000E0002000EB0B0141443B
:103B90000890AAEB010AE00306D4DDE90F232146D1
:103BA000504600F0E3FB06444FF0000908E009A985
:103BB00011F80900DDE90F12904709F10109761C9F
:103BC000C145F4DBE0030CD5DDE90F232146504667
:103BD00000F0CCFB064404E0DDE90F1230209047F2
:103BE000761C0899481E08900029F5DC08E00A9820
:103BF0000A990078491C0A91DDE90F129047761C5A
:103C0000BBF10001ABF1010BF1DC21465046DDE9CF
:103C10000F2300F087FB06446D1C1BE609280100FA
:103C20003031323334353637383961626364656632
:103C300000000000303132333435363738394142F4
:103C400043444546000000002DE9FF4F95B09B46D8
:103C50008946064600250FE2252877D1002427460D
:103C6000F84A0121059400E0044316F8013F203B87
:103C700001FA03F01042F7D130782A2811D06FF002
:103C80002F033078A0F13002092A16D8059A44F0A3
:103C9000020402EB820203EB42021044761C059000
:103CA000EFE759F8042B0592002A03DA504244F456
:103CB0000054059044F00204761C30782E2816D16A
:103CC00016F8010F44F004042A280DD06FF02F02DB
:103CD0003078A0F13003092B09D807EB870302EBFA
:103CE0004303C718761CF3E759F8047B761C307839
:103CF0006C280FD006DC4C2817D068280DD06A2815
:103D000014D104E0742810D07A280FD10DE044F4C7
:103D100000140AE044F4801401E044F44014727882
:103D2000824202D104F58014761C761C3078662815
:103D30000BD013DC582877D009DC002875D0452833
:103D4000F6D04628F4D047281AD19DE118E0632820
:103D500035D0642879D0652812D195E1702873D0C8
:103D600008DC6728F1D069286FD06E280DD06F2845
:103D700006D1B5E073282CD0752875D0782874D07A
:103D80005A46179990476D1C75E1C4F302500228FA
:103D900009D003280DD0D9F8001004280DD00D60EB
:103DA00009F1040967E1D9F80010EA17C1E90052E6
:103DB000F6E7D9F800100D80F2E70D70F0E719F87A
:103DC000041B8DF8001000208DF80100EA46012048
:103DD00003E059F804AB4FF0FF3061074FF00001EA
:103DE00002D40DE008F101018846B9420FDA80459E
:103DF000F8DB1AF808100029F4D108E008F10101F5
:103E000088468142FADB1AF808100029F6D1059895
:103E10005B46A0EB080721463846179A00F0BDFA2A
:103E2000284400EB080507E04DE029E10DE01AF811
:103E3000010B5A4617999047B8F10108F7D25B4633
:103E400021463846179A13E142E00A220092C4F351
:103E500002524FF0000A022A08D059F804CB032A74
:103E60004FEAEC710AD00DE029E02AE009F10701E0
:103E700021F00702F2E802C1914609E00FFA8CFC3A
:103E80004FEAEC71042A03D14FFA8CFC4FEAEC7133
:103E9000002907DA0A460021DCF1000C61EB02017F
:103EA0002D2202E0220504D52B228DF804200122C8
:103EB00003E0E20701D02022F7E7904659E00A210B
:103EC00002E010220DE010214FF0000A00910BE0FB
:103ED00010224FF0000A44F004040827009203E087
:103EE00008224FF0000A0092C4F30252022A05D0C1
:103EF00059F804CB0021032A08D009E009F1070191
:103F000021F00702F2E802C1914605E01FFA8CFC9D
:103F1000042A01D10CF0FF0C4FF00008220728D52D
:103F2000702806D0009B83F0100353EA0A0305D0E3
:103F30000EE040228DF80420012208E05CEA010234
:103F400006D030228DF804208DF80500022290461C
:103F5000009B83F0080353EA0A030AD15CEA0102DA
:103F600001D1620705D530228DF804204FF00108F9
:103F70007F1E582804D034A003900EA802900DE0B4
:103F800036A0F9E753466046009AFCF7A6F9844646
:103F90000398825C0298401E029002705CEA010065
:103FA000F0D1029806A9081A00F1200A600702D58C
:103FB00024F4803400E00127574502DDA7EB0A0016
:103FC00000E0002000EB0A01009005984144401AEF
:103FD0000590E00306D45B462146179A059800F049
:103FE000DCF90544002706E001A85A46C05D179990
:103FF00090476D1C7F1C4745F6DBE0030CD55B4604
:104000002146179A059800F0C8F9054404E03020CD
:104010005A46179990476D1C0099481E0090002938
:10402000F5DC08E0029802995A460078491C029192
:10403000179990476D1CBAF10001AAF1010AF1DC51
:1040400065E100000928010030313233343536375C
:1040500038396162636465660000000030313233D4
:104060003435363738394142434445460000000074
:1040700000F06AF90544761C307800287FF4ECAD36
:1040800019B02846BDE8F08F620700D4062709F171
:10409000070222F0070CFCE80223E14603F0004887
:1040A0005FEA080C02D00FF2702C0DE05FEA045CAE
:1040B00002D50FF2682C07E05FEAC47C02D00FF251
:1040C000602C01E0AFF2700C4FF0FF3823F000439A
:1040D000CDF850C065280CD006DC452809D046280C
:1040E0001DD047283DD13DE0662818D067287ED1F5
:1040F00038E00021112F01DB112000E0781CCDE910
:10410000000106A90EA8FFF7D5FADDE90F010E9A06
:1041100003910021009207F1010A04914DE04FF054
:1041200000400097CDE9011006A90EA8FFF7C2FADA
:10413000DDE90F0203920E9B11990022DDF80CA01D
:104140000093049211B9791C00EB010AB7EB0A0045
:1041500004D4C0F1FF3007F1010A0490AAEB070074
:10416000019044E0012F00DA01270021112F01DD29
:10417000112000E03846CDE9000106A90EA8FFF79E
:1041800099FADDE90F010E9A039100210491009242
:10419000BA4621070CD40399514500DA8A46BAF190
:1041A000010F05DD009AAAF10101515C302908D008
:1041B000B84202DA10F1040F06DA0121CDE901104C
:1041C00015E0AAF10101E9E7002805DC04990144A2
:1041D0000491AAEB000102E0411C514500DD8A4632
:1041E0000499401A401C01904FF0004002902007B3
:1041F00004D40198504501DBCDF8048000208DF8EF
:104200004F0002980DF14F07B0F1004F25D02B2041
:104210000E9002984FF0020800280CDA40420290FB
:104220002D200E9007E00A210298FCF740F830316B
:10423000029007F8011DB8F10001A8F10108F2DCB5
:1042400002980028EFD1791E0E980870307800F09F
:10425000200040F0450007F8020D12A8C01B00F135
:1042600007081498007800B1012000EB0A010198BA
:1042700001EBE07105984144401A401E0590E003AF
:1042800006D45B462146179A059800F086F8054447
:104290001498007818B15A46179990476D1CE0039E
:1042A00024D55B462146179A059800F076F8054418
:1042B0001CE00498002807DBDDE90301884203DDE8
:1042C0000098405C179901E0179930205A469047B2
:1042D000049805F10105401C04900198401E0190CE
:1042E00004D12E205A46179990476D1CBAF100014F
:1042F000AAF1010ADDDC05E017F8010B5A4617990F
:1043000090476D1CB8F10001A8F10108F4DC5B4690
:104310002146179A0598ABE62D0000002B000000FF
:10432000200000002DE9F041044600251E461746F6
:10433000880404D405E039462020B0476D1C641E73
:10434000F9D52846BDE8F0812DE9F0410446002565
:104350001E461746880404D405E039462020B0479D
:104360006D1C641EF9D52846BDE8F0812DE9F041A9
:10437000044600251E469046C80301D5302700E0BC
:104380002027880404D505E041463846B0476D1C17
:10439000641EF9D52846BDE8F0812DE9F0410446B8
:1043A00000251E469046C80301D5302700E020278F
:1043B000880404D505E041463846B0476D1C641EAC
:1043C000F9D52846BDE8F0810A68531C0B601070CF
:1043D00070470A68531C0B60107070470146114A01
:1043E00012884A434FF0E0235A6100229A611A462C
:1043F000126942F001021A6100BF4FF0E022106919
:1044000000F001021AB100F48032002AF5D04FF01A
:10441000E022126922F001024FF0E0231A6100222B
:104420009A6170473E0000200146114A12784A43C3
:104430004FF0E0235A6100229A611A46126942F055
:1044400001021A6100BF4FF0E022106900F0010282
:104450001AB100F48032002AF5D04FF0E022126940
:1044600022F001024FF0E0231A6100229A617047A6
:104470003C00002070B504460D46E1B20548FFF748
:10448000C8F800BF80210348FEF7F6FF0028F9D0E6
:10449000204670BD003801408CB000200B900A907F
:1044A000804600240025002600274820FEF7F8FA61
:1044B0004FF4A060FDF7EEFB4FF4E130FEF780FE15
:1044C000FEF7C8FB4FF6FF70FDF788F90020E649BC
:1044D0000880FCF7B9FBFDF751FBFDF7D1FEFDF7B6
:1044E000CBFDFDF70DF9FDF705FBFCF79DFADFA00D
:1044F00018210B46C822CDE900103C210846FDF7E3
:10450000B1FA4FF47A70FFF769FF4FF6FF70FDF7CD
:1045100065F90AA90BA8FCF7ECFBFDF711FB804637
:1045200042469DF828109DF82C00FEF709F999E104
:10453000D1480078002874D0D0480088002870DD69
:10454000CE480088401ECD490880084600880028D3
:1045500030D1FCF7C9FA0020C7490870C848007874
:1045600038B942469DF828109DF82C00FEF7E8F86F
:1045700015E04FF6FF704FF48A73DC224FF482711E
:1045800000900A20FDF780F9BEA010210B46DC2226
:10459000CDE900104FF482710A20FDF763FABD489F
:1045A0000078012802D1BCA000F0E2F9BAA0FFF720
:1045B00037F836E0B14800880A2190FBF1F201FBA0
:1045C000120070BBAE48007818B1AD4800780128E1
:1045D00027D14FF6FF704FF48A73DC224FF48271BB
:1045E00000900A20FDF750F9A44800880A2190FBAA
:1045F000F1F201FB1209A148008890FBF1FA4B4649
:104600005246AAA102A8FFF71BF802A810210B46E8
:10461000DC22CDE900104FF482710A20FDF722FA66
:1046200000BF0020FDF78AF80446042C42D19448CC
:104630000078002830D1FCF7FDFE07462FB9012095
:104640008F490870FDF7A0FF34E0022F0BD14FF621
:10465000FF70FDF7C3F842469DF828109DF82C0026
:10466000FEF76EF826E097A010210B46DC22CDE97C
:104670000010E6210A20FDF7F5F94FF47A70FFF7F4
:10468000ADFE97A010210B46DC22CDE90010E621FB
:104690000A20FDF7E7F90DE00020794908704FF690
:1046A000FF70FDF79BF842469DF828109DF82C00FE
:1046B000FEF746F872480078B0BB012C09D1FCF730
:1046C00027FA42469DF828109DF82C00FEF738F88E
:1046D0000AE0032C08D1FCF727FA42469DF828107F
:1046E0009DF82C00FEF72CF8FDF7C6FC0AA90BA8D4
:1046F000FCF7FFFA30B942469DF828109DF82C00CF
:10470000FEF71EF8FDF71CFA80460A2095FBF0F133
:1047100000FB1150002806D142469DF828109DF854
:104720002C00FEF70DF898E0FFE7012C1AD1FCF7FA
:10473000F7FC0446FF2C2BD00CB9012000E0002030
:1047400004461CB96CA0FCF7E1FD02E06DA0FCF78B
:10475000DDFDFCF7B3FD6EA0FCF7D8FDC820FFF728
:104760003DFE15E0032C13D16C48007808B90120F8
:1047700000E00020694908700846007840B94FF60B
:10478000FF70B023F022A02100903220FDF77CF8CA
:10479000322095FBF0F100FB115080BB5F480078A0
:1047A00018B35F4802785FA16348FEF749FF62488B
:1047B00010210B46C822CDE90010A0213220FDF7C0
:1047C00051F95D495DA0FEF72BFF5548017855A0D2
:1047D00000F0CEF852480078401C51490870084655
:1047E0000078632801DD00200870FCF7DDFD5548E6
:1047F000006808B9012000E00020524908605248D2
:10480000008800F4004040B34FF6FF704FF4A073EF
:10481000F022C82100900A20FDF736F84A480088A7
:10482000C6B2002049498855314649A0FEF7F8FE36
:1048300046494AA0FEF7F4FE31464448FDF73CFAEB
:10484000424810217723D122CDE90010C8210A2047
:10485000FDF708F900203C4908806420FFF7BEFD01
:10486000681CC5B264E600001C000020537461722D
:1048700074696E672E2E2E000600002004000020B2
:104880000000002042454550206973206E6F77205C
:104890004F4E210001000020424545502069732001
:1048A0006E6F77204F4E210D0A00000042454550A3
:1048B0002077696C6C204F4E20696E2025642E2570
:1048C00064730000425420496E6974204661696C2B
:1048D00065642120202020202020202000000000CE
:1048E0005072657373204B45593220746F20747277
:1048F0007920616761696E0041542B524F4C453DF0
:104900003000000041542B524F4C453D3100000017
:1049100041542B5245534554000000000200002032
:10492000030000205052454849434E20484330354B
:104930002025640D0A0000004C00002025730D0A9C
:1049400000000000948121423A0000206A0000200B
:104950007265636C656E3D25640D0A0055534152C6
:1049600054335F52585F4255463D25730D0A00008F
:104970000FB438B505A800900F48009A0499FEF7C7
:1049800073FE002000900C48FBF7EEFB85B200247C
:104990000DE000BF40210948FEF76EFD0028F9D068
:1049A0000548015D0548FEF734FE601C84B2AC4248
:1049B000EFDB38BC5DF814FBC20200200048004069
:1049C00000000000000000000000000000000000E7
:1049D0003F400000000000000000300040003000B8
:1049E0004000000009000BC03D000BC03D00090065
:1049F00018C024407FE0224031800000180024C00D
:104A00001B000D803240018003801C4027401C8029
:104A1000074000401000600000000000000000009F
:104A20000000000000001F802040402000004020C7
:104A300020401F8000000000090006001F800600C3
:104A400009000000040004003F800400040000008E
:104A500000100060000000000000000004000400DE
:104A600004000400040000000000004000000000FA
:104A700000000000002001C00600380040000000D7
:104A80001F802040204020401F8000000000104078
:104A90003FC000400000000018C0214022402440D8
:104AA0001840000010802040244024401B8000005B
:104AB00002000D0011003FC0014000003C80244076
:104AC00024402440238000001F80244024403440A0
:104AD000038000003000200027C0380020000000C4
:104AE0001B802440244024401B8000001C0022C066
:104AF000224022401F80000000000000084000000B
:104B00000000000000000000046000000000000041
:104B1000000004000A001100208040400900090044
:104B20000900090009000000000040402080110039
:104B30000A00040018002000234024001800000090
:104B40001F802040274029401F400000004007C030
:104B500039000F0001C0004020403FC024402440E5
:104B60001B8000001F80204020402040308000003B
:104B700020403FC0204020401F80000020403FC018
:104B800024402E4030C0000020403FC024402E0072
:104B9000300000000F0010802040224033800200CF
:104BA00020403FC0040004003FC02040204020407F
:104BB0003FC02040204000000060202020203FC057
:104BC0002000200020403FC024400B0030C0204087
:104BD00020403FC020400040004000C03FC03C009B
:104BE00003C03C003FC0000020403FC00C402300F9
:104BF0003FC020001F802040204020401F80000038
:104C000020403FC024402400180000001F802140A5
:104C1000214020E01FA0000020403FC0244026008B
:104C200019C0004018C024402440224031800000B8
:104C3000300020403FC020403000000020003F8076
:104C4000004000403F80200020003E0001C00700DF
:104C500038002000380007C03C0007C038000000C2
:104C6000204039C0060039C02040000020003840F4
:104C700007C0384020000000304021C026403840A6
:104C800020C00000000000007FE040204020000025
:104C9000000070000C000380004000000000402075
:104CA00040207FE0000000000000200040002000C5
:104CB0000000000000100010001000100010001094
:104CC0000000000040000000000000000000028022
:104CD0000540054003C0004020003FC004400440A0
:104CE00003800000000003800440044006400000F0
:104CF00000000380044024403FC0004000000380C7
:104D00000540054003400000000004401FC024404F
:104D100024402000000002E0055005500650042009
:104D200020403FC00440040003C000400000044095
:104D300027C000400000000000100010041027E011
:104D40000000000020403FC00140070004C00440B4
:104D5000204020403FC000400040000007C0040049
:104D600007C0040003C00000044007C00440040062
:104D700003C00040000003800440044003800000A2
:104D8000041007F00450044003800000000003807A
:104D90000440045007F00010044007C00240040023
:104DA00004000000000006400540054004C000006B
:104DB000000004001F800440004000000400078041
:104DC0000040044007C000400400070004C0018008
:104DD00006000400060001C0070001C00600000034
:104DE000044006C0010006C0044000000410071083
:104DF00004E00180060004000000044005C00640F5
:104E0000044000000000000004007BE0402000009F
:104E1000000000000000FFF0000000000000402043
:104E20007BE0040000000000400080004000200003
:104E30002000400000000000000000000000000012
:104E4000000000000000000000001FCC000C00006B
:104E50000000000000000800300060000800300082
:104E600060000000022003FC1E20022003FC1E2024
:104E70000220000000000E1811043FFF10840C787F
:104E8000000000000F0010840F3800C0077818845D
:104E90000078000000780F8410C411240E9800E4FC
:104EA0000084000808006800700000000000000096
:104EB0000000000000000000000007E018182004B7
:104EC00040020000000040022004181807E0000023
:104ED000000000000240024001800FF0018002400B
:104EE000024000000080008000800FF800800080F9
:104EF000008000000001000D000E00000000000016
:104F00000000000000000080008000800080008021
:104F1000008000800000000C000C00000000000079
:104F2000000000000000000600180060018006007C
:104F300018002000000007F00808100410040808FA
:104F400007F000000000080408041FFC000400042F
:104F50000000000000000E0C1014102410441184F6
:104F60000E0C000000000C1810041104110412882B
:104F70000C700000000000E00320042408241FFC43
:104F80000024000000001F981084110411041088F0
:104F900010700000000007F0088811041104188840
:104FA0000070000000001C00100010FC13001C002A
:104FB0001000000000000E381144108410841144C9
:104FC0000E38000000000700088C104410440888C8
:104FD00007F00000000000000000030C030C0000BC
:104FE00000000000000000000001010600000000B9
:104FF00000000000000000800140022004100808AA
:1050000010040000022002200220022002200220C0
:1050100002200000000010040808041002200140D3
:105020000080000000000E001200100C106C1080B8
:105030000F00000003E00C1813E4142417C4082820
:1050400007D000000004003C03C41C40074000E4FB
:10505000001C000410041FFC1104110411040E882C
:105060000070000003E00C18100410041004100875
:105070001C10000010041FFC100410041004080889
:1050800007F0000010041FFC1104110417C41004E1
:105090000818000010041FFC1104110017C01000B4
:1050A0000800000003E00C181004100410441C78E1
:1050B0000040000010041FFC108400800080108459
:1050C0001FFC10040000100410041FFC1004100446
:1050D0000000000000030001100110011FFE10007D
:1050E0001000000010041FFC110403801464181C3D
:1050F0001004000010041FFC10040004000400044D
:10510000000C000010041FFC1F0000FC1F001FFC0F
:105110001004000010041FFC0C04030000E0101831
:105120001FFC100007F00808100410041004080801
:1051300007F0000010041FFC108410801080108005
:105140000F00000007F0081810241024101C080A93
:1051500007F2000010041FFC1104110011C01130EF
:105160000E0C000400000E1C110410841084104466
:105170001C3800001800100010041FFC1004100060
:105180001800000010001FF81004000400041004B0
:105190001FF8100010001E0011E0001C00701380AA
:1051A0001C0010001FC0103C00E01F0000E0103C7D
:1051B0001FC000001004180C163401C001C01634C2
:1051C000180C100410001C00130400FC13041C0035
:1051D000100000000804101C1064108413041C0448
:1051E000101800000000000000007FFE4002400296
:1051F00040020000000030000C0003800060001C32
:105200000003000000004002400240027FFE000058
:1052100000000000000000002000400040004000AE
:105220002000000000010001000100010001000158
:1052300000010001000040004000200000000000CC
:1052400000000000000000980124014401440144D2
:1052500000FC000410001FFC008801040104008809
:1052600000700000000000700088010401040104C7
:10527000008800000000007000880104010411088B
:105280001FFC0004000000F80144014401440144F3
:1052900000C800000000010401040FFC1104110407
:1052A00011001800000000D601290129012901C9B7
:1052B0000106000010041FFC00840100010001042D
:1052C00000FC000400000104190419FC000400049F
:1052D000000000000000000300010101190119FE97
:1052E0000000000010041FFC0024004001B4010C69
:1052F000010400000000100410041FFC000400045E
:1053000000000000010401FC0104010001FC010493
:10531000010000FC010401FC008401000100010403
:1053200000FC0004000000F8010401040104010471
:1053300000F80000010101FF00850104010400885C
:1053400000700000000000700088010401040105E5
:1053500001FF00010104010401FC008401040100BB
:1053600001800000000000CC01240124012401245C
:105370000198000000000100010007F80104010489
:1053800000000000010001F800040004000401080E
:1053900001FC0004010001800170000C001001609C
:1053A0000180010001F0010C003001C00030010C4F
:1053B00001F0010000000104018C00740170018CF7
:1053C00001040000010101810171000E001801605B
:1053D0000180010000000184010C013401440184BA
:1053E000010C0000000000000000000001003EFC75
:1053F000400240020000000000000000FFFF00002B
:10540000000000000000400240023EFC01000000DD
:1054100000000000000060008000800040004000AC
:10542000200020000000000000000000000000003C
:10543000000000000000000000000000000000006C
:10544000000000000000000000000000000000005C
:10545000000000000000000F80380FFE380F803879
:10546000000000000000000000000000000000003C
:1054700000000100000600000C00003800003100B0
:10548000000600000C0000380000300000000000A2
:105490000000000061800067F807F980006180006B
:1054A00061800061800061800067F807F980006119
:1054B0008000000000000000000001C0E003E0F0F8
:1054C0000630080418081FFFFE040E080787F003C3
:1054D00081E000000000000001F000060C00040460
:1054E00008060C7001F9C0000E00003BE000EC184B
:1054F000070808040C180003E00000000001E000A9
:1055000007F003F818041C0804170807E1D003C0CB
:10551000E00023B0003C080020080000100000005C
:105520000000000100003100003200001C000000FB
:10553000000000000000000000000000000000006B
:10554000000000000000000000000000000000005B
:10555000000000007F0001FFC00780F00C00181061
:1055600000042000020000000000002000021000E3
:10557000040C00180780F001FFC0007F000000004D
:10558000000000000000000000000000000000001B
:105590004200006600006600003C0000180003FFA7
:1055A000C0001800003C00006600006600004200D9
:1055B00000000000080000080000080000080000CB
:1055C000080001FFC00008000008000008000008F3
:1055D000000008000000000000010000310000325F
:1055E00000001C000000000000000000000000009F
:1055F000000000000000000000000000080000089B
:105600000000080000080000080000080000080072
:105610000008000008000008000000000000000072
:1056200000000000380000380000380000000000D2
:10563000000000000000000000000000000000006A
:1056400000000000000600001C0000700001800047
:105650000E0000380000C0000700001C00003000F1
:1056600000000000000000007F8001FFE003807068
:1056700006001804000804000806001803807001E2
:10568000FFE0007F8000000000000000000001003B
:105690000801000801000803FFF807FFF8000008F0
:1056A00000000800000800000000000000000001E9
:1056B000C03802C0580400980401180402180404F9
:1056C00018061C1803F81801E0F80000000000009C
:1056D00000000001C0E003C0F00400080408080452
:1056E000080806180803F41801E7F00001E00000BC
:1056F00000000000000000000300000D0000110089
:1057000000610000810803010807FFF80FFFF8009F
:1057100001080001080000000000000000E007FC94
:10572000D0060808061008061008061008061838E3
:10573000060FF00607C00000000000000000000097
:105740003F8001FFE00384300208180410080410B1
:1057500008041008071810030FF00007C00000002D
:1057600000000000000003C0000700000600000663
:1057700000F80607F806180006E00007000006001B
:105780000000000000000001E1E003F7F006341023
:10579000041808041808040C08040C08061618035A
:1057A000F3F001C1E000000000000000F80003FC7D
:1057B0003003063804020804020804020804041036
:1057C0000308F001FFC0007F00000000000000009F
:1057D00000000000000000000000000070380070B1
:1057E00038007038000000000000000000000000D9
:1057F00000000000000000000000000000000000A9
:10580000301A00301C000000000000000000000002
:10581000000000000000000000000008000014006C
:1058200000220000410000808001004002002004AE
:105830000010080008000000000000002100002106
:1058400000002100002100002100002100002100B3
:1058500000210000210000210000000000000000E5
:105860000000080008040010020020010040008031
:105870008000410000220000140000080000000029
:1058800000000003C00004C0000400000800380845
:105890000F380808380810000C300007E00003C07B
:1058A00000000000000000003F8000FFE003807067
:1058B000020F1006708804C088048308047F8802E1
:1058C000C09003012000FE40000008000018000105
:1058D000F8003E0801C20007020007E20000FE00D7
:1058E000001FC80001F80000380000080400080785
:1058F000FFF807FFF804080804080804080804086B
:105900000806180803F41801E7F00001E0000000A1
:10591000000000003F8001FFE003807002001804D7
:105920000008040008040008040010060020078096
:10593000C000000004000807FFF807FFF804000893
:10594000040008040008040018020010038070011D
:10595000FFE0007F8000000004000807FFF807FF59
:10596000F8040808040808040808040808043E08A5
:105970000400080600180100600000000400080789
:10598000FFF807FFF80408080408000408000408EA
:1059900000043E0006000006000001800000000038
:1059A000000000003F8001FFE00380700600180443
:1059B00000080402080402080203F00783F0000252
:1059C0000000020004000807FFF807FFF8040808B9
:1059D000000800000800000800000800040808078C
:1059E000FFF807FFF80400080000000000000400B2
:1059F0000804000804000807FFF807FFF80400087F
:105A0000040008040008000000000000000000007E
:105A1000000600000700000104000104000104006A
:105A20000307FFFE07FFFC04000004000004000061
:105A300004000807FFF807FFF8040C08001800002E
:105A40003E0004C7800503C80600F80400380400BF
:105A50001800000804000807FFF807FFF804000812
:105A6000000008000008000008000008000008000E
:105A7000001800006000000004000807FFF807801D
:105A80000807FC00007FC00003F80007C000780092
:105A900007800807FFF807FFF8040008040008075C
:105AA000FFF807000803C00000E000003800001EF7
:105AB000000007000001C00400F007FFF804000028
:105AC000000000007F8001FFE003807006001804E2
:105AD000000804000806001803003001FFE0007F02
