:020000040800F2
:10000000E809002045010008691D000809150008DD
:10001000651D0008B10B0008A740000800000000A3
:10002000000000000000000000000000392C000863
:10003000790D000800000000FD1D0008C533000810
:100040005F0100085F0100085F010008C529000882
:100050005F0100085F0100085F0100085F01000800
:100060005F0100085F0100085F0100085F010008F0
:100070005F0100085F0100085F0100085F010008E0
:100080005F0100085F0100085F0100085F010008D0
:100090005F0100085F0100085F0100087D0D000896
:1000A0005F0100085F0100085F0100085F010008B0
:1000B0005F0100085F010008713800085F01000857
:1000C0005F0100085F0100085F0100085F01000890
:1000D0005F010008C53B00085F010008FD3C000807
:1000E0005F0100085F0100085F0100085F01000870
:1000F0005F0100085F0100085F0100085F01000860
:100100005F0100085F0100085F0100085F0100084F
:100110005F0100085F0100085F010008A1380008C6
:100120005F0100085F0100085F0100085F0100082F
:10013000DFF80CD000F0EEFA00480047254F000829
:10014000E80900200648804706480047FEE7FEE72A
:10015000FEE7FEE7FEE7FEE7FEE7FEE7FEE7FEE777
:100160000534000831010008421C10F8011B002969
:10017000FBD1801A704710B5002200E0521C835C4E
:100180008C5CA34201D1002BF8D1D8B2E1B2401A65
:1001900010BD30B505460020034600E05B1C9342CD
:1001A00005D2EC5CC85C201A01D1002CF6D130BD20
:1001B00070B5064603F0B0FF046805460A22002128
:1001C000304600F0CBF82C6070BD2DE9FE4F81EA7F
:1001D000030404F0004421F0004100944FF0000BB0
:1001E00023F0004350EA01045ED052EA03045BD0DE
:1001F000C3F30A54C1F30A552C44A4F2F334019416
:10020000A0FB0254C1F3130141F48011C3F31303A3
:1002100043F4801301FB024400FB034E840A970A57
:1002200044EA815447EA8357A4FB076802958D0A84
:1002300005FB07854FEA932C04FB0C542705029D10
:100240004FEA065847EA1637B5EB08056EEB070C80
:10025000870E920E47EA811742EA8312A7FB02013A
:10026000B6EB0B0164EB00042B0D43EA0C335E1874
:1002700044EB1C50DA465146E7FB0201C5F3130478
:100280004FEA0B3343EA14534FEA0432019C43EA2A
:100290000603A4F10C040294009CCDE900B400F024
:1002A000A4F803B0BDE8F08F00200146F9E730B5AF
:1002B0000B46014600202022012409E021FA02F524
:1002C0009D4205D303FA02F5491B04FA02F52844BE
:1002D000151EA2F10102F1DC30BD2DE9F05F0546EB
:1002E000002092469B4688460646814640241BE0F5
:1002F000284641464746224600F020F853465A46D3
:10030000C01A914110D311461846224600F014FA43
:100310002D1A67EB01084F4622460120002100F00C
:100320000BFA17EB00094E41201EA4F10104DFDC9B
:10033000484631462A464346BDE8F09F202A04DB62
:10034000203A21FA02F00021704721FA02F3D0404E
:10035000C2F1200291400843194670472DE9F04749
:1003600091460F4680460446002614F8015B2DB1E5
:1003700000F004FA0068405DC007F6D12B2D02D0D2
:100380002D2D18D0641E4A463946204600F0FAF951
:1003900027B13968A14201D1C7F8008071054FF03B
:1003A00002040BD54042002803DD03F0B5FE0460D3
:1003B000A007BDE8F08746F48066E4E70028F8DA95
:1003C00003F0AAFE04606FF00040F2E710B5141EBF
:1003D00073F1000408DA401C41F1000192185B41FE
:1003E0001A4301D120F0010010BD2DE9F04D9246D5
:1003F0009B4611B1B1FA81F202E0B0FA80F22032EC
:10040000904600F099F904460F4640EA0A0041EA96
:100410000B0153465A46084313D0114653EA0100D4
:1004200019D0C8F140025046FFF788FF05460E4636
:1004300050465946424600F07FF9084305D0012056
:1004400004E020463946BDE8F08D0020054346EA29
:10045000E0762C4337430A986305E40AA0EB0800D2
:100460000022FD0A44EA47540A3002D50020014622
:10047000E9E7010510196941DDE9084500196941FD
:10048000BDE8F04DA2E72DE9FE4F804681EA03006A
:10049000C00F0C46009021F0004123F00045B8EB5E
:1004A0000200A94105D24046214690461C460B4613
:1004B000024623F00040104347D0270DC7F30A003F
:1004C000C3F30A510290401A019040286BDAC3F33B
:1004D000130040F4801B0098924620B10023D2EB19
:1004E000030A63EB0B0B01985946C0F140025046DA
:1004F00000F022F906460D4650465946019A00F092
:100500002AF910EB08006141002487EA115284EABD
:10051000E7731A4340D0009A62B3019A012A4FEA66
:10052000075215DC001B61EB02014FF0004202EAAA
:100530000752CDE90042001C41F5801132462B469E
:10054000FFF753FF03B0BDE8F08F40462146F9E7BF
:10055000001B61EB0201001C41F5801300185B4198
:100560002018A2F5001747EB030140EAD570B61931
:100570006D4111E06D084FEA360645EAC0754FEA55
:100580000752001B61EB0201001C41F58011490874
:100590004FEA30000019514132462B4603B0BDE806
:1005A000F04FFFF713BF0098012240000023D0EB6B
:1005B000020263EBE073009821464FEAE074B8EB67
:1005C000000061EB0401E9E783F000435BE781F0A1
:1005D000004158E72DE9F04D81EA030404F0004B97
:1005E00021F0004514464FF0000A23F0004150EA84
:1005F000050220D054EA01021DD0C5F30A57024675
:10060000C5F31303C1F31300C1F30A5640F4801578
:1006100043F48013A7EB0608101BD64608F2FD38FA
:1006200073EB050002D308F1010801E092185B4169
:10063000B8F1000F03DA00200146BDE8F08D00207C
:100640004FF48011064684460EE0171B73EB050736
:1006500005D3121B63EB050306434CEA010C490862
:100660004FEA300092185B4150EA0107EDD152EA9F
:10067000030012D082EA040083EA0501084305D092
:10068000101BAB4106D20122002306E000224FF0EE
:10069000004302E06FF0010253101AEB06004CEB2E
:1006A000085110EB0A0041EB0B01BDE8F04DFFF7DC
:1006B0008DBEC1F30A52C1F3130140F2FF3341F47E
:1006C00080119A4202DA00200146704740F233431B
:1006D0009A42A2F2334202DC5242FFF72FBE00F0F0
:1006E0002BB8000030B5041E71F1000404DB4FF09C
:1006F0000044404264EB0101141E73F1000405DB69
:100700001C464FF00043524263EB0403994208BF7A
:10071000904230BD064C074D06E0E06840F0010312
:1007200094E8070098471034AC42F6D3FFF704FD75
:100730004C9E00086C9E0008202A04DB203A00FA38
:1007400002F1002070479140C2F1200320FA03F328
:10075000194390407047202A06DBCB17203A41FA14
:1007600002F043EAE07306E041FA02F3D040C2F13E
:100770002002914008431946704700000048704726
:10078000489E00082DE9F05F824600780027154654
:100790008B460AF10104B946302801D09DB113E01F
:1007A00014F8010B0127782803D0582801D045B14F
:1007B0000AE00DB1102D07D10027102514F8010B08
:1007C00002E0082500E00A250026B0460EE005FB01
:1007D000080005FB06F1012701EB10461FFA80F81F
:1007E000B6F5803F00D3B94614F8010B294600F056
:1007F00018F80028EBDABBF1000F05D00FB1641E2A
:1008000000E05446CBF80040B9F1000F06D003F0E9
:1008100083FC02210160C81EBDE8F09F48EA064043
:10082000FAE73A2800D2303820F02002412A01D3DA
:10083000A2F13700884201D34FF0FF30704721B159
:10084000826842F00102826003E0826822F00102C5
:100850008260704710B504461248844208D10121D5
:10086000401501F0F5FE0021601501F0F1FE17E0E2
:100870000D48844208D10121001501F0E9FE002154
:10088000201501F0E5FE0BE00848844208D1012163
:10089000C80301F0DDFE00214FF4004001F0D8FE56
:1008A00010BD00000024014000280140003C014030
:1008B000014600208A6802F004020AB1012000E02B
:1008C000002070470146C86C80B270470246002085
:1008D00013680B400BB1012000E000207047014677
:1008E00000208A6802F008020AB1012000E000201E
:1008F0007047000030B502460020002350680F4CBE
:1009000020400D790C6844EA05242043506090682B
:100910000B4C2040D1E902542C434D7944EA450464
:1009200020439060D06A20F470000C7C641EE4B216
:10093000234340EA0350D06230BD0000FFFEF0FFC9
:10094000FDF7F1FFF0B504460D4600200021092D0A
:1009500011DDE068A5F10A0606EB4607072606FA50
:1009600007F18843A5F10A0606EB460603FA06F1ED
:100970000843E0600CE0206905EB4507072606FA0E
:1009800007F1884305EB450603FA06F108432061A9
:10099000072A0FDA606B561E06EB86071F2606FA3B
:1009A00007F18843561E06EB860605FA06F1084352
:1009B000606322E00D2A0FDA206BD61F06EB860754
:1009C0001F2606FA07F18843D61F06EB860605FAAE
:1009D00006F10843206310E0E06AA2F10D0606EB81
:1009E00086071F2606FA07F18843A2F10D0606EBDB
:1009F000860605FA06F10843E062F0BD816841F021
:100A000008018160704721B1826842F4A0028260CF
:100A100003E0826822F4A00282607047816841F09E
:100A2000040181607047000000B589B001210820F1
:100A300001F0FEFD0121042001F0DAFD4FF4807089
:100A4000ADF8200018208DF8230003208DF8220037
:100A500008A91A4800F0D6FA19480088401E80B24A
:100A6000ADF818004720ADF814000020ADF81A00CA
:100A7000ADF8160005A9134803F052F86020ADF850
:100A800004000120ADF806000020ADF80A00ADF822
:100A90000C0001A90B4802F0E3FF0821094803F00C
:100AA0002FF80121074802F045FF0121054802F017
:100AB00050FF00200449087009B000BD000C01403F
:100AC0002E000020000800403200002010B5002158
:100AD000034803F020F800200249087010BD000010
:100AE000000800403200002010B50648007838B9F0
:100AF00005480188054803F00EF8012001490870F7
:100B000010BD00003200002030000020000800402E
:100B100010B50448007810B9FFF7E6FF01E0FFF7D1
:100B2000D5FF10BD3200002010B50B4800880A38F0
:100B30000A49098888420DDD084800880A300749BB
:100B4000088007480078012804D108460188054834
:100B500002F0E1FF10BD00002E0000203000002058
:100B6000320000200008004010B5012001F080FD97
:100B7000002001F07DFD10BD08B501460020009069
:100B8000034800900098084400900098008808BD31
:100B9000006C004008B500220092044A0092009ABE
:100BA00002440092009A116008BD0000006C0040F1
:100BB00000BFFEE710B5002400F024F804E0601C3C
:100BC000C4B2012004F076F90D48006808B1642C25
:100BD000F5DB642C01DB012010BD002404E0601C67
:100BE000C4B2012004F066F90548006808B9642C15
:100BF000F5DB642C01DB0120EEE70020ECE70000D0
:100C00002C01244208B54FF40060ADF800004820E4
:100C10008DF803006946024800F0F4F908BD0000B1
:100C20000020014008B54FF40060ADF8000010202E
:100C30008DF8030003208DF802006946014800F09A
:100C4000E1F908BD0020014008B50121080201F0CA
:100C5000EFFC4FF40060ADF8000010208DF80300A9
:100C600003208DF802006946064800F0CBF94FF4E6
:100C70000061044800F0A3FA00F068F8FFF79AFF5B
:100C800008BD00000020014010B5002404E0601CF5
:100C9000C4B2012004F00EF90D48006808B1642CBC
:100CA000F5DB002404E0601CC4B2012004F002F96A
:100CB0000748006808B9642CF5DB282004F0FAF82E
:100CC0000348006808B1012010BD0020FCE70000C7
:100CD0002C01244270B50024002506E06006040EB5
:100CE000FFF7D2FF0443681CC5B2082DF6DB20468F
:100CF00070BD7CB505460E4600F028F8FFF75AFF98
:100D0000F8B9002405E0FFF7E5FF0DF80400601CCA
:100D1000C4B2052CF7DB9DF800009DF801100844D3
:100D20009DF8021008449DF8031008449DF8041033
:100D3000884208D19DF8000030709DF802002870AC
:100D400001E001207CBD0020FCE7000010B5FFF7AA
:100D500069FF002006490860142004F085F801208E
:100D60000449C1F8AC011E2004F0A4F810BD000035
:100D7000AC01244200002442704700002DE9F041FC
:100D800000240026002530E04FF400711B4800F0DD
:100D90000DFA012829D100F09FFB0446FA2C00DB54
:100DA00024E0C82C03DBFA2C01DA01260AE03C2CF3
:100DB00003DB5A2C01DA012704E00A2C02DB322C77
:100DC00000DA0027012E0ED10D48006840000C49C2
:100DD00008600846006838440860202D03DB0120C5
:100DE0000849087002E0681CC5B2CDE700BF4FF4A7
:100DF000007000F009F8BDE8F0810000000C01402F
:100E000034000020380000200149086070470000CD
:100E100014040140002123498279002A3AD00A466D
:100E2000126803689A430B461A600A1D1268036829
:100E30009A430B1D1A60027911440A6803681A4329
:100E40000A60184A0832126803689A43154B08333F
:100E50001A601A1D126803689A43124B0C331A6009
:100E60004279102A0ED11A1F126803681A430D4BDB
:100E700008331A601A1D126803681A43094B0C33B1
:100E80001A600DE00749427911440A6803681A4361
:100E90000A6005E0027911440A6803689A430A600F
:100EA000704700000004014051B18200A2F1C0422D
:100EB000126842F001038200A2F1C042136009E00F
:100EC0008200A2F1C0421268034B1A408300A3F1D2
:100ED000C0431A6070470000FEFF0F00D0E9011206
:100EE0001143C26811430269114342691143826987
:100EF0001143C2691143026A1143426A1143826A73
:100F00001143C26A1143026B114302689200A2F1BD
:100F1000C0421160816808290BD101688900A1F1E4
:100F2000C041096841F0400201688900A1F1C04157
:100F30000A60416B0968426B526841EA0211426BD8
:100F4000926841EA0221426B928941EA0241426B76
:100F5000128A41EA0251426B127D41EA0261426B00
:100F6000926911430268521C9200A2F1C0421160C2
:100F7000C16AB1F5804F1BD1816B0968826B5268E1
:100F800041EA0211826B926841EA0221826B128A65
:100F900041EA0251826B127D41EA0261826B9269E1
:100FA000114302689200A2F1C042C2F8041107E0A6
:100FB0006FF0704201688900A1F1C041C1F80421BD
:100FC0007047000030B500228B071C0F0F2303FA77
:100FD00004F20B4B8C1053F824309343084C8D10C3
:100FE00044F8253023468C1053F824308C07240F06
:100FF00000FA04F42343024C8D1044F8253030BD30
:10100000080001402DE9F04102460025002600209D
:1010100000230024002791F803C00CF00F0591F87D
:1010200003C00CF0100CBCF1000F03D091F802C00B
:101030004CEA050591F800C0BCF1000F31D01468EE
:1010400000202BE04FF0010C0CFA00F3B1F800C0C7
:101050000CEA03069E4220D183004FF00F0C0CFADD
:1010600003F7BC4305FA03FC4CEA040491F803C0FF
:10107000BCF1280F06D14FF0010C0CFA00FCC2F8AD
:1010800014C00AE091F803C0BCF1480F05D14FF03D
:10109000010C0CFA00FCC2F810C0401C0828D1D387
:1010A0001460B1F800C0BCF1FF0F34DD54680020BB
:1010B0002EE000F1080C4FF0010808FA0CF3B1F82B
:1010C00000C00CEA03069E4221D183004FF00F0CB2
:1010D0000CFA03F7BC4305FA03FC4CEA040491F84C
:1010E00003C0BCF1280F05D100F1080C08FA0CF878
:1010F000C2F8148091F803C0BCF1480F07D100F189
:10110000080C4FF0010808FA0CF8C2F81080401CD7
:101110000828CED35460BDE8F0810000F0B50A463F
:10112000002300240021002500F00046B6F1004F06
:1011300002D11D4EF16901E01B4E7168C0F30345F9
:1011400083B200F44016B6F5401F08D121F070615B
:10115000154E766826F07066134F7E6012E000F43C
:101160008016B6F5801F06D1032606FA05F4A143C2
:1011700041F0706106E0460D360103FA06F6B14310
:1011800041F0706122B1460D360103FA06F6314393
:1011900000F00046B6F1004F02D1034EF16101E0CC
:1011A000014E7160F0BD00000000014002460020C9
:1011B00093680B400BB1012000E0002070470161F3
:1011C0007047000010B50446072301222146094854
:1011D000FFF7B8FB01210748FFF715FC00BF02210C
:1011E0000448FFF773FB0028F9D00248FFF76AFBB9
:1011F00010BD0000003C014070B50F2631E0012019
:101200001D4908600A2003F02FFE1CA004F01AF903
:1012100000250AE00A2003F027FE1B48008800F49E
:10122000004000B103E0681CC5B2142DF2DB00BF22
:101230000020114908601448008800F4004080B183
:1012400011480088C4B200200F4908800D2C08D135
:101250000E4800782B2804D10C4880793038C4B26D
:1012600004E0301EA6F10101CEB2C8D100BF06B91C
:10127000FF24204670BD00009001214241542B52B2
:101280004F4C453F0D0A00003E0000206E0000203C
:10129000F8B50A2601250121042001F0C9F9E80367
:1012A000ADF8000048208DF8030003208DF80200FF
:1012B00069463048FFF7A6FE1020ADF800008DF813
:1012C000030003208DF8020069462A48FFF79AFEC2
:1012D00010212848FFF773FF01212748FFF71EFF61
:1012E0000120264908602649C1F83C014FF41650F8
:1012F00002F03CFD33E00120204908600A2003F0A1
:10130000B3FD20A004F09EF800201D49C1F8900113
:1013100000240AE01D48008800F4004000B106E007
:10132000052003F0A1FD601CC4B20A2CF2DB00BF53
:101330001648008800F4004088B114480088C5B2FF
:10134000002012490880042D09D1114800784F2847
:1013500005D10F4840784B2801D1002504E0301E0C
:10136000A6F10101CEB2C6D100BF06B901252846BB
:10137000F8BD000000080140000230009001214249
:101380000000214241540D0A000000003E000020F0
:101390006E0000201CB5FFF72FFF01280AD10BA01B
:1013A00010210B46C822CDE900108C210A2000F044
:1013B000FDFB09E008A010210B46C822CDE9001072
:1013C0008C210A2000F0F2FB1CBD0000524F4C455E
:1013D0003A4D617374657200524F4C453A536C61DB
:1013E000766520002DE9F04105460F2730E0012009
:1013F0001D4908600A2003F037FD29461BA004F0B0
:1014000021F800201B49C1F8900100260AE01A4883
:10141000008800F4004000B106E0052003F024FD40
:10142000701CC6B2142EF2DB00BF1348008800F413
:10143000004068B110480088C4B200200E490880FE
:10144000042C05D10D4800784F2801D1002404E078
:10145000381EA7F10101CFB2C9D100BF07B9FF24DF
:101460002046BDE8F08100009001214225730D0A5D
:1014700000000000000021423E0000206E0000201D
:101480001CB50C48006850B10BA010210B46782207
:10149000CDE900108C216E2000F088FB09E00AA045
:1014A00010210B467822CDE900108C216E2000F02F
:1014B0007DFB1CBD3C0121425354413A436F6E6E8B
:1014C00065637465642000005354413A4469736352
:1014D0006F6E6E656374000010B5002408E0601C38
:1014E000C4B2142003F0E6FCFA2C01DB204610BD48
:1014F0004FF400710348FFF759FE0128EFD0204652
:10150000F5E70000000C014000BFFEE71FB5012118
:10151000092001F08DF84FF40070ADF80C00482060
:101520008DF80F0003A91448FFF76CFD0921012075
:10153000FFF748FD4FF40070FFF766FC4FF40070B2
:10154000019000208DF808000C208DF80900012082
:101550008DF80A0001A8FFF75DFC17208DF8000048
:1015600000208DF8010001208DF802008DF80300A5
:10157000684600F0FBFB1FBD000C01407CB56648CF
:101580000078012801D100207CBD64A010210B4609
:10159000C822CDE9001064210A2000F007FB65A0F5
:1015A00010210B46DC22CDE90010E6210A2000F0D4
:1015B000FDFA4FF4FA7003F057FC4FF4165002F0A6
:1015C000D5FB03258BE0002000F05CF90446042CD9
:1015D00015D15EA010210B46C822CDE90010642170
:1015E0000A2000F0E3FA5EA002F060FD03204A4901
:1015F00008704FF4FA7003F037FC0220C4E7FFF7DD
:1016000047FEA8B95EA010210B46C822CDE9001004
:1016100064210A2000F0CAFA5EA002F047FD012012
:101620003D4908704FF4FA7003F01EFC0020ABE750
:101630005BA002F03BFD62A010210B46C822CDE961
:10164000001064210A2000F0B1FA4FF4967003F004
:101650000BFC002000F016F90446042C15D13BA029
:1016600010210B46C822CDE9001064210A2000F0A9
:101670009DFA3BA002F01AFD0320274908704FF4A1
:10168000FA7003F0F1FB02207EE752A010210B4616
:10169000C822CDE9001064210A2000F087FA4FF437
:1016A000967003F0E1FB002000F0ECF80446042CF7
:1016B00015D126A010210B46C822CDE900106421C7
:1016C0000A2000F073FA26A002F0F0FC0320124971
:1016D00008704FF4FA7003F0C7FB022054E7281E8D
:1016E000A5F10101CDB27FF46EAF3FA002F0DEFCA8
:1016F00041A010210B46C822CDE9001064210A2028
:1017000000F054FA0220044908704FF47A7003F094
:10171000ABFB012038E7000001000020496E69742E
:1017200069616C697A696E6720484330352E2E2EC8
:10173000000000004B4559323A43616E63656C20EE
:10174000262052657475726E00000000496E69743F
:101750002043616E63656C65642120202020200099
:101760004843303520496E69742063616E63656C4F
:10177000656420627920757365720D0A00000000AF
:101780004843303520496E6974204F4B212020207A
:101790002020200048433035204F4B210D0A000007
:1017A0004843303520496E6974206661696C656410
:1017B0002C207265747279696E672E2E2E0D0A00C8
:1017C00048433035204572726F722120202020203E
:1017D000200000005265747279696E672E2E2E20EB
:1017E0002020202020000000484330352045727220
:1017F0006F72210D0A0000004843303520496E69A0
:1018000074204661696C6564212000000146CA1796
:1018100001EB92729210A1EB820292B9642091FBCB
:10182000F0F200FB121050B94FF4C87091FBF0F2C7
:1018300000FB121008B9012070470020FCE70120CE
:10184000FAE70020F8E7000008B50121442000F085
:10185000EFFE0120ADF8000028208DF80300694656
:101860000648FFF7CFFB1C20ADF8000048208DF89C
:10187000030069460248FFF7C5FB08BD00080140A8
:101880000018014010B50446012C01D1224908700E
:101890002148007801282AD12048006801280AD070
:1018A0001F48006838B11E48001F006818B11C4866
:1018B00008380068D8B90A2003F0D6FA0020164983
:1018C000087016480068012800D110BD144800684F
:1018D00008B90220F9E71248001F006808B9032080
:1018E000F3E70F4808380068A0B90420EDE70B487B
:1018F000006878B90A48006801280BD10848001F21
:101900000068012806D1064808380068012801D17E
:10191000014908700020D8E7390000200001214269
:101920001001234270B506460F484088401E83B21E
:101930000D480088401E82B20021084600F07CF865
:1019400000240CE0002504E0304600F06FF9681C2C
:1019500085B205484088A842F6DC601C84B2024883
:101960000088A042EEDC70BD2600002000B50246D3
:101970000F4882716AB9362000F04CF94C2000F013
:101980004FF94FF4F0700A4948804FF4A070088076
:101990000CE0362000F03EF92C2000F041F94FF425
:1019A000A070034948804FF4F070088000BD00002B
:1019B0002600002070B504460D4616462B462246EA
:1019C0002946204600F038F8304600F02FF970BD67
:1019D0002DE9F04304460D4616461F46DDF81C80EF
:1019E000B44201DCBD4201DDBDE8F0833B46324636
:1019F0002946204600F020F8301B401C84B2781B9A
:101A0000401C85B20BE0A94602E0404600F00EF90A
:101A1000B9F10000A9F101011FFA81F9F5D1201EE9
:101A2000A4F101018CB2EED100BFDDE701480088CE
:101A3000704700000008006C30B504460D462A20AF
:101A400000F0E8F8201200F0EBF8E0B200F0E8F85F
:101A5000101200F0E5F8D0B200F0E2F82B2000F010
:101A6000D9F8281200F0DCF8E8B200F0D9F8181222
:101A700000F0D6F8D8B200F0D3F82C2000F0CAF865
:101A800030BD00002DE9F84F80460E4617461C4633
:101A9000B3462046E31704EB5373DB1021464FEAAD
:101AA000E47C04EB5C7C4FEAEC0CA4EBCC0CBCF1CA
:101AB000000F02D04FF0010C01E04FF0000C634426
:101AC000224604EBD27C4FEA6C0C03FB0CF3DBB236
:101AD0000093A7F12000C7B2002556E00C2C07D1D7
:101AE00007EB47002B4901EB800010F8059013E04D
:101AF000102C05D1284800EB071010F805900BE0DA
:101B0000182C07D107EBC700244901EB800010F81F
:101B1000059001E0BDE8F88F4FF0000A2FE009F0D2
:101B2000800030B11E48028831464046FFF742FF30
:101B300007E00A9828B91B48028831464046FFF75B
:101B400039FF4FEA49604FEA1069701C86B21648A7
:101B50004088B04200DCDDE7A6EB0B00A0420AD1D2
:101B60005E4608F101001FFA80F80F4800884045E2
:101B700000DCCFE706E00AF1010000F0FF0ABAF14D
:101B8000080FCCDB00BF681CC5B200988542A5DBFE
:101B900000BFBFE79454000808590008F85E000829
:101BA0002200002024000020260000202DE9F84714
:101BB00004460D4690469946DDE9096704F0FF0AA0
:101BC00008EB04001FFA80F809EB05001FFA80F902
:101BD00016E0444502DB5446A81985B24D4500DBAA
:101BE00014E0002000903A78334629462046FFF75B
:101BF00049FF304606EBD07104EB61018CB27F1CCB
:101C000038787E2802DC38782028E2DA00BFBDE888
:101C1000F88700000149088070470000FE07006C4B
:101C200001490880704700000008006C0112024A58
:101C30001180C1B2118070470008006C08B5012105
:101C4000482000F0F5FC2020ADF8000010208DF8B1
:101C5000030003208DF8020069460948FFF7D2F916
:101C600020210748FFF7ABFA2020ADF800006946B5
:101C70000448FFF7C7F920210248FFF7A0FA08BD82
:101C8000000C01400018014070B50024002508E058
:101C90000620FFF797FA0444052003F0E5F8681CD6
:101CA000C5B20A2DF4DB0A20B4FBF0F4B4F57A6F68
:101CB00001D94FF47A642820B4FBF0F0C0F164003D
:101CC000C0B270BD00B587B00121802000F0B0FC2B
:101CD0000121C80300F0ACFC0121C80300F0B8FCEE
:101CE00000214FF4004000F0B3FC4FF48070ADF8D9
:101CF000180000208DF81B0006A91848FFF782F98C
:101D00001748FEF7A7FD002001908DF808008DF818
:101D100009004FF4602003900020049001208DF80A
:101D2000140001A90E48FEF7E5FD01210C48FEF75D
:101D300086FD0B48FEF762FE00BF0948FEF7CFFDA7
:101D40000028FAD10648FEF769FE00BF0448FEF7F6
:101D5000AFFD0028FAD107B000BD0000001C014013
:101D6000003C014000BFFEE77047000070B5002155
:101D700000230F22C47804B3154C246804F4E064F3
:101D8000C4F5E064210AC1F10403CA40447804FAAE
:101D900003F184781440214309010E4C0678A155C3
:101DA000047804F01F050124AC4005786D11AD00E6
:101DB00005F1E025C5F8004109E0047804F01F05AD
:101DC0000124AC40044D0678761145F8264070BDDC
:101DD0000CED00E000E400E080E100E00249014396
:101DE000024A1160704700000000FA050CED00E0A7
:101DF000014908627047000000000E427047000071
:101E00002DE9F0418AB0054688463AA12846FEF7FA
:101E1000B2F918B900203A49086067E039A12846AC
:101E2000FEF7A9F918B90120354908605EE038A12C
:101E30002846FEF7A0F910B9FEF756FE56E037A186
:101E40002846FEF798F910B9FEF740FE4EE006224C
:101E500035A12846FEF79DF9002847D1A81DFEF7B9
:101E6000A7F9C4B2002C40DD04EB840040003049E7
:101E7000088001202F4908702F480078012803D1DD
:101E800021462EA003F0DEFA21462CA002F00EF926
:101E90003348007838BB4FF6FF704FF48A73DC226A
:101EA0004FF4827100900A20FFF792FD20480088CD
:101EB0000A2190FBF1F201FB12061D48008890FBFD
:101EC000F1F733463A4627A102A802F0FFF802A82C
:101ED00010210B46DC22CDE900104FF482710A205C
:101EE000FFF764FE01E000F01DFF00BF0AB0BDE88F
:101EF000F08100002B4C454432204F4E0D0A00006B
:101F0000940123422B4C454432204F46460D0A0093
:101F10002B42454550204F4E0D0A00002B424545AF
:101F200050204F46460D0A002B42454550200000E8
:101F300004000020060000200100002057696C6C9E
:101F4000207475726E206F6E204245455020696E78
:101F5000202564207365636F6E64730D0A000000B2
:101F600000000020424545502077696C6C204F4EA0
:101F700020696E2025642E256473000030B58BB077
:101F8000F5480078002874D0F4480168F4A002F005
:101F90008DF8F2480068F74988424CD10020F64994
:101FA0000860F6A002F082F8F948007808BB4FF606
:101FB000FF704FF4A873DC224FF4A07100900A2048
:101FC000FFF706FDEC48006808B1F2A000E0F2A0BF
:101FD0000246F2A103A802F079F803A810210B46EB
:101FE000DC22CDE900104FF4A0710A20FFF7DEFDDE
:101FF000C9E24FF6FF704FF4A873DC224FF4A071D2
:1020000000900A20FFF7E4FCDB48006808B1E1A07B
:1020100000E0E1A00246E1A103A802F057F803A8FE
:1020200010210B46DC22CDE900104FF4A0710A20EC
:10203000FFF7BCFDA7E2C9480068DB4988424DD1E3
:102040000120CD490860D9A002F030F8D0480078CE
:1020500010BB4FF6FF704FF4A873DC224FF4A07151
:1020600000900A20FFF7B4FCC348006810B1C9A073
:1020700001E08BE2C8A00246C8A103A802F026F83E
:1020800003A810210B46DC22CDE900104FF4A0710B
:102090000A20FFF78BFD76E24FF6FF704FF4A8732E
:1020A000DC224FF4A07100900A20FFF791FCB248A7
:1020B000006808B1B7A000E0B7A00246B7A103A826
:1020C00002F004F803A810210B46DC22CDE9001031
:1020D0004FF4A0710A20FFF769FD54E29F480068A1
:1020E000B849884238D10120B7490870B7A001F03B
:1020F000DDFF4FF6FF704FF48A73DC224FF48271DC
:1021000000900A20FFF764FCB8A010210B46DC22E7
:10211000CDE900104FF482710A20FFF747FD4FF61A
:10212000FF704FF49973DC224FF4917100900A20F4
:10213000FFF74EFCB1480288B1A103A801F0C6FF29
:1021400003A810210B46DC22CDE900104FF4917159
:102150000A20FFF72BFD16E280480068AD4988424F
:102160002AD199480078002895D0A4480088401CBE
:10217000A249088008460188A7A001F097FF4FF602
:10218000FF704FF49973DC224FF4917100900A2094
:10219000FFF71EFC9948028899A103A801F096FF59
:1021A00003A810210B46DC22CDE900104FF49171F9
:1021B0000A20FFF7FBFCE6E168480068A149884275
:1021C0002ED181480078002887D08C4800880028CC
:1021D000C1DD8A480088401E884908800846018879
:1021E00099A001F063FF4FF6FF704FF49973DC2262
:1021F0004FF4917100900A20FFF7EAFB7F480288B4
:102200007FA103A801F062FF03A810210B46DC2286
:10221000CDE900104FF491710A20FFF7C7FCB2E13D
:102220004E480068934988424FD16748007800289B
:1022300091D07248008800288DDD00206249087026
:102240006E48008800EB80004FF6FF7101EA400005
:10225000894908800120894908706848018888A058
:1022600001F024FF4FF6FF704FF48A73DC224FF425
:10227000827100900A20FFF7ABFB7F4800880A219B
:1022800090FBF1F201FB12047B48008890FBF1F512
:1022900023462A4684A103A801F018FF03A81021B1
:1022A0000B46DC22CDE900104FF482710A20FFF7C3
:1022B0007DFC4FF6FF704FF49973DC224FF491715F
:1022C00000900A20FFF784FB5DE1244800687C4908
:1022D00088423FD17B4800887B49098888429EDA42
:1022E0007848008832307749088008460088764967
:1022F0000988884203DD7448008872490880724862
:102300000088704A1288801A81B2704801F001FC7E
:102310006C4801886EA001F0C9FE4FF6FF704FF4C3
:10232000B773DC224FF4AF7100900A20FFF750FB27
:102330006448028870A103A801F0C8FE03A8102118
:102340000B46DC22CDE900104FF4AF710A20FFF7F5
:102350002DFC18E1D8E000003800002034000020F7
:10236000495220436F64653A203078253038580D43
:102370000A000000CF30FF00940123424952204B55
:10238000657920313A204C454432204F4E0D0A00E9
:10239000000000204F4646004F4E00004C4544329E
:1023A0003A20257300000000E718FF004952204B37
:1023B000657920323A204C454432204F46460D0A7A
:1023C00000000000857AFF00070000204952204BE2
:1023D000657920333A2042454550205345545449AD
:1023E0004E47204D4F44450D0A00000042454550E0
:1023F0003A2053455454494E47000000080000203D
:1024000044656C61793A202564207365636F6E645E
:1024100073000000EF10FF004952204B6579203413
:102420003A20496E6372656173652064656C6179F9
:1024300020746F202564207365636F6E64730D0ACA
:1024400000000000C738FF004952204B6579203555
:102450003A2044656372656173652064656C6179D7
:1024600020746F202564207365636F6E64730D0A9A
:1024700000000000A55AFF00040000200600002014
:102480004952204B657920363A205374617274208A
:10249000636F756E74646F776E2025642073656357
:1024A0006F6E64730D0A0000424545503A20434F59
:1024B000554E54444F574E2025642E25647300001A
:1024C000BD42FF000A0000200C0000200004004074
:1024D0004952204B657920373A20496E6372656115
:1024E0007365206D6F746F7220706F7765722074E2
:1024F0006F2025640D0A00004D6F746F7220506FBD
:102500007765723A20256400214800682149884295
:1025100039D121480088002835DD1F48008832382D
:102520001D49088008460088002801DA002008803C
:102530001A480088184A1288801A81B2184801F097
:10254000E8FA1548018817A001F0B0FD4FF6FF70BA
:102550004FF4B773DC224FF4AF7100900A20FFF7FD
:1025600037FA0D480288AFF2700103A801F0AEFD02
:1025700003A810210B46DC22CDE900104FF4AF7107
:102580000A20FFF713FB0020104908700BB030BD84
:1025900034000020B54AFF000A0000200C00002093
:1025A000000400404952204B657920383A204465A8
:1025B000637265617365206D6F746F7220706F77E1
:1025C000657220746F2025640D0A00003800002019
:1025D00029B1064A52690243044B5A6104E0034A96
:1025E00052698243014B5A6170470000001002405B
:1025F00029B1064AD2690243044BDA6104E0034A76
:10260000D2698243014BDA6170470000001002403A
:1026100029B1064A12690243044B1A6104E0034AD5
:1026200012698243014B1A6170470000001002409A
:1026300029B1064A92690243044B9A6104E0034AB5
:1026400092698243014B9A6170470000001002407A
:1026500029B1064AD2680243044BDA6004E0034A17
:10266000D2688243014BDA607047000000100240DC
:1026700001490860704700004004424230B5002123
:102680000022002400232D4D6D6805F00C0121B1BE
:10269000042905D0082923D105E0294D056022E051
:1026A000274D05601FE0254D6D6805F47012234D20
:1026B0006D6805F48034022505EB92421CB9214D6A
:1026C000554305600BE01D4D6D6805F400351DB1E7
:1026D0001C4D5543056002E0194D5543056002E06D
:1026E000174D056000BF00BF144D6D6805F0F00187
:1026F0000909154D6B5C0568DD4045600F4D6D683F
:1027000005F4E061090A104D6B5C4568DD408560A9
:102710000A4D6D6805F46051C90A0B4D6B5C456844
:10272000DD40C560054D6D6805F44041890B074DDE
:102730006B5CC568B5FBF3F5056130BD0010024068
:1027400000127A0000093D000E0000201E0000204B
:1027500010B501460022002300204A11012A02D1AF
:10276000094C236806E0022A02D1074C236A01E0E3
:10277000054C636A01F01F02012494401C400CB117
:10278000012000E0002010BD0010024000210B4A93
:1027900011700A4A203A82F82010012802D0042839
:1027A00008D103E00121054A117004E00521034A24
:1027B000117000E000BF00BF704700002010024011
:1027C00001490860704700003C0442420249096A1E
:1027D0000143014A11627047001002400249098812
:1027E0008143014A11807047042800400348008853
:1027F00040F01000014908807047000004280040A4
:10280000034800884FF6EF7108400149088070477F
:102810000428004070B500260024002500F07AF856
:1028200006463848B6FBF0F437480088A0423CD052
:1028300035490C8040F2B27510E02846FEF7E6FFFD
:1028400040B1B4F5B77F02D3A4F5B77404E0681CB7
:1028500085B206E0A4F26D14681C85B2B4F5B67FAB
:10286000EBD800BF29488580002516E027498888D5
:10287000FEF7CCFF30B1012D04D11D2C01D31D3C3E
:1028800009E00CE02248405DA04203D82048405DAA
:10289000241A00E003E0681C85B21C2CE6D200BFBD
:1028A000681C1A498871601CC8711648B6FBF0F1A3
:1028B00000FB11644FF46160B4FBF0F01349087041
:1028C0004FF46160B4FBF0F100FB11403C21B0FB20
:1028D000F1F00E4948704FF46160B4FBF0F100FB79
:1028E00011403C21B0FBF1F201FB12000749887056
:1028F0000B46DA799979988800F028F8034908722C
:10290000002070BD805101003C00002064000020C8
:10291000B89D0008002103480188001F008841EA93
:10292000004070471C28004001460020064A1288DB
:102930000A40D0B2044A121F12880A4012B108B1EC
:10294000012000E00020704704280040F0B5034655
:102950000C461546642093FBF0F0C6B2642093FB4E
:10296000F0F700FB1730C1B2132E02DD01F1640055
:10297000C1B20846CF1701EB977701EBA707BAB2B0
:10298000072092FBF0F700FB172082B25719601E58
:10299000DFF82CC01CF80000384482B2CF1701EBDE
:1029A0009777BF10A1EB87071FB9032C01DA501EE0
:1029B00082B2072092FBF0F700FB1720C0B2F0BDF7
:1029C000AC9D000810B50120FFF7AEFF20B101203B
:1029D00009490870FFF71EFF0220FFF7A5FF20B18D
:1029E0000220FFF7FBFEFFF715FF0520FFF7F6FEBD
:1029F00000F006F910BD00003A00002029B1064A97
:102A000012880243044B1A8004E0034A128882436E
:102A1000014B1A8070470000002800401CB50024BC
:102A200001214FF0C050FFF7E3FD0120FFF7E0F96F
:102A30000420FEF7A1F84AF2A001884240D0FEF738
:102A400093F80120FFF7A2FE04E0601CC4B20A2044
:102A500002F00AFA4120FFF77BFE08B9FA2CF4DBFA
:102A6000FA2C01DB01201CBD4FF48070FFF7AEFE95
:102A70000120FFF7A5FE00F0C3F800F0CBF801211C
:102A80000846FFF7BBFF00F0BBF8FFF7AFFE47F6C5
:102A9000FF7000F0A5F800F0B3F8372022211123D1
:102AA0000122CDE900100B2140F2E37000F026F87E
:102AB000FFF7A6FE4AF2A0010420FEF76BF807E03C
:102AC00000F0A8F801210846FFF798FF00F098F8F9
:102AD00000F004F8FFF79EFE0020C4E708B50320CD
:102AE0008DF8000000208DF801008DF80200012013
:102AF0008DF803006846FFF739F908BD2DE9F05F4E
:102B000006460F4690469946DDE90AAB002440F29E
:102B1000B270864203DB40F63300864202DD0120BC
:102B2000BDE8F09F40F2B2750AE02846FEF76EFE5F
:102B300010B12048044401E01F480444681C85B2D9
:102B4000B542F2DB781EC7B2002510E01B48405D9D
:102B500040F2A321484304EBC0143046FEF756FE72
:102B600018B1012D01D116480444681C85B2BD423C
:102B7000ECDBA8F1010040F2A321484304EBC014B0
:102B8000C9EB4910C0EB092004EB0014CAEB0A1092
:102B900004EB80045C4401214FF0C050FFF728FD96
:102BA0000120FFF725F9204600F00CF800F028F886
:102BB0000020B5E70085E2018033E101B89D0008FF
:102BC0008051010000B50246FFF710FE100C0349CA
:102BD0000880091D0A80FFF713FE00BD1828004079
:102BE00000B50246FFF702FEC2F303400349088026
:102BF000091D0A80FFF704FE00BD00000828004000
:102C000000BF0348008800F020000028F9D070477A
:102C100004280040074800884FF6F771084005492E
:102C2000088000BF0348008800F008000028F9D0A1
:102C30007047000004280040704710B500F002F80B
:102C400010BD00000CB500200190009033480068D2
:102C500040F480303149086000BF3048006800F41B
:102C6000003000900198401C0190009818B901981C
:102C7000B0F5A06FF1D12948006800F4003010B120
:102C80000120009001E0002000900098012843D12D
:102C90002348006840F01000214908600846006899
:102CA00020F0030008600846006840F00200086059
:102CB0001A48406819494860084640684860084614
:102CC000406840F4806048600846406820F47C100A
:102CD00048600846406840F4E810486008460068CC
:102CE00040F08070086000BF0C48006800F0007081
:102CF0000028F9D00948406820F0030007494860DF
:102D00000846406840F00200486000BF0348406841
:102D100000F00C000828F9D10CBD000000100240A2
:102D20000020024030B58BB04FF6FF70FEF7FAFD81
:102D30004FF478404D4908804DA010210B46F022F9
:102D4000CDE900100A210846FEF730FF4AA0102105
:102D50000B46F022CDE900101E210A20FEF726FFC7
:102D600049A010210B46F022CDE9001032210A20A3
:102D7000FEF71CFF49A010210B46D222CDE900101E
:102D80005A210A20FEF712FF4CA010210B46C82240
:102D9000CDE900106E210A20FEF708FF4BA010219C
:102DA0000B46C822CDE90010A0210A20FEF7FEFE46
:102DB00048A010210B46C822CDE90010B4210A20FA
:102DC000FEF7F4FE46A010210B46DC22CDE90010F0
:102DD000E6210A20FEF7EAFE48480078D8B14848C4
:102DE00000880A2190FBF1F201FB1204444800889C
:102DF00090FBF1F523462A4642A103A801F066F9AB
:102E000003A810210B46DC22CDE900104FF482719B
:102E10000A20FEF7CBFE4FF6FF704FF49973DC22C9
:102E20004FF4917100900A20FEF7D2FD3B480068F4
:102E300008B13BA000E03BA002463BA103A801F083
:102E400045F903A810210B46DC22CDE900104FF410
:102E500091710A20FEF7AAFE1F2004490880FEF7A0
:102E600099FAFEF70DFB0BB030BD000022000020E8
:102E70005052454348494E007777772E707265630C
:102E800068696E2E636F6D004254303520426C7558
:102E900065546F6F74682054657374004B45595FB7
:102EA00055503A524F4C452020204B4559313A530A
:102EB000454E442F53544F500000000048433035D6
:102EC000205374616E6462792100000053656E6462
:102ED0003A000000526563656976653A00000000BB
:102EE0005072657373204B45593220746F205365BF
:102EF0006E736F72206D6F64650000000600002025
:102F000004000020424545502077696C6C204F4EEC
:102F100020696E2025642E256473000094012342ED
:102F20004F4646004F4E00004C4544323A20257330
:102F3000000000002DE9F0418CB004460D46164615
:102F40004FF6FF701A23C8220A2100903220FEF7A4
:102F50003FFDC5A010210B469622CDE900100A21A5
:102F60003220FEF723FE4FF6FF704223DC2232218F
:102F700000900A20FEF72CFD2B462246BDA104A896
:102F800001F0A4F804A810210B46DC22CDE90010C2
:102F900032210A20FEF70AFE4FF6FF706023DC2282
:102FA000502100900A20FEF713FD3246B7A104A875
:102FB00001F08CF804A810210B46DC22CDE90010AA
:102FC00050210A20FEF7F2FD4FF6FF707E23DC222F
:102FD0006E2100900A20FEF7FBFC1C2C0ADDAEA03F
:102FE00010210B46DC22CDE900106E210A20FEF7ED
:102FF000DDFD16E00F2C0ADAAAA010210B46DC2218
:10300000CDE900106E210A20FEF7D0FD09E0A9A04D
:1030100010210B46DC22CDE900106E210A20FEF7BC
:10302000C5FD4FF6FF709C23DC228C2100900A2006
:10303000FEF7CEFCA2488078A1494978A04A1278D0
:103040009F4BDB79CDE90032CDE902109C488379B2
:1030500082889CA104A801F039F804A810210B462D
:10306000DC22CDE900108C210A20FEF79FFD4FF6EF
:10307000FF70BA23DC22AA2100900A20FEF7A8FCE8
:103080009848007808B198A000E098A0024698A15E
:1030900004A801F01BF804A810210B46DC22CDE99E
:1030A0000010AA210A20FEF781FD4FF6FF70D823F9
:1030B000DC22C82100900A20FEF78AFC8F48008895
:1030C000642148438E49098890FBF1F73A468DA167
:1030D00004A800F0FBFF04A810210B46DC22CDE978
:1030E0000010C8210A20FEF761FD4FF6FF70F6239D
:1030F000DC22E62100900A20FEF76AFC85A0102160
:103100000B46DC22CDE90010E6210A20FEF74EFD39
:103110004FF6FF704FF48A73DC224FF482710090F7
:103120000A20FEF755FC8148007838B380A01021B2
:103130000B46DC22CDE900104FF482710A20FEF725
:1031400035FD4FF6FF704FF49973DC224FF4917107
:1031500000900A20FEF73CFC7948028879A104A877
:1031600000F0B4FF04A810210B46DC22CDE90010CA
:103170004FF491710A20FEF719FD35E0764800788A
:10318000E0B1764800880A2190FBF1F201FB1207BA
:103190007248008890FBF1F83B46424670A104A8B3
:1031A00000F094FF04A810210B46DC22CDE90010AA
:1031B0004FF482710A20FEF7F9FC15E049480078C7
:1031C00008B149A000E049A0024649A104A800F0C6
:1031D0007DFF04A810210B46DC22CDE900104FF43E
:1031E00082710A20FEF7E2FC4FF6FF704FF4A873DD
:1031F000DC224FF4A07100900A20FEF7E9FB5E4844
:10320000006808B139A000E037A002465BA104A81D
:1032100000F05CFF04A810210B46DC22CDE9001071
:103220004FF4A0710A20FEF7C1FC4FF6FF704FF477
:10323000B773DC224FF4AF7100900A20FEF7C8FB91
:103240005148028851A104A800F040FF04A81021B1
:103250000B46DC22CDE900104FF4AF710A20FEF7D7
:10326000A5FC0CB0BDE8F08153656E736F7220440D
:103270006174610054656D703A20253264432048C2
:10328000756D693A20253264252500004C69676810
:10329000743A2025336400005374617475733A20C6
:1032A000486F74005374617475733A20436F6C6493
:1032B000000000005374617475733A204F4B000096
:1032C00064000020253034642D253032642D2530F3
:1032D000326420253032643A253032643A25303267
:1032E00064000000320000204F4E00004F464600B0
:1032F000424545503A202573000000003000002070
:103300002E000020566F6C756D653A2025642525CA
:10331000000000005072657373204B4559322074D1
:103320006F204254206D6F6465000000070000208C
:10333000424545503A2053455454494E47000000F9
:103340000800002044656C61793A2025642073658B
:10335000636F6E647300000006000020040000200C
:10336000424545503A20434F554E54444F574E2006
:1033700025642E2564730000940123424C45443299
:103380003A202573000000000A0000204D6F746F82
:103390007220506F7765723A20256400042808D1A6
:1033A0004FF0E021096941F004014FF0E022116182
:1033B00007E04FF0E021096921F004014FF0E0221D
:1033C000116170477047000010B504466FF00400AB
:1033D000FFF7E4FFE11704EB5171C1F3C701074A9E
:1033E00011701046007800EB4001C1EBC0104FF6A1
:1033F000FF7101EAC0000249088010BD40000020B2
:103400004200002010B51348006840F00100114947
:10341000086008464068104908400E494860084660
:1034200000680E4908400B4908600846006820F40F
:10343000802008600846406820F4FE0048604FF491
:103440001F008860FFF7F9FB4FF000600449086037
:1034500010BD0000001002400000FFF8FFFFF6FE64
:1034600008ED00E000B59DB001210802FFF7B0F8BB
:1034700001200790002008900F20099000200A905A
:103480000B900C900D90152000900190052002905B
:103490000020039004900590069006200E900020D6
:1034A0000F90109010201190002012901490139003
:1034B000159016904FF480501790002018904FF4FC
:1034C0008040199000201A9007A81B90CDF870D06A
:1034D0000EA8FDF703FD01210620FDF7E5FC1DB058
:1034E00000BD000008B501214FF4B470FFF7A0F84B
:1034F0004CF23370ADF8000018208DF80300032063
:103500008DF8020069461848FDF77CFD4FF6807083
:10351000ADF8000018208DF8030003208DF802009C
:1035200069461248FDF76EFD41F20100ADF800005A
:1035300018208DF8030003208DF8020069460C481E
:10354000FDF760FD0120ADF8000010208DF80300AC
:1035500003208DF8020069460648FDF753FD01205F
:103560000549086008BD0000001401400018014032
:1035700000200140000C01408081214210B5FFF77E
:10358000B1FFFFF76FFF322001F06EFCD020FEF795
:1035900041FBFEF74BFA89498880FEF747FA8749D5
:1035A00088800846818886A000F080FD1120FEF703
:1035B00031FB4FF4FA7401E0601E84B2002CFBDC96
:1035C000B920FEF727FBFF20FEF72AFB8320FEF73A
:1035D00027FB5720FEF724FB4FF4FA7401E0601E2E
:1035E00084B2002CFBDCB120FEF714FB0020FEF7B8
:1035F00017FB1420FEF714FB1C20FEF711FB1C2008
:10360000FEF70EFBC320FEF70BFB4420FEF708FB82
:103610007020FEF705FB4FF4FA7401E0601E84B2DF
:10362000002CFBDCB420FEF7F5FA2220FEF7F8FAB6
:103630004020FEF7F5FA0020FEF7F2FA2A20FEF706
:10364000EFFA2A20FEF7ECFA2020FEF7E9FA9120A3
:10365000FEF7E6FA4FF4FA7401E0601E84B2002C23
:10366000FBDC3620FEF7D6FA4C20FEF7D9FAC02054
:10367000FEF7D0FA5020FEF7D3FA5020FEF7D0FA2A
:103680000120FEF7CDFA3C20FEF7CAFAC820FEF76B
:10369000C7FA0820FEF7C4FA0020FEF7C1FA082096
:1036A000FEF7BEFA0420FEF7BBFA4FF4FA7401E00D
:1036B000601E84B2002CFBDC4FF4FA7401E0601E43
:1036C00084B2002CFBDCE020FEF7A4FA0B20FEF70E
:1036D000A7FA1120FEF7A4FA1E20FEF7A1FA302067
:1036E000FEF79EFA3A20FEF79BFA4320FEF798FA7F
:1036F0004E20FEF795FA5620FEF792FA4520FEF787
:103700008FFA3F20FEF78CFA3920FEF789FA322033
:10371000FEF786FA2F20FEF783FA2A20FEF780FABA
:103720002920FEF77DFA2120FEF77AFA0B20FEF71A
:1037300077FA1120FEF774FA1E20FEF771FA302096
:10374000FEF76EFA3A20FEF76BFA4320FEF768FAAE
:103750004E20FEF765FA5620FEF762FA4520FEF786
:103760005FFA3F20FEF75CFA3920FEF759FA322063
:10377000FEF756FA2F20FEF753FA2A20FEF750FAEA
:103780002920FEF74DFA2120FEF74AFA0020FEF725
:1037900047FA0120FEF744FA3A20FEF73BFA0520EB
:1037A000FEF73EFA2920FEF735FA0020FEF7DEF894
:1037B0004FF6FF70FEF7B6F810BD0000260000209F
:1037C000204C43442049443A25780D0A000000006B
:1037D00030B589B005460C4601210820FEF728FFC8
:1037E00001210220FEF704FF01210846FEF720FF19
:1037F0002020ADF8040003208DF8060018208DF875
:10380000070001A91748FDF7FDFB01211648FDF748
:1038100085FCADF81C50ADF818400020ADF81E0036
:10382000ADF81A0006A9114800F07AF96020ADF849
:1038300008000220ADF810000120ADF80A0002A92E
:103840000A4800F0ADF80821084800F0FBF8012113
:10385000064800F06FF80121044800F07AF809B03A
:1038600030BD0000000C014000081A0000040040B8
:1038700010B50121084800F078F838B10748006811
:1038800008B9012000E00020044908600121024835
:1038900000F05CF810BD00000008004094012342D5
:1038A00010B50121094800F060F868B108480088A7
:1038B00040F40040064908800121044800F046F821
:1038C0000021024800F045F810BD0000001400403F
:1038D0003E0000207FB505460C4601212020FEF762
:1038E00087FEADF80450ADF800400020ADF80600AA
:1038F000ADF8020069460E4800F012F901221146A7
:103900000B4800F043F80121094800F022F8372065
:103910008DF80C0000208DF80D0002208DF80E00AF
:1039200001208DF80F0003A8FEF720FA7FBD0000EC
:103930000014004021B1028842F08002028004E0BD
:1039400002884FF67F731A4002807047CA43028292
:10395000704721B1028842F00102028004E002882F
:103960004FF6FE731A400280704730B502460020C1
:1039700000230024158A05EA0103958905EA01045C
:1039800013B10CB1012000E0002030BD1AB18389D1
:103990000B43838102E083898B438381704700005E
:1039A00070B5002400220023058C4FF6EF763540D9
:1039B0000584028C8388048B48F6FF752C404FF6F3
:1039C000FF452C400D884FF6FF7606EA05252C436F
:1039D0004FF6DF752A400D8906EA05152A434D8802
:1039E00006EA05152A43154DA84202D0144DA842F7
:1039F0001DD14FF67F752A404D894FF6FF7606EAB6
:103A000005152A434FF6BF752A408D8806EA05152D
:103A10002A434FF6FF352B404FF2FF752B408D891F
:103A200006EA85052B43CD8906EA85052B4383806D
:103A30000483CD880587028470BD0000002C0140FE
:103A4000003401400A460021018B4FF2FF731940F8
:103A50004FF6FF7303EA0223194301837047000006
:103A600070B5002400220023058C4FF6FF66354018
:103A70000584028C8388848B4FF68F752C404FF61B
:103A8000FC752C400D882C434FF6FF552A400D89BC
:103A90004FF6FF7606EA05252A434D8806EA0525F6
:103AA0002A43154DA84202D0144DA8421DD14FF211
:103AB000FF752A404D894FF6FF7606EA05252A4311
:103AC0004FF6FF352A408D8806EA05252A434EF633
:103AD000FF752B404DF6FF752B408D8906EA0515C5
:103AE0002B43CD8906EA05152B4383808483CD883B
:103AF0008587028470BD0000002C01400034014025
:103B00000A460021818B4FF6F773194011438183D8
:103B10007047018770478187704781847047000034
:103B2000002202881D4B98420ED01D4B98420BD0AC
:103B3000B0F1804F08D01B4B984205D01A4B9842E9
:103B400002D01A4B984204D14FF68F731A404B881B
:103B50001A43174B984207D0164B984204D04FF6A1
:103B6000FF431A40CB881A4302808B8883850B88D9
:103B700003850A4B98420BD0094B984208D00E4B54
:103B8000984205D00D4B984202D00D4B984201D17E
:103B90000B7A03860123838270470000002C0140CA
:103BA000003401400004004000080040000C0040C8
:103BB000001000400014004000400140004401405B
:103BC0000048014010B540F225511D4800F0A7F90A
:103BD00010B31B4800F05EFAC4B21A48008800F423
:103BE0000040C8B91748008800F4804060B10A2C32
:103BF00003D000201349088020E01248008840F4D8
:103C000000401049088019E00D2C06D10D480088AD
:103C100040F480400B49088010E00A480088C0F357
:103C20000D0009490C5407480088401C05490880CC
:103C300008460088C72801DD0020088010BD00006C
:103C400000380140440000201E05002010B586B059
:103C5000044601210420FEF7EBFC01218803FEF756
:103C6000E7FC4FF40070ADF8140003208DF8160047
:103C700018208DF8170005A91E48FDF7C3F94FF469
:103C80008060ADF8140004208DF8170005A91948CC
:103C9000FDF7B8F901940020ADF80800ADF80A006E
:103CA000ADF80C00ADF810000C20ADF80E0001A925
:103CB000114800F083F901210F4800F0C8F84021B5
:103CC0000D4800F0BBF8012240F225510A4800F0EF
:103CD00050F925208DF8000003208DF801008DF8A3
:103CE000020001208DF803006846FEF73FF806B099
:103CF00010BD0000000801400038014010B540F23E
:103D00002551164800F00BF9F8B1144800F0C2F93B
:103D1000C4B21348008800F40040B0B910480088CD
:103D2000B0F5167F12DA00210E48FFF7F6FE0C48B8
:103D3000008818B901210B48FFF70BFE08490888D5
:103D4000411C074A118008490C5405E004480088CA
:103D500040F400400249088010BD000000480040C7
:103D60003E000020001400406E00002010B586B018
:103D7000044601210820FEF75BFC01218804FEF7C0
:103D800037FC2A4800F070F84FF48060ADF810005E
:103D900003208DF8120018208DF8130004A9244880
:103DA000FDF730F94FF40060ADF8100004208DF8F5
:103DB000130004A91E48FDF725F900940020ADF872
:103DC0000400ADF80600ADF80800ADF80C000C20BA
:103DD000ADF80A006946154800F0F0F801211348D3
:103DE00000F035F8012240F22551104800F0C1F8EA
:103DF00027208DF8140002208DF8150003208DF87F
:103E0000160001208DF8170005A8FDF7AFFF41F659
:103E10001F416320FFF75EFD002006490880002156
:103E20000548FFF796FD06B010BD000000480040B1
:103E3000000C01403E0000200014004001F400721C
:103E4000B2F5007F00D100BFCA430280704721B1A4
:103E5000828942F40052828104E082894DF6FF7328
:103E60001A4082817047000010B504462048844201
:103E700009D101218803FEF7EBFB00214FF48040BC
:103E8000FEF7E6FB32E01B48844209D101214804D9
:103E9000FEF7BEFB00214FF40030FEF7B9FB25E032
:103EA0001548844209D101218804FEF7B1FB0021A5
:103EB0004FF48020FEF7ACFB18E01048844209D193
:103EC0000121C804FEF7A4FB00214FF40020FEF7F7
:103ED0009FFB0BE00A48844208D101210805FEF748
:103EE00097FB00214FF48010FEF792FB10BD0000FD
:103EF000003801400044004000480040004C0040B1
:103F00000050004002460020B1F5007F00D100BF04
:103F100013880B400BB1012000E00020704770B502
:103F20000246002400230025002040F66A16B14214
:103F300000D100BFC1F3421501F01F03012606FAAC
:103F400003F3012D02D19689334006E0022D02D100
:103F5000168A334001E0968A33400C12012606FA95
:103F600004F41688344013B10CB1012000E00020A5
:103F700070BDF0B50346002400260025002040F661
:103F80006A17B94200D100BF1846C1F3421401F0CC
:103F90001F06012707FA06F5012C01D10C3004E0B9
:103FA000022C01D1103000E014301AB107682F4301
:103FB000076002E00768AF430760F0BD2DE9F047F6
:103FC00086B005460E460024A24600BFA146002743
:103FD000B08900B100BF2F462C8A4CF6FF70044018
:103FE000F08804432C82AC894EF6F3100440B0886C
:103FF00031890843718908430443AC81AC8A4FF688
:10400000FF400440B0890443AC8201A8FEF736FBB0
:104010001F48874202D1DDF810A001E0DDF80CA0B6
:10402000A88900F4004040B10AEBCA0000EB0A1076
:1040300031684900B0FBF1F807E00AEBCA0000EB79
:104040000A1031688900B0FBF1F86420B8FBF0F089
:1040500004012009642101FB1089A88900F40040B3
:1040600040B1322000EBC900B0FBF1F000F00700D6
:10407000044308E0322000EB09106421B0FBF1F0AA
:1040800000F00F0004432C8106B0BDE8F08700006B
:104090000038014001468888C0F308007047C1F32A
:1040A00008028280704700BFFEE700000FB4054B96
:1040B00010B503A9044A029800F004F910BC5DF899
:1040C00014FB0000014F0008480000200FB4084B0B
:1040D00010B504A902AA039800F0F4F8044602A956
:1040E000002000F0B7FE204610BC5DF814FB000075
:1040F000554E000837B514460846064B6A46214619
:1041000000F0E8FA04466946002000F0A8FE2046C8
:104110003EBD00005F4E0008004870474C00002084
:1041200002E008C8121F08C1002AFAD17047704780
:10413000002001E001C1121F002AFBD170470000DE
:104140002DE9FF5F82B00021DDE90430020DDDF8CA
:1041500040B0034318D044F61050A2F2FF3242435D
:104160001514119801281FD0A5EB0B00401C5FEA25
:10417000000A4FF000064E4FDFF83891B046504627
:1041800015D5CAF1000413E0119801244AA30128AF
:1041900001D16FEA0B010298119AC0E90031C0E920
:1041A000024206B0BDE8F09FCBF10000DFE7044615
:1041B0000021404A491842EB0450CDE9001012E0BA
:1041C000E00707D032463B4640464946FBF7FDFF35
:1041D0008046894632463B4610461946FBF7F5FFB6
:1041E00006460F466410002CEAD1DDE90401DDE942
:1041F0000023BAF1000F06DAFBF7E7FF42464B4611
:10420000FBF7E3FF05E0FCF7E5F942464B46FCF718
:10421000E1F904460E460022284BFCF763FA03D866
:104220004FF0FF30014607E00022254B2046314683
:10423000FCF729F9FCF73DFA102409E0002C0ADB11
:104240000A220023FCF749F8039B30321A55641EFA
:1042500050EA0102F2D1641C039AC4F11103144420
:10426000119A012A03D0012208430DD10AE0084324
:1042700004D000204FF0110B119072E7A3EB0B0557
:104280006D1E0DE05B4504DD4FF0000205F10105F8
:1042900004E003DA4FF00002A5F10105002AECD09A
:1042A00002981199C0E90231C0E9004579E70000A0
:1042B000000014400000F03F300000000000F04318
:1042C0000000E03F2DE9FF4F8DB00F460546002668
:1042D00006E025280BD0DDE90F1290476D1C761CF7
:1042E00028780028F5D111B03046BDE8F08F0024C1
:1042F000A246A1460122EC4900E0044315F8013F23
:10430000203B02FA03F00842F7D128782A2810D07F
:104310006FF02F022878A0F13001092914D80AEB98
:104320008A0102EB410144F0020400EB010A6D1C1A
:10433000F0E701CF5FEA000A03D544F40054CAF164
:10434000000A44F002046D1C28782E2817D115F8B5
:10435000010F44F004042A280ED06FF02F022878B1
:10436000A0F1300109290AD809EB890102EB4101CA
:1043700000EB01096D1CF2E757F8049B6D1C2878CF
:104380006C280FD006DC4C2817D068280DD06A287E
:1043900014D104E0742810D07A280FD10DE044F431
:1043A00000140AE044F4801401E044F440146978F5
:1043B000814202D104F580146D1C6D1C2A786E2A8E
:1043C0001FD00CDC632A31D004DC002A8BD0582AA1
:1043D00011D1A3E0642A68D0692A0CD165E0732A60
:1043E0002ED004DC6F2A73D0702A04D19BE0752A8A
:1043F0006FD0782A6ED01046DDE90F129047761CF8
:1044000050E1C4F30250022806D0032809D0042842
:1044100001CF09D0066045E101CFF117C0E9006185
:1044200040E101CF06803DE106703BE117F8040B47
:104430008DF8000000208DF80100EB46012003E01C
:1044400057F804BB4FF0FF3061074FF0000102D472
:104450000DE008F10101884649450FDA8045F8DB97
:104460001BF808100029F4D108E008F10101884682
:104470008142FADB1BF808100029F6D1DDE90F2391
:10448000AAEB08008146214600F0B6FC304400EB60
:10449000080604E0DDE90F121BF8010B9047B8F1A4
:1044A0000108F7D221464846F7E00A21C4F3025337
:1044B0004FF0000B0891022B04D001CFC117032B42
:1044C00009D00AE0FF1D27F00707F7E8020108E01E
:1044D00032E01FE020E000B2C117042B01D140B24E
:1044E000C117031E71F1000307DA4FF0000CD0EB87
:1044F0000C006CEB01012D2302E0230504D52B23D6
:104500008DF82430012303E0E30701D02023F7E7EF
:10451000984658E00A2110E010210EE010204FF0DC
:10452000000B08900CE010214FF0000B44F0040445
:104530004FF00809089103E008214FF0000B0891A3
:10454000C4F30253022B04D001CF0021032B06D069
:1045500006E0FF1D27F00707F7E8020103E080B23D
:10456000042B00D1C0B24FF0000823072BD5702ACE
:1045700007D0DDF820C08CF0100C5CEA0B0C05D0E5
:104580000EE040238DF82430012308E050EA0103B7
:1045900006D030238DF824308DF82520022398464C
:1045A000DDF820C08CF0080C5CEA0B0C0BD150EA53
:1045B000010301D1630706D530238DF824304FF075
:1045C0000108A9F10109582A04D038A20B9208AABF
:1045D0000A920BE03AA2F9E75B46089AFBF77DFEE8
:1045E0000B9B9B5C0A9A521E0A92137050EA0102BE
:1045F000F2D10A98ADEB000000F1200B600702D564
:1046000024F4803401E04FF00109D94502DDA9EB23
:104610000B0000E0002000EB0B0141440890AAEBE6
:10462000010AE00306D4DDE90F232146504600F0DD
:10463000E3FB06444FF0000908E009A911F809005E
:10464000DDE90F12904709F10109761CC145F4DB41
:10465000E0030CD5DDE90F232146504600F0CCFBEA
:10466000064404E0DDE90F1230209047761C0899DB
:10467000481E08900029F5DC08E00A980A9900789D
:10468000491C0A91DDE90F129047761CBBF100012D
:10469000ABF1010BF1DC21465046DDE90F2300F0C0
:1046A00087FB06446D1C1BE60928010030313233BC
:1046B000343536373839616263646566000000005E
:1046C0003031323334353637383941424344454648
:1046D000000000002DE9FF4F95B09B468946064635
:1046E00000250FE2252877D100242746F84A01212A
:1046F000059400E0044316F8013F203B01FA03F063
:104700001042F7D130782A2811D06FF02F0330787B
:10471000A0F13002092A16D8059A44F0020402EBEF
:10472000820203EB42021044761C0590EFE759F831
:10473000042B0592002A03DA504244F400540590F9
:1047400044F00204761C30782E2816D116F8010F9A
:1047500044F004042A280DD06FF02F023078A0F125
:104760003003092B09D807EB870302EB4303C71873
:10477000761CF3E759F8047B761C30786C280FD050
:1047800006DC4C2817D068280DD06A2814D104E024
:10479000742810D07A280FD10DE044F400140AE0F8
:1047A00044F4801401E044F440147278824202D14F
:1047B00004F58014761C761C307866280BD013DC48
:1047C000582877D009DC002875D04528F6D046282F
:1047D000F4D047281AD19DE118E0632835D0642829
:1047E00079D0652812D195E1702873D008DC67284C
:1047F000F1D069286FD06E280DD06F2806D1B5E0B2
:1048000073282CD0752875D0782874D05A461799FB
:1048100090476D1C75E1C4F30250022809D00328AB
:104820000DD0D9F8001004280DD00D6009F104094D
:1048300067E1D9F80010EA17C1E90052F6E7D9F8A4
:1048400000100D80F2E70D70F0E719F8041B8DF8E9
:10485000001000208DF80100EA46012003E059F81D
:1048600004AB4FF0FF3061074FF0000102D40DE0C0
:1048700008F101018846B9420FDA8045F8DB1AF8E1
:1048800008100029F4D108E008F1010188468142AE
:10489000FADB1AF808100029F6D105985B46A0EB60
:1048A000080721463846179A00F0BDFA284400EB65
:1048B000080507E04DE029E10DE01AF8010B5A4622
:1048C00017999047B8F10108F7D25B462146384660
:1048D000179A13E142E00A220092C4F302524FF009
:1048E000000A022A08D059F804CB032A4FEAEC71D7
:1048F0000AD00DE029E02AE009F1070121F00702C2
:10490000F2E802C1914609E00FFA8CFC4FEAEC7123
:10491000042A03D14FFA8CFC4FEAEC71002907DA24
:104920000A460021DCF1000C61EB02012D2202E0BD
:10493000220504D52B228DF80420012203E0E20792
:1049400001D02022F7E7904659E00A2102E0102228
:104950000DE010214FF0000A00910BE010224FF003
:10496000000A44F004040827009203E008224FF0F4
:10497000000A0092C4F30252022A05D059F804CB6F
:104980000021032A08D009E009F1070121F00702FC
:10499000F2E802C1914605E01FFA8CFC042A01D11D
:1049A0000CF0FF0C4FF00008220728D5702806D025
:1049B000009B83F0100353EA0A0305D00EE0402267
:1049C0008DF80420012208E05CEA010206D03022C2
:1049D0008DF804208DF8050002229046009B83F09C
:1049E000080353EA0A030AD15CEA010201D1620713
:1049F00005D530228DF804204FF001087F1E58287D
:104A000004D034A003900EA802900DE036A0F9E780
:104A100053466046009AFBF760FC84460398825C2C
:104A20000298401E029002705CEA0100F0D10298E8
:104A300006A9081A00F1200A600702D524F4803480
:104A400000E00127574502DDA7EB0A0000E0002047
:104A500000EB0A01009005984144401A0590E003DC
:104A600006D45B462146179A059800F0DCF9054408
:104A7000002706E001A85A46C05D179990476D1CB3
:104A80007F1C4745F6DBE0030CD55B462146179AB1
:104A9000059800F0C8F9054404E030205A461799FB
:104AA00090476D1C0099481E00900029F5DC08E035
:104AB000029802995A460078491C0291179990472A
:104AC0006D1CBAF10001AAF1010AF1DC65E10000F8
:104AD00009280100303132333435363738396162D4
:104AE0006364656600000000303132333435363798
:104AF00038394142434445460000000000F06AF95D
:104B00000544761C307800287FF4ECAD19B02846B7
:104B1000BDE8F08F620700D4062709F1070222F0F2
:104B2000070CFCE80223E14603F000485FEA080CAA
:104B300002D00FF2702C0DE05FEA045C02D50FF298
:104B4000682C07E05FEAC47C02D00FF2602C01E021
:104B5000AFF2700C4FF0FF3823F00043CDF850C097
:104B600065280CD006DC452809D046281DD04728EA
:104B70003DD13DE0662818D067287ED138E000217D
:104B8000112F01DB112000E0781CCDE9000106A9FE
:104B90000EA8FFF7D5FADDE90F010E9A0391002167
:104BA000009207F1010A04914DE04FF00040009798
:104BB000CDE9011006A90EA8FFF7C2FADDE90F0240
:104BC00003920E9B11990022DDF80CA00093049231
:104BD00011B9791C00EB010AB7EB0A0004D4C0F14B
:104BE000FF3007F1010A0490AAEB0700019044E0AE
:104BF000012F00DA01270021112F01DD112000E033
:104C00003846CDE9000106A90EA8FFF799FADDE9BB
:104C10000F010E9A0391002104910092BA462107D8
:104C20000CD40399514500DA8A46BAF1010F05DD2B
:104C3000009AAAF10101515C302908D0B84202DA89
:104C400010F1040F06DA0121CDE9011015E0AAF1F7
:104C50000101E9E7002805DC049901440491AAEB6D
:104C6000000102E0411C514500DD8A460499401ACA
:104C7000401C01904FF000400290200704D401989E
:104C8000504501DBCDF8048000208DF84F000298DC
:104C90000DF14F07B0F1004F25D02B200E90029858
:104CA0004FF0020800280CDA404202902D200E90AE
:104CB00007E00A210298FBF7FAFA3031029007F870
:104CC000011DB8F10001A8F10108F2DC02980028EA
:104CD000EFD1791E0E980870307800F0200040F077
:104CE000450007F8020D12A8C01B00F10708149830
:104CF000007800B1012000EB0A01019801EBE0719E
:104D000005984144401A401E0590E00306D45B46D6
:104D10002146179A059800F086F805441498007803
:104D200018B15A46179990476D1CE00324D55B468D
:104D30002146179A059800F076F805441CE004987F
:104D4000002807DBDDE90301884203DD0098405CB1
:104D5000179901E0179930205A469047049805F1B9
:104D60000105401C04900198401E019004D12E20A2
:104D70005A46179990476D1CBAF10001AAF1010A31
:104D8000DDDC05E017F8010B5A46179990476D1CBA
:104D9000B8F10001A8F10108F4DC5B462146179A3E
:104DA0000598ABE62D0000002B000000200000005D
:104DB0002DE9F041044600251E461746880404D418
:104DC00005E039462020B0476D1C641EF9D5284601
:104DD000BDE8F0812DE9F041044600251E46174646
:104DE000880404D405E039462020B0476D1C641EB9
:104DF000F9D52846BDE8F0812DE9F04104460025AB
:104E00001E469046C80301D5302700E020278804BD
:104E100004D505E041463846B0476D1C641EF9D5FF
:104E20002846BDE8F0812DE9F041044600251E46E4
:104E30009046C80301D5302700E02027880404D518
:104E400005E041463846B0476D1C641EF9D528463A
:104E5000BDE8F0810A68531C0B60107070470A6847
:104E6000531C0B60107070470146114A12884A4368
:104E70004FF0E0235A6100229A611A46126942F00B
:104E800001021A6100BF4FF0E022106900F0010238
:104E90001AB100F48032002AF5D04FF0E0221269F6
:104EA00022F001024FF0E0231A6100229A6170475C
:104EB000420000200146114A12784A434FF0E02395
:104EC0005A6100229A611A46126942F001021A617F
:104ED00000BF4FF0E022106900F001021AB100F4A7
:104EE0008032002AF5D04FF0E022126922F0010250
:104EF0004FF0E0231A6100229A61704740000020C1
:104F000070B504460D46E1B20548FFF7C8F800BF8A
:104F100080210348FEF7F6FF0028F9D0204670BD37
:104F2000003801408CB000200B900A90804600248D
:104F30000025002600274820FEF746FA4FF4A0601F
:104F4000FCF74CFF4FF4E130FEF780FEFEF716FB56
:104F50004FF6FF70FCF7E6FC0020F6490880FBF7EF
:104F600073FEFCF7AFFEFDF759FDFDF753FCFCF7B0
:104F70006BFCFCF763FEFBF757FD4721EE4800880A
:104F8000FEF726FCEC480088EC4A1288801A81B2B1
:104F9000EB48FEF7BEFDFCF7B9FAEAA018210B4674
:104FA000C822CDE900103C210846FCF7FFFD4FF474
:104FB0007A70FFF759FF4FF6FF70FCF7B3FC0AA9B0
:104FC0000BA8FBF796FEFCF75FFE804642469DF875
:104FD00028109DF82C00FDF7ADFFAAE1DC48007811
:104FE000002852D0DB48008800287FDDD94800889F
:104FF000401ED849088008460088002846D1FBF7A3
:1050000073FD0020D2490870D3480078E8B94FF604
:10501000FF704FF48A73DC224FF4827100900A20F3
:10502000FCF7D6FCCDA010210B46DC22CDE9001008
:105030004FF482710A20FCF7B9FD42469DF8281012
:105040009DF82C00FDF776FF15E04FF6FF704FF44A
:105050008A73DC224FF4827100900A20FCF7B8FCBE
:10506000BEA010210B46DC22CDE900104FF4827166
:105070000A20FCF79BFDBC480078012802D1BBA0A8
:1050800000F0E0F9B9A0FFF711F82FE0B14800886F
:105090000A2190FBF1F201FB120038BB4FF6FF70C2
:1050A0004FF48A73DC224FF4827100900A20FCF7DF
:1050B0008FFCA84800880A2190FBF1F201FB12093D
:1050C000A448008890FBF1FA4B465246ACA102A8D6
:1050D000FEF7FCFF02A810210B46DC22CDE90010F0
:1050E0004FF482710A20FCF761FD00BFFCF746FF18
:1050F0000020FCF7C7FB0446042C42D196480078F8
:10510000002830D1FCF73AFA07462FB9012092491E
:105110000870FDF707FE34E0022F0BD14FF6FF7049
:10512000FCF700FC42469DF828109DF82C00FDF786
:1051300001FF26E098A010210B46DC22CDE90010EB
:10514000E6210A20FCF732FD4FF47A70FFF78CFE5F
:1051500098A010210B46DC22CDE90010E6210A20A0
:10516000FCF724FD0DE000207B4908704FF6FF702E
:10517000FCF7D8FB42469DF828109DF82C00FDF75F
:10518000D9FE75480078B0BB012C09D1FBF7C0FCF3
:1051900042469DF828109DF82C00FDF7CBFE0AE052
:1051A000032C08D1FBF7C0FC42469DF828109DF85F
:1051B0002C00FDF7BFFEFDF72DFB0AA90BA8FBF79E
:1051C00098FD30B942469DF828109DF82C00FDF757
:1051D000B1FEFCF759FD80460A2095FBF0F100FB7B
:1051E0001150002806D142469DF828109DF82C0049
:1051F000FDF7A0FE98E0FFE7012C1AD1FBF7FCFFBA
:105200000446FF2C2BD00CB9012000E000200446FE
:105210001CB96EA0FCF7E6F802E06FA0FCF7E2F81C
:10522000FCF7B8F86FA0FCF7DDF8C820FFF71CFE0C
:1052300015E0032C13D16E48007808B9012000E076
:1052400000206B4908700846007840B94FF6FF709F
:10525000B023F022A02100903220FCF7B9FB3220CD
:1052600095FBF0F100FB115080BB6148007818B34A
:105270006048027860A16548FEF728FF6348102166
:105280000B46C822CDE90010A0213220FCF78EFC8D
:105290005E495FA0FEF70AFF5648017856A000F06D
:1052A000D1F854480078401C5249087008460078EC
:1052B000632801DD00200870FCF7E2F8564800681A
:1052C00008B9012000E000205349086053480088D5
:1052D00000F4004040B34FF6FF704FF4A073F0228B
:1052E000C82100900A20FCF773FB4C480088C6B226
:1052F00000204B49885531464AA0FEF7D7FE484961
:105300004BA0FEF7D3FE31464548FCF779FD4448F3
:1053100010217723D122CDE90010C8210A20FCF703
:1053200045FC00203D4908806420FFF79DFD681C76
:10533000C5B253E6220000200C0000200A00002025
:10534000000400405374617274696E672E2E2E0043
:1053500006000020040000200000002042454550C7
:105360003A204F4E00000000010000204245455009
:10537000206973206E6F77204F4E210D0A000000C8
:10538000424545503A20434F554E54444F574E20C6
:1053900025642E2564730000425420496E697420F0
:1053A0004661696C65642120202020202020202077
:1053B000000000005072657373204B455932207411
:1053C0006F2074727920616761696E0041542B52BD
:1053D0004F4C453D3000000041542B524F4C453D51
:1053E0003100000041542B52455345540000000049
:1053F00002000020030000205052454849434E203F
:10540000484330352025640D0A000000500000207C
:1054100025730D0A00000000948121423E00002007
:105420006E0000207265636C656E3D25640D0A0098
:105430005553415254335F52585F4255463D257390
:105440000D0A00000FB438B505A800900F48009A67
:105450000499FEF74FFE002000900C48FAF784FEF6
:1054600085B200240DE000BF40210948FEF74AFD47
:105470000028F9D00548015D0548FEF710FE601CC4
:1054800084B2AC42EFDB38BC5DF814FBC6020020EE
:105490000048004000000000000000000000000084
:1054A000000000003F40000000000000000030004D
:1054B000400030004000000009000BC03D000BC060
:1054C0003D00090018C024407FE0224031800000E8
:1054D000180024C01B000D803240018003801C4056
:1054E00027401C80074000401000600000000000C2
:1054F000000000000000000000001F80204040204D
:105500000000402020401F8000000000090006002D
:105510001F80060009000000040004003F80040012
:105520000400000000100060000000000000000007
:105530000400040004000400040000000000004017
:105540000000000000000000002001C0060038003C
:10555000400000001F802040204020401F800000AD
:10556000000010403FC000400000000018C0214073
:105570002240244018400000108020402440244055
:105580001B80000002000D0011003FC00140000020
:105590003C80244024402440238000001F8024407D
:1055A00024403440038000003000200027C0380031
:1055B000200000001B802440244024401B80000069
:1055C0001C0022C0224022401F800000000000007A
:1055D000084000000000000000000000046000001F
:1055E00000000000000004000A001100208040407C
:1055F00009000900090009000900000000004040FE
:10560000208011000A00040018002000234024001C
:10561000180000001F802040274029401F40000044
:10562000004007C039000F0001C0004020403FC0CB
:10563000244024401B8000001F8020402040204048
:105640003080000020403FC0204020401F800000EC
:1056500020403FC024402E4030C0000020403FC0CA
:1056600024402E00300000000F0010802040224017
:105670003380020020403FC0040004003FC02040AF
:10568000204020403FC020402040000000602020FB
:1056900020203FC02000200020403FC024400B00BD
:1056A00030C0204020403FC020400040004000C0AB
:1056B0003FC03C0003C03C003FC0000020403FC052
:1056C0000C4023003FC020001F802040204020408D
:1056D0001F80000020403FC024402400180000002C
:1056E0001F802140214020E01FA0000020403FC03B
:1056F0002440260019C0004018C024402440224005
:1057000031800000300020403FC0204030000000C9
:1057100020003F80004000403F80200020003E00ED
:1057200001C0070038002000380007C03C0007C057
:1057300038000000204039C0060039C02040000079
:105740002000384007C0384020000000304021C011
:105750002640384020C00000000000007FE04020CC
:1057600040200000000070000C000380004000009A
:105770000000402040207FE00000000000002000EA
:105780004000200000000000001000100010001079
:1057900000100010000000004000000000000000A9
:1057A000000002800540054003C0004020003FC0CB
:1057B00004400440038000000000038004400440D3
:1057C0000640000000000380044024403FC0004029
:1057D0000000038005400540034000000000044035
:1057E0001FC0244024402000000002E00550055066
:1057F0000650042020403FC00440040003C0004085
:105800000000044027C0004000000000001000100D
:10581000041027E00000000020403FC001400700C6
:1058200004C00440204020403FC000400040000031
:1058300007C0040007C0040003C00000044007C004
:105840000440040003C00040000003800440044002
:1058500003800000041007F004500440038000009F
:10586000000003800440045007F00010044007C00B
:10587000024004000400000000000640054005400E
:1058800004C00000000004001F800440004000002D
:10589000040007800040044007C0004004000700E7
:1058A00004C0018006000400060001C0070001C01A
:1058B00006000000044006C0010006C004400000CD
:1058C0000410071004E001800600040000000440FA
:1058D00005C00640044000000000000004007BE01A
:1058E00040200000000000000000FFF00000000069
:1058F000000040207BE00400000000004000800029
:1059000040002000200040000000000000000000D7
:1059100000000000000000000000000000001FCC9C
:10592000000C0000000000000000080030006000D3
:105930000800300060000000022003FC1E2002204E
:1059400003FC1E200220000000000E1811043FFF7F
:1059500010840C78000000000F0010840F3800C085
:10596000077818840078000000780F8410C4112490
:105970000E9800E400840008080068007000000031
:10598000000000000000000000000000000007E030
:1059900018182004400200000000400220041818DB
:1059A00007E00000000000000240024001800FF00C
:1059B00001800240024000000080008000800FF85B
:1059C00000800080008000000001000D000E00003B
:1059D0000000000000000000000000800080008047
:1059E00000800080008000800000000C000C00009F
:1059F0000000000000000000000000060018006029
:105A00000180060018002000000007F008081004BC
:105A10001004080807F000000000080408041FFC38
:105A2000000400040000000000000E0C10141024FC
:105A3000104411840E0C000000000C181004110416
:105A4000110412880C700000000000E00320042400
:105A500008241FFC0024000000001F98108411047B
:105A60001104108810700000000007F0088811046D
:105A7000110418880070000000001C00100010FCC9
:105A800013001C001000000000000E3811441084A8
:105A9000108411440E38000000000700088C1044E8
:105AA0001044088807F00000000000000000030C0C
:105AB000030C0000000000000000000000010106CF
:105AC00000000000000000000000008001400220F3
:105AD0000410080810040000022002200220022006
