:020000040800F2
:10000000E00900204501000825180008C512000875
:1000100021180008450A0008B32F0008000000005E
:10002000000000000000000000000000251F000884
:100030000D0C000800000000B91800083524000865
:100040005F0100085F0100085F010008B11C0008A3
:100050005F0100085F0100085F0100085F01000800
:100060005F0100085F0100085F0100085F010008F0
:100070005F0100085F0100085F0100085F010008E0
:100080005F0100085F0100085F0100085F010008D0
:100090005F0100085F0100085F010008110C000803
:1000A0005F0100085F0100085F0100085F010008B0
:1000B0005F0100085F010008412800085F01000897
:1000C0005F0100085F0100085F0100085F01000890
:1000D0005F010008D12A00085F010008092C000810
:1000E0005F0100085F0100085F0100085F01000870
:1000F0005F0100085F0100085F0100085F01000860
:100100005F0100085F0100085F0100085F0100084F
:100110005F0100085F0100085F0100087128000806
:100120005F0100085F0100085F0100085F0100082F
:10013000DFF80CD000F09AFA00480047293E00088A
:10014000E00900200648804706480047FEE7FEE732
:10015000FEE7FEE7FEE7FEE7FEE7FEE7FEE7FEE777
:100160007524000831010008421C10F8011B002909
:10017000FBD1801A704710B5002200E0521C835C4E
:100180008C5CA34201D1002BF8D1D8B2E1B2401A65
:1001900010BD2DE9FE4F81EA030404F0004421F074
:1001A000004100944FF0000B23F0004350EA01049B
:1001B0005ED052EA03045BD0C3F30A54C1F30A557C
:1001C0002C44A4F2F3340194A0FB0254C1F31301B4
:1001D00041F48011C3F3130343F4801301FB024481
:1001E00000FB034E840A970A44EA815447EA835786
:1001F000A4FB076802958D0A05FB07854FEA932C3F
:1002000004FB0C542705029D4FEA065847EA1637AF
:10021000B5EB08056EEB070C870E920E47EA8117C7
:1002200042EA8312A7FB0201B6EB0B0164EB000468
:100230002B0D43EA0C335E1844EB1C50DA46514652
:10024000E7FB0201C5F313044FEA0B3343EA1453EF
:100250004FEA0432019C43EA0603A4F10C04029421
:10026000009CCDE900B400F06CF803B0BDE8F08F5D
:1002700000200146F9E730B50B4601460020202258
:10028000012409E021FA02F59D4205D303FA02F5A3
:10029000491B04FA02F52844151EA2F10102F1DC03
:1002A00030BD2DE9F05F0546002092469B4688460A
:1002B0000646814640241BE02846414647462246E2
:1002C00000F020F853465A46C01A914110D3114607
:1002D0001846224600F0DCF92D1A67EB01084F465C
:1002E00022460120002100F0D3F917EB00094E410E
:1002F000201EA4F10104DFDC484631462A4643466D
:10030000BDE8F09F202A04DB203A21FA02F0002108
:10031000704721FA02F3D040C2F120029140084315
:100320001946704710B5141E73F1000408DA401C1A
:1003300041F1000192185B411A4301D120F0010004
:1003400010BD2DE9F04D92469B4611B1B1FA81F2F4
:1003500002E0B0FA80F22032904600F099F90446AB
:100360000F4640EA0A0041EA0B0153465A46084349
:1003700013D0114653EA010019D0C8F1400250468B
:10038000FFF7C0FF05460E4650465946424600F06C
:100390007FF9084305D0012004E020463946BDE836
:1003A000F08D0020054346EAE0762C4337430A9857
:1003B0006305E40AA0EB08000022FD0A44EA475462
:1003C0000A3002D500200146E9E70105101969410C
:1003D000DDE9084500196941BDE8F04DA2E72DE9C6
:1003E000FE4F804681EA0300C00F0C46009021F0CA
:1003F000004123F00045B8EB0200A94105D2404678
:10040000214690461C460B46024623F0004010430E
:1004100047D0270DC7F30A00C3F30A510290401AD0
:10042000019040286BDAC3F3130040F4801B00985E
:10043000924620B10023D2EB030A63EB0B0B019829
:100440005946C0F14002504600F022F906460D46DA
:1004500050465946019A00F02AF910EB0800614114
:10046000002487EA115284EAE7731A4340D0009AC5
:1004700062B3019A012A4FEA075215DC001B61EBB7
:1004800002014FF0004202EA0752CDE90042001C8F
:1004900041F5801132462B46FFF753FF03B0BDE80C
:1004A000F08F40462146F9E7001B61EB0201001C7A
:1004B00041F5801300185B412018A2F5001747EBA7
:1004C000030140EAD570B6196D4111E06D084FEA9D
:1004D000360645EAC0754FEA0752001B61EB020180
:1004E000001C41F5801149084FEA300000195141C4
:1004F00032462B4603B0BDE8F04FFFF713BF00981C
:10050000012240000023D0EB020263EBE07300986D
:1005100021464FEAE074B8EB000061EB0401E9E723
:1005200083F000435BE781F0004158E72DE9F04D8F
:1005300081EA030404F0004B21F0004514464FF01B
:10054000000A23F0004150EA050220D054EA0102DB
:100550001DD0C5F30A570246C5F31303C1F31300B8
:10056000C1F30A5640F4801543F48013A7EB060844
:10057000101BD64608F2FD3873EB050002D308F1D4
:10058000010801E092185B41B8F1000F03DA002086
:100590000146BDE8F08D00204FF4801106468446E8
:1005A0000EE0171B73EB050705D3121B63EB050366
:1005B00006434CEA010C49084FEA300092185B41AF
:1005C00050EA0107EDD152EA030012D082EA04009A
:1005D00083EA0501084305D0101BAB4106D2012276
:1005E000002306E000224FF0004302E06FF001021A
:1005F00053101AEB06004CEB085110EB0A0041EBCC
:100600000B01BDE8F04DFFF78DBEC1F30A52C1F3F7
:10061000130140F2FF3341F480119A4202DA0020C4
:100620000146704740F233439A42A2F2334202DC61
:100630005242FFF767BE00F02BB8000030B5041E31
:1006400071F1000404DB4FF00044404264EB01010F
:10065000141E73F1000405DB1C464FF000435242A8
:1006600063EB0403994208BF904230BD064C074D2E
:1006700006E0E06840F0010394E807009847103472
:10068000AC42F6D3FFF758FDC48B0008E48B00089A
:10069000202A04DB203A00FA02F100207047914042
:1006A000C2F1200320FA03F3194390407047202A37
:1006B00006DBCB17203A41FA02F043EAE07306E08A
:1006C00041FA02F3D040C2F120029140084319469A
:1006D000704721B1826842F00102826003E08268C3
:1006E00022F001028260704710B50446124884422D
:1006F00008D10121401501F021F90021601501F018
:100700001DF917E00D48844208D10121001501F0C0
:1007100015F90021201501F011F90BE00848844279
:1007200008D10121C80301F009F900214FF400406C
:1007300001F004F910BD0000002401400028014030
:10074000003C0140014600208A6802F004020AB120
:10075000012000E0002070470146C86C80B270475D
:100760000246002013680B400BB1012000E000207E
:100770007047014600208A6802F008020AB1012091
:1007800000E000207047000030B502460020002342
:1007900050680F4C20400D790C6844EA0524204332
:1007A000506090680B4C2040D1E902542C434D79A5
:1007B00044EA450420439060D06A20F470000C7C29
:1007C000641EE4B2234340EA0350D06230BD00000F
:1007D000FFFEF0FFFDF7F1FFF0B504460D460020E7
:1007E0000021092D11DDE068A5F10A0606EB460798
:1007F000072606FA07F18843A5F10A0606EB460626
:1008000003FA06F10843E0600CE0206905EB4507B8
:10081000072606FA07F1884305EB450603FA06F1B9
:1008200008432061072A0FDA606B561E06EB860725
:100830001F2606FA07F18843561E06EB860605FAC0
:1008400006F10843606322E00D2A0FDA206BD61F01
:1008500006EB86071F2606FA07F18843D61F06EB2C
:10086000860605FA06F10843206310E0E06AA2F16B
:100870000D0606EB86071F2606FA07F18843A2F14C
:100880000D0606EB860605FA06F10843E062F0BDA8
:10089000816841F008018160704721B1826842F4AB
:1008A000A002826003E0826822F4A00282607047A6
:1008B000816841F0040181607047000000B589B093
:1008C0000121082001F02AF80121042001F006F896
:1008D0004FF48070ADF8200018208DF8230003201D
:1008E0008DF8220008A91A4800F06BFA1948008810
:1008F000401E80B2ADF818004720ADF8140000206B
:10090000ADF81A00ADF8160005A9134802F08EF8EC
:100910006020ADF804000120ADF806000020ADF81D
:100920000A00ADF80C0001A90B4802F021F80821DB
:10093000094802F06DF80121074801F0E3FF0121A9
:10094000054801F0EEFF00200449087009B000BD21
:10095000000C014024000020000800402800002076
:1009600010B50021034802F05CF80020024908702D
:1009700010BD0000000800402800002010B5064807
:10098000007838B905480188054802F04AF8012086
:100990000149087010BD000028000020260000203A
:1009A0000008004010B50448007810B9FFF7E6FFD2
:1009B00001E0FFF7D5FF10BD2800002010B50B485F
:1009C00000880A380A49098888420DDD08480088ED
:1009D0000A300749088007480078012804D10846F2
:1009E0000188054802F01DF810BD00002400002019
:1009F00026000020280000200008004010B501203B
:100A000000F0ACFF002000F0A9FF10BD08B50146C2
:100A1000002000900348009000980844009000983F
:100A2000008808BD006C004008B500220092044A0E
:100A30000092009A02440092009A116008BD0000E2
:100A4000006C004000BFFEE710B5002400F024F861
:100A500004E0601CC4B2012003F0AEF90D48006848
:100A600008B1642CF5DB642C01DB012010BD0024EF
:100A700004E0601CC4B2012003F09EF90548006840
:100A800008B9642CF5DB642C01DB0120EEE70020C3
:100A9000ECE700002C01244208B54FF40060ADF8EB
:100AA000000048208DF803006946024800F089F9EB
:100AB00008BD00000020014008B54FF40060ADF80B
:100AC000000010208DF8030003208DF80200694615
:100AD000014800F076F908BD0020014008B5012169
:100AE000080200F01BFF4FF40060ADF8000010207A
:100AF0008DF8030003208DF802006946064800F0D7
:100B000060F94FF40061044800F037FA00F068F82B
:100B1000FFF79AFF08BD00000020014010B5002437
:100B200004E0601CC4B2012003F046F90D480068DF
:100B300008B1642CF5DB002404E0601CC4B2012081
:100B400003F03AF90748006808B9642CF5DB28205F
:100B500003F032F90348006808B1012010BD0020FD
:100B6000FCE700002C01244270B50024002506E0BB
:100B70006006040EFFF7D2FF0443681CC5B2082DBF
:100B8000F6DB204670BD7CB505460E4600F028F821
:100B9000FFF75AFFF8B9002405E0FFF7E5FF0DF86D
:100BA0000400601CC4B2052CF7DB9DF800009DF822
:100BB000011008449DF8021008449DF803100844F1
:100BC0009DF80410884208D19DF8000030709DF80F
:100BD0000200287001E001207CBD0020FCE700003D
:100BE00010B5FFF769FF002006490860142003F0E4
:100BF000BDF801200449C1F8AC011E2003F0DCF867
:100C000010BD0000AC0124420000244270470000E7
:100C10002DE9F04100240026002530E04FF400715A
:100C20001B4800F0A1F9012829D100F033FB04464C
:100C3000FA2C00DB24E0C82C03DBFA2C01DA0126B5
:100C40000AE03C2C03DB5A2C01DA012704E00A2CD1
:100C500002DB322C00DA0027012E0ED10D4800688D
:100C600040000C4908600846006838440860202DA0
:100C700003DB01200849087002E0681CC5B2CDE71B
:100C800000BF4FF4007000F009F8BDE8F0810000EB
:100C9000000C01402C0000203000002001490860B9
:100CA000704700001404014051B18200A2F1C0421B
:100CB000126842F001038200A2F1C042136009E011
:100CC0008200A2F1C0421268034B1A408300A3F1D4
:100CD000C0431A6070470000FEFF0F00D0E9011208
:100CE0001143C26811430269114342691143826989
:100CF0001143C2691143026A1143426A1143826A75
:100D00001143C26A1143026B114302689200A2F1BF
:100D1000C0421160816808290BD101688900A1F1E6
:100D2000C041096841F0400201688900A1F1C04159
:100D30000A60416B0968426B526841EA0211426BDA
:100D4000926841EA0221426B928941EA0241426B78
:100D5000128A41EA0251426B127D41EA0261426B02
:100D6000926911430268521C9200A2F1C0421160C4
:100D7000C16AB1F5804F1BD1816B0968826B5268E3
:100D800041EA0211826B926841EA0221826B128A67
:100D900041EA0251826B127D41EA0261826B9269E3
:100DA000114302689200A2F1C042C2F8041107E0A8
:100DB0006FF0704201688900A1F1C041C1F80421BF
:100DC00070472DE9F041024600250026002000234F
:100DD0000024002791F803C00CF00F0591F803C020
:100DE0000CF0100CBCF1000F03D091F802C04CEADB
:100DF000050591F800C0BCF1000F31D01468002047
:100E00002BE04FF0010C0CFA00F3B1F800C00CEA33
:100E100003069E4220D183004FF00F0C0CFA03F71B
:100E2000BC4305FA03FC4CEA040491F803C0BCF18E
:100E3000280F06D14FF0010C0CFA00FCC2F814C0C8
:100E40000AE091F803C0BCF1480F05D14FF0010C46
:100E50000CFA00FCC2F810C0401C0828D1D3146062
:100E6000B1F800C0BCF1FF0F34DD546800202EE063
:100E700000F1080C4FF0010808FA0CF3B1F800C0BB
:100E80000CEA03069E4221D183004FF00F0C0CFAAE
:100E900003F7BC4305FA03FC4CEA040491F803C0D1
:100EA000BCF1280F05D100F1080C08FA0CF8C2F8C3
:100EB000148091F803C0BCF1480F07D100F1080C71
:100EC0004FF0010808FA0CF8C2F81080401C0828FE
:100ED000CED35460BDE8F081F0B50A46002300246B
:100EE0000021002500F00046B6F1004F02D11D4E52
:100EF000F16901E01B4E7168C0F3034583B200F451
:100F00004016B6F5401F08D121F07061154E766885
:100F100026F07066134F7E6012E000F48016B6F57E
:100F2000801F06D1032606FA05F4A14341F0706143
:100F300006E0460D360103FA06F6B14341F0706152
:100F400022B1460D360103FA06F6314300F00046A1
:100F5000B6F1004F02D1034EF16101E0014E716024
:100F6000F0BD0000000001400246002093680B40E5
:100F70000BB1012000E000207047016170470000C4
:100F800010B504460723012221460948FFF724FC37
:100F900001210748FFF781FC00BF02210448FFF749
:100FA000DFFB0028F9D00248FFF7D6FB10BD000098
:100FB000003C014070B50F2631E001201D4908605A
:100FC0000A2002F0D3FE1CA003F03CF900250AE041
:100FD0000A2002F0CBFE1B48008800F4004000B15C
:100FE00003E0681CC5B2142DF2DB00BF00201149DC
:100FF00008601448008800F4004080B1114800885F
:10100000C4B200200F4908800D2C08D10E4800788A
:101010002B2804D10C4880793038C4B204E0301E4B
:10102000A6F10101CEB2C8D100BF06B9FF24204607
:1010300070BD00009001214241542B524F4C453F5E
:101040000D0A00003600002062000020F8B50A26D4
:1010500001250121042000F061FCE803ADF8000047
:1010600048208DF8030003208DF8020069463048BF
:10107000FFF7A7FE1020ADF800008DF80300032055
:101080008DF8020069462A48FFF79BFE1021284888
:10109000FFF773FF01212748FFF71EFF01202649B4
:1010A00008602649C1F83C014FF4165001F0E4FDF8
:1010B00033E00120204908600A2002F057FE20A0FA
:1010C00003F0C0F800201D49C1F8900100240AE097
:1010D0001D48008800F4004000B106E0052002F041
:1010E00045FE601CC4B20A2CF2DB00BF1648008823
:1010F00000F4004088B114480088C5B200201249AD
:101100000880042D09D1114800784F2805D10F48D7
:1011100040784B2801D1002504E0301EA6F10101E2
:10112000CEB2C6D100BF06B901252846F8BD0000E1
:1011300000080140000230009001214200002142DD
:1011400041540D0A0000000036000020620000201B
:101150001CB5FFF72FFF01280AD10BA010210B4669
:10116000C822CDE900108C210A2000F07DFA09E0A8
:1011700008A010210B46C822CDE900108C210A20BE
:1011800000F072FA1CBD0000524F4C453A4D61739D
:1011900074657200524F4C453A536C61766520007D
:1011A0002DE9F04105460F2730E001201D49086078
:1011B0000A2002F0DBFD29461BA003F043F80020C3
:1011C0001B49C1F8900100260AE01A48008800F483
:1011D000004000B106E0052002F0C8FD701CC6B258
:1011E000142EF2DB00BF1348008800F4004068B101
:1011F00010480088C4B200200E490880042C05D194
:101200000D4800784F2801D1002404E0381EA7F1D2
:101210000101CFB2C9D100BF07B9FF242046BDE804
:10122000F08100009001214225730D0A00000000AA
:101230000000214236000020620000201CB50C484E
:10124000006850B10BA010210B467822CDE90010A8
:101250008C216E2000F008FA09E00AA010210B464C
:101260007822CDE900108C216E2000F0FDF91CBD24
:101270003C0121425354413A436F6E6E656374657D
:10128000642000005354413A446973636F6E6E6585
:101290006374000010B5002408E0601CC4B2142080
:1012A00002F08AFDFA2C01DB204610BD4FF40071DC
:1012B0000348FFF759FE0128EFD02046F5E700006C
:1012C000000C014000BFFEE70146CA1701EB927215
:1012D0009210A1EB820292B9642091FBF0F200FB24
:1012E000121050B94FF4C87091FBF0F200FB1210CD
:1012F00008B9012070470020FCE70120FAE7002030
:10130000F8E7000008B50121442000F007FB0120A8
:10131000ADF8000028208DF8030069460648FFF765
:1013200050FD1C20ADF8000048208DF803006946F0
:101330000248FFF746FD08BD0008014000180140C3
:1013400010B50446012C01D12249087021480078CB
:1013500001282AD12048006801280AD01F480068C7
:1013600038B11E48001F006818B11C4808380068D2
:10137000D8B90A2002F0FAFC002016490870164875
:101380000068012800D110BD1448006808B9022087
:10139000F9E71248001F006808B90320F3E70F4877
:1013A00008380068A0B90420EDE70B48006878B958
:1013B0000A48006801280BD10848001F006801286E
:1013C00006D1064808380068012801D10149087093
:1013D0000020D8E731000020000121421001234203
:1013E00070B506460F484088401E83B20D480088FD
:1013F000401E82B20021084600F07CF800240CE078
:10140000002504E0304600F06FF9681C85B20548FD
:101410004088A842F6DC601C84B202480088A042E2
:10142000EEDC70BD1C00002000B502460F48827142
:101430006AB9362000F04CF94C2000F04FF94FF417
:10144000F0700A4948804FF4A07008800CE0362004
:1014500000F03EF92C2000F041F94FF4A070034950
:1014600048804FF4F070088000BD00001C00002090
:1014700070B504460D4616462B46224629462046A0
:1014800000F038F8304600F02FF970BD2DE9F04338
:1014900004460D4616461F46DDF81C80B44201DCAA
:1014A000BD4201DDBDE8F0833B4632462946204679
:1014B00000F020F8301B401C84B2781B401C85B221
:1014C0000BE0A94602E0404600F00EF9B9F1000039
:1014D000A9F101011FFA81F9F5D1201EA4F1010142
:1014E0008CB2EED100BFDDE70148008870470000F4
:1014F0000008006C30B504460D462A2000F0E8F8DC
:10150000201200F0EBF8E0B200F0E8F8101200F062
:10151000E5F8D0B200F0E2F82B2000F0D9F828125C
:1015200000F0DCF8E8B200F0D9F8181200F0D6F8B4
:10153000D8B200F0D3F82C2000F0CAF830BD00007B
:101540002DE9F84F80460E4617461C46B346204606
:10155000E31704EB5373DB1021464FEAE47C04EB02
:101560005C7C4FEAEC0CA4EBCC0CBCF1000F02D07D
:101570004FF0010C01E04FF0000C6344224604EBF5
:10158000D27C4FEA6C0C03FB0CF3DBB20093A7F1A7
:101590002000C7B2002556E00C2C07D107EB47000E
:1015A0002B4901EB800010F8059013E0102C05D1B9
:1015B000284800EB071010F805900BE0182C07D115
:1015C00007EBC700244901EB800010F8059001E00B
:1015D000BDE8F88F4FF0000A2FE009F0800030B12D
:1015E0001E48028831464046FFF742FF07E00A984E
:1015F00028B91B48028831464046FFF739FF4FEAB9
:1016000049604FEA1069701C86B216484088B042A3
:1016100000DCDDE7A6EB0B00A0420AD15E4608F134
:1016200001001FFA80F80F480088404500DCCFE732
:1016300006E00AF1010000F0FF0ABAF1080FCCDB66
:1016400000BF681CC5B200988542A5DB00BFBFE79C
:101650009442000808470008F84C000818000020D1
:101660001A0000201C0000202DE9F84704460D4612
:1016700090469946DDE9096704F0FF0A08EB04008B
:101680001FFA80F809EB05001FFA80F916E04445BF
:1016900002DB5446A81985B24D4500DB14E000205A
:1016A00000903A78334629462046FFF749FF3046F6
:1016B00006EBD07104EB61018CB27F1C38787E2878
:1016C00002DC38782028E2DA00BFBDE8F8870000A5
:1016D0000149088070470000FE07006C014908803E
:1016E000704700000008006C0112024A1180C1B26C
:1016F000118070470008006C08B50121482000F0F7
:101700000DF92020ADF8000010208DF80300032013
:101710008DF8020069460948FFF753FB202107486E
:10172000FFF72BFC2020ADF8000069460448FFF7C6
:1017300048FB20210248FFF720FC08BD000C0140B7
:101740000018014070B50024002508E00620FFF7CE
:1017500017FC0444052002F009FB681CC5B20A2DE1
:10176000F4DB0A20B4FBF0F4B4F57A6F01D94FF43E
:101770007A642820B4FBF0F0C0F16400C0B270BD00
:1017800000B587B00121802000F0C8F80121C8030E
:1017900000F0C4F80121C80300F0D0F800214FF494
:1017A000004000F0CBF84FF48070ADF81800002036
:1017B0008DF81B0006A91848FFF703FB1748FEF732
:1017C00093FF002001908DF808008DF809004FF478
:1017D000602003900020049001208DF8140001A9DE
:1017E0000E48FEF7D1FF01210C48FEF772FF0B48AF
:1017F000FFF74EF800BF0948FEF7BBFF0028FAD1FB
:101800000648FFF755F800BF0448FEF79BFF002885
:10181000FAD107B000BD0000001C0140003C0140AF
:1018200000BFFEE77047000070B5002100230F22C3
:10183000C47804B3154C246804F4E064C4F5E0648F
:10184000210AC1F10403CA40447804FA03F1847800
:101850001440214309010E4C0678A155047804F088
:101860001F050124AC4005786D11AD0005F1E025A0
:10187000C5F8004109E0047804F01F050124AC40DC
:10188000044D0678761145F8264070BD0CED00E059
:1018900000E400E080E100E002490143024A1160F7
:1018A000704700000000FA050CED00E001490862F5
:1018B0007047000000000E427047000029B1064A40
:1018C00052690243044B5A6104E0034A526982435D
:1018D000014B5A61704700000010024029B1064ACE
:1018E000D2690243044BDA6104E0034AD2698243BD
:1018F000014BDA61704700000010024029B1064A2E
:1019000012690243044B1A6104E0034A12698243DC
:10191000014B1A61704700000010024029B1064ACD
:1019200092690243044B9A6104E0034A926982433C
:10193000014B9A61704700000010024029B1064A2D
:10194000D2680243044BDA6004E0034AD26882435F
:10195000014BDA6070470000001002400149086046
:10196000704700004004424230B5002100220024AC
:1019700000232D4D6D6805F00C0121B1042905D01F
:10198000082923D105E0294D056022E0274D056097
:101990001FE0254D6D6805F47012234D6D6805F448
:1019A0008034022505EB92421CB9214D5543056058
:1019B0000BE01D4D6D6805F400351DB11C4D554300
:1019C000056002E0194D5543056002E0174D0560C2
:1019D00000BF00BF144D6D6805F0F0010909154DF9
:1019E0006B5C0568DD4045600F4D6D6805F4E06196
:1019F000090A104D6B5C4568DD4085600A4D6D68D5
:101A000005F46051C90A0B4D6B5C4568DD40C5604B
:101A1000054D6D6805F44041890B074D6B5CC56849
:101A2000B5FBF3F5056130BD0010024000127A00ED
:101A300000093D00030000201300002010B50146FE
:101A40000022002300204A11012A02D1094C2368F8
:101A500006E0022A02D1074C236A01E0054C636AC2
:101A600001F01F02012494401C400CB1012000E051
:101A7000002010BD0010024000210B4A11700A4ADC
:101A8000203A82F82010012802D0042808D103E06F
:101A90000121054A117004E00521034A117000E09C
:101AA00000BF00BF704700002010024001490860DD
:101AB000704700003C0442420249096A0143014A5E
:101AC0001162704700100240024909888143014AAF
:101AD00011807047042800400348008840F010003F
:101AE000014908807047000004280040034800882E
:101AF0004FF6EF7108400149088070470428004004
:101B000070B500260024002500F07AF80646384813
:101B1000B6FBF0F437480088A0423CD035490C8031
:101B200040F2B27510E02846FFF7CEFB40B1B4F5A5
:101B3000B77F02D3A4F5B77404E0681C85B206E051
:101B4000A4F26D14681C85B2B4F5B67FEBD800BF63
:101B500029488580002516E027498888FFF7B4FBCF
:101B600030B1012D04D11D2C01D31D3C09E00CE046
:101B70002248405DA04203D82048405D241A00E07E
:101B800003E0681C85B21C2CE6D200BF681C1A4911
:101B90008871601CC8711648B6FBF0F100FB116437
:101BA0004FF46160B4FBF0F0134908704FF46160CA
:101BB000B4FBF0F100FB11403C21B0FBF1F00E4909
:101BC00048704FF46160B4FBF0F100FB11403C2120
:101BD000B0FBF1F201FB1200074988700B46DA797D
:101BE0009979988800F028F803490872002070BDA0
:101BF000805101003400002058000020B88B0008FC
:101C0000002103480188001F008841EA0040704716
:101C10001C28004001460020064A12880A40D0B223
:101C2000044A121F12880A4012B108B1012000E0D4
:101C30000020704704280040F0B503460C461546C6
:101C4000642093FBF0F0C6B2642093FBF0F700FB36
:101C50001730C1B2132E02DD01F16400C1B2084693
:101C6000CF1701EB977701EBA707BAB2072092FBDA
:101C7000F0F700FB172082B25719601EDFF82CC066
:101C80001CF80000384482B2CF1701EB9777BF10E1
:101C9000A1EB87071FB9032C01DA501E82B207207F
:101CA00092FBF0F700FB1720C0B2F0BDAC8B000830
:101CB00010B50120FFF7AEFF20B1012009490870DF
:101CC000FFF71EFF0220FFF7A5FF20B10220FFF75C
:101CD000FBFEFFF715FF0520FFF7F6FE00F006F903
:101CE00010BD00003200002029B1064A12880243CC
:101CF000044B1A8004E0034A12888243014B1A8085
:101D000070470000002800401CB5002401214FF05E
:101D1000C050FFF7E3FD0120FFF7C8FD0420FEF7E8
:101D200075FE4AF2A001884240D0FEF767FE01200E
:101D3000FFF7A2FE04E0601CC4B20A2002F016F80D
:101D40004120FFF77BFE08B9FA2CF4DBFA2C01DB0B
:101D500001201CBD4FF48070FFF7AEFE0120FFF79D
:101D6000A5FE00F0C3F800F0CBF801210846FFF70C
:101D7000BBFF00F0BBF8FFF7AFFE47F6FF7000F0C7
:101D8000A5F800F0B3F83720222111230122CDE974
:101D900000100B2140F2E37000F026F8FFF7A6FEDA
:101DA0004AF2A0010420FEF73FFE07E000F0A8F889
:101DB00001210846FFF798FF00F098F800F004F8BA
:101DC000FFF79EFE0020C4E708B503208DF8000051
:101DD00000208DF801008DF8020001208DF803002D
:101DE0006846FFF721FD08BD2DE9F05F06460F4666
:101DF00090469946DDE90AAB002440F2B270864273
:101E000003DB40F63300864202DD0120BDE8F09F8F
:101E100040F2B2750AE02846FFF756FA10B12048A2
:101E2000044401E01F480444681C85B2B542F2DB5B
:101E3000781EC7B2002510E01B48405D40F2A32188
:101E4000484304EBC0143046FFF73EFA18B1012DA9
:101E500001D116480444681C85B2BD42ECDBA8F1F0
:101E6000010040F2A321484304EBC014C9EB491020
:101E7000C0EB092004EB0014CAEB0A1004EB800449
:101E80005C4401214FF0C050FFF728FD0120FFF70F
:101E90000DFD204600F00CF800F028F80020B5E712
:101EA0000085E2018033E101B88B00088051010018
:101EB00000B50246FFF710FE100C03490880091D0B
:101EC0000A80FFF713FE00BD1828004000B5024647
:101ED000FFF702FEC2F3034003490880091D0A8090
:101EE000FFF704FE00BD00000828004000BF0348C3
:101EF000008800F020000028F9D070470428004036
:101F0000074800884FF6F77108400549088000BF70
:101F10000348008800F008000028F9D0704700004E
:101F200004280040704710B500F002F810BD000012
:101F30000CB50020019000903348006840F48030D8
:101F40003149086000BF3048006800F4003000905C
:101F50000198401C0190009818B90198B0F5A06F45
:101F6000F1D12948006800F4003010B10120009040
:101F700001E0002000900098012843D12348006828
:101F800040F01000214908600846006820F0030076
:101F900008600846006840F0020008601A4840687F
:101FA000194948600846406848600846406840F45F
:101FB000806048600846406820F47C10486008460D
:101FC000406840F4E81048600846006840F08070BF
:101FD000086000BF0C48006800F000700028F9D0CD
:101FE0000948406820F003000749486008464068F7
:101FF00040F00200486000BF0348406800F00C0059
:102000000828F9D10CBD0000001002400020024059
:102010001CB54FF6FF70FFF7E3F94FF478402D49F8
:1020200008802DA010210B46F022CDE900100A21D6
:102030000846FFF719FB2AA010210B46F022CDE934
:1020400000101E210A20FFF70FFB29A010210B46CC
:10205000F022CDE9001032210A20FFF705FB29A06C
:1020600010210B46D222CDE900105A210A20FFF799
:10207000FBFA2CA010210B46C822CDE900106E21DE
:102080000A20FFF7F1FA2BA010210B46C822CDE958
:102090000010A0210A20FFF7E7FA28A010210B4624
:1020A000C822CDE90010B4210A20FFF7DDFA26A0EE
:1020B00010210B46DC22CDE90010E6210A20FFF7B3
:1020C000D3FA1F2003490880FFF742F8FFF7B6F85C
:1020D0001CBD0000180000205052454348494E00E6
:1020E0007777772E7072656368696E2E636F6D0007
:1020F0004254303520426C7565546F6F74682054BB
:10210000657374004B45595F55503A524F4C45200A
:1021100020204B4559313A53454E442F53544F508C
:102120000000000048433035205374616E646279CA
:102130002100000053656E643A000000526563653B
:102140006976653A000000005072657373204B4554
:10215000593220746F20737769746368206D6F64DF
:1021600065000000F0B58DB004460D4616464FF6EA
:10217000FF701A23C8220A2100903220FFF786F947
:1021800070A010210B469622CDE900100A213220C2
:10219000FFF76AFA4FF6FF704223DC2232210090EB
:1021A0000A20FFF773F92B46224669A105A800F023
:1021B00013FF05A810210B46DC22CDE900103221C7
:1021C0000A20FFF751FA4FF6FF706023DC225021FE
:1021D00000900A20FFF75AF9324663A105A800F0E3
:1021E000FBFE05A810210B46DC22CDE90010502192
:1021F0000A20FFF739FA4FF6FF707E23DC226E21AA
:1022000000900A20FFF742F91C2C0ADD59A010218A
:102210000B46DC22CDE900106E210A20FFF724FADC
:1022200016E00F2C0ADA56A010210B46DC22CDE96D
:1022300000106E210A20FFF717FA09E054A01021C0
:102240000B46DC22CDE900106E210A20FFF70CFAC4
:102250004FF6FF709C23DC228C2100900A20FFF7B0
:1022600015F94E4880784D4949784C4A12784B4BC5
:10227000DB79CDE90032CDE90210484883798288C4
:1022800047A105A800F0A8FE05A810210B46DC22F6
:10229000CDE900108C210A20FFF7E6F94FF6FF7018
:1022A000BA23DC22AA2100900A20FFF7EFF8444865
:1022B000007808B143A000E043A0024643A105A86E
:1022C00000F08AFE05A810210B46DC22CDE90010A3
:1022D000AA210A20FFF7C8F94FF6FF70D823DC22A5
:1022E000C82100900A20FFF7D1F83B4800886421FC
:1022F00048433A49098890FBF1F73A4638A105A8C6
:1023000000F06AFE05A810210B46DC22CDE9001082
:10231000C8210A20FFF7A8F94FF6FF70F623DC2248
:10232000E62100900A20FFF7B1F831A010210B46FA
:10233000DC22CDE90010E6210A20FFF795F90DB067
:10234000F0BD000053656E736F72204461746100CC
:1023500054656D703A20253264432048756D693AA2
:1023600020253264252500004C696768743A2025D1
:10237000336400005374617475733A20486F7400BD
:102380005374617475733A20436F6C6400000000ED
:102390005374617475733A204F4B0000580000204D
:1023A000253034642D253032642D253032642025CB
:1023B0003032643A253032643A253032640000000D
:1023C000280000204F4E00004F4646004245455031
:1023D0003A20257300000000260000202400002081
:1023E000566F6C756D653A20256425250000000048
:1023F0005072657373204B45593220746F20737788
:1024000069746368206D6F6465000000042808D15A
:102410004FF0E021096941F004014FF0E022116121
:1024200007E04FF0E021096921F004014FF0E022BC
:10243000116170477047000010B504466FF004004A
:10244000FFF7E4FFE11704EB5171C1F3C701074A3D
:1024500011701046007800EB4001C1EBC0104FF640
:10246000FF7101EAC0000249088010BD3800002059
:102470003A00002010B51348006840F001001149EF
:10248000086008464068104908400E494860084600
:1024900000680E4908400B4908600846006820F4AF
:1024A000802008600846406820F4FE0048604FF431
:1024B0001F008860FFF737FD4FF000600449086097
:1024C00010BD0000001002400000FFF8FFFFF6FE04
:1024D00008ED00E000B59DB001210802FFF7EEF91C
:1024E00001200790002008900F20099000200A90FA
:1024F0000B900C900D9015200090019005200290FB
:102500000020039004900590069006200E90002075
:102510000F901090102011900020129014901390A2
:10252000159016904FF480501790002018904FF49B
:102530008040199000201A9007A81B90CDF870D009
:102540000EA8FEF7CBFB01210620FEF7ADFB1DB068
:1025500000BD000008B501214FF4B470FFF7DEF9AB
:102560004CF23370ADF8000018208DF80300032002
:102570008DF8020069461848FEF723FC4FF680707C
:10258000ADF8000018208DF8030003208DF802003C
:1025900069461248FEF715FC41F20100ADF8000053
:1025A00018208DF8030003208DF8020069460C48BE
:1025B000FEF707FC0120ADF8000010208DF80300A5
:1025C00003208DF8020069460648FEF7FAFB012059
:1025D0000549086008BD00000014014000180140D2
:1025E00000200140000C01408081214210B5FFF71E
:1025F000B1FFFFF76FFF322001F0B8FBD020FFF7EB
:1026000067F8FEF771FF89498880FEF76DFF8749FB
:1026100088800846818886A000F0CEFC1120FFF754
:1026200057F84FF4FA7401E0601E84B2002CFBDC12
:10263000B920FFF74DF8FF20FFF750F88320FFF790
:102640004DF85720FFF74AF84FF4FA7401E0601E86
:1026500084B2002CFBDCB120FFF73AF80020FFF732
:102660003DF81420FFF73AF81C20FFF737F81C203C
:10267000FFF734F8C320FFF731F84420FFF72EF8B6
:102680007020FFF72BF84FF4FA7401E0601E84B25B
:10269000002CFBDCB420FFF71BF82220FFF71EF80C
:1026A0004020FFF71BF80020FFF718F82A20FFF75B
:1026B00015F82A20FFF712F82020FFF70FF89120D5
:1026C000FFF70CF84FF4FA7401E0601E84B2002C9E
:1026D000FBDC3620FEF7FCFF4C20FEF7FFFFC0209E
:1026E000FEF7F6FF5020FEF7F9FF5020FEF7F6FF49
:1026F0000120FEF7F3FF3C20FEF7F0FFC820FEF7B5
:10270000EDFF0820FEF7EAFF0020FEF7E7FF0820B4
:10271000FEF7E4FF0420FEF7E1FF4FF4FA7401E056
:10272000601E84B2002CFBDC4FF4FA7401E0601EE2
:1027300084B2002CFBDCE020FEF7CAFF0B20FEF782
:10274000CDFF1120FEF7CAFF1E20FEF7C7FF302085
:10275000FEF7C4FF3A20FEF7C1FF4320FEF7BEFF9D
:102760004E20FEF7BBFF5620FEF7B8FF4520FEF7D0
:10277000B5FF3F20FEF7B2FF3920FEF7AFFF322052
:10278000FEF7ACFF2F20FEF7A9FF2A20FEF7A6FFD9
:102790002920FEF7A3FF2120FEF7A0FF0B20FEF764
:1027A0009DFF1120FEF79AFF1E20FEF797FF3020B5
:1027B000FEF794FF3A20FEF791FF4320FEF78EFFCD
:1027C0004E20FEF78BFF5620FEF788FF4520FEF7D0
:1027D00085FF3F20FEF782FF3920FEF77FFF322082
:1027E000FEF77CFF2F20FEF779FF2A20FEF776FF09
:1027F0002920FEF773FF2120FEF770FF0020FEF76F
:102800006DFF0120FEF76AFF3A20FEF761FF052009
:10281000FEF764FF2920FEF75BFF0020FEF704FEB1
:102820004FF6FF70FEF7DCFD10BD00001C0000201D
:10283000204C43442049443A25780D0A000000000A
:1028400010B50121084800F078F838B10748006851
:1028500008B9012000E00020044908600121024875
:1028600000F05CF810BD0000000800409401234215
:1028700010B50121094800F060F868B108480088E7
:1028800040F40040064908800121044800F046F861
:102890000021024800F045F810BD0000001400407F
:1028A000360000207FB505460C4601212020FFF7A9
:1028B00015F8ADF80450ADF800400020ADF8060062
:1028C000ADF8020069460E4800F0B0F8012211464A
:1028D0000B4800F043F80121094800F022F83720A6
:1028E0008DF80C0000208DF80D0002208DF80E00F0
:1028F00001208DF80F0003A8FEF796FF7FBD0000B2
:102900000014004021B1028842F08002028004E0FD
:1029100002884FF67F731A4002807047CA430282D2
:10292000704721B1028842F00102028004E002886F
:102930004FF6FE731A400280704730B50246002001
:1029400000230024158A05EA0103958905EA01049C
:1029500013B10CB1012000E0002030BD1AB1838911
:102960000B43838102E083898B438381704700009E
:1029700070B5002400220023058C4FF6FF66354019
:102980000584028C8388848B4FF68F752C404FF61C
:10299000FC752C400D882C434FF6FF552A400D89BD
:1029A0004FF6FF7606EA05252A434D8806EA0525F7
:1029B0002A43154DA84202D0144DA8421DD14FF212
:1029C000FF752A404D894FF6FF7606EA05252A4312
:1029D0004FF6FF352A408D8806EA05252A434EF634
:1029E000FF752B404DF6FF752B408D8906EA0515C6
:1029F0002B43CD8906EA05152B4383808483CD883C
:102A00008587028470BD0000002C01400034014025
:102A10000A460021818B4FF6F773194011438183D9
:102A200070478187704781847047000000220288C8
:102A30001D4B98420ED01D4B98420BD0B0F1804FE9
:102A400008D01B4B984205D01A4B984202D01A4B23
:102A5000984204D14FF68F731A404B881A43174B94
:102A6000984207D0164B984204D04FF6FF431A40C5
:102A7000CB881A4302808B8883850B8803850A4B99
:102A800098420BD0094B984208D00E4B984205D083
:102A90000D4B984202D00D4B984201D10B7A038620
:102AA0000123838270470000002C01400034014064
:102AB0000004004000080040000C004000100040EE
:102AC0000014004000400140004401400048014023
:102AD00010B540F225511D4800F0A7F910B31B486E
:102AE00000F05EFAC4B21A48008800F40040C8B989
:102AF0001748008800F4804060B10A2C03D0002001
:102B00001349088020E01248008840F40040104932
:102B1000088019E00D2C06D10D48008840F4804053
:102B20000B49088010E00A480088C0F30D000949ED
:102B30000C5407480088401C054908800846008856
:102B4000C72801DD0020088010BD000000380140CA
:102B50003C0000201205002010B586B0044601217B
:102B60000420FEF7DBFE01218803FEF7D7FE4FF4B9
:102B70000070ADF8140003208DF8160018208DF8B1
:102B8000170005A91E48FEF71CF94FF48060ADF848
:102B9000140004208DF8170005A91948FEF711F953
:102BA00001940020ADF80800ADF80A00ADF80C0063
:102BB000ADF810000C20ADF80E0001A9114800F08E
:102BC00083F901210F4800F0C8F840210D4800F0BA
:102BD000BBF8012240F225510A4800F050F92520A7
:102BE0008DF8000003208DF801008DF8020001200F
:102BF0008DF803006846FEF717FE06B010BD000012
:102C0000000801400038014010B540F22551164837
:102C100000F00BF9F8B1144800F0C2F9C4B213483F
:102C2000008800F40040B0B910480088B0F5167F65
:102C300012DA00210E48FFF7F6FE0C48008818B99A
:102C400001210B48FFF76DFE08490888411C074A1F
:102C5000118008490C5405E00448008840F4004005
:102C60000249088010BD00000048004036000020E6
:102C7000001400406200002010B586B00446012117
:102C80000820FEF74BFE01218804FEF727FE2A48A4
:102C900000F070F84FF48060ADF8100003208DF85C
:102CA000120018208DF8130004A92448FEF789F8B3
:102CB0004FF40060ADF8100004208DF8130004A953
:102CC0001E48FEF77EF800940020ADF80400ADF831
:102CD0000600ADF80800ADF80C000C20ADF80A00B5
:102CE0006946154800F0F0F80121134800F035F866
:102CF000012240F22551104800F0C1F827208DF83C
:102D0000140002208DF8150003208DF81600012014
:102D10008DF8170005A8FEF787FD41F61F416320D7
:102D2000FFF7C0FD00200649088000210548FFF795
:102D3000F8FD06B010BD000000480040000C014046
:102D4000360000200014004001F40072B2F5007F4C
:102D500000D100BFCA430280704721B1828942F48A
:102D60000052828104E082894DF6FF731A4082810D
:102D70007047000010B504462048844209D1012163
:102D80008803FEF7DBFD00214FF48040FEF7D6FDFF
:102D900032E01B48844209D101214804FEF7AEFD10
:102DA00000214FF40030FEF7A9FD25E015488442CC
:102DB00009D101218804FEF7A1FD00214FF48020F4
:102DC000FEF79CFD18E01048844209D10121C80497
:102DD000FEF794FD00214FF40020FEF78FFD0BE07D
:102DE0000A48844208D101210805FEF787FD002129
:102DF0004FF48010FEF782FD10BD00000038014046
:102E00000044004000480040004C0040005000409A
:102E100002460020B1F5007F00D100BF13880B40AF
:102E20000BB1012000E00020704770B5024600247D
:102E300000230025002040F66A16B14200D100BFF1
:102E4000C1F3421501F01F03012606FA03F3012D19
:102E500002D19689334006E0022D02D1168A334012
:102E600001E0968A33400C12012606FA04F4168813
:102E7000344013B10CB1012000E0002070BDF0B56A
:102E80000346002400260025002040F66A17B942B8
:102E900000D100BF1846C1F3421401F01F060127FC
:102EA00007FA06F5012C01D10C3004E0022C01D107
:102EB000103000E014301AB107682F43076002E0B9
:102EC0000768AF430760F0BD2DE9F04786B00546BF
:102ED0000E460024A24600BFA1460027B08900B1DB
:102EE00000BF2F462C8A4CF6FF700440F088044344
:102EF0002C82AC894EF6F3100440B0883189084327
:102F0000718908430443AC81AC8A4FF6FF4004400A
:102F1000B0890443AC8201A8FEF726FD1F48874212
:102F200002D1DDF810A001E0DDF80CA0A88900F4C2
:102F3000004040B10AEBCA0000EB0A1031684900BA
:102F4000B0FBF1F807E00AEBCA0000EB0A103168A9
:102F50008900B0FBF1F86420B8FBF0F0040120090F
:102F6000642101FB1089A88900F4004040B132209F
:102F700000EBC900B0FBF1F000F00700044308E0EB
:102F8000322000EB09106421B0FBF1F000F00F00DB
:102F900004432C8106B0BDE8F087000000380140F2
:102FA00001468888C0F308007047C1F30802828098
:102FB000704700BFFEE700000FB4054B10B503A932
:102FC000044A029800F000F910BC5DF814FB000000
:102FD000053E0008400000200FB4084B10B504A9BE
:102FE00002AA039800F0F0F8044602A9002000F0BD
:102FF000B3FE204610BC5DF814FB0000593D0008EC
:1030000037B514460846064B6A46214600F0E4FAF6
:1030100004466946002000F0A4FE20463EBD0000A4
:10302000633D000802E008C8121F08C1002AFAD157
:1030300070477047002001E001C1121F002AFBD138
:10304000704700002DE9FF5F82B00021DDE9043008
:10305000020DDDF840B0034318D044F61050A2F240
:10306000FF3242431514119801281FD0A5EB0B0025
:10307000401C5FEA000A4FF000064E4FDFF838911F
:10308000B046504615D5CAF1000413E0119801244A
:103090004AA3012801D16FEA0B010298119AC0E9F5
:1030A0000031C0E9024206B0BDE8F09FCBF100005C
:1030B000DFE704460021404A491842EB0450CDE9BD
:1030C000001012E0E00707D032463B464046494632
:1030D000FDF75FF88046894632463B461046194662
:1030E000FDF757F806460F466410002CEAD1DDE9DB
:1030F0000401DDE90023BAF1000F06DAFDF749F813
:1031000042464B46FDF745F805E0FDF70FFA42460B
:103110004B46FDF70BFA04460E460022284BFDF7FE
:103120008DFA03D84FF0FF30014607E00022254B0F
:1031300020463146FDF753F9FDF767FA102409E000
:10314000002C0ADB0A220023FDF7ABF8039B303288
:103150001A55641E50EA0102F2D1641C039AC4F1AC
:1031600011031444119A012A03D0012208430DD1FE
:103170000AE0084304D000204FF0110B119072E7D1
:10318000A3EB0B056D1E0DE05B4504DD4FF0000267
:1031900005F1010504E003DA4FF00002A5F1010595
:1031A000002AECD002981199C0E90231C0E900452B
:1031B00079E70000000014400000F03F30000000FC
:1031C0000000F0430000E03F2DE9FF4F8DB00F46B7
:1031D0000546002606E025280BD0DDE90F129047B2
:1031E0006D1C761C28780028F5D111B03046BDE85A
:1031F000F08F0024A246A1460122EC4900E00443DE
:1032000015F8013F203B02FA03F00842F7D1287875
:103210002A2810D06FF02F022878A0F13001092958
:1032200014D80AEB8A0102EB410144F0020400EBDE
:10323000010A6D1CF0E701CF5FEA000A03D544F4F0
:103240000054CAF1000A44F002046D1C28782E28AC
:1032500017D115F8010F44F004042A280ED06FF09E
:103260002F022878A0F1300109290AD809EB890139
:1032700002EB410100EB01096D1CF2E757F8049BDA
:103280006D1C28786C280FD006DC4C2817D06828D5
:103290000DD06A2814D104E0742810D07A280FD1F8
:1032A0000DE044F400140AE044F4801401E044F416
:1032B00040146978814202D104F580146D1C6D1CA4
:1032C0002A786E2A1FD00CDC632A31D004DC002A55
:1032D0008BD0582A11D1A3E0642A68D0692A0CD176
:1032E00065E0732A2ED004DC6F2A73D0702A04D1D3
:1032F0009BE0752A6FD0782A6ED01046DDE90F1258
:103300009047761C50E1C4F30250022806D00328EF
:1033100009D0042801CF09D0066045E101CFF1179B
:10332000C0E9006140E101CF06803DE106703BE16C
:1033300017F8040B8DF8000000208DF80100EB4613
:10334000012003E057F804BB4FF0FF3061074FF056
:10335000000102D40DE008F10101884649450FDA69
:103360008045F8DB1BF808100029F4D108E008F1CB
:10337000010188468142FADB1BF808100029F6D1CA
:10338000DDE90F23AAEB08008146214600F0B6FCD8
:10339000304400EB080604E0DDE90F121BF8010BD6
:1033A0009047B8F10108F7D221464846F7E00A21D4
:1033B000C4F302534FF0000B0891022B04D001CF4D
:1033C000C117032B09D00AE0FF1D27F00707F7E814
:1033D000020108E032E01FE020E000B2C117042B38
:1033E00001D140B2C117031E71F1000307DA4FF09B
:1033F000000CD0EB0C006CEB01012D2302E0230547
:1034000004D52B238DF82430012303E0E30701D0FA
:103410002023F7E7984658E00A2110E010210EE03B
:1034200010204FF0000B08900CE010214FF0000B23
:1034300044F004044FF00809089103E008214FF01C
:10344000000B0891C4F30253022B04D001CF0021DA
:10345000032B06D006E0FF1D27F00707F7E802015F
:1034600003E080B2042B00D1C0B24FF00008230764
:103470002BD5702A07D0DDF820C08CF0100C5CEA48
:103480000B0C05D00EE040238DF82430012308E01A
:1034900050EA010306D030238DF824308DF8252022
:1034A00002239846DDF820C08CF0080C5CEA0B0C77
:1034B0000BD150EA010301D1630706D530238DF803
:1034C00024304FF00108A9F10109582A04D038A28C
:1034D0000B9208AA0A920BE03AA2F9E75B46089A17
:1034E000FCF7DFFE0B9B9B5C0A9A521E0A9213703C
:1034F00050EA0102F2D10A98ADEB000000F1200B76
:10350000600702D524F4803401E04FF00109D94569
:1035100002DDA9EB0B0000E0002000EB0B014144B1
:103520000890AAEB010AE00306D4DDE90F23214647
:10353000504600F0E3FB06444FF0000908E009A9FB
:1035400011F80900DDE90F12904709F10109761C15
:10355000C145F4DBE0030CD5DDE90F2321465046DD
:1035600000F0CCFB064404E0DDE90F123020904768
:10357000761C0899481E08900029F5DC08E00A9896
:103580000A990078491C0A91DDE90F129047761CD0
:10359000BBF10001ABF1010BF1DC21465046DDE946
:1035A0000F2300F087FB06446D1C1BE60928010071
:1035B00030313233343536373839616263646566A9
:1035C000000000003031323334353637383941426B
:1035D00043444546000000002DE9FF4F95B09B464F
:1035E0008946064600250FE2252877D10024274684
:1035F000F84A0121059400E0044316F8013F203BFE
:1036000001FA03F01042F7D130782A2811D06FF078
:103610002F033078A0F13002092A16D8059A44F019
:10362000020402EB820203EB42021044761C059076
:10363000EFE759F8042B0592002A03DA504244F4CC
:103640000054059044F00204761C30782E2816D1E0
:1036500016F8010F44F004042A280DD06FF02F0251
:103660003078A0F13003092B09D807EB870302EB70
:103670004303C718761CF3E759F8047B761C3078AF
:103680006C280FD006DC4C2817D068280DD06A288B
:1036900014D104E0742810D07A280FD10DE044F43E
:1036A00000140AE044F4801401E044F440147278F9
:1036B000824202D104F58014761C761C307866288C
:1036C0000BD013DC582877D009DC002875D04528AA
:1036D000F6D04628F4D047281AD19DE118E0632897
:1036E00035D0642879D0652812D195E1702873D03F
:1036F00008DC6728F1D069286FD06E280DD06F28BC
:1037000006D1B5E073282CD0752875D0782874D0F0
:103710005A46179990476D1C75E1C4F30250022870
:1037200009D003280DD0D9F8001004280DD00D6061
:1037300009F1040967E1D9F80010EA17C1E900525C
:10374000F6E7D9F800100D80F2E70D70F0E719F8F0
:10375000041B8DF8001000208DF80100EA460120BE
:1037600003E059F804AB4FF0FF3061074FF0000160
:1037700002D40DE008F101018846B9420FDA804514
:10378000F8DB1AF808100029F4D108E008F101016B
:1037900088468142FADB1AF808100029F6D105980C
:1037A0005B46A0EB080721463846179A00F0BDFAA1
:1037B000284400EB080507E04DE029E10DE01AF888
:1037C000010B5A4617999047B8F10108F7D25B46AA
:1037D00021463846179A13E142E00A220092C4F3C8
:1037E00002524FF0000A022A08D059F804CB032AEB
:1037F0004FEAEC710AD00DE029E02AE009F1070157
:1038000021F00702F2E802C1914609E00FFA8CFCB0
:103810004FEAEC71042A03D14FFA8CFC4FEAEC71A9
:10382000002907DA0A460021DCF1000C61EB0201F5
:103830002D2202E0220504D52B228DF8042001223E
:1038400003E0E20701D02022F7E7904659E00A2181
:1038500002E010220DE010214FF0000A00910BE071
:1038600010224FF0000A44F004040827009203E0FD
:1038700008224FF0000A0092C4F30252022A05D037
:1038800059F804CB0021032A08D009E009F1070107
:1038900021F00702F2E802C1914605E01FFA8CFC14
:1038A000042A01D10CF0FF0C4FF00008220728D5A4
:1038B000702806D0009B83F0100353EA0A0305D05A
:1038C0000EE040228DF80420012208E05CEA0102AB
:1038D00006D030228DF804208DF805000222904693
:1038E000009B83F0080353EA0A030AD15CEA010251
:1038F00001D1620705D530228DF804204FF0010870
:103900007F1E582804D034A003900EA802900DE02A
:1039100036A0F9E753466046009AFCF7C2FC84469D
:103920000398825C0298401E029002705CEA0100DB
:10393000F0D1029806A9081A00F1200A600702D502
:1039400024F4803400E00127574502DDA7EB0A008C
:1039500000E0002000EB0A01009005984144401A65
:103960000590E00306D45B462146179A059800F0BF
:10397000DCF90544002706E001A85A46C05D179906
:1039800090476D1C7F1C4745F6DBE0030CD55B467A
:103990002146179A059800F0C8F9054404E0302044
:1039A0005A46179990476D1C0099481E00900029AF
:1039B000F5DC08E0029802995A460078491C029109
:1039C000179990476D1CBAF10001AAF1010AF1DCC8
:1039D00065E10000092801003031323334353637D3
:1039E000383961626364656600000000303132334B
:1039F00034353637383941424344454600000000EB
:103A000000F06AF90544761C307800287FF4ECADAC
:103A100019B02846BDE8F08F620700D4062709F1E7
:103A2000070222F0070CFCE80223E14603F00048FD
:103A30005FEA080C02D00FF2702C0DE05FEA045C24
:103A400002D50FF2682C07E05FEAC47C02D00FF2C7
:103A5000602C01E0AFF2700C4FF0FF3823F0004310
:103A6000CDF850C065280CD006DC452809D0462882
:103A70001DD047283DD13DE0662818D067287ED16B
:103A800038E00021112F01DB112000E0781CCDE986
:103A9000000106A90EA8FFF7D5FADDE90F010E9A7D
:103AA00003910021009207F1010A04914DE04FF0CB
:103AB00000400097CDE9011006A90EA8FFF7C2FA51
:103AC000DDE90F0203920E9B11990022DDF80CA094
:103AD0000093049211B9791C00EB010AB7EB0A00BC
:103AE00004D4C0F1FF3007F1010A0490AAEB0700EB
:103AF000019044E0012F00DA01270021112F01DDA0
:103B0000112000E03846CDE9000106A90EA8FFF714
:103B100099FADDE90F010E9A0391002104910092B8
:103B2000BA4621070CD40399514500DA8A46BAF106
:103B3000010F05DD009AAAF10101515C302908D07E
:103B4000B84202DA10F1040F06DA0121CDE90110C2
:103B500015E0AAF10101E9E7002805DC0499014418
:103B60000491AAEB000102E0411C514500DD8A46A8
:103B70000499401A401C01904FF000400290200729
:103B800004D40198504501DBCDF8048000208DF865
:103B90004F0002980DF14F07B0F1004F25D02B20B8
:103BA0000E9002984FF0020800280CDA4042029072
:103BB0002D200E9007E00A210298FCF75CFB3031C3
:103BC000029007F8011DB8F10001A8F10108F2DC2C
:103BD00002980028EFD1791E0E980870307800F016
:103BE000200040F0450007F8020D12A8C01B00F1AC
:103BF00007081498007800B1012000EB0A01019831
:103C000001EBE07105984144401A401E0590E00325
:103C100006D45B462146179A059800F086F80544BD
:103C20001498007818B15A46179990476D1CE00314
:103C300024D55B462146179A059800F076F805448E
:103C40001CE00498002807DBDDE90301884203DD5E
:103C50000098405C179901E0179930205A46904728
:103C6000049805F10105401C04900198401E019044
:103C700004D12E205A46179990476D1CBAF10001C5
:103C8000AAF1010ADDDC05E017F8010B5A46179985
:103C900090476D1CB8F10001A8F10108F4DC5B4607
:103CA0002146179A0598ABE62D0000002B00000076
:103CB000200000002DE9F041044600251E4617466D
:103CC000880404D405E039462020B0476D1C641EEA
:103CD000F9D52846BDE8F0812DE9F04104460025DC
:103CE0001E461746880404D405E039462020B04714
:103CF0006D1C641EF9D52846BDE8F0812DE9F04120
:103D0000044600251E469046C80301D5302700E032
:103D10002027880404D505E041463846B0476D1C8D
:103D2000641EF9D52846BDE8F0812DE9F04104462E
:103D300000251E469046C80301D5302700E0202705
:103D4000880404D505E041463846B0476D1C641E22
:103D5000F9D52846BDE8F0810A68531C0B60107045
:103D600070470A68531C0B60107070470146114A77
:103D700012884A434FF0E0235A6100229A611A46A2
:103D8000126942F001021A6100BF4FF0E02210698F
:103D900000F001021AB100F48032002AF5D04FF091
:103DA000E022126922F001024FF0E0231A610022A2
:103DB0009A6170473A0000200146114A12784A433E
:103DC0004FF0E0235A6100229A611A46126942F0CC
:103DD00001021A6100BF4FF0E022106900F00102F9
:103DE0001AB100F48032002AF5D04FF0E0221269B7
:103DF00022F001024FF0E0231A6100229A6170471D
:103E00003800002070B504460D46E1B20548FFF7C2
:103E1000CCF800BF80210348FEF7FAFF0028F9D054
:103E2000204670BD003801401FB50020039002906D
:103E300000270024002600254820FEF7FDFA4FF455
:103E4000A060FDF729FD4FF4E130FEF785FE4FF449
:103E50001650FEF711FFFEF7C9FB4FF6FF70FDF796
:103E6000BFFA0020B8490880FCF738FEFDF788FC4F
:103E7000FDF74AFFFDF744FEFDF744FAFDF73CFC71
:103E8000FCF71CFDB1A018210B46C822CDE900109B
:103E90003C210846FDF7E8FB4FF47A70FFF766FF18
:103EA0004FF47A70FFF762FF1DE0ABA0FFF784F8D4
:103EB000ADA010210B46C822CDE9001064210A20D4
:103EC000FDF7D2FB4FF4FA70FFF750FFAAA01021C4
:103ED0000B46C822CDE9001064210A20FDF7C4FB7F
:103EE0006420FFF743FFFDF7B1F80028DDD1A6A05D
:103EF000FFF762F84FF6FF70FDF772FA02A903A808
:103F0000FCF741FEFDF71EFC07463A469DF80810F7
:103F10009DF80C00FEF726F915E10020FDF710FAD8
:103F20000446042C18D19B48007808B9012000E011
:103F30000020984908700846007858B94FF6FF707D
:103F4000FDF74EFA3A469DF808109DF80C00FEF772
:103F500009F901E0FEF75CF88E480078B0BB012C4F
:103F600009D1FCF71FFD3A469DF808109DF80C009A
:103F7000FEF7F8F80AE0032C08D1FCF71FFD3A46DB
:103F80009DF808109DF80C00FEF7ECF8FDF7B8FD61
:103F900002A903A8FCF7F7FD30B93A469DF80810CE
:103FA0009DF80C00FEF7DEF8FDF7CCFB07460A2073
:103FB00096FBF0F100FB1160002806D13A469DF80F
:103FC00008109DF80C00FEF7CDF8B7E0FFE7012CD4
:103FD0001AD1FCF7EFFF0446FF2C2BD00CB90120BF
:103FE00000E0002004461CB96BA0FDF7D9F802E000
:103FF0006CA0FDF7D5F8FDF7ABF86DA0FDF7D0F894
:10400000C820FFF7B3FE15E0032C13D16B480078EE
:1040100008B9012000E000206849087008460078CF
:1040200040B94FF6FF70B023F022A021009032205B
:10403000FDF72CFA322096FBF0F100FB116080BBFB
:104040005E48007818B35E4802785EA16248FEF7C9
:10405000C3FF614810210B46C822CDE90010A02102
:104060003220FDF701FB5C495CA0FEF7A5FF544838
:10407000017854A000F0E6F851480078401C5049FF
:10408000087008460078632801DD00200870FDF7FD
:10409000D5F85448006808B9012000E000205149D3
:1040A00008605148008800F40040002846D04FF6D0
:1040B000FF704FF4A073F022C82100900A20FDF792
:1040C000E5F949480088C5B20020484948552946C5
:1040D00047A0FEF771FF454948A0FEF76DFF0A2D86
:1040E00001D00B2D1DD14AA14048FCF744F810B96E
:1040F00000204A4908604AA13C48FCF73CF810B946
:1041000001204649086049A13848FCF734F808B94D
:10411000FCF734FC48A13548FCF72DF808B9FCF74A
:104120001FFC324810217723D122CDE90010C8218D
:104130000A20FDF799FA00202B4908803220FFF76A
:1041400015FE701CC6B2E8E61800002053746172B8
:1041500074696E672E2E2E004843303520457272EA
:104160006F72210D0A0000004843303520457272FD
:104170006F72212020202000506C65617365204300
:104180006865636B2121210048433035204F4B2166
:104190000D0A00000000002041542B524F4C453DB9
:1041A0003000000041542B524F4C453D310000007F
:1041B00041542B524553455400000000010000209B
:1041C000020000205052454849434E2048433035B4
:1041D0002025640D0A0000004400002025730D0A0C
:1041E000000000009481214236000020620000207F
:1041F0007265636C656E3D25640D0A00555341522E
:1042000054335F52585F4255463D25730D0A0000F6
:104210002B4C454432204F4E0D0A0000940123429E
:104220002B4C454432204F46460D0A002B42454553
:1042300050204F4E0D0A00002B42454550204F465E
:10424000460D0A000FB438B505A800900F48009A33
:104250000499FEF7D5FE002000900C48FBF784FF80
:1042600085B200240DE000BF40210948FEF7D0FDD3
:104270000028F9D00548015D0548FEF796FE601C50
:1042800084B2AC42EFDB38BC5DF814FBBA0200200C
:104290000048004000000000000000000000000096
:1042A000000000003F40000000000000000030005F
:1042B000400030004000000009000BC03D000BC072
:1042C0003D00090018C024407FE0224031800000FA
:1042D000180024C01B000D803240018003801C4068
:1042E00027401C80074000401000600000000000D4
:1042F000000000000000000000001F80204040205F
:104300000000402020401F8000000000090006003F
:104310001F80060009000000040004003F80040024
:104320000400000000100060000000000000000019
:104330000400040004000400040000000000004029
:104340000000000000000000002001C0060038004E
:10435000400000001F802040204020401F800000BF
:10436000000010403FC000400000000018C0214085
:104370002240244018400000108020402440244067
:104380001B80000002000D0011003FC00140000032
:104390003C80244024402440238000001F8024408F
:1043A00024403440038000003000200027C0380043
:1043B000200000001B802440244024401B8000007B
:1043C0001C0022C0224022401F800000000000008C
:1043D0000840000000000000000000000460000031
:1043E00000000000000004000A001100208040408E
:1043F0000900090009000900090000000000404010
:10440000208011000A00040018002000234024002E
:10441000180000001F802040274029401F40000056
:10442000004007C039000F0001C0004020403FC0DD
:10443000244024401B8000001F802040204020405A
:104440003080000020403FC0204020401F800000FE
:1044500020403FC024402E4030C0000020403FC0DC
:1044600024402E00300000000F0010802040224029
:104470003380020020403FC0040004003FC02040C1
:10448000204020403FC0204020400000006020200D
:1044900020203FC02000200020403FC024400B00CF
:1044A00030C0204020403FC020400040004000C0BD
:1044B0003FC03C0003C03C003FC0000020403FC064
:1044C0000C4023003FC020001F802040204020409F
:1044D0001F80000020403FC024402400180000003E
:1044E0001F802140214020E01FA0000020403FC04D
:1044F0002440260019C0004018C024402440224017
:1045000031800000300020403FC0204030000000DB
:1045100020003F80004000403F80200020003E00FF
:1045200001C0070038002000380007C03C0007C069
:1045300038000000204039C0060039C0204000008B
:104540002000384007C0384020000000304021C023
:104550002640384020C00000000000007FE04020DE
:1045600040200000000070000C00038000400000AC
:104570000000402040207FE00000000000002000FC
:10458000400020000000000000100010001000108B
:1045900000100010000000004000000000000000BB
:1045A000000002800540054003C0004020003FC0DD
:1045B00004400440038000000000038004400440E5
:1045C0000640000000000380044024403FC000403B
:1045D0000000038005400540034000000000044047
:1045E0001FC0244024402000000002E00550055078
:1045F0000650042020403FC00440040003C0004097
:104600000000044027C0004000000000001000101F
:10461000041027E00000000020403FC001400700D8
:1046200004C00440204020403FC000400040000043
:1046300007C0040007C0040003C00000044007C016
:104640000440040003C00040000003800440044014
:1046500003800000041007F00450044003800000B1
:10466000000003800440045007F00010044007C01D
:104670000240040004000000000006400540054020
:1046800004C00000000004001F800440004000003F
:10469000040007800040044007C0004004000700F9
:1046A00004C0018006000400060001C0070001C02C
:1046B00006000000044006C0010006C004400000DF
:1046C0000410071004E0018006000400000004400C
:1046D00005C00640044000000000000004007BE02C
:1046E00040200000000000000000FFF0000000007B
:1046F000000040207BE0040000000000400080003B
:1047000040002000200040000000000000000000E9
:1047100000000000000000000000000000001FCCAE
:10472000000C0000000000000000080030006000E5
:104730000800300060000000022003FC1E20022060
:1047400003FC1E200220000000000E1811043FFF91
:1047500010840C78000000000F0010840F3800C097
:10476000077818840078000000780F8410C41124A2
:104770000E9800E400840008080068007000000043
:10478000000000000000000000000000000007E042
:1047900018182004400200000000400220041818ED
:1047A00007E00000000000000240024001800FF01E
:1047B00001800240024000000080008000800FF86D
:1047C00000800080008000000001000D000E00004D
:1047D0000000000000000000000000800080008059
:1047E00000800080008000800000000C000C0000B1
:1047F000000000000000000000000006001800603B
:104800000180060018002000000007F008081004CE
:104810001004080807F000000000080408041FFC4A
:10482000000400040000000000000E0C101410240E
:10483000104411840E0C000000000C181004110428
:10484000110412880C700000000000E00320042412
:1048500008241FFC0024000000001F98108411048D
:104860001104108810700000000007F0088811047F
:10487000110418880070000000001C00100010FCDB
:1048800013001C001000000000000E3811441084BA
:10489000108411440E38000000000700088C1044FA
:1048A0001044088807F00000000000000000030C1E
:1048B000030C0000000000000000000000010106E1
:1048C0000000000000000000000000800140022005
:1048D0000410080810040000022002200220022018
:1048E000022002200220000000001004080804102A
:1048F000022001400080000000000E001200100C99
:10490000106C10800F00000003E00C1813E4142456
:1049100017C4082807D000000004003C03C41C4052
:10492000074000E4001C000410041FFC11041104E3
:1049300011040E880070000003E00C18100410042D
:10494000100410081C10000010041FFC10041004B8
:104950001004080807F0000010041FFC11041104E3
:1049600017C410040818000010041FFC11041100E3
:1049700017C010000800000003E00C181004100419
:1049800010441C780040000010041FFC10840080BC
:10499000008010841FFC10040000100410041FFC91
:1049A00010041004000000000003000110011001B9
:1049B0001FFE10001000000010041FFC11040380F3
:1049C0001464181C1004000010041FFC10040004E0
:1049D00000040004000C000010041FFC1F0000FC79
:1049E0001F001FFC1004000010041FFC0C04030037
:1049F00000E010181FFC100007F008081004100455
:104A00001004080807F0000010041FFC1084108038
:104A1000108010800F00000007F0081810241024E8
:104A2000101C080A07F2000010041FFC11041100FA
:104A300011C011300E0C000400000E1C1104108473
:104A4000108410441C3800001800100010041FFCD3
:104A5000100410001800000010001FF810040004DB
:104A6000000410041FF8100010001E0011E0001CCC
:104A7000007013801C0010001FC0103C00E01F00DD
:104A800000E0103C1FC000001004180C163401C0D8
:104A900001C01634180C100410001C00130400FC94
:104AA00013041C00100000000804101C1064108483
:104AB00013041C04101800000000000000007FFE1A
:104AC0004002400240020000000030000C00038061
:104AD0000060001C00030000000040024002400291
:104AE0007FFE0000000000000000000020004000E9
:104AF0004000400020000000000100010001000112
:104B00000001000100010001000040004000200001
:104B10000000000000000000000000980124014493
:104B20000144014400FC000410001FFC0088010443
:104B3000010400880070000000000070008801047B
:104B400001040104008800000000007000880104D6
:104B5000010411081FFC0004000000F80144014496
:104B60000144014400C800000000010401040FFCDE
:104B70001104110411001800000000D601290129B8
:104B8000012901C90106000010041FFC0084010076
:104B90000100010400FC000400000104190419FCD8
:104BA00000040004000000000000000300010101F7
:104BB000190119FE0000000010041FFC0024004031
:104BC00001B4010C010400000000100410041FFCDB
:104BD0000004000400000000010401FC01040100C5
:104BE00001FC0104010000FC010401FC008401003F
:104BF0000100010400FC0004000000F801040104AD
:104C00000104010400F80000010101FF0085010416
:104C1000010400880070000000000070008801049A
:104C20000104010501FF00010104010401FC0084ED
:104C30000104010001800000000000CC01240124D7
:104C4000012401240198000000000100010007F880
:104C50000104010400000000010001F80004000448
:104C60000004010801FC0004010001800170000C37
:104C7000001001600180010001F0010C003001C052
:104C80000030010C01F0010000000104018C0074EF
:104C90000170018C01040000010101810171000E0D
:104CA000001801600180010000000184010C013442
:104CB00001440184010C000000000000000000001D
:104CC00001003EFC40024002000000000000000025
:104CD000FFFF0000000000000000400240023EFC18
:104CE0000100000000000000000060008000800063
:104CF00040004000200020000000000000000000F4
:104D000000000000000000000000000000000000A3
:104D10000000000000000000000000000000000093
:104D200000000000000000000000000F80380FFEAF
:104D3000380F803800000000000000000000000074
:104D40000000000000000100000600000C00003818
:104D500000003100000600000C00003800003000A8
:104D6000000000000000000061800067F807F98083
:104D70000061800061800061800061800067F80749
:104D8000F98000618000000000000000000001C008
:104D9000E003E0F00630080418081FFFFE040E08C8
:104DA0000787F00381E000000000000001F000062A
:104DB0000C00040408060C7001F9C0000E00003B52
:104DC000E000EC18070808040C180003E0000000DD
:104DD0000001E00007F003F818041C080417080796
:104DE000E1D003C0E00023B0003C08002008000030
:104DF000100000000000000100003100003200003F
:104E00001C00000000000000000000000000000086
:104E10000000000000000000000000000000000092
:104E200000000000000000007F0001FFC00780F0CC
:104E30000C001810000420000200000000000020F8
:104E400000021000040C00180780F001FFC0007F72
:104E50000000000000000000000000000000000052
:104E6000000000004200006600006600003C0000F8
:104E7000180003FFC0001800003C00006600006638
:104E800000004200000000000800000800000800C8
:104E900000080000080001FFC00008000008000032
:104EA00008000008000008000000000000010000E9
:104EB0003100003200001C00000000000000000073
:104EC00000000000000000000000000000000000E2
:104ED00008000008000008000008000008000008A2
:104EE00000000800000800000800000800000000A2
:104EF000000000000000000038000038000038000A
:104F000000000000000000000000000000000000A1
:104F10000000000000000000000600001C000070FF
:104F2000000180000E0000380000C0000700001CD7
:104F30000000300000000000000000007F8001FF42
:104F4000E00380700600180400080400080600183A
:104F500003807001FFE0007F80000000000000007F
:104F6000000001000801000801000803FFF807FF26
:104F7000F800000800000800000800000000000021
:104F800000000001C03802C0580400980401180451
:104F90000218040418061C1803F81801E0F80000B1
:104FA0000000000000000001C0E003C0F0040008A1
:104FB00004080804080806180803F41801E7F000BC
:104FC00001E0000000000000000000000300000DF0
:104FD0000000110000610000810803010807FFF8CC
:104FE0000FFFF800010800010800000000000000A9
:104FF00000E007FCD0060808061008061008061096
:1050000008061838060FF00607C000000000000070
:10501000000000003F8001FFE00384300208180414
:105020001008041008041008071810030FF00007F8
:10503000C000000000000000000003C000070000E6
:105040000600000600F80607F806180006E000074C
:10505000000006000000000000000001E1E003F78E
:10506000F0063410041808041808040C08040C088E
:1050700006161803F3F001C1E00000000000000074
:10508000F80003FC30030638040208040208040296
:10509000080404100308F001FFC0007F00000000B6
:1050A0000000000000000000000000000000000000
:1050B00070380070380070380000000000000000F8
:1050C00000000000000000000000000000000000E0
:1050D00000000000301A00301C000000000000003A
:1050E00000000000000000000000000000000008B8
:1050F00000001400002200004100008080010040F8
:105100000200200400100800080000000000000059
:1051100021000021000021000021000021000021C9
:1051200000002100002100002100002100000000FB
:105130000000000000000800080400100200200128
:1051400000400080800041000022000014000008A0
:105150000000000000000003C00004C000040000C4
:10516000080038080F380808380810000C3000070D
:10517000E00003C000000000000000003F8000FFCE
:10518000E0038070020F1006708804C08804830852
:10519000047F8802C09003012000FE400000080048
:1051A00000180001F8003E0801C20007020007E2F3
:1051B0000000FE00001FC80001F8000038000008D1
:1051C00004000807FFF807FFF804080804080804AB
:1051D000080804080806180803F41801E7F000019D
:1051E000E0000000000000003F8001FFE00380704D
:1051F0000200180400080400080400080400100657
:1052000000200780C000000004000807FFF807FF27
:10521000F804000804000804000804001802001044
:1052200003807001FFE0007F800000000400080799
:10523000FFF807FFF8040808040808040808040831
:1052400008043E0804000806001801006000000081
:1052500004000807FFF807FFF80408080408000422
:105260000800040800043E0006000006000001805B
:1052700000000000000000003F8001FFE00380709C
:105280000600180400080402080402080203F007DC
:1052900083F000020000020004000807FFF807FF87
:1052A000F8040808000800000800000800000800D2
:1052B00004080807FFF807FFF804000800000000D2
:1052C000000004000804000804000807FFF807FFB6
:1052D000F8040008040008040008000000000000B2
:1052E00000000000000600000700000104000104A7
:1052F000000104000307FFFE07FFFC040000040098
:105300000004000004000807FFF807FFF8040C0879
:10531000001800003E0004C7800503C80600F8041A
:10532000003804001800000804000807FFF807FF11
:10533000F804000800000800000800000800000849
:1053400000000800001800006000000004000807CA
:10535000FFF807800807FC00007FC00003F8000783
:10536000C000780007800807FFF807FFF80400086E
:1053700004000807FFF807000803C00000E0000071
:105380003800001E000007000001C00400F007FF05
:10539000F8040000000000007F8001FFE00380703F
:1053A0000600180400080400080600180300300175
:1053B000FFE0007F8000000004000807FFF807FFFF
:1053C000F8040408040400040400040400040400B5
:1053D000060C0003F80001F00000000000000000CF
:1053E0007F8001FFE00380700600880400880400CD
:1053F000C806003C03003E01FFE6007F8400000079
:1054000004000807FFF807FFF80408080408000470
:105410000C00040F00040BC00610F003F03801E08C
:105420000800000800000001E0F803F0300630102A
:10543000041808041808040C08040C0802061802D2
:1054400007F00781E0000000018000060000040072
:105450000004000004000807FFF807FFF804000834
:1054600004000004000006000001800004000007A2
:10547000FFE007FFF004001800000800000800002B
:105480000800000800000804001007FFE004000006
:1054900004000006000007E00007FE00041FE00013
:1054A00001F80000380001E0043E0007C0000600DB
:1054B0000004000004000007E00007FFC0041FF81C
:1054C0000007C007F80007FF80043FF80007C0048A
:1054D000F8000700000400000000000400080600B7
:1054E0001807C07805F1C8003E00001F800463E87B
:1054F0000780F806001804000800000004000006F9
:10550000000007800007E008047C08001FF800077F
:10551000F800180804E00807000006000004000076
:105520000000000100080600380400F80403E80445
:105530000F08047C0805F00807C0080700180400DD
:1055400060000000000000000000000000000000FB
:105550000000003FFFFE2000022000022000022089
:10556000000220000200000000000000000008000F
:105570000007000000C0000038000006000001C065
:1055800000003000000E00000100000000000000DC
:105590000000200002200002200002200002200063
:1055A000023FFFFE000000000000000000000000BD
:1055B00000000000000000000008000010000030A3
:1055C0000000200000300000100000080000000073
:1055D00000000000000001000001000001000001C7
:1055E00000000100000100000100000100000100B6
:1055F00000010000010000010000000000000000A8
:10560000002000002000001000001000000000003A
:10561000000000000000000000000000000000008A
:1056200000F00019F8001B180022080026080024CA
:1056300008002410003FF8001FF8000008000018C0
:1056400000000004000007FFF80FFFF0001818002A
:105650001008002008002008003018001FF0000F7C
:10566000C00000000000000007C0001FF00018305C
:10567000002008002008002008003C08001C100042
:1056800000600000000000000000000007C0001FD4
:10569000F00038180020080020080020080410102E
:1056A00007FFF80FFFF000001000000000000000EE
:1056B00000000007C0001FF0001230002218002276
:1056C00008002208003208001E10000E2000000012
:1056D00000000000200000200800200801FFF8035F
:1056E000FFF8062008042008042008072000030013
:1056F0000000000000000000000E000E6E001FF30E
:105700000031B10020B10020B1003191001F130021
:105710002E1E00200E00300000000004000807FFCD
:10572000F80FFFF8001008002000002000002008FB
:10573000003FF8001FF80000080000000000000013
:105740000000002008002008002008063FF8063F5F
:10575000F800000800000800000800000000000039
:105760000000000000000000030000030020010012
:105770002001002003063FFE063FFC000000000061
:105780000000000000000004000807FFF80FFFF809
:10579000000188000300002FC00038F80020380006
:1057A00020080000080000000000000000000400C5
:1057B0000804000804000807FFF80FFFF8000008BD
:1057C00000000800000800000000000000200800A1
:1057D0003FF8003FF8001008002000003FF8003FAD
:1057E000F8001008002000003FF8003FF800000813
:1057F000000000002008003FF8003FF800100800FB
:105800001000002000002008003FF8001FF80000F2
:10581000080000000000000007C0000FF000183072
:105820000030080020080020080030080018300070
:105830000FF00007C0000000000000002001003F42
:10584000FF003FFF00101100200900200800200881
:10585000003038001FF0000FC00000000000000002
:1058600007C0001FF00038180020080020080020A2
:1058700009001011001FFF003FFF000001000000A1
:10588000002008002008002008003FF8003FF80032
:105890000808001008002008002000003000003038
:1058A00000000000000000000000000C78001E183E
:1058B00000330800230800210800218800219800F7
:1058C00030F00038600000000000000020000020E0
:1058D0000000200000FFF003FFF80020080020086F
:1058E0000020080000300000000000000000000060
:1058F0002000003FF0007FF80000180000080000C2
:1059000008002010003FF8007FF0000010000000A9
:10591000000000002000003000003C00003F80003C
:1059200023F0000078000070002380003C0000306D
:1059300000002000002000003C00003FE00023F8B1
:105940000000E0002700003E00003FE00021F800DA
:1059500001E0003E000020000000000020080020C0
:1059600008003838003E680027800003C8002CF883
:105970000038380020180020080000000000000057
:105980002000003003003C01003F830023EC0000B6
:1059900070002380003C0000200000200000000078
:1059A0000000000000000038080020380020F80047
:1059B00023E8002F88003E08003808002018000067
:1059C0007000000000000000000000000000000067
:1059D0000000000008000014001FF7FC3000062043
:1059E00000020000000000000000000000000000B5
:1059F00000000000000000000000FFFFFF000000AA
:105A00000000000000000000000000000000000096
:105A100000002000023000061FF7FC001400000800
:105A20000000000000000000000000000000000076
:105A3000000000180000600000400000400000204E
:105A400000001000000800000400000400000C002A
:105A50000010000000000000000000000000000036
:105A60000000000000000000000000000000000036
:105A70000000000000000000000000000000000026
:105A80000000000000000000000000000000000016
:105A90000000000000000000000000000000000006
:105AA00000000000000000000000000000000000F6
:105AB00000000000000000000000000000000000E6
:105AC00000000000000000000000000000000000D6
:105AD00000000000000000000000000000000000C6
