:020000040800F2
:10000000E80400204501000829060008F90400085A
:1000100025060008A3030008830C00080000000068
:10002000000000000000000000000000C9070008F8
:10003000A703000800000000B1060008DD08000862
:100040005F0100085F0100085F0100085F01000810
:100050005F0100085F0100085F0100085F01000800
:100060005F0100085F0100085F0100085F010008F0
:100070005F0100085F0100085F0100085F010008E0
:100080005F0100085F0100085F0100085F010008D0
:100090005F0100085F0100085F0100085F010008C0
:1000A0005F0100085F0100085F0100085F010008B0
:1000B0005F0100085F0100085F0100085F010008A0
:1000C0005F0100085F0100085F0100085F01000890
:1000D0005F0100087D0900085F0100085F0100085A
:1000E0005F0100085F0100085F0100085F01000870
:1000F0005F0100085F0100085F0100085F01000860
:100100005F0100085F0100085F0100085F0100084F
:100110005F0100085F0100085F0100085F0100083F
:100120005F0100085F0100085F0100085F0100082F
:10013000DFF80CD000F02EF8004800478D0E0008C4
:10014000E80400200648804706480047FEE7FEE72F
:10015000FEE7FEE7FEE7FEE7FEE7FEE7FEE7FEE777
:100160001D0900083101000830B50B46014600208A
:100170002022012409E021FA02F59D4205D303FA69
:1001800002F5491B04FA02F52844151EA2F10102EA
:10019000F1DC30BD064C074D06E0E06840F001039D
:1001A00094E8070098471034AC42F6D3FFF7C4FF39
:1001B000080F0008280F000821B1826842F00102F0
:1001C000826003E0826822F00102826070470000D2
:1001D00010B504461248844208D10121401500F0B0
:1001E00079FA0021601500F075FA17E00D48844295
:1001F00008D10121001500F06DFA0021201500F052
:1002000069FA0BE00848844208D10121C80300F0D4
:1002100061FA00214FF4004000F05CFA10BD0000CC
:100220000024014000280140003C0140014600201C
:100230008A6802F004020AB1012000E00020704741
:100240000146C86C80B270470246002013680B401C
:100250000BB1012000E000207047014600208A68B1
:1002600002F008020AB1012000E0002070470000FF
:1002700030B502460020002350680F4C20400D7915
:100280000C6844EA05242043506090680B4C2040E1
:10029000D1E902542C434D7944EA4504204390604F
:1002A000D06A20F470000C7C641EE4B2234340EA60
:1002B0000350D06230BD0000FFFEF0FFFDF7F1FFFC
:1002C000F0B504460D4600200021092D11DDE0683F
:1002D000A5F10A0606EB4607072606FA07F188434A
:1002E000A5F10A0606EB460603FA06F10843E060AC
:1002F0000CE0206905EB4507072606FA07F188435D
:1003000005EB450603FA06F108432061072A0FDAD8
:10031000606B561E06EB86071F2606FA07F1884318
:10032000561E06EB860605FA06F10843606322E0D6
:100330000D2A0FDA206BD61F06EB86071F2606FA5A
:1003400007F18843D61F06EB860605FA06F1084337
:10035000206310E0E06AA2F10D0606EB86071F2677
:1003600006FA07F18843A2F10D0606EB860605FAA8
:1003700006F10843E062F0BD816841F00801816048
:10038000704721B1826842F4A002826003E0826873
:1003900022F4A00282607047816841F0040181600C
:1003A000704700BFFEE770472DE9F0410246002587
:1003B0000026002000230024002791F803C00CF041
:1003C0000F0591F803C00CF0100CBCF1000F03D026
:1003D00091F802C04CEA050591F800C0BCF1000F8D
:1003E00031D0146800202BE04FF0010C0CFA00F320
:1003F000B1F800C00CEA03069E4220D183004FF002
:100400000F0C0CFA03F7BC4305FA03FC4CEA040496
:1004100091F803C0BCF1280F06D14FF0010C0CFA83
:1004200000FCC2F814C00AE091F803C0BCF1480F08
:1004300005D14FF0010C0CFA00FCC2F810C0401CB2
:100440000828D1D31460B1F800C0BCF1FF0F34DD2F
:10045000546800202EE000F1080C4FF0010808FA63
:100460000CF3B1F800C00CEA03069E4221D18300D0
:100470004FF00F0C0CFA03F7BC4305FA03FC4CEAEF
:10048000040491F803C0BCF1280F05D100F1080C59
:1004900008FA0CF8C2F8148091F803C0BCF1480FB8
:1004A00007D100F1080C4FF0010808FA0CF8C2F867
:1004B0001080401C0828CED35460BDE8F081016153
:1004C0007047000010B50446072301222146094861
:1004D000FFF7F6FE01210748FFF753FF00BF022197
:1004E0000448FFF7B1FE0028F9D00248FFF7A8FE44
:1004F00010BD0000003C014000BFFEE708B501212F
:10050000482000F0D7F82020ADF8000010208DF82A
:10051000030003208DF8020069460948FFF744FFF5
:1005200020210748FFF7CBFF2020ADF800006946E7
:100530000448FFF739FF20210248FFF7C0FF08BD3C
:10054000000C01400018014070B50024002508E0AF
:100550000620FFF7B7FF0444052000F05FFC681C8D
:10056000C5B20A2DF4DB0A20B4FBF0F4B4F57A6FBF
:1005700001D94FF47A642820B4FBF0F0C0F1640094
:10058000C0B270BD00B587B00121802000F092F8A4
:100590000121C80300F08EF80121C80300F09AF889
:1005A00000214FF4004000F095F84FF48070ADF852
:1005B000180000208DF81B0006A91848FFF7F4FE6C
:1005C0001748FFF705FE002001908DF808008DF810
:1005D00009004FF4602003900020049001208DF862
:1005E000140001A90E48FFF743FE01210C48FFF754
:1005F000E3FD0B48FFF7C0FE00BF0948FFF72DFEE3
:100600000028FAD10648FFF7C7FE00BF0448FFF7ED
:100610000DFE0028FAD107B000BD0000001C01400B
:10062000003C014000BFFEE77047000070B50021AC
:1006300000230F22C47804B3154C246804F4E0644A
:10064000C4F5E064210AC1F10403CA40447804FA05
:1006500003F184781440214309010E4C0678A1551A
:10066000047804F01F050124AC4005786D11AD003D
:1006700005F1E025C5F8004109E0047804F01F0504
:100680000124AC40044D0678761145F8264070BD33
:100690000CED00E000E400E080E100E002490143ED
:1006A000024A1160704700000000FA050CED00E0FE
:1006B0007047000029B1064A92690243044B9A61CF
:1006C00004E0034A92698243014B9A61704700003B
:1006D0000010024029B1064AD2680243044BDA6096
:1006E00004E0034AD2688243014BDA60704700009D
:1006F0000010024030B500210022002400232D4DBF
:100700006D6805F00C0121B1042905D0082923D119
:1007100005E0294D056022E0274D05601FE0254DCD
:100720006D6805F47012234D6D6805F48034022560
:1007300005EB92421CB9214D554305600BE01D4D60
:100740006D6805F400351DB11C4D5543056002E090
:10075000194D5543056002E0174D056000BF00BF0D
:10076000144D6D6805F0F0010909154D6B5C0568C5
:10077000DD4045600F4D6D6805F4E061090A104DDC
:100780006B5C4568DD4085600A4D6D6805F460511D
:10079000C90A0B4D6B5C4568DD40C560054D6D6851
:1007A00005F44041890B074D6B5CC568B5FBF3F55B
:1007B000056130BD0010024000127A0000093D00C2
:1007C0000000002010000020704710B500F002F873
:1007D00010BD00000CB50020019000903348006867
:1007E00040F480303149086000BF3048006800F4B0
:1007F000003000900198401C0190009818B90198B1
:10080000B0F5A06FF1D12948006800F4003010B1B4
:100810000120009001E0002000900098012843D1C1
:100820002348006840F0100021490860084600682D
:1008300020F0030008600846006840F002000860ED
:100840001A484068194948600846406848600846A8
:10085000406840F4806048600846406820F47C109E
:1008600048600846406840F4E81048600846006860
:1008700040F08070086000BF0C48006800F0007015
:100880000028F9D00948406820F003000749486073
:100890000846406840F00200486000BF03484068D6
:1008A00000F00C000828F9D10CBD00000010024037
:1008B00000200240042808D14FF0E021096941F0EE
:1008C00004014FF0E022116107E04FF0E0210969D7
:1008D00021F004014FF0E0221161704770470000E1
:1008E00010B504466FF00400FFF7E4FFE11704EBD6
:1008F0005171C1F3C701074A11701046007800EB2F
:100900004001C1EBC0104FF6FF7101EAC00002497F
:10091000088010BD140000201600002010B51348F8
:10092000006840F00100114908600846406810491D
:1009300008400E494860084600680E4908400B49C7
:1009400008600846006820F4802008600846406877
:1009500020F4FE0048604FF41F008860FFF735FF69
:100960004FF000600449086010BD00000010024014
:100970000000FFF8FFFFF6FE08ED00E010B540F2C2
:1009800025511D4800F0B8F810B31B4800F070F96D
:10099000C4B21A48008800F40040C8B9174800885B
:1009A00000F4804060B10A2C03D000201349088075
:1009B00020E01248008840F400401049088019E007
:1009C0000D2C06D10D48008840F480400B4908806A
:1009D00010E00A480088C0F30D0009490C5407488C
:1009E0000088401C0549088008460088C72801DDAA
:1009F0000020088010BD00000038014018000020D1
:100A00002000002010B586B0044601210420FFF725
:100A100051FE01218803FFF74DFE4FF40070ADF841
:100A2000140003208DF8160018208DF8170005A972
:100A30001E48FFF7B9FC4FF48060ADF814000420A5
:100A40008DF8170005A91948FFF7AEFC01940020A6
:100A5000ADF80800ADF80A00ADF80C00ADF81000D4
:100A60000C20ADF80E0001A9114800F095F8012105
:100A70000F4800F028F840210D4800F01BF8012233
:100A800040F225510A4800F061F825208DF8000059
:100A900003208DF801008DF8020001208DF803007D
:100AA0006846FFF7C3FD06B010BD00000008014016
:100AB0000038014001F40072B2F5007F00D100BFA0
:100AC000CA430280704721B1828942F40052828178
:100AD00004E082894DF6FF731A4082817047024616
:100AE0000020B1F5007F00D100BF13880B400BB18F
:100AF000012000E00020704770B50246002400236A
:100B00000025002040F66A16B14200D100BFC1F3B3
:100B1000421501F01F03012606FA03F3012D02D14D
:100B20009689334006E0022D02D1168A334001E057
:100B3000968A33400C12012606FA04F416883440D3
:100B400013B10CB1012000E0002070BDF0B50346E8
:100B5000002400260025002040F66A17B94200D183
:100B600000BF1846C1F3421401F01F06012707FA1F
:100B700006F5012C01D10C3004E0022C01D110301B
:100B800000E014301AB107682F43076002E00768DD
:100B9000AF430760F0BD00002DE9F04786B0054681
:100BA0000E460024A24600BFA1460027B08900B12E
:100BB00000BF2F462C8A4CF6FF700440F088044397
:100BC0002C82AC894EF6F3100440B088318908437A
:100BD000718908430443AC81AC8A4FF6FF4004405E
:100BE000B0890443AC8201A8FFF784FD1F48874207
:100BF00002D1DDF810A001E0DDF80CA0A88900F416
:100C0000004040B10AEBCA0000EB0A10316849000D
:100C1000B0FBF1F807E00AEBCA0000EB0A103168FC
:100C20008900B0FBF1F86420B8FBF0F00401200962
:100C3000642101FB1089A88900F4004040B13220F2
:100C400000EBC900B0FBF1F000F00700044308E03E
:100C5000322000EB09106421B0FBF1F000F00F002E
:100C600004432C8106B0BDE8F08700000038014045
:100C700001468888C0F308007047C1F308028280EB
:100C8000704700BFFEE700000FB4054B10B503A985
:100C9000044A029800F018F810BC5DF814FB00003C
:100CA000690E00081C00002002E008C8121F08C1DD
:100CB000002AFAD170477047002001E001C1121FDD
:100CC000002AFBD1704700002DE9FF4F89B09B46F9
:100CD0000446002506E025280BD05A460B9990477C
:100CE000641C6D1C20780028F5D10DB02846BDE8A5
:100CF000F08F0027B8460122474900E0074314F867
:100D0000013F203B02FA03F00842F7D120782E2859
:100D100019D114F8010F47F004072A280ED06FF0FC
:100D20002F022078A0F1300109290CD808EB8801A6
:100D300002EB410100EB0108641CF2E70A98641C15
:100D400050F8048B0A9020780028CED0642808D070
:100D5000692806D075281ED05A460B9990476D1CFD
:100D600058E00A994FF00A0901C90A91002802DAED
:100D700040422D2102E0390504D52B218DF82010A9
:100D8000012103E0F90704D02021F7E78A4608AEE5
:100D90000DE00021FAE70A994FF00A0901C90A910A
:100DA000F7E74946FFF7E0F9303106F8011D002862
:100DB000F7D1ADEB060000F12009780701D44FF020
:100DC0000108C84502DDA8EB090000E000208046CC
:100DD000002706E008A85A46C05D0B9990476D1C95
:100DE0007F1C5745F6DB04E030205A460B999047AC
:100DF0006D1CB8F10001A8F10108F5DC05E016F85A
:100E0000010B5A460B9990476D1CB9F10001A9F1ED
:100E10000109F4DC641C65E7092801000146114A58
:100E200012884A434FF0E0235A6100229A611A4621
:100E3000126942F001021A6100BF4FF0E02210690E
:100E400000F001021AB100F48032002AF5D04FF010
:100E5000E022126922F001024FF0E0231A61002221
:100E60009A6170471600002070B504460D46E1B245
:100E70000548FFF702FF00BF80210348FFF72FFE60
:100E80000028F9D0204670BD00380140002400251C
:100E90004820FFF725FD4FF4A060FFF7FFFBFFF7A9
:100EA0002DFB4FF4E130FFF7ADFDFFF76BFB1FE0CB
:100EB000601CC4B2142094FBF0F100FB114038B95F
:100EC0000C48006808B9012000E0002009490860CA
:100ED000322094FBF0F100FB114030B9FFF734FBF6
:100EE0000546294604A0FFF7CFFE0A20FFF796FF2C
:100EF000DEE7000094812142B9E2D5D5C7BFB6C86C
:100F0000A3BA25640D0A0000280F00080000002085
:100F100020000000A80C0008480F00082000002056
:100F2000C8040000B80C000800000000010203041F
:100F30000102030406070809020406080000000075
:080F40000000000000000000A9
:0400000508000131BD
:00000001FF
