:020000040800F2
:10000000900A0020450100089528000819170008EB
:10001000892200082D0C000881580008000000000B
:10002000000000000000000000000000E13E0008A9
:10003000A10E00080000000029290008B1450008B1
:100040005F0100085F0100085F010008613C0008D3
:100050005F0100085F0100085F0100085F01000800
:100060005F0100085F0100085F0100085F010008F0
:100070005F0100085F0100085F0100085F010008E0
:100080005F0100085F0100085F0100085F010008D0
:100090005F0100085F0100085F010008E90E000829
:1000A0005F0100085F0100085F0100085F010008B0
:1000B0005F0100085F0100085D4A00085F01000859
:1000C0005F0100085F0100085F0100085F01000890
:1000D0005F010008B54D00085F010008ED4E000803
:1000E0005F0100085F0100085F0100085F01000870
:1000F0005F0100085F0100085F0100085F01000860
:100100005F0100085F0100085F0100085F0100084F
:100110005F0100085F0100085F0100088D4A0008C8
:100120005F0100085F0100085F0100085F0100082F
:10013000DFF80CD000F05EFB00480047497900086A
:10014000900A00200648804706480047FEE7FEE781
:10015000FEE7FEE7FEE7FEE7FEE7FEE7FEE7FEE777
:10016000F14500083101000840EA01039B0703D074
:1001700009E008C9121F08C0042AFAD203E011F8E6
:10018000013B00F8013B521EF9D27047421C10F8A7
:10019000011B0029FBD1801A704710B5002200E036
:1001A000521C835C8C5CA34201D1002BF8D1D8B2E5
:1001B000E1B2401A10BD30B505460020034600E00C
:1001C0005B1C934205D2EC5CC85C201A01D1002C68
:1001D000F6D130BD70B5064605F09EFB04680546B5
:1001E0000A220021304600F03FFA2C6070BD2DE954
:1001F000FE4F804681EA0300C00F0C46009021F0BC
:10020000004123F00045B8EB0200A94105D2404669
:10021000214690461C460B46024623F00040104300
:1002200047D0270DC7F30A00C3F30A510290401AC2
:10023000019040286BDAC3F3130040F4801B009850
:10024000924620B10023D2EB030A63EB0B0B01981B
:100250005946C0F14002504600F0D5F906460D4619
:1002600050465946019A00F0EDF910EB0800614143
:10027000002487EA115284EAE7731A4340D0009AB7
:1002800062B3019A012A4FEA075215DC001B61EBA9
:1002900002014FF0004202EA0752CDE90042001C81
:1002A00041F5801132462B4600F025FA03B0BDE837
:1002B000F08F40462146F9E7001B61EB0201001C6C
:1002C00041F5801300185B412018A2F5001747EB99
:1002D000030140EAD570B6196D4111E06D084FEA8F
:1002E000360645EAC0754FEA0752001B61EB020172
:1002F000001C41F5801149084FEA300000195141B6
:1003000032462B4603B0BDE8F04F00F0E5B9009847
:10031000012240000023D0EB020263EBE07300985F
:1003200021464FEAE074B8EB000061EB0401E9E715
:1003300083F000435BE781F0004158E72DE9FE4F71
:1003400081EA030404F0004421F0004100944FF0DE
:10035000000B23F0004350EA01045ED052EA03048C
:100360005BD0C3F30A54C1F30A552C44A4F2F3340E
:100370000194A0FB0254C1F3130141F48011C3F3B3
:10038000130343F4801301FB024400FB034E840A71
:10039000970A44EA815447EA8357A4FB0768029509
:1003A0008D0A05FB07854FEA932C04FB0C542705A7
:1003B000029D4FEA065847EA1637B5EB08056EEB83
:1003C000070C870E920E47EA811742EA8312A7FBB9
:1003D0000201B6EB0B0164EB00042B0D43EA0C3376
:1003E0005E1844EB1C50DA465146E7FB0201C5F3A8
:1003F00013044FEA0B3343EA14534FEA0432019CCF
:1004000043EA0603A4F10C040294009CCDE900B475
:1004100000F071F903B0BDE8F08F00200146F9E764
:100420002DE9F04D81EA030404F0004B21F0004572
:1004300014464FF0000A23F0004150EA050220D094
:1004400054EA01021DD0C5F30A570246C5F313034F
:10045000C1F31300C1F30A5640F4801543F480132E
:10046000A7EB0608101BD64608F2FD3873EB050013
:1004700002D308F1010801E092185B41B8F1000FC6
:1004800003DA00200146BDE8F08D00204FF4801112
:10049000064684460EE0171B73EB050705D3121BB7
:1004A00063EB050306434CEA010C49084FEA3000B0
:1004B00092185B4150EA0107EDD152EA030012D0D5
:1004C00082EA040083EA0501084305D0101BAB4112
:1004D00006D20122002306E000224FF0004302E092
:1004E0006FF0010253101AEB06004CEB085110EBB1
:1004F0000A0041EB0B01BDE8F04D00F0EDB80EB580
:10050000C10F80EAE0700844CA07002140F233437B
:100510008DE80E000A460B4600F0EDF803B000BD72
:100520000EB540F2334102910021CDE900110A4697
:100530000B4600F0E0F803B000BD70B5C1F30A52FD
:1005400001F000450024C1F3130140F2FF3341F4F0
:1005500080119A4201DA002070BD40F233439A4282
:10056000A2F2334203DC524200F05CF800E090401B
:100570002C43F1D0404270BD30B50B4601460020FF
:100580002022012409E021FA02F59D4205D303FA55
:1005900002F5491B04FA02F52844151EA2F10102D6
:1005A000F1DC30BD2DE9F05F0546002092469B4608
:1005B00088460646814640241BE028464146474679
:1005C000224600F02FF853465A46C01A914110D3E4
:1005D00011461846224600F016F82D1A67EB01085E
:1005E0004F4622460120002100F00DF817EB0009CC
:1005F0004E41201EA4F10104DFDC484631462A4664
:100600004346BDE8F09F202A04DB203A00FA02F1BD
:10061000002070479140C2F1200320FA03F31943F0
:1006200090407047202A04DB203A21FA02F0002192
:10063000704721FA02F3D040C2F1200291400843F2
:1006400019467047202A06DBCB17203A41FA02F000
:1006500043EAE07306E041FA02F3D040C2F120021F
:1006600091400843194670472DE9F04791460F46DF
:1006700080460446002614F8015B2DB100F0CCF84A
:100680000068405DC007F6D12B2D02D02D2D18D06B
:10069000641E4A463946204600F0C2F827B1396840
:1006A000A14201D1C7F8008071054FF002040BD5BB
:1006B0004042002803DD05F02FF90460A007BDE8E3
:1006C000F08746F48066E4E70028F8DA05F024F9BC
:1006D00004606FF00040F2E710B5141E73F10004DF
:1006E00008DA401C41F1000192185B411A4301D124
:1006F00020F0010010BD2DE9F04D92469B4611B14E
:10070000B1FA81F202E0B0FA80F220329046FFF7AF
:100710007AFF04460F4640EA0A0041EA0B015346BD
:100720005A46084313D0114653EA010019D0C8F1C4
:1007300040025046FFF776FF05460E4650465946A2
:100740004246FFF760FF084305D0012004E0204641
:100750003946BDE8F08D0020054346EAE0762C439B
:1007600037430A986305E40AA0EB08000022FD0A5B
:1007700044EA47540A3002D500200146E9E7010562
:1007800010196941DDE9084500196941BDE8F04DDE
:10079000A2E7C1F30A52C1F3130140F2FF3341F45F
:1007A00080119A4202DA00200146704740F233433A
:1007B0009A42A2F2334202DC5242FFF733BFFFF704
:1007C00022BF000030B5041E71F1000404DB4FF0BD
:1007D0000044404264EB0101141E73F1000405DB88
:1007E0001C464FF00043524263EB0403994208BF9A
:1007F000904230BD064C074D06E0E06840F0010332
:1008000094E8070098471034AC42F6D3FFF794FC05
:1008100054D3000874D300080048704724D300085C
:100820002DE9F05F82460078002715468B460AF1D5
:100830000104B946302801D09DB113E014F8010B32
:100840000127782803D0582801D045B10AE00DB11E
:10085000102D07D10027102514F8010B02E0082500
:1008600000E00A250026B0460EE005FB080005FB67
:1008700006F1012701EB10461FFA80F8B6F5803F1C
:1008800000D3B94614F8010B294600F02FF80028D0
:10089000EBDABBF1000F05D00FB1641E00E0544647
:1008A000CBF80040B9F1000F06D005F035F8022171
:1008B0000160C81EBDE8F09F48EA0640FAE770B53F
:1008C00021F0004303430CD0C1F30A550024D5EBBB
:1008D000040564EB0403D617AD1AB34102DB002014
:1008E000014670BD201841EB025170BD3A2800D27C
:1008F000303820F02002412A01D3A2F1370088428B
:1009000001D34FF0FF30704721B1826842F00102FD
:10091000826003E0826822F001028260704700007A
:1009200010B504461248844208D10121401502F056
:100930009FFC0021601502F09BFC17E00D488442EB
:1009400008D10121001502F093FC0021201502F0CE
:100950008FFC0BE00848844208D10121C80302F053
:1009600087FC00214FF4004002F082FC10BD000023
:100970000024014000280140003C014001460020C5
:100980008A6802F004020AB1012000E000207047EA
:100990000146C86C80B270470246002013680B40C5
:1009A0000BB1012000E000207047014600208A685A
:1009B00002F008020AB1012000E0002070470000A8
:1009C00030B502460020002350680F4C20400D79BE
:1009D0000C6844EA05242043506090680B4C20408A
:1009E000D1E902542C434D7944EA450420439060F8
:1009F000D06A20F470000C7C641EE4B2234340EA09
:100A00000350D06230BD0000FFFEF0FFFDF7F1FFA4
:100A1000F0B504460D4600200021092D11DDE068E7
:100A2000A5F10A0606EB4607072606FA07F18843F2
:100A3000A5F10A0606EB460603FA06F10843E06054
:100A40000CE0206905EB4507072606FA07F1884305
:100A500005EB450603FA06F108432061072A0FDA81
:100A6000606B561E06EB86071F2606FA07F18843C1
:100A7000561E06EB860605FA06F10843606322E07F
:100A80000D2A0FDA206BD61F06EB86071F2606FA03
:100A900007F18843D61F06EB860605FA06F10843E0
:100AA000206310E0E06AA2F10D0606EB86071F2620
:100AB00006FA07F18843A2F10D0606EB860605FA51
:100AC00006F10843E062F0BD816841F008018160F1
:100AD000704721B1826842F4A002826003E082681C
:100AE00022F4A00282607047816841F004018160B5
:100AF0007047000000B589B00121082002F0A8FB72
:100B00000121042002F084FB4FF48070ADF8200036
:100B100018208DF8230003208DF8220008A91A4818
:100B200000F076FB19480088401E80B2ADF818002E
:100B30004720ADF814000020ADF81A00ADF81600FB
:100B400005A9134804F0E4F86020ADF80400012082
:100B5000ADF806000020ADF80A00ADF80C0001A9C0
:100B60000B4804F073F80821094804F0BFF801218C
:100B7000074803F0D5FF0121054803F0E0FF0020FE
:100B80000449087009B000BD000C0140420000207B
:100B9000000800404600002010B50021034804F082
:100BA000B2F800200249087010BD000000080040A3
:100BB0004600002010B50748007850B90648007874
:100BC00038B906480188064804F09DF8012001491B
:100BD000087010BD46000020540000204400002092
:100BE0000008004010B5012002F052FB002002F086
:100BF0004FFB10BD08B5014600200090034800904F
:100C00000098084400900098008808BD006C0040DF
:100C100008B500220092044A0092009A0244009211
:100C2000009A116008BD0000006C004000BFFEE7A4
:100C300010B5012001F050F804463CB121460BA04C
:100C400004F020FE00F0E6F9012010BD1448007801
:100C500048B114A004F016FE00201149087000F0FD
:100C6000D9F90120F1E70020EFE700004B6579207A
:100C70007072657373656420696E20636C6F636B5B
:100C8000206D6F64653A2025642C2065786974694D
:100C90006E6720636C6F636B206D6F64650D0A0077
:100CA0004C0000204952207369676E616C206465B6
:100CB00074656374656420696E20636C6F636B2078
:100CC0006D6F64652C2065786974696E6720636C4C
:100CD0006F636B206D6F64650D0A000010B5002412
:100CE00000F024F804E0601CC4B2012006F056F8BD
:100CF0000D48006808B1642CF5DB642C01DB012091
:100D000010BD002404E0601CC4B2012006F046F8C7
:100D10000548006808B9642CF5DB642C01DB012070
:100D2000EEE70020ECE700002C01244208B54FF468
:100D30000060ADF8000048208DF8030069460248C5
:100D400000F066FA08BD00000020014008B54FF42D
:100D50000060ADF8000010208DF8030003208DF82E
:100D600002006946014800F053FA08BD0020014026
:100D700008B50121080202F06BFA4FF40060ADF8EB
:100D8000000010208DF8030003208DF80200694652
:100D9000064800F03DFA4FF40061044800F017FBEC
:100DA00000F068F8FFF79AFF08BD0000002001403E
:100DB00010B5002404E0601CC4B2012005F0EEFF71
:100DC0000D48006808B1642CF5DB002404E0601CC9
:100DD000C4B2012005F0E2FF0748006808B9642C9E
:100DE000F5DB282005F0DAFF0348006808B1012090
:100DF00010BD0020FCE700002C01244270B5002447
:100E0000002506E06006040EFFF7D2FF0443681CCD
:100E1000C5B2082DF6DB204670BD7CB505460E46F2
:100E200000F028F8FFF75AFFF8B9002405E0FFF7B3
:100E3000E5FF0DF80400601CC4B2052CF7DB9DF83B
:100E400000009DF8011008449DF8021008449DF828
:100E5000031008449DF80410884208D19DF8000052
:100E600030709DF80200287001E001207CBD002058
:100E7000FCE7000010B5FFF769FF00200649086095
:100E8000142005F065FF01200449C1F8AC011E20C3
:100E900005F084FF10BD0000AC0124420000244294
:100EA000704700001CB54FF6FF700A4908804FF4E8
:100EB00078400949088009A018210B46C822CDE9CD
:100EC00000100A21322001F003F9002002490880B5
:100ED0001CBD00003800002036000020536D6172F8
:100EE000744D6173746572002DE9F0410024002691
:100EF000002530E04FF400711B4800F05DFA012836
:100F000029D100F0F1FB0446FA2C00DB24E0C82CC8
:100F100003DBFA2C01DA01260AE03C2C03DB5A2C15
:100F200001DA012704E00A2C02DB322C00DA002768
:100F3000012E0ED10D48006840000C49086008469B
:100F4000006838440860202D03DB01200849087040
:100F500002E0681CC5B2CDE700BF4FF4007000F09E
:100F600009F8BDE8F0810000000C014048000020B5
:100F70004C00002001490860704700001404014043
:100F8000002123498279002A3AD00A461268036870
:100F90009A430B461A600A1D126803689A430B1D98
:100FA0001A60027911440A6803681A430A60184AF1
:100FB0000832126803689A43154B08331A601A1DE9
:100FC000126803689A43124B0C331A604279102A54
:100FD0000ED11A1F126803681A430D4B08331A60AA
:100FE0001A1D126803681A43094B0C331A600DE08E
:100FF0000749427911440A6803681A430A6005E008
:10100000027911440A6803689A430A607047000035
:10101000000401401CB500201649087016480078ED
:10102000164908700846017815A004F02BFC1248F8
:101030000078C0B91E48007890B900200190009057
:101040000024694601A8FFF7E8FE01F0AFF8044666
:1010500022469DF800109DF8040003F089FA08E08C
:1010600003F0BEF805E004480078012801D102F041
:10107000ADFF1CBD1E00002020000020000000204D
:10108000436C6F636B206D6F64652064656163748E
:101090006976617465642C2072657475726E696E10
:1010A0006720746F206D6F64652025640D0A000051
:1010B0001800002051B18200A2F1C042126842F033
:1010C00001038200A2F1C042136009E08200A2F194
:1010D000C0421268034B1A408300A3F1C0431A6058
:1010E00070470000FEFF0F00D0E901121143C268F3
:1010F0001143026911434269114382691143C26974
:101100001143026A1143426A1143826A1143C26A5F
:101110001143026B114302689200A2F1C0421160B8
:10112000816808290BD101688900A1F1C0410968D3
:1011300041F0400201688900A1F1C0410A60416BA1
:101140000968426B526841EA0211426B926841EAB7
:101150000221426B928941EA0241426B128A41EAC2
:101160000251426B127D41EA0261426B9269114366
:101170000268521C9200A2F1C0421160C16AB1F52E
:10118000804F1BD1816B0968826B526841EA021162
:10119000826B926841EA0221826B128A41EA025113
:1011A000826B127D41EA0261826B9269114302688F
:1011B0009200A2F1C042C2F8041107E06FF0704241
:1011C00001688900A1F1C041C1F804217047000005
:1011D00030B500228B071C0F0F2303FA04F20B4BD0
:1011E0008C1053F824309343084C8D1044F825306C
:1011F00023468C1053F824308C07240F00FA04F493
:101200002343024C8D1044F8253030BD08000140C6
:101210002DE9F0410246002500260020002300248D
:10122000002791F803C00CF00F0591F803C00CF0F3
:10123000100CBCF1000F03D091F802C04CEA050578
:1012400091F800C0BCF1000F31D0146800202BE0F1
:101250004FF0010C0CFA00F3B1F800C00CEA0306E1
:101260009E4220D183004FF00F0C0CFA03F7BC43D1
:1012700005FA03FC4CEA040491F803C0BCF1280F02
:1012800006D14FF0010C0CFA00FCC2F814C00AE0C1
:1012900091F803C0BCF1480F05D14FF0010C0CFAD6
:1012A00000FCC2F810C0401C0828D1D31460B1F86B
:1012B00000C0BCF1FF0F34DD546800202EE000F1C7
:1012C000080C4FF0010808FA0CF3B1F800C00CEA62
:1012D00003069E4221D183004FF00F0C0CFA03F756
:1012E000BC4305FA03FC4CEA040491F803C0BCF1CA
:1012F000280F05D100F1080C08FA0CF8C2F8148088
:1013000091F803C0BCF1480F07D100F1080C4FF071
:10131000010808FA0CF8C2F81080401C0828CED347
:101320005460BDE8F0810000F0B50A4600230024B7
:101330000021002500F00046B6F1004F02D11D4EFD
:10134000F16901E01B4E7168C0F3034583B200F4FC
:101350004016B6F5401F08D121F07061154E766831
:1013600026F07066134F7E6012E000F48016B6F52A
:10137000801F06D1032606FA05F4A14341F07061EF
:1013800006E0460D360103FA06F6B14341F07061FE
:1013900022B1460D360103FA06F6314300F000464D
:1013A000B6F1004F02D1034EF16101E0014E7160D0
:1013B000F0BD0000000001400246002093680B4091
:1013C0000BB1012000E000207047416170470161CE
:1013D0007047000010B50446072301222146094842
:1013E000FFF716FB01210748FFF773FB00BF02213F
:1013F0000448FFF7D1FA0028F9D00248FFF7C8FAED
:1014000010BD0000003C014070B50F2631E0012006
:101410001D4908600A2005F09BFC1CA007F00AF893
:1014200000250AE00A2005F093FC1B48008800F420
:10143000004000B103E0681CC5B2142DF2DB00BF10
:101440000020114908601448008800F4004080B171
:1014500011480088C4B200200F4908800D2C08D123
:101460000E4800782B2804D10C4880793038C4B25B
:1014700004E0301EA6F10101CEB2C8D100BF06B90A
:10148000FF24204670BD00009001214241542B52A0
:101490004F4C453F0D0A000052000020150100206E
:1014A000F8B50A2601250121042001F0D1FEE80348
:1014B000ADF8000048208DF8030003208DF80200ED
:1014C00069463048FFF7A4FE1020ADF800008DF803
:1014D000030003208DF8020069462A48FFF798FEB2
:1014E00010212848FFF773FF01212748FFF71CFF51
:1014F0000120264908602649C1F83C014FF41650E6
:1015000003F02CFD33E00120204908600A2005F09B
:101510001FFC20A006F08EFF00201D49C1F890019D
:1015200000240AE01D48008800F4004000B106E0F5
:10153000052005F00DFC601CC4B20A2CF2DB00BFD4
:101540001648008800F4004088B114480088C5B2ED
:10155000002012490880042D09D1114800784F2835
:1015600005D10F4840784B2801D1002504E0301EFA
:10157000A6F10101CEB2C6D100BF06B901252846A9
:10158000F8BD000000080140000230009001214237
:101590000000214241540D0A0000000052000020CA
:1015A000150100201CB5FFF72FFF01280AD10BA061
:1015B00010210B46C822CDE900108C210A2000F032
:1015C00087FD09E008A010210B46C822CDE90010D4
:1015D0008C210A2000F07CFD1CBD0000524F4C45C0
:1015E0003A4D617374657200524F4C453A536C61C9
:1015F000766520002DE9F04105460F2730E00120F7
:101600001D4908600A2005F0A3FB29461BA006F02F
:1016100011FF00201B49C1F8900100260AE01A487A
:10162000008800F4004000B106E0052005F090FBC2
:10163000701CC6B2142EF2DB00BF1348008800F401
:10164000004068B110480088C4B200200E490880EC
:10165000042C05D10D4800784F2801D1002404E066
:10166000381EA7F10101CFB2C9D100BF07B9FF24CD
:101670002046BDE8F08100009001214225730D0A4B
:10168000000000000000214252000020150100204F
:101690001CB50C48006850B10BA010210B467822F5
:1016A000CDE900108C216E2000F012FD09E00AA0A7
:1016B00010210B467822CDE900108C216E2000F01D
:1016C00007FD1CBD3C0121425354413A436F6E6EED
:1016D00065637465642000005354413A4469736340
:1016E0006F6E6E656374000010B5002408E0601C26
:1016F000C4B2142005F052FBFA2C01DB204610BDC9
:101700004FF400710348FFF757FE0128EFD0204641
:10171000F5E70000000C014000BFFEE71FB5012106
:10172000092001F095FD4FF40070ADF80C00482041
:101730008DF80F0003A91448FFF76AFD0921012065
:10174000FFF746FD4FF40070FFF714FC4FF40070F4
:10175000019000208DF808000C208DF80900012070
:101760008DF80A0001A8FFF70BFC17208DF8000088
:1017700000208DF8010001208DF802008DF8030093
:10178000684601F089F81FBD000C01401CB500201F
:1017900000F0F2FA4FF6E0701D49088000201D4964
:1017A000088008804FF47840194908801AA0182151
:1017B0000B46C822CDE900100A21322000F088FC37
:1017C0004FF6E0701249088016A018210B46C82277
:1017D000CDE9001046213C2000F07AFC05F004FB26
:1017E00005F028FB13A010210B46C822CDE90010FC
:1017F0004FF4D271282000F06BFC012013490870CF
:10180000FF201349087013A004F03CF81CBD000031
:101810003600002038000020536D6172744D6173F2
:10182000746572004469676974616C20436C6F630E
:101830006B000000507265737320616E79206B65D8
:101840007920746F2072657475726E001E0000201E
:101850001F000020436C6F636B206D6F6465206117
:1018600063746976617465640D0A00001CB54FF6F7
:10187000FF7000F081FAFFF715FB39A010210B462D
:101880003C22CDE9001078210A2000F021FC36A08E
:1018900010210B463C22CDE900107821084600F0CB
:1018A00017FC33A010210B463C22CDE900109121FA
:1018B0000A2000F00DFC30A010210B464622CDE995
:1018C0000010AA210A2000F003FC2DA010210B46D5
:1018D0003C22CDE90010C3210A2000F0F9FB2AA028
:1018E00010210B465022CDE90010DC210A2000F027
:1018F000EFFB27A010210B46DC22CDE90010F521DB
:101900000A2000F0E5FB28A010210B463C22CDE97F
:1019100000104FF487710A2000F0DAFB24A0102198
:101920000B463C22CDE9001040F227110A2000F0BE
:10193000CFFB21A010210B463C22CDE900104FF433
:10194000A0710A2000F0C4FB1DA010210B466422E8
:10195000CDE9001040F259110A2000F0B9FB1CBD7E
:1019600054656D703A00000048756D693A000000DA
:101970004C696768743A00005374617475733A0077
:10198000424545503A000000566F6C756D653A004F
:101990005072657373204B45593220746F20425446
:1019A000206D6F64650000004D757369633A000037
:1019B00054696D65723A00004C4544323A000000AB
:1019C0004D6F746F7220506F7765723A000000009F
:1019D0007CB566480078012801D100207CBD64A058
:1019E00010210B46C822CDE9001064210A2000F026
:1019F0006FFB65A010210B46DC22CDE90010E6212B
:101A00000A2000F065FB4FF4FA7005F0A1F94FF4DD
:101A1000165003F0A3FA03258BE0002000F05CF9D8
:101A20000446042C15D15EA010210B46C822CDE936
:101A3000001064210A2000F04BFB5EA003F022FF9F
:101A400003204A4908704FF4FA7005F081F902202A
:101A5000C4E7FFF725FDA8B95EA010210B46C822F8
:101A6000CDE9001064210A2000F032FB5EA003F0F3
:101A700009FF01203D4908704FF4FA7005F068F93C
:101A80000020ABE75BA003F0FDFE62A010210B4637
:101A9000C822CDE9001064210A2000F019FB4FF4A0
:101AA000967005F055F9002000F016F90446042C54
:101AB00015D13BA010210B46C822CDE900106421AE
:101AC0000A2000F005FB3BA003F0DCFE03202749C1
:101AD00008704FF4FA7005F03BF902207EE752A03F
:101AE00010210B46C822CDE9001064210A2000F025
:101AF000EFFA4FF4967005F02BF9002000F0ECF8A7
:101B00000446042C15D126A010210B46C822CDE98D
:101B1000001064210A2000F0DBFA26A003F0B2FED8
:101B20000320124908704FF4FA7005F011F90220F1
:101B300054E7281EA5F10101CDB27FF46EAF3FA09E
:101B400003F0A0FE41A010210B46C822CDE90010F1
:101B500064210A2000F0BCFA0220044908704FF406
:101B60007A7005F0F5F8012038E700000100002048
:101B7000496E697469616C697A696E67204843309F
:101B8000352E2E2E000000004B4559323A43616E2F
:101B900063656C20262052657475726E000000002B
:101BA000496E69742043616E63656C656421202011
:101BB000202020004843303520496E69742063613D
:101BC0006E63656C656420627920757365720D0AB9
:101BD000000000004843303520496E6974204F4BA7
:101BE000212020202020200048433035204F4B2149
:101BF0000D0A00004843303520496E697420666143
:101C0000696C65642C207265747279696E672E2E1A
:101C10002E0D0A0048433035204572726F72212024
:101C200020202020200000005265747279696E67C0
:101C30002E2E2E202020202020000000484330356A
:101C4000204572726F72210D0A0000004843303542
:101C500020496E6974204661696C6564212000002A
:101C60000146CA1701EB92729210A1EB820292B95F
:101C7000642091FBF0F200FB121050B94FF4C870D1
:101C800091FBF0F200FB121008B901207047002010
:101C9000FCE70120FAE70020F8E7000008B5012181
:101CA000442001F0D5FA0120ADF8000028208DF87D
:101CB000030069460648FFF7ABFA1C20ADF80000A8
:101CC00048208DF8030069460248FFF7A1FA08BDD5
:101CD000000801400018014010B50446012C01D154
:101CE000224908702148007801282AD1204800683C
:101CF00001280AD01F48006838B11E48001F00683C
:101D000018B11C4808380068D8B90A2005F020F836
:101D100000201649087016480068012800D110BD3F
:101D20001448006808B90220F9E71248001F00684B
:101D300008B90320F3E70F4808380068A0B9042069
:101D4000EDE70B48006878B90A48006801280BD114
:101D50000848001F0068012806D1064808380068B6
:101D6000012801D1014908700020D8E74D0000206A
:101D7000000121421001234270B506460F484088F9
:101D8000401E83B20D480088401E82B200210846E2
:101D900000F0E4F800240CE0002504E0304600F0F8
:101DA000D7F9681C85B205484088A842F6DC601C5B
:101DB00084B202480088A042EEDC70BD3A000020E8
:101DC00000B502460F4882716AB9362000F0B4F9B6
:101DD0004C2000F0B7F94FF4F0700A4948804FF4F6
:101DE000A07008800CE0362000F0A6F92C2000F04E
:101DF000A9F94FF4A070034948804FF4F0700880AF
:101E000000BD00003A00002070B504460D4616469D
:101E10002B4622462946204600F0A0F8304600F026
:101E200097F970BD2DE9FF4F84B081468A460020A6
:101E3000039002900698A0EB09050798A0EB0A060C
:101E4000CDF80490CDF800A0002D01DD012705E0BC
:101E50000DB9002702E04FF0FF376D42002E02DD82
:101E60004FF0010806E016B94FF0000802E04FF00D
:101E7000FF387642B54201DD2C4600E034464FF093
:101E8000000B21E0009A91B2019A90B200F022F882
:101E90000398284403900298304402900398A0428B
:101EA00005DD0398001B03900198384401900298C7
:101EB000A04205DD0298001B02900098404400906B
:101EC0000BF101001FFA80FB601C8345DADD08B0CE
:101ED000BDE8F08F30B504460D462B462246294614
:101EE000204600F03BF80248008800F031F930BD90
:101EF000360000202DE9F04304460D4616461F46E5
:101F0000DDF81C80B44201DCBD4201DDBDE8F08398
:101F10003B4632462946204600F020F8301B401C44
:101F200084B2781B401C85B20BE0A94602E0404613
:101F300000F00EF9B9F10000A9F101011FFA81F9D1
:101F4000F5D1201EA4F101018CB2EED100BFDDE776
:101F500001480088704700000008006C30B5044656
:101F60000D462A2000F0E8F8201200F0EBF8E0B26D
:101F700000F0E8F8101200F0E5F8D0B200F0E2F856
:101F80002B2000F0D9F8281200F0DCF8E8B200F0BD
:101F9000D9F8181200F0D6F8D8B200F0D3F82C20F7
:101FA00000F0CAF830BD00002DE9F84F80460E461B
:101FB00017461C46B3462046E31704EB5373DB1069
:101FC00021464FEAE47C04EB5C7C4FEAEC0CA4EB8A
:101FD000CC0CBCF1000F02D04FF0010C01E04FF02F
:101FE000000C6344224604EBD27C4FEA6C0C03FBEA
:101FF0000CF3DBB20093A7F12000C7B2002556E036
:102000000C2C07D107EB47002B4901EB800010F89F
:10201000059013E0102C05D1284800EB071010F8AC
:1020200005900BE0182C07D107EBC700244901EB02
:10203000800010F8059001E0BDE8F88F4FF0000A2D
:102040002FE009F0800030B11E480288314640463A
:10205000FFF7DAFE07E00A9828B91B4802883146E4
:102060004046FFF7D1FE4FEA49604FEA1069701C05
:1020700086B216484088B04200DCDDE7A6EB0B00D4
:10208000A0420AD15E4608F101001FFA80F80F480D
:102090000088404500DCCFE706E00AF1010000F0CF
:1020A000FF0ABAF1080FCCDB00BF681CC5B200986C
:1020B0008542A5DB00BFBFE7D08400084489000843
:1020C000348F000836000020380000203A0000203D
:1020D0002DE9F84704460D4690469946DDE9096723
:1020E00004F0FF0A08EB04001FFA80F809EB050072
:1020F0001FFA80F916E0444502DB5446A81985B260
:102100004D4500DB14E0002000903A783346294624
:102110002046FFF749FF304606EBD07104EB610122
:102120008CB27F1C38787E2802DC38782028E2DAEE
:1021300000BFBDE8F8870000014908807047000033
:10214000FE07006C01490880704700000008006C21
:102150000112024A1180C1B2118070470008006C60
:1021600008B50121482001F073F82020ADF80000E7
:1021700010208DF8030003208DF8020069460948FD
:10218000FFF746F820210748FFF721F92020ADF896
:10219000000069460448FFF73BF820210248FFF79A
:1021A00016F908BD000C01400018014070B500246C
:1021B000002508E00620FFF70DF90444052004F08F
:1021C000C7FD681CC5B20A2DF4DB0A20B4FBF0F48D
:1021D000B4F57A6F01D94FF47A642820B4FBF0F09B
:1021E000C0F16400C0B270BD00B587B0012180208D
:1021F00001F02EF80121C80301F02AF80121C803DB
:1022000001F036F800214FF4004001F031F84FF4AE
:102210008070ADF8180000208DF81B0006A9184842
:10222000FEF7F6FF1748FEF77BFB002001908DF8C4
:1022300008008DF809004FF46020039000200490FE
:1022400001208DF8140001A90E48FEF7B9FB012109
:102250000C48FEF759FB0B48FEF736FC00BF094857
:10226000FEF7A3FB0028FAD10648FEF73DFC00BFAD
:102270000448FEF783FB0028FAD107B000BD000038
:10228000001C0140003C014000BFFEE70020064961
:10229000087006490870064908800649088003202E
:1022A00005490870704700005400002055000020C8
:1022B00056000020580000205B00002010B50A489E
:1022C0000078401C0949097890FBF1F201FB1200EB
:1022D000C4B2204600F08AF8054850F8241005A042
:1022E00003F0D0FA10BD0000550000205A00002075
:1022F000700000204E65787420736F6E673A202559
:10230000730D0A0010B506480078012807D1022095
:1023100003490870FEF740FC02A003F0B3FA10BDB9
:10232000540000204D757369632070617573656496
:102330000D0A00002DE9F0411A48007808B100F0BC
:102340001BF9012018490870002018490880184915
:102350000880184804782CB9002017490870FEF747
:102360001BFC19E0162C17D2144830F81460002E0C
:1023700012DD134890FBF6F085B2681E81B2114859
:1023800002F0BDFC2F4605EBD77041100D4802F05E
:10239000BAFC0120084908700BA003F073FABDE8ED
:1023A000F0810000540000205C0000205E0000204E
:1023B00060000020A4D000084600002086CE00085F
:1023C00040420F0000080040506C6179696E672040
:1023D0004C616E68756120477261737320284E6589
:1023E0007720466F726D6174290D0A002DE9F04166
:1023F00004461A48007884422EDA194804700020F6
:1024000018490880184908800120184908701848A0
:1024100030F81400002819DD164850F8240006880A
:10242000154890FBF6F085B2002D0FDD681E81B2D5
:10243000124802F064FC2F4605EBD770C0F34F0141
:102440000E4802F060FC01200D4908700D4850F85C
:1024500024100DA003F016FABDE8F0815A00002008
:102460005500002056000020580000205400002095
:102470001AD100086400002040420F00000800400C
:102480004600002070000020506C6179696E672062
:10249000736F6E673A2025730D0A000010B50A4865
:1024A000007818B909480078401E02E00648007814
:1024B000401EC4B22046FFF799FF054850F824108B
:1024C00004A003F0DFF910BD550000205A000020E1
:1024D0007000002050726576696F757320736F6E9F
:1024E000673A2025730D0A0070B518480078022855
:1024F0002AD101201549087015481649097830F885
:1025000011001549098888421BDD144811490978D2
:1025100050F821001049098830F82150104890FBEC
:10252000F5F084B2002C0CDD601E81B20D4802F083
:10253000E6FB264604EBD670C0F34F01094802F0D3
:10254000E2FB09A003F09EF970BD000054000020DA
:102550001AD1000855000020560000206400002019
:1025600040420F00000800404D757369632072659A
:1025700073756D65640D0A0010B50020054908707B
:102580000549088005490880FEF706FB04A003F012
:1025900079F910BD5400002056000020580000209A
:1025A0004D757369632073746F707065640D0A00F4
:1025B00070B537480078012869D136480078364927
:1025C0000978884263DA35483249097830F81100D1
:1025D0003349098888425ADD3248008832490978EF
:1025E000322202FB01002F4908803048294909782E
:1025F00050F821002A49098800EB810040882949C8
:102600000988884243DC26480088401C2449088009
:1026100000202449088021481E49097830F81120FB
:102620001F48018822A003F02DF91C481949097898
:1026300030F811001A490988884223DD1B481549E2
:10264000097850F821001649098830F821501E48B1
:1026500090FBF5F084B2002C19DD601E81B21B489E
:1026600002F04DFB264604EBD670C0F34F0117482D
:1026700002F049FB012016490870294615A003F015
:1026800001F904E019A003F0FDF8FFF775FF70BD34
:1026900054000020550000205A0000201AD10008E4
:1026A00056000020580000205B000020640000203D
:1026B0004E6F74652025642F256420636F6D706CE8
:1026C000657465640D0A000040420F000008004078
:1026D00046000020506C6179696E67206E6F7465EA
:1026E0003A20256420487A0D0A000000536F6E6777
:1026F00020636F6D706C657465640D0A00000000E6
:102700002DE9F0413B480078012871D13A48008812
:102710003A286DDA3948008832303849088038481C
:102720003549098800EB4100407832214843C7B25F
:1027300032480088B8425BDB2F480088401C2E4995
:10274000088000202D4908802B4800883A2840DA6C
:102750002B482949098810F81140FF2C0FD129A0D6
:1027600003F090F80020234908702349088023498A
:102770000880FEF711FA00202C49087038E044B9AF
:10278000FEF70AFA00202949087029A003F07AF818
:102790002EE0162C2CD2294830F81450002D27DDBD
:1027A000274890FBF5F086B2701E81B2254802F0F2
:1027B000A6FAB04606EBD8704110224802F0A3FA00
:1027C00001201A490870224629461FA003F05AF832
:1027D0000EE026A003F056F80020064908700649CE
:1027E000088006490880FEF7D7F900200F490870D5
:1027F000BDE8F0815C0000205E0000206000002049
:10280000A4D000084C616E687561204772617373D3
:1028100020284E657720466F726D61742920636FA2
:102820006D706C657465640D0A0000004600002040
:1028300052657374206E6F74650D0A0086CE0008B1
:1028400040420F0000080040506C6179696E6720BB
:10285000746F6E653A20256420487A2028696E647A
:102860006578202564290D0A000000004C616E681F
:10287000756120477261737320284E657720466F1B
:10288000726D6174292066696E69736865640D0AEA
:10289000000000007047000070B5002100230F22E7
:1028A000C47804B3154C246804F4E064C4F5E0640F
:1028B000210AC1F10403CA40447804FA03F1847880
:1028C0001440214309010E4C0678A155047804F008
:1028D0001F050124AC4005786D11AD0005F1E02520
:1028E000C5F8004109E0047804F01F050124AC405C
:1028F000044D0678761145F8264070BD0CED00E0D9
:1029000000E400E080E100E002490143024A116076
:10291000704700000000FA050CED00E00149086274
:102920007047000000000E42704700002DE9F041A2
:102930008AB0054688463AA12846FDF72EFC18B90C
:1029400000203A49086067E039A12846FDF725FCD8
:1029500018B90120354908605EE038A12846FDF726
:102960001CFC10B9FEF726F956E037A12846FDF702
:1029700014FC10B9FEF710F94EE0062235A12846E6
:10298000FDF719FC002847D1A81DFDF723FCC4B2B0
:10299000002C40DD04EB8400400030490880012019
:1029A0002F4908702F480078012803D121462EA016
:1029B00005F040FD21462CA002F064FF3748007866
:1029C00038BB4FF6FF704FF48F73DC224FF48771E2
:1029D00000904620FFF78EFA204800880A2190FBDD
:1029E000F1F201FB12061D48008890FBF1F7334617
:1029F0003A462BA102A802F055FF02A810210B466F
:102A00009622CDE900104FF487714620FFF760FB56
:102A100001E001F0DBFA00BF0AB0BDE8F081000080
:102A20002B4C454432204F4E0D0A000094012342A6
:102A30002B4C454432204F46460D0A002B4245455B
:102A400050204F4E0D0A00002B42454550204F4666
:102A5000460D0A002B42454550200000040000208E
:102A6000060000200100002057696C6C20706C612A
:102A700079204C616E6875612047726173732028FC
:102A80006F7074696D697A65642920696E202564A8
:102A9000207365636F6E64730D0A000000000020F0
:102AA0004C616E6875612047726173732B20696E8B
:102AB0002025642E256473001CB5F8480078002892
:102AC00070D001F007FAF6480168F6A002F0DAFECD
:102AD000F3480068F849884223D1F8480088F8494B
:102AE000098888421CDAF54800883230F3490880AA
:102AF00008460088F2490988884203DDF0480088CA
:102B0000EE490880EE480088EC4A1288801A81B2AB
:102B1000EC4802F0F6F8E9480188EBA002F0B2FEBA
:102B200077E0DF480068F04988421FD1E348008819
:102B300000286EDDE1480088322805DDDF48008886
:102B40003238DE49088002E00020DC490880DC4899
:102B50000088DA4A1288801A81B2DA4802F0D1F885
:102B6000D6480188E1A002F08DFE52E0CC48006812
:102B7000E649884225D1E648007808B9012000E0FE
:102B80000020E34908700846007860B1E1A002F037
:102B900079FE0020E7490870C9480188C94802F059
:102BA000B0F836E0E6E2E4A002F06CFE0020E14975
:102BB0000870E9490880C2480188C24802F0A1F8BB
:102BC00027E0B7480068E549884222D1D04800781C
:102BD000F8B9D848007808B9012000E00020D549AC
:102BE00008700846007860B1B5480088B34A12887A
:102BF000801A81B2B34802F084F8D9A002F042FEF4
:102C000007E0AF480188AF4802F07BF8DBA002F094
:102C100039FEA3480068A84988420AD1DEA002F024
:102C200031FE4FF47F4000F0EDFEE2A002F02AFEFC
:102C30009DE29B480068AC49884206D10120E549E5
:102C40000860E5A002F01EFE91E295480068AF49D9
:102C5000884214D10120E34908700020E24908802D
:102C6000E2A010210B469622CDE900104FF4A0718E
:102C70004620FFF72DFAE4A002F004FE77E2884830
:102C80000068B649884227D1D64800780028CFD0BE
:102C9000D5480088401CD449088008460088B0F513
:102CA000167F02DD4FF416700880CF480288DFA13E
:102CB000E14802F0F7FDE04810210B469622CDE9ED
:102CC00000104FF4A0714620FFF702FAC6480188B1
:102CD000DAA002F0D7FD4AE271480068DF49884275
:102CE00029D1C04800780028A2D0BF480088002819
:102CF0009EDDBD480088401EBB490880084600880C
:102D0000002801DA00200880B7480288C7A1CA4815
:102D100002F0C8FDC84810210B469622CDE90010EC
:102D20004FF4A0714620FFF7D3F9AF480188C3A044
:102D300002F0A8FD1BE25A480068C94988426DD1DB
:102D4000A8480078D0B3A8480088002837DDA648F6
:102D5000008800EB80004FF6FF7101EA4000C14996
:102D600008800120C049087000209E490870BFA05B
:102D700010210B469622CDE900104FF4A071462099
:102D8000FFF7A6F998480188BEA002F07BFD96489F
:102D90000088092805DC94490878002100F016FD18
:102DA000E5E1914800880A2190FBF1F201FB120055
:102DB000C4B20021204600F009FDD8E1FFE732202F
:102DC000A84908800120A84908700020854908709A
:102DD000B6A002F057FD0021052000F0F7FCBD4829
:102DE00000780028A6D1BC4800780028A2D14FF670
:102DF000FF704FF48F73DC224FF4877100904620F0
:102E0000FFF778F8B5A010210B469622CDE9001007
:102E10004FF487714620FFF75BF9A8E1204800686E
:102E2000B249884223D1254800882549098888422B
:102E3000B6DA2248008832302049088008460088E7
:102E40001F490988884203DD1D4800881B49088006
:102E50001B480088194A1288801A81B2194801F06B
:102E600050FF1648018818A002F00CFD7FE10C48C5
:102E700000689F4988420DD11048008800280ADD6B
:102E80000E480088322807DD0C48008832380B498C
:102E9000088032E141E16AE12CE100004C000020B1
:102EA00048000020495220436F64653A203078255D
:102EB0003038580D0A000000CF30FF000E0000200F
:102EC00010000020000400404D6F746F7220706F7E
:102ED00077657220696E6372656173656420746FD3
:102EE0002025640D0A000000E718FF004D6F746F85
:102EF0007220706F776572206465637265617365B7
:102F00006420746F2025640D0A000000857AFF009C
:102F1000120000204D6F746F72206175746F206312
:102F20006F6E74726F6C20656E61626C65640D0A01
:102F300000000000160000204D6F746F72206D615C
:102F40006E75616C20636F6E74726F6C20656E615C
:102F5000626C65640D0A000014000020EF10FF0091
:102F60004D6F746F72207475726E6564204F4E20C1
:102F70006D616E75616C6C790D0A00004D6F746F38
:102F800072207475726E6564204F4646206D616EC6
:102F900075616C6C790D0A0054657374696E6720F5
:102FA000524742204C4544206D6F64756C652E2E4F
:102FB0002E0D0A00524742207465737420706174AC
:102FC0007465726E20646973706C617965640D0A52
:102FD00000000000940123424C454432204F4646F5
:102FE0000D0A00000B0000200C0000204D757369D5
:102FF000632054696D65722053657474696E67202F
:103000004D6F646500000000456E746572206D753B
:103010007369632074696D65722073657474696E79
:1030200067206D6F64650D0A0000000054696D65CE
:10303000723A202564730000A00000204D7573696A
:10304000632074696D65722073657420746F202528
:1030500064207365636F6E64730D0A00C738FF00E8
:10306000A55AFF0004000020060000204D7573697A
:10307000632054696D6572205374617274656421B4
:10308000000000004D757369632074696D657220DE
:103090007374617274656420666F72202564207396
:1030A00065636F6E64730D0A0000000051756963FB
:1030B0006B20636F756E74646F776E2073746172CA
:1030C00074656420666F722035207365636F6E646B
:1030D000730D0A000000002018000020434F554ED9
:1030E00054444F574E20352E30730000BD42FF0030
:1030F000B54AFF00002020490880204800881E4A69
:103100001288801A81B21E4801F0FBFD1A4801881E
:10311000AFF2282002F0B6FB29E01A4800681A49ED
:1031200088420FD1002019490870194908701949BF
:10313000088012480188124801F0E3FD16A002F051
:10314000A1FB14E00F4800681949884205D1FFF738
:10315000A5F918A002F096FB09E00A4800681C498E
:10316000884204D1FFF7AAF81AA002F08BFB0020D6
:103170001E4908701CBD00000E0000201000002039
:103180000004004048000020AD52FF00160000205F
:1031900012000020140000204D6F746F7220656DC6
:1031A000657267656E63792073746F700D0A000035
:1031B000FD02FF0050726576696F757320736F6E44
:1031C000672073656C65637465640D0A0000000018
:1031D0003DC2FF004E65787420736F6E6720736583
:1031E0006C65637465640D0A000000004C000020EB
:1031F00029B1064A52690243044B5A6104E0034A6A
:1032000052698243014B5A6170470000001002402E
:1032100029B1064AD2690243044BDA6104E0034A49
:10322000D2698243014BDA6170470000001002400E
:1032300029B1064A12690243044B1A6104E0034AA9
:1032400012698243014B1A6170470000001002406E
:1032500029B1064A92690243044B9A6104E0034A89
:1032600092698243014B9A6170470000001002404E
:1032700029B1064AD2680243044BDA6004E0034AEB
:10328000D2688243014BDA607047000000100240B0
:1032900001490860704700004004424230B50021F7
:1032A0000022002400232D4D6D6805F00C0121B192
:1032B000042905D0082923D105E0294D056022E025
:1032C000274D05601FE0254D6D6805F47012234DF4
:1032D0006D6805F48034022505EB92421CB9214D3E
:1032E000554305600BE01D4D6D6805F400351DB1BB
:1032F0001C4D5543056002E0194D5543056002E041
:10330000174D056000BF00BF144D6D6805F0F0015A
:103310000909154D6B5C0568DD4045600F4D6D6812
:1033200005F4E061090A104D6B5C4568DD4085607D
:103330000A4D6D6805F46051C90A0B4D6B5C456818
:10334000DD40C560054D6D6805F44041890B074DB2
:103350006B5CC568B5FBF3F5056130BD001002403C
:1033600000127A0000093D002100002031000020F9
:1033700010B501460022002300204A11012A02D183
:10338000094C236806E0022A02D1074C236A01E0B7
:10339000054C636A01F01F02012494401C400CB1EB
:1033A000012000E0002010BD0010024000210B4A67
:1033B00011700A4A203A82F82010012802D004280D
:1033C00008D103E00121054A117004E00521034AF8
:1033D000117000E000BF00BF7047000020100240E5
:1033E00001490860704700003C0442420249096AF2
:1033F0000143014A116270470010024010B50020DD
:103400001AE0002114E0002201EB81030C4C23445C
:103410001A54002301EB8104094A1932224413543F
:1034200001EB8104064A3232224413544A1CD1B2C1
:103430000529E8DB421CD0B20528E2DB10BD000004
:10344000CA00002070B5AAB1C3F3074400EB8005A1
:10345000124E35446C54C3F3072500EB80060F4C25
:1034600019343444655400EB80060C4C3234344437
:10347000635412E0002400EB8005084E35446C5480
:10348000002500EB8006054C19343444655400EBEC
:103490008006024C32343444655470BDCA000020AA
:1034A00010B5FFF7ABFF00F04BF9012003F050FC23
:1034B00010BD00002DE9F041012700254FF00A085A
:1034C0001AA002F0DFF900F07DF81FA002F0DAF98F
:1034D0002BA002F0D7F920E0324A52F8251005EB74
:1034E0008502314BD01800F02FFA681C0A2190FB9E
:1034F000F1F201FB1200C5B200260BE0642003F0DC
:1035000027FC0020FEF7E8FB04460CB1002703E08F
:10351000701C86B2082EF1DB00BF002FDCD1FFF754
:10352000BFFF22A002F0AEF9BDE8F08153746172D2
:1035300074696E6720524742204C45442044656DB3
:103540006F2E2E2E0D0A0000524742204C4544207B
:10355000696E697469616C697A65642E2044697367
:10356000706C6179696E672063686172616374650C
:10357000722073657175656E63652E2E2E0D0A00BF
:10358000507265737320616E79206B657920746F5A
:103590002065786974207468652064656D6F2E0DF0
:1035A0000A00000054D1000820D1000852474220F0
:1035B0004C45442044656D6F2073746F7070656472
:1035C0002E0D0A0008B501214020FFF741FE202002
:1035D000ADF8000010208DF8030003208DF80200E4
:1035E00069460548FDF714FE20210348FDF7EFFE6C
:1035F000FFF756FF08BD00000018014010B520215C
:103600000548FDF7E2FE502003F0C8FB20210248E8
:10361000FDF7DDFE10BD00000018014010B52021AF
:103620001948FDF7D4FE00BF00BF00BF00BF00BFB8
:1036300000BF00BF00BF00BF00BF00BF00BF202110
:103640001148FDF7C2FE00BF00BF00BF00BF00BFB2
:1036500000BF00BF00BF00BF00BF00BF00BF00BF72
:1036600000BF00BF00BF00BF00BF00BF00BF00BF62
:1036700000BF00BF00BF00BF00BF00BF00BF00BF52
:1036800000BF00BF10BD00000018014010B5202190
:103690001948FDF79CFE00BF00BF00BF00BF00BF80
:1036A00000BF00BF00BF00BF00BF00BF00BF00BF22
:1036B00000BF00BF00BF00BF00BF00BF00BF00BF12
:1036C00000BF00BF00BF00BF00BF00BF00BF00BF02
:1036D00000BF00BF20210848FDF777FE00BF00BFF4
:1036E00000BF00BF00BF00BF00BF00BF00BF00BFE2
:1036F00000BF00BF10BD00000018014070B50646B5
:103700000C461546304600F007F8204600F004F855
:10371000284600F001F870BD70B5044600250BE0A6
:1037200004F0800010B1FFF7B1FF01E0FFF776FF72
:103730006006040E681CC5B2082DF1DB70BD0000E8
:1037400070B500241AE0002514E005EB85060E4B49
:1037500033441A5D05EB85030B4E323E3344195D4D
:1037600005EB8506084B193B3344185DFFF7C6FF90
:10377000681CC5B2052DE8DB601CC4B2052CE2DB79
:10378000FFF73CFF70BD0000FC00002030B50528AD
:1037900001DA052900DB30BDC2F3074300EB8004EA
:1037A000094D2C446354C2F3072400EB8005064BFB
:1037B00019332B445C5400EB8005034B32332B440C
:1037C0005A5400BFE7E70000CA0000202DE9F05F6F
:1037D00005464FF00009002400260027A046A24617
:1037E000294631A002F04EF8FFF708FE00BF52E074
:1037F00005EB85003C49084410F804804246214608
:103800003AA002F03FF84FF000093CE008F08000D9
:10381000A8B13BA002F036F80C209AFBF0F100FBB7
:1038200011A0384951F820B05B4601223946304694
:10383000FFF708FE0AF1010000F0FF0A08E032A0DD
:1038400002F020F800231A4639463046FFF7FAFD09
:103850004FEA48604FEA1068781CC7B2052F0ED1B6
:103860000027701CC6B2052E09D11EA002F00AF86E
:10387000FFF766FF25A002F005F8BDE8F09F09F10B
:10388000010000F0FF09B9F1050FBFDB15A001F041
:10389000F9FF601CC4B2052CAADBFFF751FF1BA087
:1038A00001F0F0FF00BFE8E7446973706C6179696B
:1038B0006E67206E756D626572202564207769746D
:1038C00068207261696E626F7720636F6C6F7273CC
:1038D00020286F726967696E616C20706F736974FC
:1038E000696F6E290D0A000000CE0008526F772024
:1038F00025643A20307825303258203D20000000E1
:103900002A00000050CE00082E0000005261696EAF
:10391000626F77206E756D62657220646973706C7A
:1039200061792073656E7420746F2052474220289D
:103930006F726967696E616C20706F736974696F0B
:103940006E290D0A000000002DE9F04107460E46E1
:103950004FF00008FFF752FD00241DE017F8048027
:10396000002515E008F0800030B1334601222146E1
:103970002846FFF767FD05E000231A462146284642
:10398000FFF760FD4FEA48604FEA1068681CC5B257
:10399000052DE7DB601CC4B2052CDFDBFFF7D0FE92
:1039A000BDE8F0812DE9F04781460027FFF726FDAD
:1039B00000241DE01148065D002515E006F080009A
:1039C00070B10C2097FBF0F100FB11700C4951F81D
:1039D0002080424621462846FFF7D8FE781CC7B211
:1039E0007006060E681CC5B2052DE7DB601CC4B26C
:1039F000052CDFDBFFF7A4FEBDE8F08780CE0008D2
:103A000050CE000870B50546FFF7F8FC0CA001F099
:103A100039FF00240BE02A4602212046FFF7B6FEBC
:103A20002A4621460220FFF7B1FE601CC4B2052CD5
:103A3000F1DBFFF785FE09A001F024FF70BD000057
:103A4000446973706C6179696E6720746573742062
:103A50007061747465726E0D0A00000054657374B1
:103A6000207061747465726E2073656E7420746F5B
:103A7000205247420D0A0000024909888143014A49
:103A800011807047042800400348008840F010006F
:103A9000014908807047000004280040034800885E
:103AA0004FF6EF7108400149088070470428004034
:103AB00070B500260024002500F07AF80646384844
:103AC000B6FBF0F437480088A0423CD035490C8062
:103AD00040F2B27510E02846FEF7C2F840B1B4F5E6
:103AE000B77F02D3A4F5B77404E0681C85B206E082
:103AF000A4F26D14681C85B2B4F5B67FEBD800BF94
:103B000029488580002516E027498888FEF7A8F80F
:103B100030B1012D04D11D2C01D31D3C09E00CE076
:103B20002248405DA04203D82048405D241A00E0AE
:103B300003E0681C85B21C2CE6D200BF681C1A4941
:103B40008871601CC8711648B6FBF0F100FB116467
:103B50004FF46160B4FBF0F0134908704FF46160FA
:103B6000B4FBF0F100FB11403C21B0FBF1F00E4939
:103B700048704FF46160B4FBF0F100FB11403C2150
:103B8000B0FBF1F201FB1200074988700B46DA79AD
:103B90009979988800F028F803490872002070BDD0
:103BA0008051010050000020C0000020F4CD00082A
:103BB000002103480188001F008841EA0040704747
:103BC0001C28004001460020064A12880A40D0B254
:103BD000044A121F12880A4012B108B1012000E005
:103BE0000020704704280040F0B503460C461546F7
:103BF000642093FBF0F0C6B2642093FBF0F700FB67
:103C00001730C1B2132E02DD01F16400C1B20846C3
:103C1000CF1701EB977701EBA707BAB2072092FB0A
:103C2000F0F700FB172082B25719601EDFF82CC096
:103C30001CF80000384482B2CF1701EB9777BF1011
:103C4000A1EB87071FB9032C01DA501E82B20720AF
:103C500092FBF0F700FB1720C0B2F0BDE8CD0008E2
:103C600010B50120FFF7AEFF20B10120094908700F
:103C7000FFF71EFF0220FFF7A5FF20B10220FFF78C
:103C8000FBFEFFF715FF0520FFF7F6FE00F006F933
:103C900010BD00004E00002029B1064A12880243E0
:103CA000044B1A8004E0034A12888243014B1A80B5
:103CB00070470000002800401CB5002401214FF08F
:103CC000C050FFF7A5FA0120FEF728FE0420FCF7FC
:103CD00091FF4AF2A001884240D0FCF783FF012007
:103CE000FFF764FB04E0601CC4B20A2003F030F864
:103CF0004120FFF73DFB08B9FA2CF4DBFA2C01DB7D
:103D000001201CBD4FF48070FFF770FB0120FFF70E
:103D100067FB00F0C3F800F0CBF801210846FFF77D
:103D2000BBFF00F0BBF8FFF7AFFE47F6FF7000F0F7
:103D3000A5F800F0B3F83720222111230122CDE9A4
:103D400000100B2140F2E37000F026F8FFF7A6FE0A
:103D50004AF2A0010420FCF75BFF07E000F0A8F89E
:103D600001210846FFF798FF00F098F800F004F8EA
:103D7000FFF79EFE0020C4E708B503208DF8000081
:103D800000208DF801008DF8020001208DF803005D
:103D90006846FEF781FD08BD2DE9F05F06460F4637
:103DA00090469946DDE90AAB002440F2B2708642A3
:103DB00003DB40F63300864202DD0120BDE8F09FC0
:103DC00040F2B2750AE02846FDF74AFF10B12048DC
:103DD000044401E01F480444681C85B2B542F2DB8C
:103DE000781EC7B2002510E01B48405D40F2A321B9
:103DF000484304EBC0143046FDF732FF18B1012DE3
:103E000001D116480444681C85B2BD42ECDBA8F120
:103E1000010040F2A321484304EBC014C9EB491050
:103E2000C0EB092004EB0014CAEB0A1004EB800479
:103E30005C4401214FF0C050FFF7EAF90120FEF782
:103E40006DFD204600F00CF800F028F80020B5E7E2
:103E50000085E2018033E101F4CD000880510100CA
:103E600000B50246FFF710FE100C03490880091D3B
:103E70000A80FFF713FE00BD1828004000B5024677
:103E8000FFF702FEC2F3034003490880091D0A80C0
:103E9000FFF704FE00BD00000828004000BF0348F3
:103EA000008800F020000028F9D070470428004066
:103EB000074800884FF6F77108400549088000BFA1
:103EC0000348008800F008000028F9D0704700007F
:103ED0000428004000200149088070471A00002093
:103EE000704710B500F002F810BD00000CB50020BE
:103EF000019000903348006840F4803031490860F8
:103F000000BF3048006800F4003000900198401C69
:103F10000190009818B90198B0F5A06FF1D1294827
:103F2000006800F4003010B10120009001E0002092
:103F300000900098012843D12348006840F0100009
:103F4000214908600846006820F003000860084620
:103F5000006840F0020008601A484068194948604B
:103F60000846406848600846406840F48060486001
:103F70000846406820F47C1048600846406840F4D9
:103F8000E81048600846006840F08070086000BF94
:103F90000C48006800F000700028F9D0094840681B
:103FA00020F00300074948600846406840F00200DE
:103FB000486000BF0348406800F00C000828F9D1B1
:103FC0000CBD0000001002400020024030B58BB054
:103FD0004FF6FF70FDF7D0FEFCF764FF4FF478401A
:103FE0004D4908804DA010210B46F022CDE900106C
:103FF00032210A20FEF76CF84AA010210B46F0226D
:10400000CDE9001046210A20FEF762F849A01021F0
:104010000B46F022CDE900105A210A20FEF758F88D
:1040200049A010210B46D222CDE9001082210A209E
:10403000FEF74EF84CA010210B46C822CDE9001027
:1040400096210A20FEF744F84BA010210B46C82207
:10405000CDE9001011460A20FEF73AF848A01021D9
:104060000B46C822CDE90010DC210A20FEF730F80B
:1040700046A010210B46DC22CDE900104FF48771D9
:104080000A20FEF725F848480078D8B1474800884C
:104090000A2190FBF1F201FB12044448008890FBD6
:1040A000F1F523462A4642A103A801F0FBFB03A831
:1040B00010210B46DC22CDE900104FF496710A2046
:1040C000FEF706F84FF6FF704FF4AD73DC224FF4A5
:1040D000A57100900A20FDF70DFF3B48006808B16C
:1040E0003AA000E03AA002463AA103A801F0DAFBA8
:1040F00003A810210B46DC22CDE900104FF4A57176
:104100000A20FDF7E5FF1F2003490880FDF74AFA62
:10411000FDF7BEFA0BB030BD3600002050524543CB
:1041200048494E007777772E7072656368696E2E06
:10413000636F6D004254303520426C7565546F6F6B
:1041400074682054657374004B45595F55503A525A
:104150004F4C452020204B4559313A53454E442F72
:1041600053544F50000000004843303520537461D1
:104170006E6462792100000053656E643A000000AD
:10418000526563656976653A000000005072657398
:1041900073204B45593220746F2053656E736F72D4
:1041A000206D6F6465000000060000200400002000
:1041B0004C616E6875612047726173732B20696E64
:1041C0002025642E25647300940123424F46460047
:1041D0004F4E00004C4544323A2025730000000049
:1041E0001CB54FF6FF70FDF7C7FDFCF75BFE64A042
:1041F00010210B469622CDE9001032214620FDF712
:1042000067FF63A010210B46DC22CDE9001050218E
:104210000A20FDF75DFF65A010210B46DC22CDE9E9
:10422000001064210A20FDF753FF67A010210B4600
:10423000DC22CDE9001078210A20FDF749FF68A0B3
:1042400010210B46DC22CDE900108C210A20FDF75D
:104250003FFF68A010210B46DC22CDE90010A02111
:104260000A20FDF735FF68A010210B46DC22CDE9BE
:104270000010BE210A20FDF72BFF69A010210B467C
:10428000DC22CDE90010D2210A20FDF721FF6BA02E
:1042900010210B46DC22CDE90010E6210A20FDF7B3
:1042A00017FF6DA010210B46DC22CDE90010FA218A
:1042B0000A20FDF70DFF6FA010210B46DC22CDE98F
:1042C00000104FF487710A20FDF702FF70A0102143
:1042D0000B46DC22CDE900104FF491710A20FDF766
:1042E000F7FE72A010210B46DC22CDE900104FF43E
:1042F0009B710A20FDF7ECFE71A010210B46DC2219
:10430000CDE900104FF4A5710A20FDF7E1FE73A07E
:1043100010210B46DC22CDE900104FF4AA710A20CF
:10432000FDF7D6FE74A010210B46DC22CDE900106B
:104330004FF4B4710A20FDF7CBFE77A010210B4695
:10434000DC22CDE900104FF4BE710A20FDF7C0FE5B
:1043500078A010210B46DC22CDE900104FF4C87183
:104360000A20FDF7B5FE7BA010210B46DC22CDE92B
:1043700000104FF4D7710A20FDF7AAFE1CBD000003
:104380004F7065726174696F6E204775696465006E
:104390004B4559303A20546F67676C6520417574FE
:1043A0006F20436F6E74726F6C0000004B45593084
:1043B00020284C6F6E67293A20524742204C4544D2
:1043C0002044656D6F0000004B4559313A204D7512
:1043D00073696320506C61792F50617573650000BB
:1043E0004B4559323A20537769746368204D6F64A6
:1043F000650000004B45595F55503A20537769746A
:1044000063682050616765004952313A2052474243
:104410002054657374205061747465726E000000DE
:104420004952333A20456E7465722054696D657245
:10443000205365747570204D6F6465004952343A9D
:1044400020496E6372656173652054696D657220E1
:10445000282B3173290000004952353A2044656306
:1044600072656173652054696D657220282D317302
:10447000290000004952363A205374617274204377
:104480006F756E74646F776E202835732900000095
:104490004952372F383A2041646A757374204D6F42
:1044A000746F7220506F7765720000004952393A7C
:1044B00020456D657267656E63792053746F700077
:1044C00049525F505245562F4E4558543A204D752B
:1044D00073696320436F6E74726F6C004175746F03
:1044E00020436F6E74726F6C3A204C696768742059
:1044F0003C2032300000000052474220436F756E6E
:1045000074646F776E3A2053686F777320636F6CB3
:104510006F7266756C0000006E756D626572732057
:104520006F6E20357835204C4544206D617472697A
:104530007800000054696D657220656E643A204C05
:10454000616E68756120477261737320736F6E6767
:10455000000000004B45595F55503A204261636BA3
:1045600020746F2044617461205061676500000011
:1045700070B504460D461646FDF778F932462946D1
:10458000204600F0FFFE70BD042808D14FF0E02166
:10459000096941F004014FF0E022116107E04FF09A
:1045A000E021096921F004014FF0E0221161704718
:1045B0007047000010B504466FF00400FFF7E4FFF9
:1045C000E11704EB5171C1F3C701074A117010469E
:1045D000007800EB4001C1EBC0104FF6FF7101EA1B
:1045E000C0000249088010BD7C0000207E00002031
:1045F00010B51348006840F00100114908600846F2
:104600004068104908400E494860084600680E4955
:1046100008400B4908600846006820F480200860C4
:104620000846406820F4FE0048604FF41F00886090
:10463000FFF757FC4FF000600449086010BD000010
:10464000001002400000FFF8FFFFF6FE08ED00E05A
:1046500000B59DB001210802FEF7CAFD01200790B8
:10466000002008900F20099000200A900B900C90D9
:104670000D901520009001900520029000200390DD
:1046800004900590069006200E9000200F90109048
:1046900010201190002012901490139015901690F5
:1046A0004FF480501790002018904FF480401990DC
:1046B00000201A9007A81B90CDF870D00EA8FCF728
:1046C00013FD01210620FCF7F5FC1DB000BD000024
:1046D00008B501214FF4B470FEF7BAFD4CF2337007
:1046E000ADF8000018208DF8030003208DF80200BB
:1046F00069461848FCF78CFD4FF68070ADF8000055
:1047000018208DF8030003208DF802006946124836
:10471000FCF77EFD41F20100ADF8000018208DF895
:10472000030003208DF8020069460C48FCF770FD79
:104730000120ADF8000010208DF8030003208DF853
:10474000020069460648FCF763FD01200549086040
:1047500008BD000000140140001801400020014085
:10476000000C01408081214210B5FFF7B1FFFFF737
:104770006FFF322002F0ECFAD020FDF7DDFCFDF7F0
:10478000E7FB89498880FDF7E3FB87498880084675
:10479000818886A001F076F81120FDF7CDFC4FF45A
:1047A000FA7401E0601E84B2002CFBDCB920FDF736
:1047B000C3FCFF20FDF7C6FC8320FDF7C3FC572098
:1047C000FDF7C0FC4FF4FA7401E0601E84B2002CC7
:1047D000FBDCB120FDF7B0FC0020FDF7B3FC14209A
:1047E000FDF7B0FC1C20FDF7ADFC1C20FDF7AAFC7A
:1047F000C320FDF7A7FC4420FDF7A4FC7020FDF7C3
:10480000A1FC4FF4FA7401E0601E84B2002CFBDCC2
:10481000B420FDF791FC2220FDF794FC4020FDF729
:1048200091FC0020FDF78EFC2A20FDF78BFC2A204E
:10483000FDF788FC2020FDF785FC9120FDF782FC28
:104840004FF4FA7401E0601E84B2002CFBDC3620C9
:10485000FDF772FC4C20FDF775FCC020FDF76CFCE9
:104860005020FDF76FFC5020FDF76CFC0120FDF798
:1048700069FC3C20FDF766FCC820FDF763FC0820BE
:10488000FDF760FC0020FDF75DFC0820FDF75AFCF9
:104890000420FDF757FC4FF4FA7401E0601E84B267
:1048A000002CFBDC4FF4FA7401E0601E84B2002C93
:1048B000FBDCE020FDF740FC0B20FDF743FC112062
:1048C000FDF740FC1E20FDF73DFC3020FDF73AFCD3
:1048D0003A20FDF737FC4320FDF734FC4E20FDF76E
:1048E00031FC5620FDF72EFC4520FDF72BFC3F2028
:1048F000FDF728FC3920FDF725FC3220FDF722FCCE
:104900002F20FDF71FFC2A20FDF71CFC2920FDF7B6
:1049100019FC2120FDF716FC0B20FDF713FC1120DC
:10492000FDF710FC1E20FDF70DFC3020FDF70AFC02
:104930003A20FDF707FC4320FDF704FC4E20FDF76D
:1049400001FC5620FDF7FEFB4520FDF7FBFB3F2059
:10495000FDF7F8FB3920FDF7F5FB3220FDF7F2FB00
:104960002F20FDF7EFFB2A20FDF7ECFB2920FDF7B8
:10497000E9FB2120FDF7E6FB0020FDF7E3FB01202A
:10498000FDF7E0FB3A20FDF7D7FB0520FDF7DAFB4A
:104990002920FDF7D1FB0020FDF712FA4FF6FF703A
:1049A000FDF7EAF910BD00003A000020204C434416
:1049B0002049443A25780D0A0000000030B589B03E
:1049C00005460C4601210820FEF742FC0121022089
:1049D000FEF71EFC01210846FEF73AFC2020ADF848
:1049E000040003208DF8060018208DF8070001A9A7
:1049F0001748FCF70DFC01211648FCF795FCADF8B3
:104A00001C50ADF818400020ADF81E00ADF81A009B
:104A100006A9114800F07CF96020ADF808000220DA
:104A2000ADF810000120ADF80A0002A90A4800F014
:104A3000ADF80821084800F0FBF80121064800F015
:104A40006FF80121044800F07AF809B030BD000089
:104A5000000C014000081A000004004010B50121BC
:104A6000084800F078F838B10748006808B9012014
:104A700000E00020044908600121024800F05CF8D1
:104A800010BD0000000800409401234210B5012130
:104A9000094800F060F868B10848008840F4004018
:104AA000064908800121044800F046F80021024828
:104AB00000F045F810BD0000001400405200002036
:104AC0007FB505460C4601212020FEF7A1FBADF87D
:104AD0000450ADF800400020ADF80600ADF802002B
:104AE00069460E4800F014F9012211460B4800F007
:104AF00043F80121094800F022F837208DF80C0016
:104B000000208DF80D0002208DF80E0001208DF898
:104B10000F0003A8FDF7C0FE7FBD00000014004099
:104B200021B1028842F08002028004E002884FF640
:104B30007F731A4002807047CA430282704721B1D6
:104B4000028842F00102028004E002884FF6FE7300
:104B50001A400280704730B502460020002300242E
:104B6000158A05EA0103958905EA010413B10CB120
:104B7000012000E0002030BD1AB183890B438381FE
:104B800002E083898B4383817047000070B5002465
:104B900000220023058C4FF6EF7635400584028C09
:104BA0008388048B48F6FF752C404FF6FF452C4058
:104BB0000D884FF6FF7606EA05252C434FF6DF7584
:104BC0002A400D8906EA05152A434D8806EA05158F
:104BD0002A43154DA84202D0144DA8421DD14FF6CC
:104BE0007F752A404D894FF6FF7606EA05152A4360
:104BF0004FF6BF752A408D8806EA05152A434FF601
:104C0000FF352B404FF2FF752B408D8906EA850555
:104C10002B43CD8906EA85052B4383800483CD8809
:104C20000587028470BD0000002C01400034014063
:104C30000A460021018B4FF2FF7319404FF6FF73B4
:104C400003EA0223194301837047000070B5002472
:104C500000220023058C4FF6FF6635400584028C48
:104C60008388848B4FF68F752C404FF6FC752C4053
:104C70000D882C434FF6FF552A400D894FF6FF76DD
:104C800006EA05252A434D8806EA05252A43154DDF
:104C9000A84202D0144DA8421DD14FF2FF752A4000
:104CA0004D894FF6FF7606EA05252A434FF6FF3574
:104CB0002A408D8806EA05252A434EF6FF752B40CB
:104CC0004DF6FF752B408D8906EA05152B43CD89DE
:104CD00006EA05152B4383808483CD88858702846B
:104CE00070BD0000002C0140003401400A46002144
:104CF000818B4FF6F773194011438183704781858B
:104D00007047018770478187704781847047000032
:104D1000002202881D4B98420ED01D4B98420BD0AA
:104D2000B0F1804F08D01B4B984205D01A4B9842E7
:104D300002D01A4B984204D14FF68F731A404B8819
:104D40001A43174B984207D0164B984204D04FF69F
:104D5000FF431A40CB881A4302808B8883850B88D7
:104D600003850A4B98420BD0094B984208D00E4B52
:104D7000984205D00D4B984202D00D4B984201D17C
:104D80000B7A03860123838270470000002C0140C8
:104D9000003401400004004000080040000C0040C6
:104DA0000010004000140040004001400044014059
:104DB0000048014010B540F225511D4800F0A7F908
:104DC00010B31B4800F05EFAC4B21A48008800F421
:104DD0000040C8B91748008800F4804060B10A2C30
:104DE00003D000201349088020E01248008840F4D6
:104DF00000401049088019E00D2C06D10D480088AC
:104E000040F480400B49088010E00A480088C0F355
:104E10000D0009490C5407480088401C05490880CA
:104E200008460088C72801DD0020088010BD00006A
:104E30000038014080000020C505002010B586B074
:104E4000044601210420FEF703FA01218803FEF73E
:104E5000FFF94FF40070ADF8140003208DF8160030
:104E600018208DF8170005A91E48FCF7D1F94FF45A
:104E70008060ADF8140004208DF8170005A91948CA
:104E8000FCF7C6F901940020ADF80800ADF80A005F
:104E9000ADF80C00ADF810000C20ADF80E0001A923
:104EA000114800F083F901210F4800F0C8F84021B3
:104EB0000D4800F0BBF8012240F225510A4800F0ED
:104EC00050F925208DF8000003208DF801008DF8A1
:104ED000020001208DF803006846FDF7DDFC06B0F6
:104EE00010BD0000000801400038014010B540F23C
:104EF0002551164800F00BF9F8B1144800F0C2F93A
:104F0000C4B21348008800F40040B0B910480088CB
:104F1000B0F5167F12DA00210E48FFF7F6FE0C48B6
:104F2000008818B901210B48FFF709FE08490888D5
:104F3000411C074A118008490C5405E004480088C8
:104F400040F400400249088010BD000000480040C5
:104F500052000020001400401501002010B586B05A
:104F6000044601210820FEF773F901218804FEF7A9
:104F70004FF92A4800F070F84FF48060ADF8100047
:104F800003208DF8120018208DF8130004A924487E
:104F9000FCF73EF94FF40060ADF8100004208DF8E6
:104FA000130004A91E48FCF733F900940020ADF863
:104FB0000400ADF80600ADF80800ADF80C000C20B8
:104FC000ADF80A006946154800F0F0F801211348D1
:104FD00000F035F8012240F22551104800F0C1F8E8
:104FE00027208DF8140002208DF8150003208DF87D
:104FF000160001208DF8170005A8FDF74DFC41F6BD
:105000001F416320FFF75CFD002006490880002156
:105010000548FFF794FD06B010BD000000480040B1
:10502000000C0140520000200014004001F4007206
:10503000B2F5007F00D100BFCA430280704721B1A2
:10504000828942F40052828104E082894DF6FF7326
:105050001A4082817047000010B5044620488442FF
:1050600009D101218803FEF703F900214FF48040A4
:10507000FEF7FEF832E01B48844209D101214804C2
:10508000FEF7D6F800214FF40030FEF7D1F825E006
:105090001548844209D101218804FEF7C9F800218E
:1050A0004FF48020FEF7C4F818E01048844209D17C
:1050B0000121C804FEF7BCF800214FF40020FEF7E0
:1050C000B7F80BE00A48844208D101210805FEF731
:1050D000AFF800214FF48010FEF7AAF810BD0000D1
:1050E000003801400044004000480040004C0040AF
:1050F0000050004002460020B1F5007F00D100BF03
:1051000013880B400BB1012000E00020704770B500
:105110000246002400230025002040F66A16B14212
:1051200000D100BFC1F3421501F01F03012606FAAA
:1051300003F3012D02D19689334006E0022D02D1FE
:10514000168A334001E0968A33400C12012606FA93
:1051500004F41688344013B10CB1012000E00020A3
:1051600070BDF0B50346002400260025002040F65F
:105170006A17B94200D100BF1846C1F3421401F0CA
:105180001F06012707FA06F5012C01D10C3004E0B7
:10519000022C01D1103000E014301AB107682F43FF
:1051A000076002E00768AF430760F0BD2DE9F047F4
:1051B00086B005460E460024A24600BFA146002741
:1051C000B08900B100BF2F462C8A4CF6FF70044016
:1051D000F08804432C82AC894EF6F3100440B0886A
:1051E00031890843718908430443AC81AC8A4FF686
:1051F000FF400440B0890443AC8201A8FEF74EF89A
:105200001F48874202D1DDF810A001E0DDF80CA0B4
:10521000A88900F4004040B10AEBCA0000EB0A1074
:1052200031684900B0FBF1F807E00AEBCA0000EB77
:105230000A1031688900B0FBF1F86420B8FBF0F087
:1052400004012009642101FB1089A88900F40040B1
:1052500040B1322000EBC900B0FBF1F000F00700D4
:10526000044308E0322000EB09106421B0FBF1F0A8
:1052700000F00F0004432C8106B0BDE8F087000069
:105280000038014001468888C0F308007047C1F328
:10529000080282807047000000B587B02E488078F1
:1052A0002E490978884254D02C480078FF2806D02F
:1052B000294A51781078294A127802F02FF901F022
:1052C00093FD01F0B7FD244B9A785978187801F0D6
:1052D0007DFF2148807800901F484378027820A104
:1052E00003A800F0DFFA00207E23A0226E210090A8
:1052F0005020FCF7FFFD4FF6E0701D49088003A821
:1053000010210B46C822CDE900106E215020FCF779
:10531000DFFE1148C07900900F488379828815A17B
:1053200003A800F0BFFA00209223B422822100904B
:105330003C20FCF7DFFD03A810210B46C822CDE975
:10534000001082213C20FCF7C3FE0348807803490B
:10535000087007B000BD0000C00000201F00002042
:10536000252E32643A252E32643A252E326400000E
:1053700036000020253034642D253032642D253050
:10538000326400002DE9F0418AB004460D4616460D
:105390004FF6FF704A23E622322100900A20FCF7E4
:1053A000A9FDFD48C0790090FB4883798288FBA164
:1053B00002A800F077FA02A818210B46A022CDE936
:1053C000001032213C20FCF783FE4FF6FF7068236B
:1053D000E622502100900A20FCF78CFDEE488078F0
:1053E0000090ED4843780278F0A102A800F05AFA44
:1053F00002A818210B468222CDE9001050214B2033
:10540000FCF766FE4FF6FF7088236E22782100902D
:105410004620FCF76FFD2246E8A102A800F042FA00
:1054200002A810210B462822CDE900107821462041
:10543000FCF74EFE4FF6FF708823DC2278210090A7
:10544000B420FCF757FD2A46DEA102A800F02AFA94
:1054500002A810210B462822CDE900107821B420A3
:10546000FCF736FE4FF6FF70A123782291210090C1
:105470004620FCF73FFD3246D4A102A800F012FA04
:1054800002A810210B463222CDE9001091214620BE
:10549000FCF71EFE4FF6FF70BA23DC22AA21009013
:1054A0005020FCF727FD1C2C0ADDC9A010210B465B
:1054B0008C22CDE90010AA215020FCF709FE16E04D
:1054C0000F2C0ADAC3A010210B468C22CDE9001064
:1054D000AA215020FCF7FCFD09E0C0A010210B46DA
:1054E0008C22CDE90010AA215020FCF7F1FD4FF6E7
:1054F000FF70D3237822C32100904620FCF7FAFCEA
:10550000B848007808B1B8A000E0B8A00246B8A139
:1055100002A800F0C7F902A810210B463222CDE9FB
:105520000010C3214620FCF7D3FD4FF6FF70EC239B
:105530009622DC2100905A20FCF7DCFCAD48008864
:1055400064214843AC49098890FBF1F73A46ABA186
:1055500002A800F0A7F902A810210B463C22CDE9D1
:105560000010DC215A20FCF7B3FD4FF6FF704FF41A
:105570008F73DC224FF4877100904620FCF7BAFC51
:10558000A048007838B3A0A010210B469622CDE9A0
:1055900000104FF487714620FCF79AFD4FF6FF701C
:1055A00040F23713DC2240F2271100904620FCF72E
:1055B000A1FC9748028897A102A800F073F902A8FD
:1055C00010210B469622CDE9001040F2271146200B
:1055D000FCF77EFD35E092480078E0B19148008804
:1055E0000A2190FBF1F201FB12078E48008890FB24
:1055F000F1F83B4642468CA102A800F053F902A8FC
:1056000010210B469622CDE900104FF487714620F9
:10561000FCF75EFD15E07348007808B172A000E069
:1056200072A0024672A102A800F03CF902A8102163
:105630000B469622CDE900104FF487714620FCF707
:1056400047FD4FF6FF704FF4A87378224FF4A07116
:1056500000904620FCF74EFC7848006808B163A033
:1056600000E061A0024662A102A800F01BF902A8B6
:1056700010210B463222CDE900104FF4A0714620D4
:10568000FCF726FD4FF6FF7040F26913AA2240F2A4
:10569000591100906E20FCF72DFC6948028869A121
:1056A00002A800F0FFF802A810210B463C22CDE929
:1056B000001040F259116E20FCF70AFD6248007894
:1056C000B0B34FF6FF7040F26913DC2240F259117B
:1056D00000908C20FCF70EFC5C480078E0B15C4840
:1056E00000880A2190FBF1F201FB1207584800885C
:1056F00090FBF1F83B46424656A102A800F0D2F8D2
:1057000002A810210B465022CDE9001040F2591199
:105710008C20FCF7DDFC3CE052A010210B4650220F
:10572000CDE9001040F259118C20FCF7D1FC30E09B
:10573000FFE746480078B0B14FF6FF7040F26913BA
:10574000DC2240F2591100908C20FCF7D3FB47A0DB
:1057500010210B465022CDE9001040F259118C2047
:10576000FCF7B6FC15E04FF6FF7040F26913DC223F
:1057700040F2591100908C20FCF7BCFB3EA0102198
:105780000B465022CDE9001040F259118C20FCF755
:105790009FFC0AB0BDE8F081C000002025303464D1
:1057A0002D253032642D25303264000025303264DE
:1057B0003A253032643A25303264000025326443A1
:1057C0000000000025326425250000002533640018
:1057D000486F7400436F6C64000000004E6F726D80
:1057E000616C0000460000204F4E00004F4646000E
:1057F0002573000044000020420000202564252578
:10580000000000000B00002053455454494E47004F
:105810000C0000202564207365636F6E64730000C4
:105820000600002004000020434F554E54444F57BB
:105830004E2025642E25647300000000940123424D
:105840000E00002025640000120000201600002039
:1058500014000020284155544F2025642E256473E0
:1058600029000000284155544F290000284D414E81
:1058700055414C204F4E2900284F46462900000034
:1058800000BFFEE70FB4054B10B503A9044A029808
:1058900000F03EFC10BC5DF814FB00005D780008D1
:1058A000840000200FB4084B10B504A902AA039885
:1058B00000F02EFC044602A9002001F0F1F9204678
:1058C00010BC5DF814FB0000A16C000837B514464D
:1058D0000846064B6A46214600F022FE0446694609
:1058E000002001F0E2F920463EBD0000AB6C00084C
:1058F000490050EAC12018BF04204A0D18BF40F0EB
:10590000010040F2FF72B2EB515F08BF40F00200AD
:10591000012808BF05207047004870478800002014
:105920002DE9F74F144694B00021C4E902111599EE
:10593000079121F00045C9498D4206DC1599C4E95B
:10594000000117B00020BDE8F08FC549DFF814A3AF
:10595000A9423CDD0799C44E0029C44FC44A159999
:10596000534619DDFAF7E4FC554506D0C14AC24B4F
:10597000FAF7DEFCC4E900010AE04FF0D352BE4B57
:10598000FAF7D6FC32463B46FAF7D2FCC4E90001EE
:1059900017B00120BDE8F08FFAF729FC554506D075
:1059A000B44AB54BFAF723FCC4E900010AE04FF012
:1059B000D352B14BFAF71BFC32463B46FAF717FCC1
:1059C000C4E9000117B04FF0FF30BDE8F08FAB49DC
:1059D000A942159978DB21F0004183468846A84A00
:1059E000A84BFAF7ABFC0022A74BFAF700FCFAF73A
:1059F000A4FD0990FAF783FD06460F469C4A5346DC
:105A0000FAF79CFC43465A46FAF795FC80468A46CC
:105A1000984A994B30463946FAF790FC2A0D0125F1
:105A20000B9242465346FAF786FC032DC4E9000167
:105A300039D00B98C1F30A51401A05EB45111139C1
:105A4000814230DA9148C346784400EB0510CDF826
:105A50000CA00C90D0E9002330463946FAF76EFCD2
:105A600002460B460491069058460399FAF760FCEB
:105A700080468A4602460B4658460399FAF758FC78
:105A8000049B069AFAF754FC83460C980391394616
:105A9000D0E902233046FAF751FC5A46039BFAF745
:105AA00047FC6D1CBDE707980028A2BF099817B0F6
:105AB000BDE8F08F616881F000416160099817B01E
:105AC0004042BDE8F08FFFE784461598C1F313010B
:105AD000C0F30A50A0F2F5304FEA601800F01F063C
