:020000040800F2
:10000000900A002045010008452800083516000820
:10001000392200082D0C0008795600080000000065
:10002000000000000000000000000000413D00084A
:10003000250E000800000000D9280008A143000890
:100040005F0100085F0100085F010008C13A000875
:100050005F0100085F0100085F0100085F01000800
:100060005F0100085F0100085F0100085F010008F0
:100070005F0100085F0100085F0100085F010008E0
:100080005F0100085F0100085F0100085F010008D0
:100090005F0100085F0100085F010008290E0008E9
:1000A0005F0100085F0100085F0100085F010008B0
:1000B0005F0100085F0100084D4800085F0100086B
:1000C0005F0100085F0100085F0100085F01000890
:1000D0005F010008A54B00085F010008DD4C000827
:1000E0005F0100085F0100085F0100085F01000870
:1000F0005F0100085F0100085F0100085F01000860
:100100005F0100085F0100085F0100085F0100084F
:100110005F0100085F0100085F0100087D480008DA
:100120005F0100085F0100085F0100085F0100082F
:10013000DFF80CD000F05EFB004800474177000874
:10014000900A00200648804706480047FEE7FEE781
:10015000FEE7FEE7FEE7FEE7FEE7FEE7FEE7FEE777
:10016000E14300083101000840EA01039B0703D086
:1001700009E008C9121F08C0042AFAD203E011F8E6
:10018000013B00F8013B521EF9D27047421C10F8A7
:10019000011B0029FBD1801A704710B5002200E036
:1001A000521C835C8C5CA34201D1002BF8D1D8B2E5
:1001B000E1B2401A10BD30B505460020034600E00C
:1001C0005B1C934205D2EC5CC85C201A01D1002C68
:1001D000F6D130BD70B5064605F09AFA04680546BA
:1001E0000A220021304600F03FFA2C6070BD2DE954
:1001F000FE4F804681EA0300C00F0C46009021F0BC
:10020000004123F00045B8EB0200A94105D2404669
:10021000214690461C460B46024623F00040104300
:1002200047D0270DC7F30A00C3F30A510290401AC2
:10023000019040286BDAC3F3130040F4801B009850
:10024000924620B10023D2EB030A63EB0B0B01981B
:100250005946C0F14002504600F0D5F906460D4619
:1002600050465946019A00F0EDF910EB0800614143
:10027000002487EA115284EAE7731A4340D0009AB7
:1002800062B3019A012A4FEA075215DC001B61EBA9
:1002900002014FF0004202EA0752CDE90042001C81
:1002A00041F5801132462B4600F025FA03B0BDE837
:1002B000F08F40462146F9E7001B61EB0201001C6C
:1002C00041F5801300185B412018A2F5001747EB99
:1002D000030140EAD570B6196D4111E06D084FEA8F
:1002E000360645EAC0754FEA0752001B61EB020172
:1002F000001C41F5801149084FEA300000195141B6
:1003000032462B4603B0BDE8F04F00F0E5B9009847
:10031000012240000023D0EB020263EBE07300985F
:1003200021464FEAE074B8EB000061EB0401E9E715
:1003300083F000435BE781F0004158E72DE9FE4F71
:1003400081EA030404F0004421F0004100944FF0DE
:10035000000B23F0004350EA01045ED052EA03048C
:100360005BD0C3F30A54C1F30A552C44A4F2F3340E
:100370000194A0FB0254C1F3130141F48011C3F3B3
:10038000130343F4801301FB024400FB034E840A71
:10039000970A44EA815447EA8357A4FB0768029509
:1003A0008D0A05FB07854FEA932C04FB0C542705A7
:1003B000029D4FEA065847EA1637B5EB08056EEB83
:1003C000070C870E920E47EA811742EA8312A7FBB9
:1003D0000201B6EB0B0164EB00042B0D43EA0C3376
:1003E0005E1844EB1C50DA465146E7FB0201C5F3A8
:1003F00013044FEA0B3343EA14534FEA0432019CCF
:1004000043EA0603A4F10C040294009CCDE900B475
:1004100000F071F903B0BDE8F08F00200146F9E764
:100420002DE9F04D81EA030404F0004B21F0004572
:1004300014464FF0000A23F0004150EA050220D094
:1004400054EA01021DD0C5F30A570246C5F313034F
:10045000C1F31300C1F30A5640F4801543F480132E
:10046000A7EB0608101BD64608F2FD3873EB050013
:1004700002D308F1010801E092185B41B8F1000FC6
:1004800003DA00200146BDE8F08D00204FF4801112
:10049000064684460EE0171B73EB050705D3121BB7
:1004A00063EB050306434CEA010C49084FEA3000B0
:1004B00092185B4150EA0107EDD152EA030012D0D5
:1004C00082EA040083EA0501084305D0101BAB4112
:1004D00006D20122002306E000224FF0004302E092
:1004E0006FF0010253101AEB06004CEB085110EBB1
:1004F0000A0041EB0B01BDE8F04D00F0EDB80EB580
:10050000C10F80EAE0700844CA07002140F233437B
:100510008DE80E000A460B4600F0EDF803B000BD72
:100520000EB540F2334102910021CDE900110A4697
:100530000B4600F0E0F803B000BD70B5C1F30A52FD
:1005400001F000450024C1F3130140F2FF3341F4F0
:1005500080119A4201DA002070BD40F233439A4282
:10056000A2F2334203DC524200F05CF800E090401B
:100570002C43F1D0404270BD30B50B4601460020FF
:100580002022012409E021FA02F59D4205D303FA55
:1005900002F5491B04FA02F52844151EA2F10102D6
:1005A000F1DC30BD2DE9F05F0546002092469B4608
:1005B00088460646814640241BE028464146474679
:1005C000224600F02FF853465A46C01A914110D3E4
:1005D00011461846224600F016F82D1A67EB01085E
:1005E0004F4622460120002100F00DF817EB0009CC
:1005F0004E41201EA4F10104DFDC484631462A4664
:100600004346BDE8F09F202A04DB203A00FA02F1BD
:10061000002070479140C2F1200320FA03F31943F0
:1006200090407047202A04DB203A21FA02F0002192
:10063000704721FA02F3D040C2F1200291400843F2
:1006400019467047202A06DBCB17203A41FA02F000
:1006500043EAE07306E041FA02F3D040C2F120021F
:1006600091400843194670472DE9F04791460F46DF
:1006700080460446002614F8015B2DB100F0CCF84A
:100680000068405DC007F6D12B2D02D02D2D18D06B
:10069000641E4A463946204600F0C2F827B1396840
:1006A000A14201D1C7F8008071054FF002040BD5BB
:1006B0004042002803DD05F02BF80460A007BDE8E8
:1006C000F08746F48066E4E70028F8DA05F020F8C1
:1006D00004606FF00040F2E710B5141E73F10004DF
:1006E00008DA401C41F1000192185B411A4301D124
:1006F00020F0010010BD2DE9F04D92469B4611B14E
:10070000B1FA81F202E0B0FA80F220329046FFF7AF
:100710007AFF04460F4640EA0A0041EA0B015346BD
:100720005A46084313D0114653EA010019D0C8F1C4
:1007300040025046FFF776FF05460E4650465946A2
:100740004246FFF760FF084305D0012004E0204641
:100750003946BDE8F08D0020054346EAE0762C439B
:1007600037430A986305E40AA0EB08000022FD0A5B
:1007700044EA47540A3002D500200146E9E7010562
:1007800010196941DDE9084500196941BDE8F04DDE
:10079000A2E7C1F30A52C1F3130140F2FF3341F45F
:1007A00080119A4202DA00200146704740F233433A
:1007B0009A42A2F2334202DC5242FFF733BFFFF704
:1007C00022BF000030B5041E71F1000404DB4FF0BD
:1007D0000044404264EB0101141E73F1000405DB88
:1007E0001C464FF00043524263EB0403994208BF9A
:1007F000904230BD064C074D06E0E06840F0010332
:1008000094E8070098471034AC42F6D3FFF794FC05
:1008100074F6000894F600080048704744F6000893
:100820002DE9F05F82460078002715468B460AF1D5
:100830000104B946302801D09DB113E014F8010B32
:100840000127782803D0582801D045B10AE00DB11E
:10085000102D07D10027102514F8010B02E0082500
:1008600000E00A250026B0460EE005FB080005FB67
:1008700006F1012701EB10461FFA80F8B6F5803F1C
:1008800000D3B94614F8010B294600F02FF80028D0
:10089000EBDABBF1000F05D00FB1641E00E0544647
:1008A000CBF80040B9F1000F06D004F031FF02216F
:1008B0000160C81EBDE8F09F48EA0640FAE770B53F
:1008C00021F0004303430CD0C1F30A550024D5EBBB
:1008D000040564EB0403D617AD1AB34102DB002014
:1008E000014670BD201841EB025170BD3A2800D27C
:1008F000303820F02002412A01D3A2F1370088428B
:1009000001D34FF0FF30704721B1826842F00102FD
:10091000826003E0826822F001028260704700007A
:1009200010B504461248844208D10121401502F056
:1009300011FC0021601502F00DFC17E00D48844207
:1009400008D10121001502F005FC0021201502F05C
:1009500001FC0BE00848844208D10121C80302F0E1
:10096000F9FB00214FF4004002F0F4FB10BD000041
:100970000024014000280140003C014001460020C5
:100980008A6802F004020AB1012000E000207047EA
:100990000146C86C80B270470246002013680B40C5
:1009A0000BB1012000E000207047014600208A685A
:1009B00002F008020AB1012000E0002070470000A8
:1009C00030B502460020002350680F4C20400D79BE
:1009D0000C6844EA05242043506090680B4C20408A
:1009E000D1E902542C434D7944EA450420439060F8
:1009F000D06A20F470000C7C641EE4B2234340EA09
:100A00000350D06230BD0000FFFEF0FFFDF7F1FFA4
:100A1000F0B504460D4600200021092D11DDE068E7
:100A2000A5F10A0606EB4607072606FA07F18843F2
:100A3000A5F10A0606EB460603FA06F10843E06054
:100A40000CE0206905EB4507072606FA07F1884305
:100A500005EB450603FA06F108432061072A0FDA81
:100A6000606B561E06EB86071F2606FA07F18843C1
:100A7000561E06EB860605FA06F10843606322E07F
:100A80000D2A0FDA206BD61F06EB86071F2606FA03
:100A900007F18843D61F06EB860605FA06F10843E0
:100AA000206310E0E06AA2F10D0606EB86071F2620
:100AB00006FA07F18843A2F10D0606EB860605FA51
:100AC00006F10843E062F0BD816841F008018160F1
:100AD000704721B1826842F4A002826003E082681C
:100AE00022F4A00282607047816841F004018160B5
:100AF0007047000000B589B00121082002F01AFB00
:100B00000121042002F0F6FA4FF48070ADF82000C5
:100B100018208DF8230003208DF8220008A91A4818
:100B200000F004FB19480088401E80B2ADF81800A0
:100B30004720ADF814000020ADF81A00ADF81600FB
:100B400005A9134803F0DCFF6020ADF80400012084
:100B5000ADF806000020ADF80A00ADF80C0001A9C0
:100B60000B4803F06BFF0821094803F0B7FF012190
:100B7000074803F0CDFE0121054803F0D8FE002010
:100B80000449087009B000BD000C0140400000207D
:100B9000000800404400002010B50021034803F085
:100BA000AAFF00200249087010BD000000080040A4
:100BB0004400002010B50748007850B90648007876
:100BC00038B906480188064803F095FF012001491D
:100BD000087010BD44000020540000204200002096
:100BE0000008004010B5012002F0C4FA002002F015
:100BF000C1FA10BD08B501460020009003480090DE
:100C00000098084400900098008808BD006C0040DF
:100C100008B500220092044A0092009A0244009211
:100C2000009A116008BD0000006C004000BFFEE7A4
:100C300010B5002000F0E4FF04461CB100F08AF972
:100C4000012010BD0548007830B10020034908702C
:100C500000F080F90120F4E70020F2E74C000020CA
:100C600010B5002400F024F804E0601CC4B2012098
:100C700005F090FF0D48006808B1642CF5DB642C8A
:100C800001DB012010BD002404E0601CC4B201207F
:100C900005F080FF0548006808B9642CF5DB642C7A
:100CA00001DB0120EEE70020ECE700002C012442EC
:100CB00008B54FF40060ADF8000048208DF803003F
:100CC0006946024800F032FA08BD000000200140E9
:100CD00008B54FF40060ADF8000010208DF8030057
:100CE00003208DF802006946014800F01FFA08BD94
:100CF0000020014008B50121080202F01BFA4FF460
:100D00000060ADF8000010208DF8030003208DF87E
:100D100002006946064800F009FA4FF400610448F1
:100D200000F0E3FA00F068F8FFF79AFF08BD000052
:100D30000020014010B5002404E0601CC4B2012072
:100D400005F028FF0D48006808B1642CF5DB00248D
:100D500004E0601CC4B2012005F01CFF07480068D5
:100D600008B9642CF5DB282005F014FF034800685F
:100D700008B1012010BD0020FCE700002C01244236
:100D800070B50024002506E06006040EFFF7D2FFD0
:100D90000443681CC5B2082DF6DB204670BD7CB547
:100DA00005460E4600F028F8FFF75AFFF8B9002470
:100DB00005E0FFF7E5FF0DF80400601CC4B2052C48
:100DC000F7DB9DF800009DF8011008449DF8021023
:100DD00008449DF8031008449DF80410884208D187
:100DE0009DF8000030709DF80200287001E001209D
:100DF0007CBD0020FCE7000010B5FFF769FF002074
:100E000006490860142005F09FFE01200449C1F83E
:100E1000AC011E2005F0BEFE10BD0000AC01244256
:100E200000002442704700002DE9F0410024002614
:100E3000002530E04FF400711B4800F04BFA012808
:100E400029D100F0DFFB0446FA2C00DB24E0C82C9B
:100E500003DBFA2C01DA01260AE03C2C03DB5A2CD6
:100E600001DA012704E00A2C02DB322C00DA002729
:100E7000012E0ED10D48006840000C49086008465C
:100E8000006838440860202D03DB01200849087001
:100E900002E0681CC5B2CDE700BF4FF4007000F05F
:100EA00009F8BDE8F0810000000C01404800002076
:100EB0004C00002001490860704700001404014004
:100EC000002123498279002A3AD00A461268036831
:100ED0009A430B461A600A1D126803689A430B1D59
:100EE0001A60027911440A6803681A430A60184AB2
:100EF0000832126803689A43154B08331A601A1DAA
:100F0000126803689A43124B0C331A604279102A14
:100F10000ED11A1F126803681A430D4B08331A606A
:100F20001A1D126803681A43094B0C331A600DE04E
:100F30000749427911440A6803681A430A6005E0C8
:100F4000027911440A6803689A430A6070470000F6
:100F5000000401401CB500201349087013A004F0E0
:100F60008DFB19480078C0B91848007890B9002066
:100F7000019000900024694601A8FFF710FF01F0DE
:100F8000EDF8044622469DF800109DF8040003F099
:100F9000E7F908E003F052F805E00B480078012873
:100FA00001D102F043FF1CBD1E000020436C6F63A3
:100FB0006B206D6F6465206465616374697661742C
:100FC00065640D0A000000000000002018000020E9
:100FD00051B18200A2F1C042126842F001038200C6
:100FE000A2F1C042136009E08200A2F1C04212687F
:100FF000034B1A408300A3F1C0431A6070470000FE
:10100000FEFF0F00D0E901121143C26811430269CB
:1010100011434269114382691143C2691143026A53
:101020001143426A1143826A1143C26A1143026B3F
:10103000114302689200A2F1C04211608168082940
:101040000BD101688900A1F1C041096841F040025B
:1010500001688900A1F1C0410A60416B0968426BD7
:10106000526841EA0211426B926841EA0221426BE6
:10107000928941EA0241426B128A41EA0251426B73
:10108000127D41EA0261426B926911430268521C6F
:101090009200A2F1C0421160C16AB1F5804F1BD12C
:1010A000816B0968826B526841EA0211826B926817
:1010B00041EA0221826B128A41EA0251826B127D5F
:1010C00041EA0261826B9269114302689200A2F1C7
:1010D000C042C2F8041107E06FF070420168890055
:1010E000A1F1C041C1F804217047000030B50022D1
:1010F0008B071C0F0F2303FA04F20B4B8C1053F8D1
:1011000024309343084C8D1044F8253023468C102E
:1011100053F824308C07240F00FA04F42343024CC4
:101120008D1044F8253030BD080001402DE9F04114
:10113000024600250026002000230024002791F805
:1011400003C00CF00F0591F803C00CF0100CBCF1BB
:10115000000F03D091F802C04CEA050591F800C0D9
:10116000BCF1000F31D0146800202BE04FF0010CCF
:101170000CFA00F3B1F800C00CEA03069E4220D13D
:1011800083004FF00F0C0CFA03F7BC4305FA03FC85
:101190004CEA040491F803C0BCF1280F06D14FF0CB
:1011A000010C0CFA00FCC2F814C00AE091F803C06C
:1011B000BCF1480F05D14FF0010C0CFA00FCC2F84D
:1011C00010C0401C0828D1D31460B1F800C0BCF195
:1011D000FF0F34DD546800202EE000F1080C4FF0C2
:1011E000010808FA0CF3B1F800C00CEA03069E42AD
:1011F00021D183004FF00F0C0CFA03F7BC4305FA22
:1012000003FC4CEA040491F803C0BCF1280F05D19B
:1012100000F1080C08FA0CF8C2F8148091F803C029
:10122000BCF1480F07D100F1080C4FF0010808FA93
:101230000CF8C2F81080401C0828CED35460BDE8DA
:10124000F0810000F0B50A460023002400210025AB
:1012500000F00046B6F1004F02D11D4EF16901E0E9
:101260001B4E7168C0F3034583B200F44016B6F517
:10127000401F08D121F07061154E766826F0706627
:10128000134F7E6012E000F48016B6F5801F06D181
:10129000032606FA05F4A14341F0706106E0460D0D
:1012A000360103FA06F6B14341F0706122B1460DF2
:1012B000360103FA06F6314300F00046B6F1004F5E
:1012C00002D1034EF16101E0014E7160F0BD0000FA
:1012D000000001400246002093680B400BB1012042
:1012E00000E00020704741617047016170470000D5
:1012F00010B504460723012221460948FFF788FB61
:1013000001210748FFF7E5FB00BF02210448FFF772
:1013100043FB0028F9D00248FFF73AFB10BD00005C
:10132000003C014070B50F2631E001201D490860E6
:101330000A2005F009FC1CA006F04CFF00250AE07D
:101340000A2005F001FC1B48008800F4004000B1B1
:1013500003E0681CC5B2142DF2DB00BF0020114968
:1013600008601448008800F4004080B111480088EB
:10137000C4B200200F4908800D2C08D10E48007817
:101380002B2804D10C4880793038C4B204E0301ED8
:10139000A6F10101CEB2C8D100BF06B9FF24204694
:1013A00070BD00009001214241542B524F4C453FEB
:1013B0000D0A00005200002015010020F8B50A2691
:1013C00001250121042001F0B5FEE803ADF800007D
:1013D00048208DF8030003208DF80200694630484C
:1013E000FFF7A4FE1020ADF800008DF803000320E5
:1013F0008DF8020069462A48FFF798FE1021284818
:10140000FFF773FF01212748FFF71CFF0120264942
:1014100008602649C1F83C014FF4165003F096FCD1
:1014200033E00120204908600A2005F08DFB20A050
:1014300006F0D0FE00201D49C1F8900100240AE00A
:101440001D48008800F4004000B106E0052005F0CA
:101450007BFB601CC4B20A2CF2DB00BF164800887C
:1014600000F4004088B114480088C5B20020124939
:101470000880042D09D1114800784F2805D10F4864
:1014800040784B2801D1002504E0301EA6F101016F
:10149000CEB2C6D100BF06B901252846F8BD00006E
:1014A000000801400002300090012142000021426A
:1014B00041540D0A000000005200002015010020D8
:1014C0001CB5FFF72FFF01280AD10BA010210B46F6
:1014D000C822CDE900108C210A2000F0D2FD09E0DD
:1014E00008A010210B46C822CDE900108C210A204B
:1014F00000F0C7FD1CBD0000524F4C453A4D6173D2
:1015000074657200524F4C453A536C617665200009
:101510002DE9F04105460F2730E001201D49086004
:101520000A2005F011FB29461BA006F053FE0020FF
:101530001B49C1F8900100260AE01A48008800F40F
:10154000004000B106E0052005F0FEFA701CC6B2AE
:10155000142EF2DB00BF1348008800F4004068B18D
:1015600010480088C4B200200E490880042C05D120
:101570000D4800784F2801D1002404E0381EA7F15F
:101580000101CFB2C9D100BF07B9FF242046BDE891
:10159000F08100009001214225730D0A0000000037
:1015A0000000214252000020150100201CB50C480B
:1015B000006850B10BA010210B467822CDE9001035
:1015C0008C216E2000F05DFD09E00AA010210B4681
:1015D0007822CDE900108C216E2000F052FD1CBD58
:1015E0003C0121425354413A436F6E6E656374650A
:1015F000642000005354413A446973636F6E6E6512
:101600006374000010B5002408E0601CC4B214200C
:1016100005F0C0FAFA2C01DB204610BD4FF4007132
:101620000348FFF757FE0128EFD02046F5E70000FA
:10163000000C014000BFFEE71FB50121092001F0A9
:1016400079FD4FF40070ADF80C0048208DF80F00C4
:1016500003A91448FFF76AFD09210120FFF746FDA1
:101660004FF40070FFF726FC4FF40070019000204B
:101670008DF808000C208DF8090001208DF80A0073
:1016800001A8FFF71DFC17208DF8000000208DF841
:10169000010001208DF802008DF80300684601F07A
:1016A000D3F81FBD000C01401CB5002000F0F8FA73
:1016B0004FF6E0701349088000201349088013A0FA
:1016C00018210B46C822CDE9001032213C2000F041
:1016D000D8FC05F085FA05F0A9FA10A010210B46F8
:1016E000C822CDE900105100282000F0CAFC0120DA
:1016F00010490870FF201049087010A003F0BEFFC9
:101700001CBD0000340000203600002044696769D9
:1017100074616C20436C6F636B00000050726573E2
:101720007320616E79206B657920746F2072657407
:1017300075726E001E0000201F000020436C6F6356
:101740006B206D6F64652061637469766174656494
:101750000D0A00001CB54FF6FF7000F0A1FA4448D6
:101760003C2350224B210090104600F045FC41A044
:1017700010210B463C22CDE9001091210A2000F0F7
:1017800080FC3EA010210B463C22CDE900109121A7
:10179000782000F076FC3BA010210B463C22CDE9DE
:1017A0000010AF210A2000F06CFC38A010210B467D
:1017B0004622CDE90010CD210A2000F062FC35A0C0
:1017C00010210B463C22CDE90010EB210A2000F04D
:1017D00058FC32A010210B465022CDE9001040F2F7
:1017E00009110A2000F04DFC2EA010210B46DC222E
:1017F000CDE9001040F227110A2000F042FC2FA092
:1018000010210B463C22CDE9001040F245110A2080
:1018100000F037FC2BA010210B463C22CDE9001034
:1018200040F263110A2000F02CFC28A010210B4686
:101830003C22CDE9001040F281110A2000F021FC89
:1018400024A010210B466422CDE9001040F29F1124
:101850000A2000F016FC23A010210B46DC22CDE963
:10186000001040F2BD110A2000F00BFC1CBD00006E
:1018700088CB000854656D703A00000048756D69AA
:101880003A0000004C696768743A00005374617450
:1018900075733A00424545503A000000566F6C752A
:1018A0006D653A005072657373204B455932207450
:1018B0006F204254206D6F64650000004D757369A0
:1018C000633A000054696D65723A00004C45443239
:1018D0003A0000004D6F746F7220506F7765723A56
:1018E000000000004B45595F55503A20537769740A
:1018F00063682050616765007CB566480078012800
:1019000001D100207CBD64A010210B46C822CDE986
:10191000001064210A2000F0B4FB65A010210B46E2
:10192000DC22CDE90010E6210A2000F0AAFB4FF4EA
:10193000FA7005F009F94FF4165003F007FA032581
:101940008BE0002000F05CF90446042C15D15EA069
:1019500010210B46C822CDE9001064210A2000F0B6
:1019600090FB5EA003F08AFE03204A4908704FF402
:10197000FA7005F0E9F80220C4E7FFF71FFDA8B9E7
:101980005EA010210B46C822CDE9001064210A2078
:1019900000F077FB5EA003F071FE01203D49087066
:1019A0004FF4FA7005F0D0F80020ABE75BA003F02D
:1019B00065FE62A010210B46C822CDE9001064210B
:1019C0000A2000F05EFB4FF4967005F0BDF8002091
:1019D00000F016F90446042C15D13BA010210B464B
:1019E000C822CDE9001064210A2000F04AFB3BA088
:1019F00003F044FE0320274908704FF4FA7005F005
:101A0000A3F802207EE752A010210B46C822CDE9A0
:101A1000001064210A2000F034FB4FF4967005F0AA
:101A200093F8002000F0ECF80446042C15D126A011
:101A300010210B46C822CDE9001064210A2000F0D5
:101A400020FB26A003F01AFE0320124908704FF471
:101A5000FA7005F079F8022054E7281EA5F101017B
:101A6000CDB27FF46EAF3FA003F008FE41A010217D
:101A70000B46C822CDE9001064210A2000F001FBCA
:101A80000220044908704FF47A7005F05DF80120D7
:101A900038E7000001000020496E697469616C69D3
:101AA0007A696E6720484330352E2E2E00000000E4
:101AB0004B4559323A43616E63656C20262052656E
:101AC0007475726E00000000496E69742043616E87
:101AD00063656C6564212020202020004843303558
:101AE00020496E69742063616E63656C6564206271
:101AF0007920757365720D0A000000004843303587
:101B000020496E6974204F4B212020202020200086
:101B100048433035204F4B210D0A000048433035F3
:101B200020496E6974206661696C65642C20726559
:101B3000747279696E672E2E2E0D0A004843303577
:101B4000204572726F72212020202020200000008A
:101B50005265747279696E672E2E2E202020202007
:101B60002000000048433035204572726F72210D0D
:101B70000A0000004843303520496E6974204661F0
:101B8000696C6564212000000146CA1701EB92725E
:101B90009210A1EB820292B9642091FBF0F200FB5B
:101BA000121050B94FF4C87091FBF0F200FB121004
:101BB00008B9012070470020FCE70120FAE7002067
:101BC000F8E7000008B50121442001F0B3FA012034
:101BD000ADF8000028208DF8030069460648FFF79D
:101BE000A5FA1C20ADF8000048208DF803006946D6
:101BF0000248FFF79BFA08BD0008014000180140A9
:101C000010B50446012C01D1224908702148007802
:101C100001282AD12048006801280AD01F480068FE
:101C200038B11E48001F006818B11C480838006809
:101C3000D8B90A2004F088FF002016490870164819
:101C40000068012800D110BD1448006808B90220BE
:101C5000F9E71248001F006808B90320F3E70F48AE
:101C600008380068A0B90420EDE70B48006878B98F
:101C70000A48006801280BD10848001F00680128A5
:101C800006D1064808380068012801D101490870CA
:101C90000020D8E74D00002000012142100123421E
:101CA00070B506460F484088401E83B20D48008834
:101CB000401E82B20021084600F0E4F800240CE047
:101CC000002504E0304600F01BFA681C85B2054888
:101CD0004088A842F6DC601C84B202480088A0421A
:101CE000EEDC70BD3800002000B502460F4882715E
:101CF0006AB9362000F0F8F94C2000F0FBF94FF4F7
:101D0000F0700A4948804FF4A07008800CE036203B
:101D100000F0EAF92C2000F0EDF94FF4A07003492F
:101D200048804FF4F070088000BD000038000020AB
:101D300070B504460D4616462B46224629462046D7
:101D400000F0A0F8304600F0DBF970BD2DE9FF4F40
:101D500084B081468A460020039002900698A0EB4A
:101D600009050798A0EB0A06CDF80490CDF800A06D
:101D7000002D01DD012705E00DB9002702E04FF03D
:101D8000FF376D42002E02DD4FF0010806E016B964
:101D90004FF0000802E04FF0FF387642B54201DD17
:101DA0002C4600E034464FF0000B21E0009A91B23F
:101DB000019A90B200F022F8039828440390029808
:101DC000304402900398A04205DD0398001B039065
:101DD0000198384401900298A04205DD0298001B4A
:101DE00002900098404400900BF101001FFA80FB24
:101DF000601C8345DADD08B0BDE8F08F30B50446DD
:101E00000D462B4622462946204600F03BF8024864
:101E1000008800F075F930BD340000202DE9F04352
:101E200004460D4616461F46DDF81C80B44201DC10
:101E3000BD4201DDBDE8F0833B46324629462046DF
:101E400000F020F8301B401C84B2781B401C85B287
:101E50000BE0A94602E0404600F052F9B9F100005B
:101E6000A9F101011FFA81F9F5D1201EA4F10101A8
:101E70008CB2EED100BFDDE701480088704700005A
:101E80000008006C30B504460D462A2000F02CF9FD
:101E9000201200F02FF9E0B200F02CF9101200F03F
:101EA00029F9D0B200F026F92B2000F01DF92812F4
:101EB00000F020F9E8B200F01DF9181200F01AF94C
:101EC000D8B200F017F92C2000F00EF930BD000058
:101ED0002DE9F84F80460E4617461C46B34620466D
:101EE000E31704EB5373DB1021464FEAE47C04EB69
:101EF0005C7C4FEAEC0CA4EBCC0CBCF1000F02D0E4
:101F00004FF0010C01E04FF0000C6344224604EB5B
:101F1000D27C4FEA6C0C03FB0CF3DBB20093A7F10D
:101F20002000C7B2002556E00C2C07D107EB470074
:101F30002B4901EB800010F8059013E0102C05D11F
:101F4000284800EB071010F805900BE0182C07D17B
:101F500007EBC700244901EB800010F8059001E071
:101F6000BDE8F88F4FF0000A2FE009F0800030B193
:101F70001E48028831464046FFF7DAFE07E00A981D
:101F800028B91B48028831464046FFF7D1FE4FEA88
:101F900049604FEA1069701C86B216484088B0420A
:101FA00000DCDDE7A6EB0B00A0420AD15E4608F19B
:101FB00001001FFA80F80F480088404500DCCFE799
:101FC00006E00AF1010000F0FF0ABAF1080FCCDBCD
:101FD00000BF681CC5B200988542A5DB00BFBFE703
:101FE00070820008E4860008D48C000834000020C9
:101FF00036000020380000202DE9F84F06460F4635
:1020000014461D464FF0000AD34600200090781970
:10201000401E83B23019401E82B239463046FFF767
:1020200031FF04FB05F040000090D04625E04FF062
:1020300000091CE00BF101010A9810F801A04FF60D
:10204000FF7000EA0A2A0A9810F80B0040EA0A0A10
:1020500007EB080291B206EB090290B25246FFF775
:1020600067FE0BF1020B09F101001FFA80F9A1458F
:10207000E0DB08F101001FFA80F8A845D7DBBDE8D6
:10208000F88F2DE9F84704460D4690469946DDE95C
:10209000096704F0FF0A08EB04001FFA80F809EB57
:1020A00005001FFA80F916E0444502DB5446A819E2
:1020B00085B24D4500DB14E0002000903A783346AD
:1020C00029462046FFF704FF304606EBD07104EBAB
:1020D00061018CB27F1C38787E2802DC3878202899
:1020E000E2DA00BFBDE8F8870149088070470000C8
:1020F000FE07006C01490880704700000008006C72
:102100000112024A1180C1B2118070470008006CB0
:1021100008B50121482001F00DF82020ADF800009D
:1021200010208DF8030003208DF80200694609484D
:10213000FEF7FCFF20210748FFF7D7F82020ADF875
:10214000000069460448FEF7F1FF20210248FFF72E
:10215000CCF808BD000C01400018014070B5002407
:10216000002508E00620FFF7C3F80444052004F02A
:10217000EBFC681CC5B20A2DF4DB0A20B4FBF0F4BA
:10218000B4F57A6F01D94FF47A642820B4FBF0F0EB
:10219000C0F16400C0B270BD00B587B001218020DD
:1021A00000F0C8FF0121C80300F0C4FF0121C803EB
:1021B00000F0D0FF00214FF4004000F0CBFF4FF4BF
:1021C0008070ADF8180000208DF81B0006A9184893
:1021D000FEF7ACFF1748FEF7A3FB002001908DF837
:1021E00008008DF809004FF460200390002004904F
:1021F00001208DF8140001A90E48FEF7E1FB012132
:102200000C48FEF781FB0B48FEF75EFC00BF094857
:10221000FEF7CBFB0028FAD10648FEF765FC00BFAD
:102220000448FEF7ABFB0028FAD107B000BD000060
:10223000001C0140003C014000BFFEE700200649B1
:10224000087006490870064908800649088003207E
:102250000549087070470000540000205500002018
:1022600056000020580000205B00002010B50A48EE
:102270000078401C0949097890FBF1F201FB12003B
:10228000C4B2204600F08AF8054850F8241005A092
:1022900003F0F4F910BD0000550000205A000020A2
:1022A000700000204E65787420736F6E673A2025A9
:1022B000730D0A0010B506480078012807D10220E6
:1022C00003490870FEF768FC02A003F0D7F910BDBF
:1022D000540000204D7573696320706175736564E7
:1022E0000D0A00002DE9F0411A48007808B100F00D
:1022F0001BF9012018490870002018490880184966
:102300000880184804782CB9002017490870FEF797
:1023100043FC19E0162C17D2144830F81460002E34
:1023200012DD134890FBF6F085B2681E81B21148A9
:1023300002F0DDFB2F4605EBD77041100D4802F08F
:10234000DAFB0120084908700BA003F097F9BDE8FB
:10235000F0810000540000205C0000205E0000209E
:1023600060000020C4F3000844000020A6F100082B
:1023700040420F0000080040506C6179696E672090
:102380004C616E68756120477261737320284E65D9
:102390007720466F726D6174290D0A002DE9F041B6
:1023A00004461A48007884422EDA19480470002046
:1023B00018490880184908800120184908701848F1
:1023C00030F81400002819DD164850F8240006885B
:1023D000154890FBF6F085B2002D0FDD681E81B226
:1023E000124802F084FB2F4605EBD770C0F34F0173
:1023F0000E4802F080FB01200D4908700D4850F88E
:1024000024100DA003F03AF9BDE8F0815A00002035
:1024100055000020560000205800002054000020E5
:102420003AF400086400002040420F000008004019
:102430004400002070000020506C6179696E6720B4
:10244000736F6E673A2025730D0A000010B50A48B5
:10245000007818B909480078401E02E00648007864
:10246000401EC4B22046FFF799FF054850F82410DB
:1024700004A003F003F910BD550000205A0000200D
:102480007000002050726576696F757320736F6EEF
:10249000673A2025730D0A0070B5184800780228A5
:1024A0002AD101201549087015481649097830F8D5
:1024B00011001549098888421BDD14481149097823
:1024C00050F821001049098830F82150104890FB3D
:1024D000F5F084B2002C0CDD601E81B20D4802F0D4
:1024E00006FB264604EBD670C0F34F01094802F004
:1024F00002FB09A003F0C2F870BD000054000020E8
:102500003AF4000855000020560000206400002026
:1025100040420F00000800404D75736963207265EA
:1025200073756D65640D0A0010B5002005490870CB
:102530000549088005490880FEF72EFB04A003F03A
:102540009DF810BD540000205600002058000020C7
:102550004D757369632073746F707065640D0A0044
:1025600070B537480078012869D136480078364977
:102570000978884263DA35483249097830F8110021
:102580003349098888425ADD32480088324909783F
:10259000322202FB01002F4908803048294909787E
:1025A00050F821002A49098800EB81004088294918
:1025B0000988884243DC26480088401C244908805A
:1025C00000202449088021481E49097830F811204C
:1025D0001F48018822A003F051F81C4819490978C6
:1025E00030F811001A490988884223DD1B48154933
:1025F000097850F821001649098830F821501E4802
:1026000090FBF5F084B2002C19DD601E81B21B48EE
:1026100002F06DFA264604EBD670C0F34F0117485E
:1026200002F069FA012016490870294615A003F046
:1026300025F804E019A003F021F8FFF775FF70BD3D
:1026400054000020550000205A0000203AF40008F1
:1026500056000020580000205B000020640000208D
:102660004E6F74652025642F256420636F6D706C38
:10267000657465640D0A000040420F0000080040C8
:1026800044000020506C6179696E67206E6F74653C
:102690003A20256420487A0D0A000000536F6E67C7
:1026A00020636F6D706C657465640D0A0000000036
:1026B0002DE9F0413B480078012871D13A48008863
:1026C0003A286DDA3948008832303849088038486D
:1026D0003549098800EB4100407832214843C7B2B0
:1026E00032480088B8425BDB2F480088401C2E49E6
:1026F000088000202D4908802B4800883A2840DABD
:102700002B482949098810F81140FF2C0FD129A026
:1027100002F0B4FF002023490870234908802349B0
:102720000880FEF739FA00202C49087038E044B9D7
:10273000FEF732FA00202949087029A002F09EFF16
:102740002EE0162C2CD2294830F81450002D27DD0D
:10275000274890FBF5F086B2701E81B2254802F042
:10276000C6F9B04606EBD8704110224802F0C3F912
:1027700001201A490870224629461FA002F07EFF58
:102780000EE026A002F07AFF0020064908700649F4
:10279000088006490880FEF7FFF900200F490870FD
:1027A000BDE8F0815C0000205E0000206000002099
:1027B000C4F300084C616E687561204772617373E1
:1027C00020284E657720466F726D61742920636FF3
:1027D0006D706C657465640D0A0000004400002093
:1027E00052657374206E6F74650D0A00A6F10008BF
:1027F00040420F0000080040506C6179696E67200C
:10280000746F6E653A20256420487A2028696E64CA
:102810006578202564290D0A000000004C616E686F
:10282000756120477261737320284E657720466F6B
:10283000726D6174292066696E69736865640D0A3A
:10284000000000007047000070B5002100230F2237
:10285000C47804B3154C246804F4E064C4F5E0645F
:10286000210AC1F10403CA40447804FA03F18478D0
:102870001440214309010E4C0678A155047804F058
:102880001F050124AC4005786D11AD0005F1E02570
:10289000C5F8004109E0047804F01F050124AC40AC
:1028A000044D0678761145F8264070BD0CED00E029
:1028B00000E400E080E100E002490143024A1160C7
:1028C000704700000000FA050CED00E001490862C5
:1028D0007047000000000E42704700002DE9F041F3
:1028E0008AB00546884639A12846FDF756FC18B936
:1028F00000203949086065E038A12846FDF74DFC05
:1029000018B90120344908605CE037A12846FDF77A
:1029100044FC10B9FEF74EF954E036A12846FDF705
:102920003CFC10B9FEF738F94CE0062234A12846E9
:10293000FDF741FC002845D1A81DFDF74BFCC4B2B2
:10294000002C3EDD04EB840040002F49088001206C
:102950002E4908702E480078012803D121462DA069
:1029600005F038FC21462BA002F088FE364800789E
:1029700028BB4FF6FF704FF48573DC22FA210090DC
:102980004620FFF74BFA204800880A2190FBF1F21D
:1029900001FB12061C48008890FBF1F733463A46CB
:1029A0002AA102A802F07AFE02A810210B46962264
:1029B000CDE90010FA214620FFF763FB01E001F0AA
:1029C00035FA00BF0AB0BDE8F08100002B4C454449
:1029D00032204F4E0D0A0000940123422B4C4544F7
:1029E00032204F46460D0A002B42454550204F4E9F
:1029F0000D0A00002B42454550204F46460D0A0067
:102A00002B42454550200000040000200600002015
:102A10000100002057696C6C20706C6179204C615A
:102A20006E68756120477261737320286F707469D6
:102A30006D697A65642920696E2025642073656359
:102A40006F6E64730D0A0000000000204C616E6818
:102A500075612047726173732B20696E2025642E87
:102A6000256473001CB5F9480078002870D001F087
:102A700061F9F7480168F7A002F000FEF448006829
:102A8000F949884223D1F9480088F94909888842E0
:102A90001CDAF64800883230F4490880084600887D
:102AA000F3490988884203DDF1480088EF4908802E
:102AB000EF480088ED4A1288801A81B2ED4802F092
:102AC00018F8EA480188ECA002F0D8FD77E0E04869
:102AD0000068F14988421FD1E448008800286EDD73
:102AE000E2480088322805DDE04800883238DF49B6
:102AF000088002E00020DD490880DD480088DB4ACC
:102B00001288801A81B2DB4801F0F3FFD7480188B0
:102B1000E2A002F0B3FD52E0CD480068E7498842E8
:102B200025D1E748007808B9012000E00020E449F9
:102B300008700846007860B1E2A002F09FFD002016
:102B4000E8490870CA480188CA4801F0D2FF36E057
:102B5000ADE2E5A002F092FD0020E2490870EA49EA
:102B60000880C3480188C34801F0C3FF27E0B84884
:102B70000068E649884222D1D1480078F8B9D9489E
:102B8000007808B9012000E00020D6490870084606
:102B9000007860B1B6480088B44A1288801A81B2C1
:102BA000B44801F0A6FFDAA002F068FD07E0B048E3
:102BB0000188B04801F09DFFDCA002F05FFDA44851
:102BC0000068A949884206D10020DF490860DFA0DB
:102BD00002F054FD68E29E480068AF49884206D181
:102BE0000120D9490860DCA002F048FD5CE2984869
:102BF0000068B249884214D10120DA4908700020E7
:102C0000D9490880D9A010210B469622CDE90010A1
:102C10004FF48C714620FFF734FADBA002F02EFD52
:102C200042E28B480068B949884227D1CD480078F4
:102C30000028CFD0CC480088401CCB4908800846EB
:102C40000088B0F5167F02DD4FF416700880C64884
:102C50000288D6A1D84802F021FDD74810210B46A2
:102C60009622CDE900104FF48C714620FFF709FA47
:102C7000BD480188D1A002F001FD15E2744800684A
:102C8000D649884229D1B74800780028A2D0B64852
:102C9000008800289EDDB4480088401EB2490880A4
:102CA00008460088002801DA00200880AE48028823
:102CB000BEA1C14802F0F2FCBF4810210B4696228B
:102CC000CDE900104FF48C714620FFF7DAF9A648E1
:102CD0000188BAA002F0D2FCE6E15D480068C04974
:102CE000884243D19F480078002899D09E480088A8
:102CF000002895DD9C48008800EB80004FF6FF71AE
:102D000001EA4000B74908800120B7490870002057
:102D100094490870B5A010210B469622CDE9001009
:102D20004FF48C714620FFF7ACF98F480188B5A0AD
:102D300002F0A4FC00F0B8FBBCA002F09FFC8A48A3
:102D40000088092805DC88490878002100F0B0FCDB
:102D5000AAE1854800880A2190FBF1F201FB1200EC
:102D6000C4B20021204600F0A3FC9DE13848006871
:102D7000B749884223D13D4800883D4909888842A7
:102D8000AADA3A4800883230384908800846008874
:102D900037490988884203DD35480088334908806F
:102DA00033480088314A1288801A81B2314801F0D4
:102DB000A0FE2E48018830A002F060FC74E1244897
:102DC0000068A44988421FD12848008800281ADDDD
:102DD00026480088322805DD2448008832382349F7
:102DE000088002E0002021490880214800881F4A0D
:102DF0001288801A81B21F4801F07BFE1B480188AF
:102E000026A002F03BFC4FE111480068924988423D
:102E10000FD1002033490870294908703A490880C9
:102E200013480188134801F064FE8CA002F026FCD0
:102E30003AE1074800688F49884205D1FFF706FB51
:102E40008DA002F01BFC2FE124E100004C000020CB
:102E500048000020495220436F64653A20307825AD
:102E60003038580D0A000000CF30FF000E0000205F
:102E700010000020000400404D6F746F7220706FCE
:102E800077657220696E6372656173656420746F23
:102E90002025640D0A000000E718FF004D6F746FD5
:102EA0007220706F77657220646563726561736507
:102EB0006420746F2025640D0A000000857AFF00ED
:102EC000120000204D6F746F72206175746F206363
:102ED0006F6E74726F6C20656E61626C65640D0A52
:102EE00000000000160000204D6F746F72206D61AD
:102EF0006E75616C20636F6E74726F6C20656E61AD
:102F0000626C65640D0A000014000020EF10FF00E1
:102F10004D6F746F72207475726E6564204F4E2011
:102F20006D616E75616C6C790D0A00004D6F746F88
:102F300072207475726E6564204F4646206D616E16
:102F400075616C6C790D0A00940123424C45443242
:102F5000204F4E0D0A0000004C454432204F46469B
:102F60000D0A00000B0000200C0000204D75736955
:102F7000632054696D65722053657474696E6720AF
:102F80004D6F646500000000456E746572206D75BC
:102F90007369632074696D65722073657474696EFA
:102FA00067206D6F64650D0A0000000054696D654F
:102FB000723A202564730000A00000204D757369EB
:102FC000632074696D65722073657420746F2025A9
:102FD00064207365636F6E64730D0A00C738FF0069
:102FE000A55AFF0004000020060000204D757369FB
:102FF000632054696D657220537461727465642135
:10300000000000004D757369632074696D6572205E
:103010007374617274656420666F72202564207316
:1030200065636F6E64730D0A000000005247422012
:103030004C454420696E697469616C697A656420E5
:10304000666F7220636F756E74646F776E0D0A0021
:10305000BD42FF00B54AFF00AD52FF004D6F746FD7
:103060007220656D657267656E63792073746F7029
:103070000D0A0000FD02FF0050726576696F7573DE
:1030800020736F6E672073656C65637465640D0AE9
:1030900000000000064800680649884204D1FFF796
:1030A000E5F805A002F0EAFA0020094908701CBD05
:1030B000480000203DC2FF004E65787420736F6E9B
:1030C000672073656C65637465640D0A0000000019
:1030D0004C00002029B1064A52690243044B5A6150
:1030E00004E0034A52698243014B5A617047000071
:1030F0000010024029B1064AD2690243044BDA614A
:1031000004E0034AD2698243014BDA617047000050
:103110000010024029B1064A12690243044B1A61A9
:1031200004E0034A12698243014B1A6170470000B0
:103130000010024029B1064A92690243044B9A6189
:1031400004E0034A92698243014B9A617047000090
:103150000010024029B1064AD2680243044BDA60EB
:1031600004E0034AD2688243014BDA6070470000F2
:1031700000100240014908607047000040044242CC
:1031800030B500210022002400232D4D6D6805F08C
:103190000C0121B1042905D0082923D105E0294DCE
:1031A000056022E0274D05601FE0254D6D6805F4A0
:1031B0007012234D6D6805F48034022505EB9242B0
:1031C0001CB9214D554305600BE01D4D6D6805F49C
:1031D00000351DB11C4D5543056002E0194D5543A6
:1031E000056002E0174D056000BF00BF144D6D681B
:1031F00005F0F0010909154D6B5C0568DD4045607F
:103200000F4D6D6805F4E061090A104D6B5C45686F
:10321000DD4085600A4D6D6805F46051C90A0B4DAB
:103220006B5C4568DD40C560054D6D6805F4404147
:10323000890B074D6B5CC568B5FBF3F5056130BDC7
:103240000010024000127A0000093D00200000201A
:103250003000002010B501460022002300204A1152
:10326000012A02D1094C236806E0022A02D1074C48
:10327000236A01E0054C636A01F01F0201249440B7
:103280001C400CB1012000E0002010BD00100240E5
:1032900000210B4A11700A4A203A82F820100128B6
:1032A00002D0042808D103E00121054A117004E08E
:1032B0000521034A117000E000BF00BF7047000005
:1032C0002010024001490860704700003C0442425F
:1032D0000249096A0143014A116270470010024025
:1032E00010B500201AE0002114E0002201EB810358
:1032F0000C4C23441A54002301EB8104094A19326F
:103300002244135401EB8104064A323222441354FE
:103310004A1CD1B20529E8DB421CD0B20528E2DB09
:1033200010BD0000CA00002070B5AAB1C3F3074465
:1033300000EB8005124E35446C54C3F3072500EBB7
:1033400080060F4C19343444655400EB80060C4C55
:1033500032343444635412E0002400EB8005084EFC
:1033600035446C54002500EB8006054C1934344478
:10337000655400EB8006024C32343444655470BD11
:10338000CA00002010B5FFF7ABFF00F04BF9012099
:1033900003F0DAFB10BD00002DE9F0410127002504
:1033A0004FF00A081AA002F069F900F07DF81FA09A
:1033B00002F064F92BA002F061F920E0324A52F8E1
:1033C000251005EB8502314BD01800F01BFA681C64
:1033D0000A2190FBF1F201FB1200C5B200260BE0BE
:1033E000642003F0B1FB0020FEF70AFC04460CB198
:1033F000002703E0701C86B2082EF1DB00BF002F0F
:10340000DCD1FFF7BFFF22A002F038F9BDE8F08160
:103410005374617274696E6720524742204C454470
:103420002044656D6F2E2E2E0D0A0000524742205B
:103430004C454420696E697469616C697A65642ED3
:1034400020446973706C6179696E6720636861728A
:1034500061637465722073657175656E63652E2E88
:103460002E0D0A00507265737320616E79206B65B2
:103470007920746F206578697420746865206465AC
:103480006D6F2E0D0A00000074F4000840F400086F
:10349000524742204C45442044656D6F2073746F41
:1034A000707065642E0D0A0008B501214020FFF7F9
:1034B00041FE2020ADF8000010208DF8030003200D
:1034C0008DF8020069460548FDF730FE20210348CB
:1034D000FDF70BFFFFF756FF08BD00000018014085
:1034E00010B520210548FDF7FEFE502003F052FBE9
:1034F00020210248FDF7F9FE10BD00000018014030
:1035000010B520211948FDF7F0FE00BF00BF00BF35
:1035100000BF00BF00BF00BF00BF00BF00BF00BFB3
:1035200000BF20211148FDF7DEFE00BF00BF00BF35
:1035300000BF00BF00BF00BF00BF00BF00BF00BF93
:1035400000BF00BF00BF00BF00BF00BF00BF00BF83
:1035500000BF00BF00BF00BF00BF00BF00BF00BF73
:1035600000BF00BF00BF00BF10BD00000018014039
:1035700010B520211948FDF7B8FE00BF00BF00BFFD
:1035800000BF00BF00BF00BF00BF00BF00BF00BF43
:1035900000BF00BF00BF00BF00BF00BF00BF00BF33
:1035A00000BF00BF00BF00BF00BF00BF00BF00BF23
:1035B00000BF00BF00BF00BF20210848FDF793FEF9
:1035C00000BF00BF00BF00BF00BF00BF00BF00BF03
:1035D00000BF00BF00BF00BF10BD000000180140C9
:1035E00070B506460C461546304600F007F82046F2
:1035F00000F004F8284600F001F870BD70B50446EC
:1036000000250BE004F0800010B1FFF7B1FF01E0EE
:10361000FFF776FF6006040E681CC5B2082DF1DBCB
:1036200070BD000070B500241AE0002514E005EB21
:1036300085060E4B33441A5D05EB85030B4E323E77
:103640003344195D05EB8506084B193B3344185D7F
:10365000FFF7C6FF681CC5B2052DE8DB601CC4B2CD
:10366000052CE2DBFFF73CFF70BD0000FC000020F2
:1036700030B5052801DA052900DB30BDC2F3074368
:1036800000EB8004094D2C446354C2F3072400EB83
:103690008005064B19332B445C5400EB8005034B2B
:1036A00032332B445A5400BFE7E70000CA00002021
:1036B0002DE9F05F05464FF00009002400260027A1
:1036C000A046A246294631A001F0D8FFFFF708FE28
:1036D00000BF52E005EB85003749084410F804802C
:1036E0004246214635A001F0C9FF4FF000093CE0F9
:1036F00008F08000A8B136A001F0C0FF0C209AFBB2
:10370000F0F100FB11A0334951F820B05B460122D3
:1037100039463046FFF708FE0AF1010000F0FF0AC3
:1037200008E02DA001F0AAFF00231A4639463046D2
:10373000FFF7FAFD4FEA48604FEA1068781CC7B2FD
:10374000052F0ED10027701CC6B2052E09D119A075
:1037500001F094FFFFF766FF20A001F08FFFBDE8A6
:10376000F09F09F1010000F0FF09B9F1050FBFDB7F
:1037700010A001F083FF601CC4B2052CAADBFFF788
:1037800051FF16A001F07AFF00BFE8E744697370AB
:103790006C6179696E67206E756D62657220256453
:1037A0002077697468207261696E626F7720636F39
:1037B0006C6F72730D0A000020F10008526F7720C1
:1037C00025643A20307825303258203D2000000012
:1037D0002A00000070F100082E0000005261696E9E
:1037E000626F77206E756D62657220646973706CAC
:1037F00061792073656E7420746F205247420D0A00
:10380000000000002DE9F047804689460026002789
:10381000B246FFF7B7FD00252AE018F805A00024FE
:1038200022E0052C1ADA0AF0800030B14B46012262
:1038300039463046FFF778FD05E000231A46394641
:103840003046FFF771FD701CC6B2052E06D100266A
:10385000781CC7B2052F01D1BDE8F0874FEA4A6056
:103860004FEA106A601CC4B2082CDADB681CC5B2CF
:10387000052DD2DB00BFEFE72DE9F0478146002799
:10388000FFF72EFD00241DE01148065D002515E020
:1038900006F0800070B10C2097FBF0F100FB117076
:1038A0000C4951F82080424621462846FFF7E0FEA9
:1038B000781CC7B27006060E681CC5B2052DE7DB82
:1038C000601CC4B2052CDFDBFFF7ACFEBDE8F0875F
:1038D000A0F1000870F10008024909888143014AFB
:1038E00011807047042800400348008840F0100011
:1038F0000149088070470000042800400348008800
:103900004FF6EF71084001490880704704280040D5
:1039100070B500260024002500F07AF806463848E5
:10392000B6FBF0F437480088A0423CD035490C8003
:1039300040F2B27510E02846FEF726F940B1B4F522
:10394000B77F02D3A4F5B77404E0681C85B206E023
:10395000A4F26D14681C85B2B4F5B67FEBD800BF35
:1039600029488580002516E027498888FEF70CF94C
:1039700030B1012D04D11D2C01D31D3C09E00CE018
:103980002248405DA04203D82048405D241A00E050
:1039900003E0681C85B21C2CE6D200BF681C1A49E3
:1039A0008871601CC8711648B6FBF0F100FB116409
:1039B0004FF46160B4FBF0F0134908704FF461609C
:1039C000B4FBF0F100FB11403C21B0FBF1F00E49DB
:1039D00048704FF46160B4FBF0F100FB11403C21F2
:1039E000B0FBF1F201FB1200074988700B46DA794F
:1039F0009979988800F028F803490872002070BD72
:103A00008051010050000020C000002014F1000887
:103A1000002103480188001F008841EA00407047E8
:103A20001C28004001460020064A12880A40D0B2F5
:103A3000044A121F12880A4012B108B1012000E0A6
:103A40000020704704280040F0B503460C46154698
:103A5000642093FBF0F0C6B2642093FBF0F700FB08
:103A60001730C1B2132E02DD01F16400C1B2084665
:103A7000CF1701EB977701EBA707BAB2072092FBAC
:103A8000F0F700FB172082B25719601EDFF82CC038
:103A90001CF80000384482B2CF1701EB9777BF10B3
:103AA000A1EB87071FB9032C01DA501E82B2072051
:103AB00092FBF0F700FB1720C0B2F0BD08F1000840
:103AC00010B50120FFF7AEFF20B1012009490870B1
:103AD000FFF71EFF0220FFF7A5FF20B10220FFF72E
:103AE000FBFEFFF715FF0520FFF7F6FE00F006F9D5
:103AF00010BD00004E00002029B1064A1288024382
:103B0000044B1A8004E0034A12888243014B1A8056
:103B100070470000002800401CB5002401214FF030
:103B2000C050FFF7E7FA0120FEF7D0FE0420FDF7B2
:103B300061F84AF2A001884240D0FDF753F8012015
:103B4000FFF7A6FB04E0601CC4B20A2002F0FCFFF1
:103B50004120FFF77FFB08B9FA2CF4DBFA2C01DBDC
:103B600001201CBD4FF48070FFF7B2FB0120FFF76E
:103B7000A9FB00F0C3F800F0CBF801210846FFF7DD
:103B8000BBFF00F0BBF8FFF7AFFE47F6FF7000F099
:103B9000A5F800F0B3F83720222111230122CDE946
:103BA00000100B2140F2E37000F026F8FFF7A6FEAC
:103BB0004AF2A0010420FDF72BF807E000F0A8F876
:103BC00001210846FFF798FF00F098F800F004F88C
:103BD000FFF79EFE0020C4E708B503208DF8000023
:103BE00000208DF801008DF8020001208DF80300FF
:103BF0006846FEF729FE08BD2DE9F05F06460F4630
:103C000090469946DDE90AAB002440F2B270864244
:103C100003DB40F63300864202DD0120BDE8F09F61
:103C200040F2B2750AE02846FDF7AEFF10B1204819
:103C3000044401E01F480444681C85B2B542F2DB2D
:103C4000781EC7B2002510E01B48405D40F2A3215A
:103C5000484304EBC0143046FDF796FF18B1012D20
:103C600001D116480444681C85B2BD42ECDBA8F1C2
:103C7000010040F2A321484304EBC014C9EB4910F2
:103C8000C0EB092004EB0014CAEB0A1004EB80041B
:103C90005C4401214FF0C050FFF72CFA0120FEF7E1
:103CA00015FE204600F00CF800F028F80020B5E7DB
:103CB0000085E2018033E10114F100088051010028
:103CC00000B50246FFF710FE100C03490880091DDD
:103CD0000A80FFF713FE00BD1828004000B5024619
:103CE000FFF702FEC2F3034003490880091D0A8062
:103CF000FFF704FE00BD00000828004000BF034895
:103D0000008800F020000028F9D070470428004007
:103D1000074800884FF6F77108400549088000BF42
:103D20000348008800F008000028F9D07047000020
:103D30000428004000200149088070471A00002034
:103D4000704710B500F002F810BD00000CB500205F
:103D5000019000903348006840F480303149086099
:103D600000BF3048006800F4003000900198401C0B
:103D70000190009818B90198B0F5A06FF1D12948C9
:103D8000006800F4003010B10120009001E0002034
:103D900000900098012843D12348006840F01000AB
:103DA000214908600846006820F0030008600846C2
:103DB000006840F0020008601A48406819494860ED
:103DC0000846406848600846406840F480604860A3
:103DD0000846406820F47C1048600846406840F47B
:103DE000E81048600846006840F08070086000BF36
:103DF0000C48006800F000700028F9D009484068BD
:103E000020F00300074948600846406840F002007F
:103E1000486000BF0348406800F00C000828F9D152
:103E20000CBD0000001002400020024030B58BB0F5
:103E30004FF6FF70FDF734FF4FF478404D4908808E
:103E40004DA010210B46F022CDE900100A210846B2
:103E5000FEF717F94AA010210B46F022CDE9001019
:103E60001E210A20FEF70DF949A010210B46F02271
:103E7000CDE9001032210A20FEF703F949A01021F4
:103E80000B46D222CDE900105A210A20FEF7F9F89C
:103E90004CA010210B46C822CDE900106E210A204B
:103EA000FEF7EFF84BA010210B46C822CDE9001019
:103EB000A0210A20FEF7E5F848A010210B46C822F1
:103EC000CDE90010B4210A20FEF7DBF846A010214E
:103ED0000B46DC22CDE90010E6210A20FEF7D1F8DE
:103EE00048480078D8B1484800880A2190FBF1F290
:103EF00001FB12044448008890FBF1F523462A4652
:103F000042A103A801F0CAFB03A810210B46DC2242
:103F1000CDE900104FF482710A20FEF7B2F84FF697
:103F2000FF704FF49973DC224FF4917100900A20D6
:103F3000FDF774FF3B48006808B13BA000E03BA0E0
:103F400002463BA103A801F0A9FB03A810210B46E0
:103F5000DC22CDE900104FF491710A20FEF791F8B0
:103F60001F2004490880FDF7ABFAFDF71FFB0BB0DB
:103F700030BD0000340000205052454348494E00F7
:103F80007777772E7072656368696E2E636F6D0048
:103F90004254303520426C7565546F6F74682054FC
:103FA000657374004B45595F55503A524F4C45204C
:103FB00020204B4559313A53454E442F53544F50CE
:103FC0000000000048433035205374616E6462790C
:103FD0002100000053656E643A000000526563657D
:103FE0006976653A000000005072657373204B4596
:103FF000593220746F2053656E736F72206D6F6439
:104000006500000006000020040000204C616E687E
:1040100075612047726173732B20696E2025642EB1
:1040200025647300940123424F4646004F4E000022
:104030004C4544323A202573000000001CB54FF671
:10404000FF70FDF72DFE58A010210B469622CDE9FA
:1040500000100A213220FEF714F857A010210B4659
:10406000DC22CDE9001028210A20FEF70AF859A029
:1040700010210B46DC22CDE900104FF4A0710A207C
:10408000FDF7FFFF5AA010210B46DC22CDE90010FE
:104090003C210A20FDF7F5FF5BA010210B46DC2236
:1040A000CDE9001050210A20FDF7EBFF5BA01021A5
:1040B0000B46DC22CDE9001064210A20FDF7E1FF68
:1040C0005BA010210B46DC22CDE9001082210A20E2
:1040D000FDF7D7FF5DA010210B46DC22CDE90010D3
:1040E00096210A20FDF7CDFF5FA010210B46DC22B0
:1040F000CDE90010AA210A20FDF7C3FF61A010211D
:104100000B46DC22CDE90010BE210A20FDF7B9FFE5
:1041100063A010210B46DC22CDE90010D2210A2039
:10412000FDF7AFFF65A010210B46DC22CDE90010A2
:10413000E6210A20FDF7A5FF65A010210B46DC2231
:10414000CDE90010FA210A20FDF79BFF67A010219E
:104150000B46DC22CDE900104FF487710A20FDF7F1
:1041600090FF69A010210B46DC22CDE900104FF42E
:1041700091710A20FDF785FF6AA010210B46DC2211
:10418000CDE900104FF49B710A20FDF77AFF6DA076
:1041900010210B46DC22CDE900104FF4AA710A2051
:1041A000FDF76FFF1CBD00004F7065726174696F91
:1041B0006E204775696465004B4559303A20546F4D
:1041C00067676C65204175746F20436F6E74726F02
:1041D0006C0000004B45593020284C6F6E67293A1F
:1041E00020524742204C45442044656D6F0000003A
:1041F0004B4559313A204D7573696320506C617994
:104200002F506175736500004B4559323A20537742
:1042100069746368204D6F64650000004B45595F09
:1042200055503A2053776974636820506167650080
:104230004952333A20546F67676C65204175746F3B
:1042400020436F6E74726F6C000000004952343A64
:10425000204D616E75616C204D6F746F7220436FDD
:104260006E74726F6C0000004952353A20446563E9
:1042700072656173652054696D65722044656C6177
:10428000790000004952363A205374617274204D0F
:10429000757369632B5247422054696D6572000043
:1042A0004952372F383A2041646A757374204D6F34
:1042B000746F7220506F7765720000004952393A6E
:1042C00020456D657267656E63792053746F700069
:1042D00049525F505245562F4E4558543A204D751D
:1042E00073696320436F6E74726F6C004175746FF5
:1042F00020436F6E74726F6C3A204C69676874204B
:104300003C203230000000004D6F746F72207275D7
:104310006E7320666F722035207365636F6E6473F1
:104320000000000054696D657220656E643A204C8F
:10433000616E68756120477261737320736F6E6779
:10434000000000004B45595F55503A204261636BB5
:1043500020746F2044617461205061676500000023
:1043600070B504460D461646FDF7F4F93246294667
:10437000204600F0FFFE70BD042808D14FF0E02178
:10438000096941F004014FF0E022116107E04FF0AC
:10439000E021096921F004014FF0E022116170472A
:1043A0007047000010B504466FF00400FFF7E4FF0B
:1043B000E11704EB5171C1F3C701074A11701046B0
:1043C000007800EB4001C1EBC0104FF6FF7101EA2D
:1043D000C0000249088010BD7C0000207E00002043
:1043E00010B51348006840F0010011490860084604
:1043F0004068104908400E494860084600680E4968
:1044000008400B4908600846006820F480200860D6
:104410000846406820F4FE0048604FF41F008860A2
:10442000FFF78FFC4FF000600449086010BD0000EA
:10443000001002400000FFF8FFFFF6FE08ED00E06C
:1044400000B59DB001210802FEF744FE012007904F
:10445000002008900F20099000200A900B900C90EB
:104460000D901520009001900520029000200390EF
:1044700004900590069006200E9000200F9010905A
:104480001020119000201290149013901590169007
:104490004FF480501790002018904FF480401990EE
:1044A00000201A9007A81B90CDF870D00EA8FCF73A
:1044B000A9FD01210620FCF78BFD1DB000BD000009
:1044C00008B501214FF4B470FEF734FE4CF233709E
:1044D000ADF8000018208DF8030003208DF80200CD
:1044E00069461848FCF722FE4FF68070ADF80000D0
:1044F00018208DF8030003208DF802006946124849
:10450000FCF714FE41F20100ADF8000018208DF810
:10451000030003208DF8020069460C48FCF706FEF4
:104520000120ADF8000010208DF8030003208DF865
:10453000020069460648FCF7F9FD012005490860BC
:1045400008BD000000140140001801400020014097
:10455000000C01408081214210B5FFF7B1FFFFF749
:104560006FFF322002F0F0FAD020FDF7BDFDFDF71D
:1045700083FC89498880FDF77FFC8749888008464D
:10458000818886A001F07AF81120FDF7ADFD4FF487
:10459000FA7401E0601E84B2002CFBDCB920FDF748
:1045A000A3FDFF20FDF7A6FD8320FDF7A3FD572007
:1045B000FDF7A0FD4FF4FA7401E0601E84B2002CF8
:1045C000FBDCB120FDF790FD0020FDF793FD1420EA
:1045D000FDF790FD1C20FDF78DFD1C20FDF78AFDE9
:1045E000C320FDF787FD4420FDF784FD7020FDF713
:1045F00081FD4FF4FA7401E0601E84B2002CFBDCF4
:10460000B420FDF771FD2220FDF774FD4020FDF779
:1046100071FD0020FDF76EFD2A20FDF76BFD2A20BD
:10462000FDF768FD2020FDF765FD9120FDF762FD97
:104630004FF4FA7401E0601E84B2002CFBDC3620DB
:10464000FDF752FD4C20FDF755FDC020FDF74CFD58
:104650005020FDF74FFD5020FDF74CFD0120FDF7E8
:1046600049FD3C20FDF746FDC820FDF743FD08202D
:10467000FDF740FD0020FDF73DFD0820FDF73AFD68
:104680000420FDF737FD4FF4FA7401E0601E84B298
:10469000002CFBDC4FF4FA7401E0601E84B2002CA5
:1046A000FBDCE020FDF720FD0B20FDF723FD1120B2
:1046B000FDF720FD1E20FDF71DFD3020FDF71AFD42
:1046C0003A20FDF717FD4320FDF714FD4E20FDF7BE
:1046D00011FD5620FDF70EFD4520FDF70BFD3F2097
:1046E000FDF708FD3920FDF705FD3220FDF702FD3D
:1046F0002F20FDF7FFFC2A20FDF7FCFC2920FDF709
:10470000F9FC2120FDF7F6FC0B20FDF7F3FC11204E
:10471000FDF7F0FC1E20FDF7EDFC3020FDF7EAFC74
:104720003A20FDF7E7FC4320FDF7E4FC4E20FDF7BF
:10473000E1FC5620FDF7DEFC4520FDF7DBFC3F20C9
:10474000FDF7D8FC3920FDF7D5FC3220FDF7D2FC6F
:104750002F20FDF7CFFC2A20FDF7CCFC2920FDF708
:10476000C9FC2120FDF7C6FC0020FDF7C3FC012099
:10477000FDF7C0FC3A20FDF7B7FC0520FDF7BAFCB9
:104780002920FDF7B1FC0020FDF7AEFA4FF6FF70CF
:10479000FDF786FA10BD000038000020204C43448D
:1047A0002049443A25780D0A0000000030B589B050
:1047B00005460C4601210820FEF7BCFC0121022021
:1047C000FEF798FC01210846FEF7B4FC2020ADF866
:1047D000040003208DF8060018208DF8070001A9B9
:1047E0001748FCF7A3FC01211648FCF72BFDADF898
:1047F0001C50ADF818400020ADF81E00ADF81A00AE
:1048000006A9114800F07CF96020ADF808000220EC
:10481000ADF810000120ADF80A0002A90A4800F026
:10482000ADF80821084800F0FBF80121064800F027
:104830006FF80121044800F07AF809B030BD00009B
:10484000000C014000081A000004004010B50121CE
:10485000084800F078F838B10748006808B9012026
:1048600000E00020044908600121024800F05CF8E3
:1048700010BD0000000800409401234210B5012142
:10488000094800F060F868B10848008840F400402A
:10489000064908800121044800F046F8002102483A
:1048A00000F045F810BD0000001400405200002048
:1048B0007FB505460C4601212020FEF71BFCADF814
:1048C0000450ADF800400020ADF80600ADF802003D
:1048D00069460E4800F014F9012211460B4800F019
:1048E00043F80121094800F022F837208DF80C0028
:1048F00000208DF80D0002208DF80E0001208DF8AB
:104900000F0003A8FDF7A0FF7FBD000000140040CA
:1049100021B1028842F08002028004E002884FF652
:104920007F731A4002807047CA430282704721B1E8
:10493000028842F00102028004E002884FF6FE7312
:104940001A400280704730B5024600200023002440
:10495000158A05EA0103958905EA010413B10CB132
:10496000012000E0002030BD1AB183890B43838110
:1049700002E083898B4383817047000070B5002477
:1049800000220023058C4FF6EF7635400584028C1B
:104990008388048B48F6FF752C404FF6FF452C406A
:1049A0000D884FF6FF7606EA05252C434FF6DF7596
:1049B0002A400D8906EA05152A434D8806EA0515A1
:1049C0002A43154DA84202D0144DA8421DD14FF6DE
:1049D0007F752A404D894FF6FF7606EA05152A4372
:1049E0004FF6BF752A408D8806EA05152A434FF613
:1049F000FF352B404FF2FF752B408D8906EA850568
:104A00002B43CD8906EA85052B4383800483CD881B
:104A10000587028470BD0000002C01400034014075
:104A20000A460021018B4FF2FF7319404FF6FF73C6
:104A300003EA0223194301837047000070B5002484
:104A400000220023058C4FF6FF6635400584028C5A
:104A50008388848B4FF68F752C404FF6FC752C4065
:104A60000D882C434FF6FF552A400D894FF6FF76EF
:104A700006EA05252A434D8806EA05252A43154DF1
:104A8000A84202D0144DA8421DD14FF2FF752A4012
:104A90004D894FF6FF7606EA05252A434FF6FF3586
:104AA0002A408D8806EA05252A434EF6FF752B40DD
:104AB0004DF6FF752B408D8906EA05152B43CD89F0
:104AC00006EA05152B4383808483CD88858702847D
:104AD00070BD0000002C0140003401400A46002156
:104AE000818B4FF6F773194011438183704781859D
:104AF0007047018770478187704781847047000045
:104B0000002202881D4B98420ED01D4B98420BD0BC
:104B1000B0F1804F08D01B4B984205D01A4B9842F9
:104B200002D01A4B984204D14FF68F731A404B882B
:104B30001A43174B984207D0164B984204D04FF6B1
:104B4000FF431A40CB881A4302808B8883850B88E9
:104B500003850A4B98420BD0094B984208D00E4B64
:104B6000984205D00D4B984202D00D4B984201D18E
:104B70000B7A03860123838270470000002C0140DA
:104B8000003401400004004000080040000C0040D8
:104B9000001000400014004000400140004401406B
:104BA0000048014010B540F225511D4800F0A7F91A
:104BB00010B31B4800F05EFAC4B21A48008800F433
:104BC0000040C8B91748008800F4804060B10A2C42
:104BD00003D000201349088020E01248008840F4E8
:104BE00000401049088019E00D2C06D10D480088BE
:104BF00040F480400B49088010E00A480088C0F368
:104C00000D0009490C5407480088401C05490880DC
:104C100008460088C72801DD0020088010BD00007C
:104C20000038014080000020C505002010B586B086
:104C3000044601210420FEF77DFA01218803FEF7D6
:104C400079FA4FF40070ADF8140003208DF81600C7
:104C500018208DF8170005A91E48FCF767FA4FF4D5
:104C60008060ADF8140004208DF8170005A91948DC
:104C7000FCF75CFA01940020ADF80800ADF80A00DA
:104C8000ADF80C00ADF810000C20ADF80E0001A935
:104C9000114800F083F901210F4800F0C8F84021C5
:104CA0000D4800F0BBF8012240F225510A4800F0FF
:104CB00050F925208DF8000003208DF801008DF8B3
:104CC000020001208DF803006846FDF7BDFD06B027
:104CD00010BD0000000801400038014010B540F24E
:104CE0002551164800F00BF9F8B1144800F0C2F94C
:104CF000C4B21348008800F40040B0B910480088DE
:104D0000B0F5167F12DA00210E48FFF7F6FE0C48C8
:104D1000008818B901210B48FFF709FE08490888E7
:104D2000411C074A118008490C5405E004480088DA
:104D300040F400400249088010BD000000480040D7
:104D400052000020001400401501002010B586B06C
:104D5000044601210820FEF7EDF901218804FEF741
:104D6000C9F92A4800F070F84FF48060ADF81000DF
:104D700003208DF8120018208DF8130004A9244890
:104D8000FCF7D4F94FF40060ADF8100004208DF862
:104D9000130004A91E48FCF7C9F900940020ADF8DF
:104DA0000400ADF80600ADF80800ADF80C000C20CA
:104DB000ADF80A006946154800F0F0F801211348E3
:104DC00000F035F8012240F22551104800F0C1F8FA
:104DD00027208DF8140002208DF8150003208DF88F
:104DE000160001208DF8170005A8FDF72DFD41F6EE
:104DF0001F416320FFF75CFD002006490880002169
:104E00000548FFF794FD06B010BD000000480040C3
:104E1000000C0140520000200014004001F4007218
:104E2000B2F5007F00D100BFCA430280704721B1B4
:104E3000828942F40052828104E082894DF6FF7338
:104E40001A4082817047000010B504462048844211
:104E500009D101218803FEF77DF900214FF480403C
:104E6000FEF778F932E01B48844209D10121480459
:104E7000FEF750F900214FF40030FEF74BF925E022
:104E80001548844209D101218804FEF743F9002125
:104E90004FF48020FEF73EF918E01048844209D113
:104EA0000121C804FEF736F900214FF40020FEF777
:104EB00031F90BE00A48844208D101210805FEF7C8
:104EC00029F900214FF48010FEF724F910BD0000ED
:104ED000003801400044004000480040004C0040C1
:104EE0000050004002460020B1F5007F00D100BF15
:104EF00013880B400BB1012000E00020704770B513
:104F00000246002400230025002040F66A16B14224
:104F100000D100BFC1F3421501F01F03012606FABC
:104F200003F3012D02D19689334006E0022D02D110
:104F3000168A334001E0968A33400C12012606FAA5
:104F400004F41688344013B10CB1012000E00020B5
:104F500070BDF0B50346002400260025002040F671
:104F60006A17B94200D100BF1846C1F3421401F0DC
:104F70001F06012707FA06F5012C01D10C3004E0C9
:104F8000022C01D1103000E014301AB107682F4311
:104F9000076002E00768AF430760F0BD2DE9F04706
:104FA00086B005460E460024A24600BFA146002753
:104FB000B08900B100BF2F462C8A4CF6FF70044028
:104FC000F08804432C82AC894EF6F3100440B0887C
:104FD00031890843718908430443AC81AC8A4FF698
:104FE000FF400440B0890443AC8201A8FEF7C8F832
:104FF0001F48874202D1DDF810A001E0DDF80CA0C7
:10500000A88900F4004040B10AEBCA0000EB0A1086
:1050100031684900B0FBF1F807E00AEBCA0000EB89
:105020000A1031688900B0FBF1F86420B8FBF0F099
:1050300004012009642101FB1089A88900F40040C3
:1050400040B1322000EBC900B0FBF1F000F00700E6
:10505000044308E0322000EB09106421B0FBF1F0BA
:1050600000F00F0004432C8106B0BDE8F08700007B
:105070000038014001468888C0F308007047C1F33A
:10508000080282807047000000B587B02E48807803
:105090002E490978884254D02C480078FF2806D041
:1050A000294A51781078294A127802F033F901F030
:1050B00097FD01F0BBFD244B9A785978187801F0E0
:1050C00081FF2148807800901F484378027820A112
:1050D00003A800F0E3FA00207423A02264210090CA
:1050E0005020FCF79BFE4FF6E0701D49088003A896
:1050F00010210B46C822CDE9001064215020FCF796
:10510000C0FF1148C07900900F488379828815A1AB
:1051100003A800F0C3FA00208823B422782100906D
:105120003C20FCF77BFE03A810210B46C822CDE9EA
:10513000001078213C20FCF7A4FF03488078034945
:10514000087007B000BD0000C00000201F00002054
:10515000252E32643A252E32643A252E3264000020
:1051600034000020253034642D253032642D253064
:10517000326400002DE9F0418AB004460D4616461F
:105180004FF6FF702223E6220A2100900846FCF722
:1051900045FEFE48C0790090FC4883798288FCA1D6
:1051A00002A800F07BFA02A818210B46A022CDE944
:1051B00000100A213C20FCF764FF4FF6FF704423E7
:1051C000E622282100900A20FCF728FEEF4880788C
:1051D0000090EE4843780278F1A102A800F05EFA50
:1051E00002A818210B468222CDE9001028214B206D
:1051F000FCF747FF4FF6FF70A1236E22912100902C
:105200004620FCF70BFE2246E9A102A800F046FA70
:1052100002A810210B462822CDE90010912146203A
:10522000FCF72FFF4FF6FF70A123DC2291210090A5
:10523000B420FCF7F3FD2A46DFA102A800F02EFA05
:1052400002A810210B462822CDE900109121B4209C
:10525000FCF717FF4FF6FF70BF237822AF210090B5
:105260004620FCF7DBFD3246D5A102A800F016FA75
:1052700002A810210B463222CDE90010AF214620B2
:10528000FCF7FFFE4FF6FF70DD23DC22CD210090FE
:105290005020FCF7C3FD1C2C0ADDCAA010210B46D0
:1052A0008C22CDE90010CD215020FCF7EAFE16E05B
:1052B0000F2C0ADAC4A010210B468C22CDE9001075
:1052C000CD215020FCF7DDFE09E0C1A010210B46E6
:1052D0008C22CDE90010CD215020FCF7D2FE4FF6F4
:1052E000FF70FB237822EB2100904620FCF796FD0F
:1052F000B948007808B1B9A000E0B9A00246B9A148
:1053000002A800F0CBF902A810210B463222CDE909
:105310000010EB214620FCF7B4FE4FF6FF7040F280
:105320001913962240F2091100905A20FCF776FDDD
:10533000AD48008864214843AC49098890FBF1F7E7
:105340003A46ABA102A800F0A9F902A810210B4629
:105350003C22CDE9001040F209115A20FCF791FEE1
:105360004FF6FF7040F25513DC2240F245110090D9
:105370004620FCF753FDA048007838B39FA01021C9
:105380000B469622CDE9001040F245114620FCF76D
:1053900078FE4FF6FF7040F27313DC2240F2631187
:1053A00000904620FCF73AFD9648028896A102A894
:1053B00000F074F902A810210B469622CDE90010E6
:1053C00040F263114620FCF75CFE35E0914800781E
:1053D000E0B1914800880A2190FBF1F201FB12072D
:1053E0008D48008890FBF1F83B4642468BA102A80D
:1053F00000F054F902A810210B469622CDE90010C6
:1054000040F245114620FCF73CFE15E0724800785A
:1054100008B172A000E072A0024672A102A800F0DA
:105420003DF902A810210B469622CDE9001040F26A
:1054300045114620FCF725FE4FF6FF7040F2911310
:10544000782240F2811100904620FCF7E7FC784872
:10545000006808B162A000E060A0024661A102A855
:1054600000F01CF902A810210B463222CDE90010F1
:1054700040F281114620FCF704FE4FF6FF7040F227
:10548000AF13AA2240F29F1100906E20FCF7C6FCD9
:105490006848028868A102A800F000F902A810215B
:1054A0000B463C22CDE9001040F29F116E20FCF724
:1054B000E8FD62480078B0B34FF6FF7040F2AF13DA
:1054C000DC2240F29F1100908C20FCF7A7FC5C4886
:1054D0000078E0B15B4800880A2190FBF1F201FB03
:1054E00012075848008890FBF1F83B46424656A107
:1054F00002A800F0D3F802A810210B465022CDE9F3
:10550000001040F29F118C20FCF7BBFD3CE052A044
:1055100010210B465022CDE9001040F29F118C2043
:10552000FCF7AFFD30E0FFE745480078B0B14FF63B
:10553000FF7040F2AF13DC2240F29F1100908C20EC
:10554000FCF76CFC46A010210B465022CDE9001060
:1055500040F29F118C20FCF794FD15E04FF6FF7090
:1055600040F2AF13DC2240F29F1100908C20FCF738
:1055700055FC3EA010210B465022CDE9001040F210
:105580009F118C20FCF77DFD0AB073E0C000002065
:10559000253034642D253032642D253032640000EE
:1055A000253032643A253032643A253032640000C6
:1055B00025326443000000002532642525000000E8
:1055C00025336400486F7400436F6C640000000072
:1055D0004E6F726D616C0000440000204F4E000061
:1055E0004F46460025730000420000204000002086
:1055F00025642525000000000B000020534554546D
:10560000494E47000C0000202564207365636F6ECF
:10561000647300000600002004000020434F554E34
:1056200054444F574E2025642E256473000000001B
:10563000940123420E000020256400001200002087
:105640001600002014000020284155544F202564E6
:105650002E25647329000000284155544F2900006D
:10566000284D414E55414C204F4E2900284F46466B
:1056700029000000BDE8F08100BFFEE70FB4054B34
:1056800010B503A9044A029800F03EFC10BC5DF876
:1056900014FB000055760008840000200FB4084B6E
:1056A00010B504A902AA039800F02EFC044602A932
:1056B000002001F0F1F9204610BC5DF814FB000059
:1056C000996A000837B514460846064B6A462146D3
:1056D00000F022FE04466946002001F0E2F920466F
:1056E0003EBD0000A36A0008490050EAC12018BF6F
:1056F00004204A0D18BF40F0010040F2FF72B2EBE7
:10570000515F08BF40F00200012808BF0520704724
:1057100000487047880000202DE9F74F144694B0E8
:105720000021C4E902111599079121F00045C949EA
:105730008D4206DC1599C4E9000117B00020BDE8D0
:10574000F08FC549DFF814A3A9423CDD0799C44E88
:105750000029C44FC44A1599534619DDFAF7E8FDEC
:10576000554506D0C14AC24BFAF7E2FDC4E9000133
:105770000AE04FF0D352BE4BFAF7DAFD32463B4611
:10578000FAF7D6FDC4E9000117B00120BDE8F08F9B
:10579000FAF72DFD554506D0B44AB54BFAF727FD6B
:1057A000C4E900010AE04FF0D352B14BFAF71FFDF4
:1057B00032463B46FAF71BFDC4E9000117B04FF033
:1057C000FF30BDE8F08FAB49A942159978DB21F095
:1057D000004183468846A84AA84BFAF7AFFD00224D
:1057E000A74BFAF704FDFAF7A8FE0990FAF787FE2F
:1057F00006460F469C4A5346FAF7A0FD43465A46D2
:10580000FAF799FD80468A46984A994B30463946C0
:10581000FAF794FD2A0D01250B9242465346FAF7FA
:105820008AFD032DC4E9000139D00B98C1F30A5158
:10583000401A05EB45111139814230DA9148C346CF
:10584000784400EB0510CDF80CA00C90D0E90023B3
:1058500030463946FAF772FD02460B46049106902F
:1058600058460399FAF764FD80468A4602460B467D
:1058700058460399FAF75CFD049B069AFAF758FD1F
:1058800083460C9803913946D0E902233046FAF753
:1058900055FD5A46039BFAF74BFD6D1CBDE7079873
:1058A0000028A2BF099817B0BDE8F08F616881F0A9
:1058B00000416160099817B04042BDE8F08FFFE7F2
:1058C00084461598C1F31301C0F30A50A0F2F530D5
:1058D0004FEA601800F01F06C6F120001390002068
:1058E0000690079041F4801E05206D4676B1664A09
:1058F00008EB00017A4452F8213002EB8101B340F9
:105900004A68139922FA01F1194305E05F4908EB4F
:105910000002794451F82210A1FB0E27A1FB0C13C1
:105920001A449A4234BF0123002303EB070A05EB14
:105930008003D3E901B70F448F4234BF0121002116
:1059400093448B4411B1934502D903E0934501D2AE
:10595000012100E00021C3E901B7514445F82010BE
:10596000011EA0F10100C1DC0298059F00F100506A
:10597000800F12900298DDE903568000FAF7BFFD10
:10598000834628460D91FAF7CBFD6FF01D02FAF71A
:1059900096FFCDE90E013046FAF7C2FD6FF03D02E9
:1059A000FAF78DFF80468A463846FAF7B9FD6FF060
:1059B0005D02FAF784FF0746424653461191FAF713
:1059C00016FCDDE90E23FAF712FC5A460D9BFAF796
:1059D0000EFC00250E465A4628460D9BFAF7A8FCF9
:1059E000DDE90E23FAF7A4FC42465346FAF7A0FC81
:1059F0003A46119BFAF79FFCDFF898A0244A5346D9
:105A0000FAF79CFC07468846234A244B3146284631
:105A1000FAF794FC3A464346FAF7E9FB074688460C
:105A20004FF0A842534631462846FAF787FC3A46DB
:105A30004346FAF7DCFB159A12F0004F04D0129A95
:105A400081F0004152421292C4E90001129817B04D
:105A5000BDE8F08FFB21E93F7CD90240FB21F93FF3
:105A60007370032E8A19A33B000040543163621AFD
:105A700061B4D03DFB21394183C8C96D305FE43F3B
:105A80000000E03F8C9C0000089C0000EA9B0000A6
:105A9000182D4454FB21F93D3326A611460B113C29
:105AA0002DE9FF4D21F0004807460C46B8F1795F1B
:105AB00008DAFAF742FD002801BF0020324904B09D
:105AC000BDE8F08D3A46234610461946FAF736FCF3
:105AD000054602462D480E460B460621784400F046
