:020000040800F2
:10000000280A002045010008D9200008B91400087A
:10001000151D0008610B00087B4800080000000067
:10002000000000000000000000000000492F000850
:10003000290D0008000000006D210008953B000814
:100040005F0100085F0100085F010008D52C00086F
:100050005F0100085F0100085F0100085F01000800
:100060005F0100085F0100085F0100085F010008F0
:100070005F0100085F0100085F0100085F010008E0
:100080005F0100085F0100085F0100085F010008D0
:100090005F0100085F0100085F0100082D0D0008E6
:1000A0005F0100085F0100085F0100085F010008B0
:1000B0005F0100085F010008414000085F0100087F
:1000C0005F0100085F0100085F0100085F01000890
:1000D0005F010008994300085F010008D14400084F
:1000E0005F0100085F0100085F0100085F01000870
:1000F0005F0100085F0100085F0100085F01000860
:100100005F0100085F0100085F0100085F0100084F
:100110005F0100085F0100085F01000871400008EE
:100120005F0100085F0100085F0100085F0100082F
:10013000DFF80CD000F0EEFA00480047D95600086E
:10014000280A00200648804706480047FEE7FEE7E9
:10015000FEE7FEE7FEE7FEE7FEE7FEE7FEE7FEE777
:10016000D53B000831010008421C10F8011B002992
:10017000FBD1801A704710B5002200E0521C835C4E
:100180008C5CA34201D1002BF8D1D8B2E1B2401A65
:1001900010BD30B505460020034600E05B1C9342CD
:1001A00005D2EC5CC85C201A01D1002CF6D130BD20
:1001B00070B5064604F09AFB046805460A22002141
:1001C000304600F0CBF82C6070BD2DE9FE4F81EA7F
:1001D000030404F0004421F0004100944FF0000BB0
:1001E00023F0004350EA01045ED052EA03045BD0DE
:1001F000C3F30A54C1F30A552C44A4F2F334019416
:10020000A0FB0254C1F3130141F48011C3F31303A3
:1002100043F4801301FB024400FB034E840A970A57
:1002200044EA815447EA8357A4FB076802958D0A84
:1002300005FB07854FEA932C04FB0C542705029D10
:100240004FEA065847EA1637B5EB08056EEB070C80
:10025000870E920E47EA811742EA8312A7FB02013A
:10026000B6EB0B0164EB00042B0D43EA0C335E1874
:1002700044EB1C50DA465146E7FB0201C5F3130478
:100280004FEA0B3343EA14534FEA0432019C43EA2A
:100290000603A4F10C040294009CCDE900B400F024
:1002A000A4F803B0BDE8F08F00200146F9E730B5AF
:1002B0000B46014600202022012409E021FA02F524
:1002C0009D4205D303FA02F5491B04FA02F52844BE
:1002D000151EA2F10102F1DC30BD2DE9F05F0546EB
:1002E000002092469B4688460646814640241BE0F5
:1002F000284641464746224600F020F853465A46D3
:10030000C01A914110D311461846224600F014FA43
:100310002D1A67EB01084F4622460120002100F00C
:100320000BFA17EB00094E41201EA4F10104DFDC9B
:10033000484631462A464346BDE8F09F202A04DB62
:10034000203A21FA02F00021704721FA02F3D0404E
:10035000C2F1200291400843194670472DE9F04749
:1003600091460F4680460446002614F8015B2DB1E5
:1003700000F004FA0068405DC007F6D12B2D02D0D2
:100380002D2D18D0641E4A463946204600F0FAF951
:1003900027B13968A14201D1C7F8008071054FF03B
:1003A00002040BD54042002803DD04F09FFA0460EC
:1003B000A007BDE8F08746F48066E4E70028F8DA95
:1003C00004F094FA04606FF00040F2E710B5141ED8
:1003D00073F1000408DA401C41F1000192185B41FE
:1003E0001A4301D120F0010010BD2DE9F04D9246D5
:1003F0009B4611B1B1FA81F202E0B0FA80F22032EC
:10040000904600F099F904460F4640EA0A0041EA96
:100410000B0153465A46084313D0114653EA0100D4
:1004200019D0C8F140025046FFF788FF05460E4636
:1004300050465946424600F07FF9084305D0012056
:1004400004E020463946BDE8F08D0020054346EA29
:10045000E0762C4337430A986305E40AA0EB0800D2
:100460000022FD0A44EA47540A3002D50020014622
:10047000E9E7010510196941DDE9084500196941FD
:10048000BDE8F04DA2E72DE9FE4F804681EA03006A
:10049000C00F0C46009021F0004123F00045B8EB5E
:1004A0000200A94105D24046214690461C460B4613
:1004B000024623F00040104347D0270DC7F30A003F
:1004C000C3F30A510290401A019040286BDAC3F33B
:1004D000130040F4801B0098924620B10023D2EB19
:1004E000030A63EB0B0B01985946C0F140025046DA
:1004F00000F022F906460D4650465946019A00F092
:100500002AF910EB08006141002487EA115284EABD
:10051000E7731A4340D0009A62B3019A012A4FEA66
:10052000075215DC001B61EB02014FF0004202EAAA
:100530000752CDE90042001C41F5801132462B469E
:10054000FFF753FF03B0BDE8F08F40462146F9E7BF
:10055000001B61EB0201001C41F5801300185B4198
:100560002018A2F5001747EB030140EAD570B61931
:100570006D4111E06D084FEA360645EAC0754FEA55
:100580000752001B61EB0201001C41F58011490874
:100590004FEA30000019514132462B4603B0BDE806
:1005A000F04FFFF713BF0098012240000023D0EB6B
:1005B000020263EBE073009821464FEAE074B8EB67
:1005C000000061EB0401E9E783F000435BE781F0A1
:1005D000004158E72DE9F04D81EA030404F0004B97
:1005E00021F0004514464FF0000A23F0004150EA84
:1005F000050220D054EA01021DD0C5F30A57024675
:10060000C5F31303C1F31300C1F30A5640F4801578
:1006100043F48013A7EB0608101BD64608F2FD38FA
:1006200073EB050002D308F1010801E092185B4169
:10063000B8F1000F03DA00200146BDE8F08D00207C
:100640004FF48011064684460EE0171B73EB050736
:1006500005D3121B63EB050306434CEA010C490862
:100660004FEA300092185B4150EA0107EDD152EA9F
:10067000030012D082EA040083EA0501084305D092
:10068000101BAB4106D20122002306E000224FF0EE
:10069000004302E06FF0010253101AEB06004CEB2E
:1006A000085110EB0A0041EB0B01BDE8F04DFFF7DC
:1006B0008DBEC1F30A52C1F3130140F2FF3341F47E
:1006C00080119A4202DA00200146704740F233431B
:1006D0009A42A2F2334202DC5242FFF72FBE00F0F0
:1006E0002BB8000030B5041E71F1000404DB4FF09C
:1006F0000044404264EB0101141E73F1000405DB69
:100700001C464FF00043524263EB0403994208BF7A
:10071000904230BD064C074D06E0E06840F0010312
:1007200094E8070098471034AC42F6D3FFF704FD75
:1007300054A9000874A90008202A04DB203A00FA12
:1007400002F1002070479140C2F1200320FA03F328
:10075000194390407047202A06DBCB17203A41FA14
:1007600002F043EAE07306E041FA02F3D040C2F13E
:100770002002914008431946704700000048704726
:1007800034A900082DE9F05F82460078002715465D
:100790008B460AF10104B946302801D09DB113E01F
:1007A00014F8010B0127782803D0582801D045B14F
:1007B0000AE00DB1102D07D10027102514F8010B08
:1007C00002E0082500E00A250026B0460EE005FB01
:1007D000080005FB06F1012701EB10461FFA80F81F
:1007E000B6F5803F00D3B94614F8010B294600F056
:1007F00018F80028EBDABBF1000F05D00FB1641E2A
:1008000000E05446CBF80040B9F1000F06D004F0E8
:100810006DF802210160C81EBDE8F09F48EA06405D
:10082000FAE73A2800D2303820F02002412A01D3DA
:10083000A2F13700884201D34FF0FF30704721B159
:10084000826842F00102826003E0826822F00102C5
:100850008260704710B504461248844208D10121D5
:10086000401502F07DF80021601502F079F817E0DC
:100870000D48844208D10121001502F071F80021D1
:10088000201502F06DF80BE00848844208D10121E0
:10089000C80302F065F800214FF4004002F060F850
:1008A00010BD00000024014000280140003C014030
:1008B000014600208A6802F004020AB1012000E02B
:1008C000002070470146C86C80B270470246002085
:1008D00013680B400BB1012000E000207047014677
:1008E00000208A6802F008020AB1012000E000201E
:1008F0007047000030B502460020002350680F4CBE
:1009000020400D790C6844EA05242043506090682B
:100910000B4C2040D1E902542C434D7944EA450464
:1009200020439060D06A20F470000C7C641EE4B216
:10093000234340EA0350D06230BD0000FFFEF0FFC9
:10094000FDF7F1FFF0B504460D4600200021092D0A
:1009500011DDE068A5F10A0606EB4607072606FA50
:1009600007F18843A5F10A0606EB460603FA06F1ED
:100970000843E0600CE0206905EB4507072606FA0E
:1009800007F1884305EB450603FA06F108432061A9
:10099000072A0FDA606B561E06EB86071F2606FA3B
:1009A00007F18843561E06EB860605FA06F1084352
:1009B000606322E00D2A0FDA206BD61F06EB860754
:1009C0001F2606FA07F18843D61F06EB860605FAAE
:1009D00006F10843206310E0E06AA2F10D0606EB81
:1009E00086071F2606FA07F18843A2F10D0606EBDB
:1009F000860605FA06F10843E062F0BD816841F021
:100A000008018160704721B1826842F4A0028260CF
:100A100003E0826822F4A00282607047816841F09E
:100A2000040181607047000000B589B001210820F1
:100A300001F086FF0121042001F062FF4FF4807075
:100A4000ADF8200018208DF8230003208DF8220037
:100A500008A91A4800F0AEFA19480088401E80B272
:100A6000ADF818004720ADF814000020ADF81A00CA
:100A7000ADF8160005A9134803F03CFC6020ADF862
:100A800004000120ADF806000020ADF80A00ADF822
:100A90000C0001A90B4803F0CBFB0821094803F027
:100AA00017FC0121074803F02DFB0121054803F045
:100AB00038FB00200449087009B000BD000C01405B
:100AC00036000020000800403A00002010B5002148
:100AD000034803F00AFC00200249087010BD000022
:100AE000000800403A00002010B50748007850B9CF
:100AF0000648007838B906480188064803F0F5FB37
:100B000001200149087010BD3A0000204800002073
:100B1000380000200008004010B5012001F030FF2F
:100B2000002001F02DFF10BD08B501460020009007
:100B3000034800900098084400900098008808BD81
:100B4000006C004008B500220092044A0092009A0E
:100B500002440092009A116008BD0000006C004041
:100B600000BFFEE710B5002400F024F804E0601C8C
:100B7000C4B2012004F078FD0D48006808B1642C6F
:100B8000F5DB642C01DB012010BD002404E0601CB7
:100B9000C4B2012004F068FD0548006808B9642C5F
:100BA000F5DB642C01DB0120EEE70020ECE7000020
:100BB0002C01244208B54FF40060ADF80000482035
:100BC0008DF803006946024800F0F4F908BD000002
:100BD0000020014008B54FF40060ADF8000010207F
:100BE0008DF8030003208DF802006946014800F0EB
:100BF000E1F908BD0020014008B50121080201F01B
:100C00009FFE4FF40060ADF8000010208DF8030047
:100C100003208DF802006946064800F0CBF94FF436
:100C20000061044800F0A3FA00F068F8FFF79AFFAB
:100C300008BD00000020014010B5002404E0601C45
:100C4000C4B2012004F010FD0D48006808B1642C06
:100C5000F5DB002404E0601CC4B2012004F004FDB4
:100C60000748006808B9642CF5DB282004F0FCFC78
:100C70000348006808B1012010BD0020FCE7000017
:100C80002C01244270B50024002506E06006040E05
:100C9000FFF7D2FF0443681CC5B2082DF6DB2046DF
:100CA00070BD7CB505460E4600F028F8FFF75AFFE8
:100CB000F8B9002405E0FFF7E5FF0DF80400601C1B
:100CC000C4B2052CF7DB9DF800009DF80110084424
:100CD0009DF8021008449DF8031008449DF8041084
:100CE000884208D19DF8000030709DF802002870FD
:100CF00001E001207CBD0020FCE7000010B5FFF7FB
:100D000069FF002006490860142004F087FC0120D8
:100D10000449C1F8AC011E2004F0A6FC10BD00007F
:100D2000AC01244200002442704700002DE9F0414C
:100D300000240026002530E04FF400711B4800F02D
:100D40000DFA012829D100F09FFB0446FA2C00DBA4
:100D500024E0C82C03DBFA2C01DA01260AE03C2C43
:100D600003DB5A2C01DA012704E00A2C02DB322CC7
:100D700000DA0027012E0ED10D48006840000C4912
:100D800008600846006838440860202D03DB012015
:100D90000849087002E0681CC5B2CDE700BF4FF4F7
:100DA000007000F009F8BDE8F0810000000C01407F
:100DB0003C0000204000002001490860704700000E
:100DC00014040140002123498279002A3AD00A46BE
:100DD000126803689A430B461A600A1D126803687A
:100DE0009A430B1D1A60027911440A6803681A437A
:100DF0000A60184A0832126803689A43154B083390
:100E00001A601A1D126803689A43124B0C331A6059
:100E10004279102A0ED11A1F126803681A430D4B2B
:100E200008331A601A1D126803681A43094B0C3301
:100E30001A600DE00749427911440A6803681A43B1
:100E40000A6005E0027911440A6803689A430A605F
:100E5000704700000004014051B18200A2F1C0427D
:100E6000126842F001038200A2F1C042136009E05F
:100E70008200A2F1C0421268034B1A408300A3F122
:100E8000C0431A6070470000FEFF0F00D0E9011256
:100E90001143C268114302691143426911438269D7
:100EA0001143C2691143026A1143426A1143826AC3
:100EB0001143C26A1143026B114302689200A2F10E
:100EC000C0421160816808290BD101688900A1F135
:100ED000C041096841F0400201688900A1F1C041A8
:100EE0000A60416B0968426B526841EA0211426B29
:100EF000926841EA0221426B928941EA0241426BC7
:100F0000128A41EA0251426B127D41EA0261426B50
:100F1000926911430268521C9200A2F1C042116012
:100F2000C16AB1F5804F1BD1816B0968826B526831
:100F300041EA0211826B926841EA0221826B128AB5
:100F400041EA0251826B127D41EA0261826B926931
:100F5000114302689200A2F1C042C2F8041107E0F6
:100F60006FF0704201688900A1F1C041C1F804210D
:100F70007047000030B500228B071C0F0F2303FAC7
:100F800004F20B4B8C1053F824309343084C8D1013
:100F900044F8253023468C1053F824308C07240F56
:100FA00000FA04F42343024C8D1044F8253030BD80
:100FB000080001402DE9F0410246002500260020EE
:100FC00000230024002791F803C00CF00F0591F8CE
:100FD00003C00CF0100CBCF1000F03D091F802C05C
:100FE0004CEA050591F800C0BCF1000F31D014683F
:100FF00000202BE04FF0010C0CFA00F3B1F800C018
:101000000CEA03069E4220D183004FF00F0C0CFA2D
:1010100003F7BC4305FA03FC4CEA040491F803C04F
:10102000BCF1280F06D14FF0010C0CFA00FCC2F8FD
:1010300014C00AE091F803C0BCF1480F05D14FF08D
:10104000010C0CFA00FCC2F810C0401C0828D1D3D7
:101050001460B1F800C0BCF1FF0F34DD546800200B
:101060002EE000F1080C4FF0010808FA0CF3B1F87B
:1010700000C00CEA03069E4221D183004FF00F0C02
:101080000CFA03F7BC4305FA03FC4CEA040491F89C
:1010900003C0BCF1280F05D100F1080C08FA0CF8C8
:1010A000C2F8148091F803C0BCF1480F07D100F1D9
:1010B000080C4FF0010808FA0CF8C2F81080401C28
:1010C0000828CED35460BDE8F0810000F0B50A4690
:1010D000002300240021002500F00046B6F1004F57
:1010E00002D11D4EF16901E01B4E7168C0F303454A
:1010F00083B200F44016B6F5401F08D121F07061AC
:10110000154E766826F07066134F7E6012E000F48C
:101110008016B6F5801F06D1032606FA05F4A14312
:1011200041F0706106E0460D360103FA06F6B14360
:1011300041F0706122B1460D360103FA06F63143E3
:1011400000F00046B6F1004F02D1034EF16101E01C
:10115000014E7160F0BD0000000001400246002019
:1011600093680B400BB1012000E000207047016143
:101170007047000010B504460723012221460948A4
:10118000FFF7E0FB01210748FFF73DFC00BF02210C
:101190000448FFF79BFB0028F9D00248FFF792FBB9
:1011A00010BD0000003C014070B50F2631E0012069
:1011B0001D4908600A2004F031FA1CA004F02EFE3C
:1011C00000250AE00A2004F029FA1B48008800F4F0
:1011D000004000B103E0681CC5B2142DF2DB00BF73
:1011E0000020114908601448008800F4004080B1D4
:1011F00011480088C4B200200F4908800D2C08D186
:101200000E4800782B2804D10C4880793038C4B2BD
:1012100004E03000A6F10101CEB2C8D100BF06B98A
:10122000FF24204670BD00009001214241542B5202
:101230004F4C453F0D0A000046000020AE00002044
:10124000F8B50A2601250121042001F079FBE80305
:10125000ADF8000048208DF8030003208DF802004F
:1012600069463048FFF7A6FE1020ADF800008DF863
:10127000030003208DF8020069462A48FFF79AFE12
:1012800010212848FFF773FF01212748FFF71EFFB1
:101290000120264908602649C1F83C014FF4165048
:1012A00003F04EF933E00120204908600A2004F0E1
:1012B000B5F920A004F0B2FD00201D49C1F890014D
:1012C00000240AE01D48008800F4004000B106E058
:1012D000052004F0A3F9601CC4B20A2CF2DB00BFA5
:1012E0001648008800F4004088B114480088C5B250
:1012F000002012490880042D09D1114800784F2898
:1013000005D10F4840784B2801D1002504E030007A
:10131000A6F10101CEB2C6D100BF06B9012528460B
:10132000F8BD000000080140000230009001214299
:101330000000214241540D0A000000004600002038
:10134000AE0000201CB5FFF72FFF01280AD10BA02B
:1013500010210B46C822CDE900108C210A2000F094
:10136000FDFB09E008A010210B46C822CDE90010C2
:101370008C210A2000F0F2FB1CBD0000524F4C45AE
:101380003A4D617374657200524F4C453A536C612B
:10139000766520002DE9F04105460F2730E0012059
:1013A0001D4908600A2004F039F929461BA004F001
:1013B00035FD00201B49C1F8900100260AE01A48BB
:1013C000008800F4004000B106E0052004F026F992
:1013D000701CC6B2142EF2DB00BF1348008800F464
:1013E000004068B110480088C4B200200E4908804F
:1013F000042C05D10D4800784F2801D1002404E0C9
:101400003800A7F10101CFB2C9D100BF07B9FF244D
:101410002046BDE8F08100009001214225730D0AAD
:10142000000000000000214246000020AE00002025
:101430001CB50C48006850B10BA010210B46782257
:10144000CDE900108C216E2000F088FB09E00AA095
:1014500010210B467822CDE900108C216E2000F07F
:101460007DFB1CBD3C0121425354413A436F6E6EDB
:1014700065637465642000005354413A44697363A2
:101480006F6E6E656374000010B5002408E0601C88
:10149000C4B2142004F0E8F8FA2C01DB204610BD99
:1014A0004FF400710348FFF759FE0128EFD02046A2
:1014B000F5E70000000C014000BFFEE71FB5012169
:1014C000092001F03DFA4FF40070ADF80C004820FF
:1014D0008DF80F0003A91448FFF76CFD09210120C6
:1014E000FFF748FD4FF40070FFF766FC4FF4007003
:1014F000019000208DF808000C208DF809000120D3
:101500008DF80A0001A8FFF75DFC17208DF8000098
:1015100000208DF8010001208DF802008DF80300F5
:10152000684600F0DBFD1FBD000C01407CB566483D
:101530000078012801D100207CBD64A010210B4659
:10154000C822CDE9001064210A2000F007FB65A045
:1015500010210B46DC22CDE90010E6210A2000F024
:10156000FDFA4FF4FA7004F059F84FF4165002F0F7
:10157000E7FF03258BE0002000F05CF90446042C13
:1015800015D15EA010210B46C822CDE900106421C0
:101590000A2000F0E3FA5EA003F072F903204A4942
:1015A00008704FF4FA7004F039F80220C4E7FFF72E
:1015B00047FEA8B95EA010210B46C822CDE9001055
:1015C00064210A2000F0CAFA5EA003F059F9012054
:1015D0003D4908704FF4FA7004F020F80020ABE7A2
:1015E0005BA003F04DF962A010210B46C822CDE9A3
:1015F000001064210A2000F0B1FA4FF4967004F054
:101600000DF8002000F016F90446042C15D13BA07B
:1016100010210B46C822CDE9001064210A2000F0F9
:101620009DFA3BA003F02CF90320274908704FF4E2
:10163000FA7003F0F3FF02207EE752A010210B4660
:10164000C822CDE9001064210A2000F087FA4FF487
:10165000967003F0E3FF002000F0ECF80446042C41
:1016600015D126A010210B46C822CDE90010642117
:101670000A2000F073FA26A003F002F903201249B1
:1016800008704FF4FA7003F0C9FF022054E72800F5
:10169000A5F10101CDB27FF46EAF3FA003F0F0F8E9
:1016A00041A010210B46C822CDE9001064210A2078
:1016B00000F054FA0220044908704FF47A7003F0E5
:1016C000ADFF012038E7000001000020496E697479
:1016D00069616C697A696E6720484330352E2E2E19
:1016E000000000004B4559323A43616E63656C203F
:1016F000262052657475726E00000000496E697490
:101700002043616E63656C656421202020202000E9
:101710004843303520496E69742063616E63656C9F
:10172000656420627920757365720D0A00000000FF
:101730004843303520496E6974204F4B21202020CA
:101740002020200048433035204F4B210D0A000057
:101750004843303520496E6974206661696C656460
:101760002C207265747279696E672E2E2E0D0A0018
:1017700048433035204572726F722120202020208E
:10178000200000005265747279696E672E2E2E203B
:101790002020202020000000484330352045727270
:1017A0006F72210D0A0000004843303520496E69F0
:1017B00074204661696C6564212000000146CA17E7
:1017C00001EB92729210A1EB820292B9642091FB1C
:1017D000F0F200FB121050B94FF4C87091FBF0F218
:1017E00000FB121008B9012070470020FCE701201F
:1017F000FAE70020F8E7000008B50121442001F0D5
:101800009FF80120ADF8000028208DF803006946FC
:101810000648FFF7CFFB1C20ADF8000048208DF8EC
:10182000030069460248FFF7C5FB08BD00080140F8
:101830000018014010B50446012C01D1224908705E
:101840002148007801282AD12048006801280AD0C0
:101850001F48006838B11E48001F006818B11C48B6
:1018600008380068D8B90A2003F0D8FE00201649CD
:10187000087016480068012800D110BD144800689F
:1018800008B90220F9E71248001F006808B90320D0
:10189000F3E70F4808380068A0B90420EDE70B48CB
:1018A000006878B90A48006801280BD10848001F71
:1018B0000068012806D1064808380068012801D1CF
:1018C000014908700020D8E74100002000012142B2
:1018D0001001234270B506460F484088401E83B26F
:1018E0000D480088401E82B20021084600F07CF8B6
:1018F00000240CE0002504E0304600F06FF9681C7D
:1019000085B205484088A842F6DC601C84B20248D3
:101910000088A042EEDC70BD2E00002000B502461B
:101920000F4882716AB9362000F04CF94C2000F063
:101930004FF94FF4F0700A4948804FF4A0700880C6
:101940000CE0362000F03EF92C2000F041F94FF475
:10195000A070034948804FF4F070088000BD00007B
:101960002E00002070B504460D4616462B46224632
:101970002946204600F038F8304600F02FF970BDB7
:101980002DE9F04304460D4616461F46DDF81C803F
:10199000B44201DCBD4201DDBDE8F0833B46324686
:1019A0002946204600F020F8301B401C84B2781BEA
:1019B000401C85B20BE0A94602E0404600F00EF95B
:1019C0005FEA0900A9F101011FFA81F9F5D12000B0
:1019D000A4F101018CB2EED100BFDDE7014800881F
:1019E000704700000008006C30B504460D462A2000
:1019F00000F0E8F8201200F0EBF8E0B200F0E8F8B0
:101A0000101200F0E5F8D0B200F0E2F82B2000F060
:101A1000D9F8281200F0DCF8E8B200F0D9F8181272
:101A200000F0D6F8D8B200F0D3F82C2000F0CAF8B5
:101A300030BD00002DE9F84F80460E4617461C4683
:101A4000B3462046E31704EB5373DB1021464FEAFD
:101A5000E47C04EB5C7C4FEAEC0CA4EBCC0CBCF11A
:101A6000000F02D04FF0010C01E04FF0000C634476
:101A7000224604EBD27C4FEA6C0C03FB0CF3DBB286
:101A80000093A7F12000C7B2002556E00C2C07D127
:101A900007EB47002B4901EB800010F8059013E09D
:101AA000102C05D1284800EB071010F805900BE02A
:101AB000182C07D107EBC700244901EB800010F870
:101AC000059001E0BDE8F88F4FF0000A2FE009F023
:101AD000800030B11E48028831464046FFF742FF81
:101AE00007E00A9828B91B48028831464046FFF7AC
:101AF00039FF4FEA49604FEA1069701C86B21648F8
:101B00004088B04200DCDDE7A6EB0B00A0420AD122
:101B10005E4608F101001FFA80F80F480088404532
:101B200000DCCFE706E00AF1010000F0FF0ABAF19D
:101B3000080FCCDB00BF681CC5B200988542A5DB4E
:101B400000BFBFE76C5E0008E0620008D0680008D4
:101B50002A0000202C0000202E0000202DE9F8474C
:101B600004460D4690469946DDE9096704F0FF0AF0
:101B700008EB04001FFA80F809EB05001FFA80F952
:101B800016E0444502DB5446A81985B24D4500DBFA
:101B900014E0002000903A78334629462046FFF7AB
:101BA00049FF304606EBD07104EB61018CB27F1C1B
:101BB00038787E2802DC38782028E2DA00BFBDE8D9
:101BC000F88700000149088070470000FE07006C9C
:101BD00001490880704700000008006C0112024AA9
:101BE0001180C1B2118070470008006C08B5012156
:101BF000482000F0A5FE2020ADF8000010208DF850
:101C0000030003208DF8020069460948FFF7D2F966
:101C100020210748FFF7ABFA2020ADF80000694605
:101C20000448FFF7C7F920210248FFF7A0FA08BDD2
:101C3000000C01400018014070B50024002508E0A8
:101C40000620FFF797FA0444052003F0E7FC681C20
:101C5000C5B20A2DF4DB0A20B4FBF0F4B4F57A6FB8
:101C600001D94FF47A642820B4FBF0F0C0F164008D
:101C7000C0B270BD00B587B00121802000F060FEC9
:101C80000121C80300F05CFE0121C80300F068FEDA
:101C900000214FF4004000F063FE4FF48070ADF877
:101CA000180000208DF81B0006A91848FFF782F9DC
:101CB0001748FEF7CFFD002001908DF808008DF841
:101CC00009004FF4602003900020049001208DF85B
:101CD000140001A90E48FEF70DFE01210C48FEF785
:101CE000AEFD0B48FEF78AFE00BF0948FEF7F7FD80
:101CF0000028FAD10648FEF791FE00BF0448FEF71F
:101D0000D7FD0028FAD107B000BD0000001C01403B
:101D1000003C014000BFFEE700200649087006496C
:101D200008700649088006490880032005490870A4
:101D30007047000048000020490000204A000020B1
:101D40004C0000204F00002010B50A480078401CCD
:101D50000949097890FBF1F201FB1200C4B2204658
:101D600000F02EF8054850F8241005A002F088FD78
:101D700010BD0000490000204E0000205800002047
:101D80004E65787420736F6E673A2025730D0A00D4
:101D900010B506480078012807D1022003490870D1
:101DA000FEF794FE02A002F06BFD10BD480000207B
:101DB0004D75736963207061757365640D0A000069
:101DC0002DE9F04104461B48007884422FDA1A4876
:101DD0000470002019490880194908800120194918
:101DE0000870194830F8140000281ADD174850F818
:101DF00024000688164890FBF6F085B2002D0FDD12
:101E0000681E81B2134802F06CFA2F4605EBD770BA
:101E1000C0F34F010F4802F068FA01200E49087024
:101E200000BF0E4850F824100DA002F029FDBDE8B7
:101E3000F08100004E000020490000204A000020F0
:101E40004C00002048000020ACA8000850000020F2
:101E500040420F00000800403A00002058000020D7
:101E6000506C6179696E6720736F6E673A202573D5
:101E70000D0A000010B50A48007818B90948007822
:101E8000401E02E006480078401EC4B22046FFF71C
:101E900097FF054850F8241004A002F0F1FC10BD93
:101EA000490000204E000020580000205072657646
:101EB000696F757320736F6E673A2025730D0A0082
:101EC00070B51848007802282BD1012015490870F8
:101ED00015481649097830F81100154909888842D3
:101EE0001CDD14481149097850F82100104909886F
:101EF00030F82150104890FBF5F084B2002C0CDD36
:101F0000601E81B20D4802F0ECF9264604EBD67053
:101F1000C0F34F01094802F0E8F900BF08A002F041
:101F2000AFFC70BD48000020ACA8000849000020AC
:101F30004A0000205000002040420F0000080040EE
:101F40004D7573696320726573756D65640D0A0064
:101F500010B500200549087005490880054908802A
:101F6000FEF7B4FD04A002F08BFC10BD4800002079
:101F70004A0000204C0000204D7573696320737483
:101F80006F707065640D0A0070B5374800780128DD
:101F900069D13648007836490978884263DA35488D
:101FA0003249097830F811003349098888425ADDEE
:101FB0003248008832490978322202FB01002F4959
:101FC000088030482949097850F821002A490988B1
:101FD00000EB8100408829490988884243DC264873
:101FE0000088401C2449088000202449088021489A
:101FF0001E49097830F811201F48018822A002F0FC
:102000003FFC1C481949097830F811001A49098821
:10201000884223DD1B481549097850F821001649EC
:10202000098830F821501E4890FBF5F084B2002C4E
:1020300013DD601E81B21B4802F053F9264604EB03
:10204000D670C0F34F01174802F04FF9012016492E
:102050000870294615A002F013FC04E019A002F054
:102060000FFCFFF775FF70BD4800002049000020FD
:102070004E000020ACA800084A0000204C000020C0
:102080004F000020500000204E6F74652025642F03
:10209000256420636F6D706C657465640D0A0000C3
:1020A00040420F00000800403A000020506C617967
:1020B000696E67206E6F74653A20256420487A0D3A
:1020C0000A000000536F6E6720636F6D706C65745B
:1020D00065640D0A000000007047000070B5002123
:1020E00000230F22C47804B3154C246804F4E06480
:1020F000C4F5E064210AC1F10403CA40447804FA3B
:1021000003F184781440214309010E4C0678A1554F
:10211000047804F01F050124AC4005786D11AD0072
:1021200005F1E025C5F8004109E0047804F01F0539
:102130000124AC40044D0678761145F8264070BD68
:102140000CED00E000E400E080E100E00249014322
:10215000024A1160704700000000FA050CED00E033
:10216000014908627047000000000E4270470000FD
:102170002DE9F0418AB0054688463AA12846FDF788
:10218000FAFF18B900203A49086067E039A12846EB
:10219000FDF7F1FF18B90120354908605EE038A16C
:1021A0002846FDF7E8FF10B9FEF79EFC56E037A180
:1021B0002846FDF7E0FF10B9FEF788FC4EE0062246
:1021C00035A12846FDF7E5FF002847D1A81DFDF7FA
:1021D000EFFFC4B2002C40DD04EB84004000304926
:1021E000088001202F4908702F480078012803D16A
:1021F00021462EA003F012FE21462CA002F040FB47
:102200003348007838BB4FF6FF704FF48A73DC22F6
:102210004FF4827100900A20FFF7B2FB204800883B
:102220000A2190FBF1F201FB12061D48008890FB89
:10223000F1F733463A4627A102A802F031FB02A883
:1022400010210B46DC22CDE900104FF482710A20E8
:10225000FFF784FC01E000F0EDFE00BF0AB0BDE82E
:10226000F08100002B4C454432204F4E0D0A0000F7
:10227000940123422B4C454432204F46460D0A0020
:102280002B42454550204F4E0D0A00002B4245453C
:1022900050204F46460D0A002B4245455020000075
:1022A00004000020060000200100002057696C6C2B
:1022B000207475726E206F6E204245455020696E05
:1022C000202564207365636F6E64730D0A0000003F
:1022D00000000020424545502077696C6C204F4E2D
:1022E00020696E2025642E25647300001CB5F24819
:1022F000007800287CD0F1480168F1A002F0C0FA13
:10230000EE480068F349884223D1F3480088F34936
:10231000098888421CDAF04800883230EE4908808B
:1023200008460088ED490988884203DDEB480088AB
:10233000E9490880E9480088E74A1288801A81B292
:10234000E74801F0D0FFE4480188E6A002F098FADF
:1023500077E0DA480068EB4988421FD1DE48008800
:1023600000286EDDDC480088322805DDDA48008868
:102370003238D949088002E00020D7490880D74880
:102380000088D54A1288801A81B2D54801F0ABFF87
:10239000D1480188DCA002F073FA52E0C748006817
:1023A000E149884225D1E148007808B9012000E0E0
:1023B0000020DE4908700846007858B1DCA002F021
:1023C0005FFA0020E2490870C4480188C44801F05F
:1023D0008AFF36E0DFA002F053FA0020DC490870E3
:1023E000E4490880BD480188BD4801F07CFF28E031
:1023F00060E1B2480068E049884222D1CB480078C9
:10240000F8B9D348007808B9012000E00020D0498D
:1024100008700846007860B1B0480088AE4A12885B
:10242000801A81B2AE4801F05EFFD4A002F028FA13
:1024300007E0AA480188AA4801F055FFD6A002F09B
:102440001FFA9E480068A349884206D10020D94956
:102450000860D9A002F014FA29E198480068A94957
:10246000884206D10120D3490860D6A002F008FABC
:102470001DE192480068AC49884214D10120D4493A
:1024800008700020D3490880D3A010210B46DC221D
:10249000CDE900104FF491710A20FFF75FFBD3A044
:1024A00002F0EEF903E185480068B349884227D17C
:1024B000C74800780028CFD0C64800880A30C549F0
:1024C000088008460088B0F5167F02DD4FF41670CC
:1024D0000880C0480288CCA1CE4802F0E1F9CD487E
:1024E00010210B46DC22CDE900104FF491710A2037
:1024F000FFF734FBB7480188C7A002F0C1F9D6E066
:102500006E480068CC4988422BD1B1480078002839
:10251000A2D0B048008800289EDDAE4800880A2876
:1025200005DDAC4800880A38AA49088002E000208E
:10253000A8490880A7480288B3A1B64802F0B0F9BC
:10254000B44810210B46DC22CDE900104FF4917104
:102550000A20FFF703FB9F480188AFA002F090F923
:10256000A5E056480068B549884228D198480078C7
:10257000002897D097480088002893DD9548008868
:1025800000EB80004FF6FF7101EA4000AC49088083
:102590000120AC49087000208D490870AAA01021C4
:1025A0000B46DC22CDE900104FF491710A20FFF7B1
:1025B000D5FA88480188A9A002F062F977E03F487F
:1025C0000068AF49884223D14348008843490988BD
:1025D00088426CDA4048008832303F49088008461B
:1025E00000883E490988884203DD3C4800883A4912
:1025F00008803A480088384A1288801A81B23848E0
:1026000001F071FE3448018836A002F039F94EE03D
:102610002A4800689B4988421FD12F48008800281B
:1026200045DD2D480088322805DD2B4800883238EA
:102630002949088002E000202749088027480088AF
:10264000254A1288801A81B2254801F04CFE2248A2
:1026500001882DA002F014F929E0184800688A4981
:1026600088420FD100203A4908703049087041492A
:1026700008801A4801881A4801F035FE83A002F04C
:10268000FFF814E00D4800688649884205D1FFF73D
:10269000F1FB85A002F0F4F809E0084800688949D8
:1026A000884204D1FFF750FB87A002F0E9F8002030
:1026B000014908701CBD0000400000203C000020C3
:1026C000495220436F64653A203078253038580DE0
:1026D0000A000000CF30FF000A0000200C0000209C
:1026E000000400404D6F746F7220706F7765722028
:1026F000696E6372656173656420746F2025640D73
:102700000A000000E718FF004D6F746F7220706FB1
:102710007765722064656372656173656420746FA8
:102720002025640D0A000000857AFF000E000020BD
:102730004D6F746F72206175746F20636F6E747269
:102740006F6C20656E61626C65640D0A00000000AC
:10275000120000204D6F746F72206D616E75616C98
:1027600020636F6E74726F6C20656E61626C65645D
:102770000D0A000010000020EF10FF004D6F746F75
:1027800072207475726E6564204F4E206D616E7597
:10279000616C6C790D0A00004D6F746F7220747556
:1027A000726E6564204F4646206D616E75616C6C7B
:1027B000790D0A00940123424C454432204F4E0DBE
:1027C0000A0000004C454432204F46460D0A0000E6
:1027D0000700002008000020424545502053657442
:1027E00074696E67204D6F6465000000456E746506
:1027F0007220424545502073657474696E67206D80
:102800006F64650D0A00000044656C61793A20250B
:102810006473000084000020424545502064656CCC
:1028200061792073657420746F202564207365635B
:102830006F6E64730D0A0000C738FF00A55AFF00D1
:102840000400002006000020424545502054696DD8
:10285000657220537461727465642100424545506D
:102860002074696D6572207374617274656420668A
:102870006F72202564207365636F6E64730D0A00A8
:10288000BD42FF00B54AFF00AD52FF004D6F746FAF
:102890007220656D657267656E63792073746F7001
:1028A0000D0A0000FD02FF0050726576696F7573B6
:1028B00020736F6E672073656C65637465640D0AC1
:1028C000000000003DC2FF004E65787420736F6EFB
:1028D000672073656C65637465640D0A0000000011
:1028E00029B1064A52690243044B5A6104E0034A83
:1028F00052698243014B5A61704700000010024048
:1029000029B1064AD2690243044BDA6104E0034A62
:10291000D2698243014BDA61704700000010024027
:1029200029B1064A12690243044B1A6104E0034AC2
:1029300012698243014B1A61704700000010024087
:1029400029B1064A92690243044B9A6104E0034AA2
:1029500092698243014B9A61704700000010024067
:1029600029B1064AD2680243044BDA6004E0034A04
:10297000D2688243014BDA607047000000100240C9
:1029800001490860704700004004424230B5002110
:102990000022002400232D4D6D6805F00C0121B1AB
:1029A000042905D0082923D105E0294D056022E03E
:1029B000274D05601FE0254D6D6805F47012234D0D
:1029C0006D6805F48034022505EB92421CB9214D57
:1029D000554305600BE01D4D6D6805F400351DB1D4
:1029E0001C4D5543056002E0194D5543056002E05A
:1029F000174D056000BF00BF144D6D6805F0F00174
:102A00000909154D6B5C0568DD4045600F4D6D682B
:102A100005F4E061090A104D6B5C4568DD40856096
:102A20000A4D6D6805F46051C90A0B4D6B5C456831
:102A3000DD40C560054D6D6805F44041890B074DCB
:102A40006B5CC568B5FBF3F5056130BD0010024055
:102A500000127A0000093D0015000020250000202A
:102A600010B501460022002300204A11012A02D19C
:102A7000094C236806E0022A02D1074C236A01E0D0
:102A8000054C636A01F01F02012494401C400CB104
:102A9000012000E0002010BD0010024000210B4A80
:102AA00011700A4A203A82F82010012802D0042826
:102AB00008D103E00121054A117004E00521034A11
:102AC000117000E000BF00BF7047000020100240FE
:102AD00001490860704700003C0442420249096A0B
:102AE0000143014A116270470010024002490988FF
:102AF0008143014A11807047042800400348008840
:102B000040F0100001490880704700000428004090
:102B1000034800884FF6EF7108400149088070476C
:102B20000428004070B500260024002500F07AF843
:102B300006463848B6FBF0F437480088A0423CD03F
:102B400035490C8040F2B27510E02846FEF736FE9B
:102B500040B1B4F5B77F02D3A4F5B77404E0681CA4
:102B600085B206E0A4F26D14681C85B2B4F5B67F98
:102B7000EBD800BF29488580002516E027498888C2
:102B8000FEF71CFE30B1012D04D11D2C01D31D3CDC
:102B900009E00CE02248405DA04203D82048405D97
:102BA000241A00E003E0681C85B21C2CE6D200BFAA
:102BB000681C1A498871601CC8711648B6FBF0F190
:102BC00000FB11644FF46160B4FBF0F0134908702E
:102BD0004FF46160B4FBF0F100FB11403C21B0FB0D
:102BE000F1F00E4948704FF46160B4FBF0F100FB66
:102BF00011403C21B0FBF1F201FB12000749887043
:102C00000B46DA799979988800F028F80349087218
:102C1000002070BD8051010044000020A40000206D
:102C200090A70008002103480188001F008841EA9E
:102C3000004070471C28004001460020064A1288C8
:102C40000A40D0B2044A121F12880A4012B108B1D9
:102C5000012000E00020704704280040F0B5034642
:102C60000C461546642093FBF0F0C6B2642093FB3B
:102C7000F0F700FB1730C1B2132E02DD01F1640042
:102C8000C1B20846CF1701EB977701EBA707BAB29D
:102C9000072092FBF0F700FB172082B25719601E45
:102CA000DFF82CC01CF80000384482B2CF1701EBCB
:102CB0009777BF10A1EB87071FB9032C01DA501ECD
:102CC00082B2072092FBF0F700FB1720C0B2F0BDE4
:102CD00084A7000810B50120FFF7AEFF20B1012046
:102CE00009490870FFF71EFF0220FFF7A5FF20B17A
:102CF0000220FFF7FBFEFFF715FF0520FFF7F6FEAA
:102D000000F006F910BD00004200002029B1064A7B
:102D100012880243044B1A8004E0034A128882435B
:102D2000014B1A8070470000002800401CB50024A9
:102D300001214FF0C050FFF7E3FD0120FFF710FA2B
:102D40000420FDF7F1FE4AF2A001884240D0FDF7D1
:102D5000E3FE0120FFF7A2FE04E0601CC4B20A20DB
:102D600002F05CFC4120FFF77BFE08B9FA2CF4DB93
:102D7000FA2C01DB01201CBD4FF48070FFF7AEFE82
:102D80000120FFF7A5FE00F0C3F800F0CBF8012109
:102D90000846FFF7BBFF00F0BBF8FFF7AFFE47F6B2
:102DA000FF7000F0A5F800F0B3F8372022211123BE
:102DB0000122CDE900100B2140F2E37000F026F86B
:102DC000FFF7A6FE4AF2A0010420FDF7BBFE07E0D4
:102DD00000F0A8F801210846FFF798FF00F098F8E6
:102DE00000F004F8FFF79EFE0020C4E708B50320BA
:102DF0008DF8000000208DF801008DF80200012000
:102E00008DF803006846FFF769F908BD2DE9F05F0A
:102E100006460F4690469946DDE90AAB002440F28B
:102E2000B270864203DB40F63300864202DD0120A9
:102E3000BDE8F09F40F2B2750AE02846FEF7BEFCFE
:102E400010B12048044401E01F480444681C85B2C6
:102E5000B542F2DB781EC7B2002510E01B48405D8A
:102E600040F2A321484304EBC0143046FEF7A6FC11
:102E700018B1012D01D116480444681C85B2BD4229
:102E8000ECDBA8F1010040F2A321484304EBC0149D
:102E9000C9EB4910C0EB092004EB0014CAEB0A107F
:102EA00004EB80045C4401214FF0C050FFF728FD83
:102EB0000120FFF755F9204600F00CF800F028F843
:102EC0000020B5E70085E2018033E10190A700080A
:102ED0008051010000B50246FFF710FE100C0349B7
:102EE0000880091D0A80FFF713FE00BD1828004066
:102EF00000B50246FFF702FEC2F303400349088013
:102F0000091D0A80FFF704FE00BD000008280040EC
:102F100000BF0348008800F020000028F9D0704767
:102F200004280040074800884FF6F771084005491B
:102F3000088000BF0348008800F008000028F9D08E
:102F40007047000004280040704710B500F002F8F8
:102F500010BD00000CB500200190009033480068BF
:102F600040F480303149086000BF3048006800F408
:102F7000003000900198401C0190009818B9019809
:102F8000B0F5A06FF1D12948006800F4003010B10D
:102F90000120009001E0002000900098012843D11A
:102FA0002348006840F01000214908600846006886
:102FB00020F0030008600846006840F00200086046
:102FC0001A48406819494860084640684860084601
:102FD000406840F4806048600846406820F47C10F7
:102FE00048600846406840F4E810486008460068B9
:102FF00040F08070086000BF0C48006800F000706E
:103000000028F9D00948406820F0030007494860CB
:103010000846406840F00200486000BF034840682E
:1030200000F00C000828F9D10CBD0000001002408F
:103030000020024030B58BB04FF6FF70FEF74AFC1F
:103040004FF478404D4908804DA010210B46F022E6
:10305000CDE900100A210846FEF780FD4AA01021A4
:103060000B46F022CDE900101E210A20FEF776FD66
:1030700049A010210B46F022CDE9001032210A2090
:10308000FEF76CFD49A010210B46D222CDE90010BD
:103090005A210A20FEF762FD4CA010210B46C822DF
:1030A000CDE900106E210A20FEF758FD4BA010213B
:1030B0000B46C822CDE90010A0210A20FEF74EFDE4
:1030C00048A010210B46C822CDE90010B4210A20E7
:1030D000FEF744FD46A010210B46DC22CDE900108E
:1030E000E6210A20FEF73AFD48480078D8B1484862
:1030F00000880A2190FBF1F201FB12044448008889
:1031000090FBF1F523462A4642A103A801F0C8FB33
:1031100003A810210B46DC22CDE900104FF4827188
:103120000A20FEF71BFD4FF6FF704FF49973DC2267
:103130004FF4917100900A20FEF722FC3B48006892
:1031400008B13BA000E03BA002463BA103A801F070
:10315000A7FB03A810210B46DC22CDE900104FF499
:1031600091710A20FEF7FAFC1F2004490880FEF73F
:10317000E9F8FEF75DF90BB030BD00002A00002031
:103180005052454348494E007777772E70726563F9
:1031900068696E2E636F6D004254303520426C7545
:1031A00065546F6F74682054657374004B45595FA4
:1031B00055503A524F4C452020204B4559313A53F7
:1031C000454E442F53544F500000000048433035C3
:1031D000205374616E6462792100000053656E644F
:1031E0003A000000526563656976653A00000000A8
:1031F0005072657373204B45593220746F205365AC
:103200006E736F72206D6F64650000000600002011
:1032100004000020424545502077696C6C204F4ED9
:1032200020696E2025642E256473000094012342DA
:103230004F4646004F4E00004C4544323A2025731D
:10324000000000001CB54FF6FF70FEF743FB48A0DE
:1032500010210B469622CDE900100A213220FEF7FC
:103260007DFC47A010210B46DC22CDE9001028216F
:103270000A20FEF773FC49A010210B46DC22CDE9A1
:1032800000103C210A20FEF769FC4AA010210B46E1
:10329000DC22CDE9001050210A20FEF75FFC4AA095
:1032A00010210B46DC22CDE9001064210A20FEF734
:1032B00055FC4AA010210B46DC22CDE900108221EA
:1032C0000A20FEF74BFC4CA010210B46DC22CDE976
:1032D000001096210A20FEF741FC4EA010210B465B
:1032E000DC22CDE90010AA210A20FEF737FC50A00D
:1032F00010210B46DC22CDE90010BE210A20FEF78A
:103300002DFC50A010210B46DC22CDE90010D2216B
:103310000A20FEF723FC52A010210B46DC22CDE947
:103320000010F0210A20FEF719FC54A010210B46D2
:10333000DC22CDE900104FF482710A20FEF70EFC6A
:1033400055A010210B46DC22CDE900104FF48C7102
:103350000A20FEF703FC56A010210B46DC22CDE923
:1033600000104FF49B710A20FEF7F8FB1CBD000013
:103370004F7065726174696F6E204775696465008E
:103380004B4559303A20546F67676C65204175741E
:103390006F20436F6E74726F6C0000004B455931A3
:1033A0003A204D7573696320506C61792F506175B7
:1033B000736500004B4559323A205377697463684E
:1033C000204D6F64650000004B45595F55503A2011
:1033D0005377697463682050616765004952333AD6
:1033E00020546F67676C65204175746F20436F6E62
:1033F00074726F6C000000004952343A204D616EC7
:1034000075616C204D6F746F7220436F6E74726FB4
:103410006C0000004952372F383A2041646A7573B6
:1034200074204D6F746F7220506F776572000000CA
:103430004952393A20456D657267656E637920534C
:10344000746F700049525F505245562F4E45585484
:103450003A204D7573696320436F6E74726F6C0010
:103460004175746F20436F6E74726F6C3A204C69B3
:10347000676874203C203230000000004D6F746F8C
:10348000722072756E7320666F72203520736563CB
:103490006F6E6473000000004D7573696320537094
:1034A0006565643A203378204669786564000000D9
:1034B0004B45595F55503A204261636B20746F2031
:1034C0004461746120506167650000002DE9F0419E
:1034D0008CB004460D4616464FF6FF70FEF7FAF91B
:1034E000FCA010210B469622CDE900100A213220C3
:1034F000FEF734FB4FF6FF704223DC2232210090AE
:103500000A20FEF73DFA2B462246F5A104A801F059
:10351000C7F904A810210B46DC22CDE900103221A6
:103520000A20FEF71BFB4FF6FF706023DC225021C0
:1035300000900A20FEF724FA3246EFA104A801F019
:10354000AFF904A810210B46DC22CDE90010502170
:103550000A20FEF703FB4FF6FF707E23DC226E216C
:1035600000900A20FEF70CFA1C2C0ADDE5A01021C1
:103570000B46DC22CDE900106E210A20FEF7EEFAA0
:1035800016E00F2C0ADAE2A010210B46DC22CDE96E
:1035900000106E210A20FEF7E1FA09E0E0A01021F8
:1035A0000B46DC22CDE900106E210A20FEF7D6FA88
:1035B0004FF6FF709C23DC228C2100900A20FEF73E
:1035C000DFF9DB480078C8B1DA48007888B1DA481A
:1035D00000880A2190FBF1F201FB1207D64800880F
:1035E00090FBF1F83B464246D4A104A801F058F9FB
:1035F00010E0D8A104A801F053F90BE0CD48007801
:1036000020B1D9A104A801F04BF903E0DBA104A883
:1036100001F046F904A810210B46DC22CDE9001088
:103620008C210A20FEF79AFA4FF6FF70BA23DC22AB
:10363000AA2100900A20FEF7A3F9142E0ADAD4A0DA
:1036400010210B46DC22CDE90010AA210A20FEF74A
:1036500085FA09E0D3A010210B46DC22CDE9001049
:10366000AA210A20FEF77AFA4FF6FF709C23DC228B
:103670008C2100900A20FEF783F9D0488078CF494A
:103680004978CE4A1278CD4BDB79CDE90032CDE9CD
:103690000210CA4883798288C9A104A801F000F900
:1036A00004A810210B46DC22CDE900108C210A2051
:1036B000FEF754FA4FF6FF70BA23DC22AA210090DD
:1036C0000A20FEF75DF9C648007808B1C5A000E001
:1036D000C5A00246C5A104A801F0E2F804A8102183
:1036E0000B46DC22CDE90010AA210A20FEF736FAAB
:1036F0004FF6FF70D823DC22C82100900A20FEF785
:103700003FF9BD48008864214843BC49098890FBC3
:10371000F1F73A46BAA104A801F0C2F804A81021B2
:103720000B46DC22CDE90010C8210A20FEF716FA6C
:103730004FF6FF70F623DC22E62100900A20FEF708
:103740001FF9B3A010210B46DC22CDE90010E621C1
:103750000A20FEF703FA4FF6FF704FF48A73DC225B
:103760004FF4827100900A20FEF70AF9AE48007803
:1037700038B3AEA010210B46DC22CDE900104FF487
:1037800082710A20FEF7EAF94FF6FF704FF4997341
:10379000DC224FF4917100900A20FEF7F1F8A7485F
:1037A0000288A7A104A801F07BF804A810210B4609
:1037B000DC22CDE900104FF491710A20FEF7CEF91A
:1037C00035E0A4480078E0B1A34800880A2190FBC6
:1037D000F1F201FB1207A048008890FBF1F83B468C
:1037E00042469EA104A801F05BF804A810210B46F4
:1037F000DC22CDE900104FF482710A20FEF7AEF909
:1038000015E07748007808B176A000E076A002467F
:1038100076A104A801F044F804A810210B46DC228C
:10382000CDE900104FF482710A20FEF797F94FF6A8
:10383000FF704FF4A873DC224FF4A07100900A20AF
:10384000FEF79EF88B48006808B167A000E065A00D
:10385000024689A104A801F023F804A810210B4610
:10386000DC22CDE900104FF4A0710A20FEF776F9B2
:103870004FF6FF704FF4B773DC224FF4AF71009036
:103880000A20FEF77DF87F4802887FA104A801F096
:1038900007F804A810210B46DC22CDE900104FF4F4
:1038A000AF710A20FEF75AF94FF6FF704FF4C67356
:1038B000DC224FF4BE7100900A20FEF761F87648D2
:1038C0000078012805D175487549097850F82120FC
:1038D000E8E0ECE053656E736F7220446174610040
:1038E00054656D703A20253264432048756D693AFD
:1038F00020253264252500004C696768743A20252C
:10390000336400005374617475733A20486F740017
:103910005374617475733A20436F6C640000000047
:103920005374617475733A204E6F726D616C000050
:103930000E00002012000020100000204D6F746F58
:10394000723A204155544F2052554E2025642E2561
:10395000647300004D6F746F723A204155544F20CC
:1039600053544F50000000004D6F746F723A204D59
:10397000414E55414C204F4E000000004D6F746F7A
:10398000723A204D414E55414C204F4646000000B2
:103990004C6967687420436F6E74726F6C3A204490
:1039A00041524B004C6967687420436F6E74726FAC
:1039B0006C3A20425249474854000000A4000020BD
:1039C000253034642D253032642D25303264202595
:1039D0003032643A253032643A25303264000000D7
:1039E0003A0000204F4E00004F46460042454550E9
:1039F0003A20257300000000380000203600002027
:103A0000566F6C756D653A20256425250000000011
:103A10005072657373204B45593220746F204254A5
:103A2000206D6F646500000007000020424545508E
:103A30003A2053455454494E4700000008000020E6
:103A400044656C61793A202564207365636F6E6408
:103A5000730000000600002004000020424545508D
:103A60003A20434F554E54444F574E2025642E253F
:103A700064730000940123424C4544323A2025737C
:103A8000000000000A0000204D6F746F7220506F1C
:103A90007765723A20256400480000205800002015
:103AA000490000201DA104A800F0FAFE11E01E4804
:103AB0000078022809D11D481D49097850F82120B5
:103AC0001CA104A800F0ECFE03E01FA104A800F074
:103AD000E7FE04A810210B46DC22CDE900104FF4CC
:103AE000BE710A20FEF73AF84FF6FF704FF4D57317
:103AF000DC224FF4CD7100900A20FDF741FF16A0A3
:103B000010210B46DC22CDE900104FF4CD710A20C4
:103B1000FEF724F80CB0BDE8F08100004D75736924
:103B2000633A202573000000480000205800002060
:103B3000490000204D757369633A20257320285091
:103B400061757365642900004D757369633A20538C
:103B5000746F7070656400004B45595F55503A2092
:103B6000537769746368205061676500042808D141
:103B70004FF0E021096941F004014FF0E0221161AA
:103B800007E04FF0E021096921F004014FF0E02245
:103B9000116170477047000010B504466FF00400D3
:103BA000FFF7E4FFE11704EB5171C1F3C701074AC6
:103BB00011701046007800EB4001C1EBC0104FF6C9
:103BC000FF7101EAC0000249088010BD60000020BA
:103BD0006200002010B51348006840F00100114950
:103BE000086008464068104908400E494860084689
:103BF00000680E4908400B4908600846006820F438
:103C0000802008600846406820F4FE0048604FF4B9
:103C10001F008860FFF799F94FF0006004490860C1
:103C200010BD0000001002400000FFF8FFFFF6FE8C
:103C300008ED00E000B59DB001210802FEF750FE3E
:103C400001200790002008900F20099000200A9082
:103C50000B900C900D901520009001900520029083
:103C60000020039004900590069006200E900020FE
:103C70000F9010901020119000201290149013902B
:103C8000159016904FF480501790002018904FF424
:103C90008040199000201A9007A81B90CDF870D092
:103CA0000EA8FDF7F3F801210620FDF7D5F81DB0A9
:103CB00000BD000008B501214FF4B470FEF740FECE
:103CC0004CF23370ADF8000018208DF8030003208B
:103CD0008DF8020069461848FDF76CF94FF68070C0
:103CE000ADF8000018208DF8030003208DF80200C5
:103CF00069461248FDF75EF941F20100ADF8000097
:103D000018208DF8030003208DF8020069460C4846
:103D1000FDF750F90120ADF8000010208DF80300E8
:103D200003208DF8020069460648FDF743F901209B
:103D30000549086008BD000000140140001801405A
:103D400000200140000C01408081214210B5FFF7A6
:103D5000B1FFFFF76FFF322001F060FCD020FDF7CC
:103D600031FFFDF73BFE89498880FDF737FE874923
:103D700088800846818886A000F082FD1120FDF72A
:103D800021FF4FF4FA7401E0601E84B2002CFBDCCA
:103D9000B920FDF717FFFF20FDF71AFF8320FDF77D
:103DA00017FF5720FDF714FF4FF4FA7401E0601E6F
:103DB00084B2002CFBDCB120FDF704FF0020FDF7EE
:103DC00007FF1420FDF704FF1C20FDF701FF1C2056
:103DD000FDF7FEFEC320FDF7FBFE4420FDF7F8FED5
:103DE0007020FDF7F5FE4FF4FA7401E0601E84B216
:103DF000002CFBDCB420FDF7E5FE2220FDF7E8FEF9
:103E00004020FDF7E5FE0020FDF7E2FE2A20FDF749
:103E1000DFFE2A20FDF7DCFE2020FDF7D9FE9120F1
:103E2000FDF7D6FE4FF4FA7401E0601E84B2002C58
:103E3000FBDC3620FDF7C6FE4C20FDF7C9FEC02096
:103E4000FDF7C0FE5020FDF7C3FE5020FDF7C0FE79
:103E50000120FDF7BDFE3C20FDF7BAFEC820FDF7AE
:103E6000B7FE0820FDF7B4FE0020FDF7B1FE0820E4
:103E7000FDF7AEFE0420FDF7ABFE4FF4FA7401E04F
:103E8000601E84B2002CFBDC4FF4FA7401E0601E6B
:103E900084B2002CFBDCE020FDF794FE0B20FDF744
:103EA00097FE1120FDF794FE1E20FDF791FE3020B5
:103EB000FDF78EFE3A20FDF78BFE4320FDF788FECE
:103EC0004E20FDF785FE5620FDF782FE4520FDF7CA
:103ED0007FFE3F20FDF77CFE3920FDF779FE322082
:103EE000FDF776FE2F20FDF773FE2A20FDF770FE0A
:103EF0002920FDF76DFE2120FDF76AFE0B20FDF75E
:103F000067FE1120FDF764FE1E20FDF761FE3020E4
:103F1000FDF75EFE3A20FDF75BFE4320FDF758FEFD
:103F20004E20FDF755FE5620FDF752FE4520FDF7C9
:103F30004FFE3F20FDF74CFE3920FDF749FE3220B1
:103F4000FDF746FE2F20FDF743FE2A20FDF740FE39
:103F50002920FDF73DFE2120FDF73AFE0020FDF768
:103F600037FE0120FDF734FE3A20FDF72BFE052039
:103F7000FDF72EFE2920FDF725FE0020FDF7CEFCE3
:103F80004FF6FF70FDF7A6FC10BD00002E000020CC
:103F9000204C43442049443A25780D0A0000000093
:103FA00030B589B005460C4601210820FEF7C8FC53
:103FB00001210220FEF7A4FC01210846FEF7C0FC07
:103FC0002020ADF8040003208DF8060018208DF89D
:103FD000070001A91748FCF7EDFF01211648FDF77E
:103FE00075F8ADF81C50ADF818400020ADF81E0073
:103FF000ADF81A0006A9114800F07CF96020ADF870
:1040000008000220ADF810000120ADF80A0002A956
:104010000A4800F0ADF80821084800F0FBF801213B
:10402000064800F06FF80121044800F07AF809B062
:1040300030BD0000000C014000081A0000040040E0
:1040400010B50121084800F078F838B10748006839
:1040500008B9012000E0002004490860012102485D
:1040600000F05CF810BD00000008004094012342FD
:1040700010B50121094800F060F868B108480088CF
:1040800040F40040064908800121044800F046F849
:104090000021024800F045F810BD00000014004067
:1040A000460000207FB505460C4601212020FEF782
:1040B00027FCADF80450ADF800400020ADF8060034
:1040C000ADF8020069460E4800F014F901221146CD
:1040D0000B4800F043F80121094800F022F837208E
:1040E0008DF80C0000208DF80D0002208DF80E00D8
:1040F00001208DF80F0003A8FDF7F0FF7FBD000041
:104100000014004021B1028842F08002028004E0E5
:1041100002884FF67F731A4002807047CA430282BA
:10412000704721B1028842F00102028004E0028857
:104130004FF6FE731A400280704730B502460020E9
:1041400000230024158A05EA0103958905EA010484
:1041500013B10CB1012000E0002030BD1AB18389F9
:104160000B43838102E083898B4383817047000086
:1041700070B5002400220023058C4FF6EF76354001
:104180000584028C8388048B48F6FF752C404FF61B
:10419000FF452C400D884FF6FF7606EA05252C4397
:1041A0004FF6DF752A400D8906EA05152A434D882A
:1041B00006EA05152A43154DA84202D0144DA8421F
:1041C0001DD14FF67F752A404D894FF6FF7606EADE
:1041D00005152A434FF6BF752A408D8806EA051556
:1041E0002A434FF6FF352B404FF2FF752B408D8948
:1041F00006EA85052B43CD8906EA85052B43838096
:104200000483CD880587028470BD0000002C014026
:10421000003401400A460021018B4FF2FF73194020
:104220004FF6FF7303EA022319430183704700002E
:1042300070B5002400220023058C4FF6FF66354040
:104240000584028C8388848B4FF68F752C404FF643
:10425000FC752C400D882C434FF6FF552A400D89E4
:104260004FF6FF7606EA05252A434D8806EA05251E
:104270002A43154DA84202D0144DA8421DD14FF239
:10428000FF752A404D894FF6FF7606EA05252A4339
:104290004FF6FF352A408D8806EA05252A434EF65B
:1042A000FF752B404DF6FF752B408D8906EA0515ED
:1042B0002B43CD8906EA05152B4383808483CD8863
:1042C0008587028470BD0000002C0140003401404D
:1042D0000A460021818B4FF6F77319401143818301
:1042E0007047818570470187704781877047818457
:1042F00070470000002202881D4B98420ED01D4BD3
:1043000098420BD0B0F1804F08D01B4B984205D09B
:104310001A4B984202D01A4B984204D14FF68F7331
:104320001A404B881A43174B984207D0164B9842B5
:1043300004D04FF6FF431A40CB881A4302808B8883
:1043400083850B8803850A4B98420BD0094B984212
:1043500008D00E4B984205D00D4B984202D00D4B21
:10436000984201D10B7A03860123838270470000B3
:10437000002C0140003401400004004000080040CF
:10438000000C0040001000400014004000400140BC
:10439000004401400048014010B540F225511D483D
:1043A00000F0A7F910B31B4800F05EFAC4B21A4837
:1043B000008800F40040C8B91748008800F4804025
:1043C00060B10A2C03D000201349088020E0124875
:1043D000008840F400401049088019E00D2C06D1F7
:1043E0000D48008840F480400B49088010E00A48DE
:1043F0000088C0F30D0009490C5407480088401C90
:104400000549088008460088C72801DD002008808B
:1044100010BD000000380140640000205E0500204F
:1044200010B586B0044601210420FEF789FA012167
:104430008803FEF785FA4FF40070ADF814000320EE
:104440008DF8160018208DF8170005A91E48FCF7F6
:10445000B1FD4FF48060ADF8140004208DF8170012
:1044600005A91948FCF7A6FD01940020ADF8080045
:10447000ADF80A00ADF80C00ADF810000C20ADF856
:104480000E0001A9114800F083F901210F4800F046
:10449000C8F840210D4800F0BBF8012240F2255138
:1044A0000A4800F050F925208DF8000003208DF80F
:1044B00001008DF8020001208DF803006846FDF729
:1044C0000DFE06B010BD000000080140003801409C
:1044D00010B540F22551164800F00BF9F8B1144818
:1044E00000F0C2F9C4B21348008800F40040B0B92B
:1044F00010480088B0F5167F12DA00210E48FFF749
:10450000F6FE0C48008818B901210B48FFF709FE98
:1045100008490888411C074A118008490C5405E0E5
:104520000448008840F400400249088010BD0000A3
:10453000004800404600002000140040AE0000206B
:1045400010B586B0044601210820FEF7F9F90121D3
:104550008804FEF7D5F92A4800F070F84FF480601F
:10456000ADF8100003208DF8120018208DF813000C
:1045700004A92448FCF71EFD4FF40060ADF81000BC
:1045800004208DF8130004A91E48FCF713FD0094C5
:104590000020ADF80400ADF80600ADF80800ADF855
:1045A0000C000C20ADF80A006946154800F0F0F840
:1045B0000121134800F035F8012240F2255110483E
:1045C00000F0C1F827208DF8140002208DF81500A6
:1045D00003208DF8160001208DF8170005A8FDF7BF
:1045E0007DFD41F61F416320FFF75CFD0020064979
:1045F000088000210548FFF794FD06B010BD0000BB
:1046000000480040000C014046000020001400401B
:1046100001F40072B2F5007F00D100BFCA430280EE
:10462000704721B1828942F40052828104E082897C
:104630004DF6FF731A4082817047000010B50446A2
:104640002048844209D101218803FEF789F900211D
:104650004FF48040FEF784F932E01B48844209D1D0
:1046600001214804FEF75CF900214FF40030FEF709
:1046700057F925E01548844209D101218804FEF745
:104680004FF900214FF48020FEF74AF918E0104856
:10469000844209D10121C804FEF742F900214FF4F8
:1046A0000020FEF73DF90BE00A48844208D10121C1
:1046B0000805FEF735F900214FF48010FEF730F9B8
:1046C00010BD000000380140004400400048004098
:1046D000004C00400050004002460020B1F5007F31
:1046E00000D100BF13880B400BB1012000E0002077
:1046F000704770B50246002400230025002040F6D4
:104700006A16B14200D100BFC1F3421501F01F0388
:10471000012606FA03F3012D02D19689334006E003
:10472000022D02D1168A334001E0968A33400C12E2
:10473000012606FA04F41688344013B10CB10120A6
:1047400000E0002070BDF0B50346002400260025DF
:10475000002040F66A17B94200D100BF1846C1F3E5
:10476000421401F01F06012707FA06F5012C01D1BA
:104770000C3004E0022C01D1103000E014301AB1EA
:1047800007682F43076002E00768AF430760F0BD8A
:104790002DE9F04786B005460E460024A24600BF2C
:1047A000A1460027B08900B100BF2F462C8A4CF6E5
:1047B000FF700440F08804432C82AC894EF6F3105D
:1047C0000440B08831890843718908430443AC81AF
:1047D000AC8A4FF6FF400440B0890443AC8201A884
:1047E000FEF7D4F81F48874202D1DDF810A001E09F
:1047F000DDF80CA0A88900F4004040B10AEBCA0023
:1048000000EB0A1031684900B0FBF1F807E00AEB51
:10481000CA0000EB0A1031688900B0FBF1F864208F
:10482000B8FBF0F004012009642101FB1089A8897C
:1048300000F4004040B1322000EBC900B0FBF1F0C1
:1048400000F00700044308E0322000EB0910642167
:10485000B0FBF1F000F00F0004432C8106B0BDE87E
:10486000F08700000038014001468888C0F3080046
:104870007047C1F308028280704700BFFEE7000066
:104880000FB4054B10B503A9044A029800F0F4F8E0
:1048900010BC5DF814FB0000B5560008680000204D
:1048A0000FB4084B10B504A902AA039800F0E4F86D
:1048B000044602A9002000F0A7FE204610BC5DF8C7
:1048C00014FB00000956000837B514460846064B8D
:1048D0006A46214600F0D8FA04466946002000F0F6
:1048E00098FE20463EBD0000135600080048704761
:1048F0006C00002002E008C8121F08C1002AFAD18B
:1049000070477047002001E001C1121F002AFBD14F
:10491000704700002DE9FF5FDDE90220010DDDF8A1
:1049200038B0024318D044F61050A1F2FF31414391
:104930000D140F98012820D0A5EB0B00401C5FEA56
:10494000000A4FF00004474EDFF81C91A046504685
:1049500016D5CAF1000728E00F98012443A20128C8
:1049600008D0002100980F9BC0E90021C0E9024354
:10497000BDE8FF9F6FEA0B01F4E7CBF10000DEE733
:10498000074612E0F80707D022463346404649461C
:10499000FBF71BFC804689462246334610461946E3
:1049A000FBF713FC04460E467F10002FEAD1DDE929
:1049B0000201BAF1000F42464B4602DAFBF705FC52
:1049C00001E0FBF707FE04460E460022284BFBF7EA
:1049D00089FE03D84FF0FF30014607E00022254B47
:1049E00020463146FBF74FFDFBF763FE102409E03C
:1049F000002C0ADB0A220023FBF76FFC019B3032FC
:104A00001A55641E50EA0102F2D1641C019AC4F1E5
:104A1000110314440F9A012A03D0012208430DD137
:104A20000AE0084304D000204FF0110B0F9080E7FC
:104A3000A3EB0B056D1E0DE05B4504DD4FF000029E
:104A400005F1010504E003DA4FF00002A5F10105CC
:104A5000002AECD000980F99C0E90231C0E9004566
:104A600086E70000000024400000F03F3000000016
:104A70000000F0430000E03F2DE9FF4F8DB00F46EE
:104A80000546002606E025280BD0DDE90F129047E9
:104A90006D1C761C28780028F5D111B03046BDE891
:104AA000F08F0024A246A1460122EC4900E0044315
:104AB00015F8013F203B02FA03F00842F7D12878AD
:104AC0002A2810D06FF02F022878A0F13001092990
:104AD00014D80AEB8A0102EB410144F0020400EB16
:104AE000010A6D1CF0E701CF5FEA000A03D544F428
:104AF0000054CAF1000A44F002046D1C28782E28E4
:104B000017D115F8010F44F004042A280ED06FF0D5
:104B10002F022878A0F1300109290AD809EB890170
:104B200002EB410100EB01096D1CF2E757F8049B11
:104B30006D1C28786C280FD006DC4C2817D068280C
:104B40000DD06A2814D104E0742810D07A280FD12F
:104B50000DE044F400140AE044F4801401E044F44D
:104B600040146978814202D104F580146D1C6D1CDB
:104B70002A786E2A1FD00CDC632A31D004DC002A8C
:104B80008BD0582A11D1A3E0642A68D0692A0CD1AD
:104B900065E0732A2ED004DC6F2A73D0702A04D10A
:104BA0009BE0752A6FD0782A6ED01046DDE90F128F
:104BB0009047761C50E1C4F30250022806D0032827
:104BC00009D0042801CF09D0066045E101CFF117D3
:104BD000C0E9006140E101CF06803DE106703BE1A4
:104BE00017F8040B8DF8000000208DF80100EB464B
:104BF000012003E057F804BB4FF0FF3061074FF08E
:104C0000000102D40DE008F10101884649450FDAA0
:104C10008045F8DB1BF808100029F4D108E008F102
:104C2000010188468142FADB1BF808100029F6D101
:104C3000DDE90F23AAEB08008146214600F0B6FC0F
:104C4000304400EB080604E0DDE90F121BF8010B0D
:104C50009047B8F10108F7D221464846F7E00A210B
:104C6000C4F302534FF0000B0891022B04D001CF84
:104C7000C117032B09D00AE0FF1D27F00707F7E84B
:104C8000020108E032E01FE020E000B2C117042B6F
:104C900001D140B2C117031E71F1000307DA4FF0D2
:104CA000000CD0EB0C006CEB01012D2302E023057E
:104CB00004D52B238DF82430012303E0E30701D032
:104CC0002023F7E7984658E00A2110E010210EE073
:104CD00010204FF0000B08900CE010214FF0000B5B
:104CE00044F004044FF00809089103E008214FF054
:104CF000000B0891C4F30253022B04D001CF002112
:104D0000032B06D006E0FF1D27F00707F7E8020196
:104D100003E080B2042B00D1C0B24FF0000823079B
:104D20002BD5702A07D0DDF820C08CF0100C5CEA7F
:104D30000B0C05D00EE040238DF82430012308E051
:104D400050EA010306D030238DF824308DF8252059
:104D500002239846DDF820C08CF0080C5CEA0B0CAE
:104D60000BD150EA010301D1630706D530238DF83A
:104D700024304FF00108A9F10109582A04D038A2C3
:104D80000B9208AA0A920BE03AA2F9E75B46089A4E
:104D9000FBF7A3FA0B9B9B5C0A9A521E0A921370B4
:104DA00050EA0102F2D10A98ADEB000000F1200BAD
:104DB000600702D524F4803401E04FF00109D945A1
:104DC00002DDA9EB0B0000E0002000EB0B014144E9
:104DD0000890AAEB010AE00306D4DDE90F2321467F
:104DE000504600F0E3FB06444FF0000908E009A933
:104DF00011F80900DDE90F12904709F10109761C4D
:104E0000C145F4DBE0030CD5DDE90F232146504614
:104E100000F0CCFB064404E0DDE90F12302090479F
:104E2000761C0899481E08900029F5DC08E00A98CD
:104E30000A990078491C0A91DDE90F129047761C07
:104E4000BBF10001ABF1010BF1DC21465046DDE97D
:104E50000F2300F087FB06446D1C1BE609280100A8
:104E600030313233343536373839616263646566E0
:104E700000000000303132333435363738394142A2
:104E800043444546000000002DE9FF4F95B09B4686
:104E90008946064600250FE2252877D100242746BB
:104EA000F84A0121059400E0044316F8013F203B35
:104EB00001FA03F01042F7D130782A2811D06FF0B0
:104EC0002F033078A0F13002092A16D8059A44F051
:104ED000020402EB820203EB42021044761C0590AE
:104EE000EFE759F8042B0592002A03DA504244F404
:104EF0000054059044F00204761C30782E2816D118
:104F000016F8010F44F004042A280DD06FF02F0288
:104F10003078A0F13003092B09D807EB870302EBA7
:104F20004303C718761CF3E759F8047B761C3078E6
:104F30006C280FD006DC4C2817D068280DD06A28C2
:104F400014D104E0742810D07A280FD10DE044F475
:104F500000140AE044F4801401E044F44014727830
:104F6000824202D104F58014761C761C30786628C3
:104F70000BD013DC582877D009DC002875D04528E1
:104F8000F6D04628F4D047281AD19DE118E06328CE
:104F900035D0642879D0652812D195E1702873D076
:104FA00008DC6728F1D069286FD06E280DD06F28F3
:104FB00006D1B5E073282CD0752875D0782874D028
:104FC0005A46179990476D1C75E1C4F302500228A8
:104FD00009D003280DD0D9F8001004280DD00D6099
:104FE00009F1040967E1D9F80010EA17C1E9005294
:104FF000F6E7D9F800100D80F2E70D70F0E719F828
:10500000041B8DF8001000208DF80100EA460120F5
:1050100003E059F804AB4FF0FF3061074FF0000197
:1050200002D40DE008F101018846B9420FDA80454B
:10503000F8DB1AF808100029F4D108E008F10101A2
:1050400088468142FADB1AF808100029F6D1059843
:105050005B46A0EB080721463846179A00F0BDFAD8
:10506000284400EB080507E04DE029E10DE01AF8BF
:10507000010B5A4617999047B8F10108F7D25B46E1
:1050800021463846179A13E142E00A220092C4F3FF
:1050900002524FF0000A022A08D059F804CB032A22
:1050A0004FEAEC710AD00DE029E02AE009F107018E
:1050B00021F00702F2E802C1914609E00FFA8CFCE8
:1050C0004FEAEC71042A03D14FFA8CFC4FEAEC71E1
:1050D000002907DA0A460021DCF1000C61EB02012D
:1050E0002D2202E0220504D52B228DF80420012276
:1050F00003E0E20701D02022F7E7904659E00A21B9
:1051000002E010220DE010214FF0000A00910BE0A8
:1051100010224FF0000A44F004040827009203E034
:1051200008224FF0000A0092C4F30252022A05D06E
:1051300059F804CB0021032A08D009E009F107013E
:1051400021F00702F2E802C1914605E01FFA8CFC4B
:10515000042A01D10CF0FF0C4FF00008220728D5DB
:10516000702806D0009B83F0100353EA0A0305D091
:105170000EE040228DF80420012208E05CEA0102E2
:1051800006D030228DF804208DF8050002229046CA
:10519000009B83F0080353EA0A030AD15CEA010288
:1051A00001D1620705D530228DF804204FF00108A7
:1051B0007F1E582804D034A003900EA802900DE062
:1051C00036A0F9E753466046009AFBF786F8844616
:1051D0000398825C0298401E029002705CEA010013
:1051E000F0D1029806A9081A00F1200A600702D53A
:1051F00024F4803400E00127574502DDA7EB0A00C4
:1052000000E0002000EB0A01009005984144401A9C
:105210000590E00306D45B462146179A059800F0F6
:10522000DCF90544002706E001A85A46C05D17993D
:1052300090476D1C7F1C4745F6DBE0030CD55B46B1
:105240002146179A059800F0C8F9054404E030207B
:105250005A46179990476D1C0099481E00900029E6
:10526000F5DC08E0029802995A460078491C029140
:10527000179990476D1CBAF10001AAF1010AF1DCFF
:1052800065E100000928010030313233343536370A
:105290003839616263646566000000003031323382
:1052A0003435363738394142434445460000000022
:1052B00000F06AF90544761C307800287FF4ECADE4
:1052C00019B02846BDE8F08F620700D4062709F11F
:1052D000070222F0070CFCE80223E14603F0004835
:1052E0005FEA080C02D00FF2702C0DE05FEA045C5C
:1052F00002D50FF2682C07E05FEAC47C02D00FF2FF
:10530000602C01E0AFF2700C4FF0FF3823F0004347
:10531000CDF850C065280CD006DC452809D04628B9
:105320001DD047283DD13DE0662818D067287ED1A2
:1053300038E00021112F01DB112000E0781CCDE9BD
:10534000000106A90EA8FFF7E5FADDE90F010E9AA4
:1053500003910021009207F1010A04914DE04FF002
:1053600000400097CDE9011006A90EA8FFF7D2FA78
:10537000DDE90F0203920E9B11990022DDF80CA0CB
:105380000093049211B9791C00EB010AB7EB0A00F3
:1053900004D4C0F1FF3007F1010A0490AAEB070022
:1053A000019044E0012F00DA01270021112F01DDD7
:1053B000112000E03846CDE9000106A90EA8FFF74C
:1053C000A9FADDE90F010E9A0391002104910092E0
:1053D000BA4621070CD40399514500DA8A46BAF13E
:1053E000010F05DD009AAAF10101515C302908D0B6
:1053F000B84202DA10F1040F06DA0121CDE90110FA
:1054000015E0AAF10101E9E7002805DC049901444F
:105410000491AAEB000102E0411C514500DD8A46DF
:105420000499401A401C01904FF000400290200760
:1054300004D40198504501DBCDF8048000208DF89C
:105440004F0002980DF14F07B0F1004F25D02B20EF
:105450000E9002984FF0020800280CDA40420290A9
:105460002D200E9007E00A210298FAF720FF303134
:10547000029007F8011DB8F10001A8F10108F2DC63
:1054800002980028EFD1791E0E980870307800F04D
:10549000200040F0450007F8020D12A8C01B00F1E3
:1054A00007081498007800B1012000EB0A01019868
:1054B00001EBE07105984144401A401E0590E0035D
:1054C00006D45B462146179A059800F086F80544F5
:1054D0001498007818B15A46179990476D1CE0034C
:1054E00024D55B462146179A059800F076F80544C6
:1054F0001CE00498002807DBDDE90301884203DD96
:105500000098405C179901E0179930205A4690475F
:10551000049805F10105401C04900198401E01907B
:1055200004D12E205A46179990476D1CBAF10001FC
:10553000AAF1010ADDDC05E017F8010B5A461799BC
:1055400090476D1CB8F10001A8F10108F4DC5B463E
:105550002146179A0598ABE62D0000002B000000AD
:10556000200000002DE9F041044600251E461746A4
:10557000880404D405E039462020B0476D1C641E21
:10558000F9D52846BDE8F0812DE9F0410446002513
:105590001E461746880404D405E039462020B0474B
:1055A0006D1C641EF9D52846BDE8F0812DE9F04157
:1055B000044600251E469046C80301D5302700E06A
:1055C0002027880404D505E041463846B0476D1CC5
:1055D000641EF9D52846BDE8F0812DE9F041044666
:1055E00000251E469046C80301D5302700E020273D
:1055F000880404D505E041463846B0476D1C641E5A
:10560000F9D52846BDE8F0810A68531C0B6010707C
:1056100070470A68531C0B60107070470146114AAE
:1056200012884A434FF0E0235A6100229A611A46D9
:10563000126942F001021A6100BF4FF0E0221069C6
:1056400000F001021AB100F48032002AF5D04FF0C8
:10565000E022126922F001024FF0E0231A610022D9
:105660009A617047620000200146114A12784A434D
:105670004FF0E0235A6100229A611A46126942F003
:1056800001021A6100BF4FF0E022106900F0010230
:105690001AB100F48032002AF5D04FF0E0221269EE
:1056A00022F001024FF0E0231A6100229A61704754
:1056B0006000002070B504460D46E1B20548FFF7D2
:1056C000D8F800BF80210348FFF706F80028F9D07A
:1056D000204670BD003801408CB000200B900A902D
:1056E000002500240026002780464820FEF754FAB3
:1056F0004FF4A060FCF72AFD4FF4E130FEF790FE76
:10570000FEF724FB4FF6FF70FCF7E4F80020FD499C
:105710000880FBF771FAFCF7ADFAFDF707FBFDF720
:1057200001FAFCF769F8FCF761FAFBF77DF9FCF781
:10573000F3FA4721F4480088FEF732FCF24800886B
:10574000F24A1288801A81B2F148FEF7CCFDFBF7CD
:10575000B5FEF0A018210B46C822CDE900103C216F
:105760000846FCF7FBF94FF47A70FFF757FF4FF646
:10577000FF70FCF7AFF80AA90BA8FBF792FAFCF749
:105780005BFA05460020E6490870E6490870E649DC
:105790000880142D01DA012000E00020E3490870A0
:1057A0002A469DF828109DF82C00FDF78FFEF8E2A0
:1057B000DF48007800286ED0DE48008800286ADDC7
:1057C000DC480088401EDB49088008460088002825
:1057D0002BD1FBF789F90020D5490870D64800780D
:1057E000C0B9D6480078A8B94FF6FF704FF48A7355
:1057F000DC224FF4827100900A20FCF7C1F8D0A09F
:1058000010210B46DC22CDE900104FF482710A20F2
:10581000FCF7A4F9CD480078012802D1CCA000F013
:10582000FDFACBA0FFF72CF835E0C24800880A212A
:1058300090FBF1F201FB120068BBBF48007850BB3F
:10584000BE48007838BB4FF6FF704FF48A73DC22F5
:105850004FF4827100900A20FCF792F8B548008856
:105860000A2190FBF1F201FB1209B248008890FB7B
:10587000F1FA4B465246BBA102A8FFF711F802A865
:1058800010210B46DC22CDE900104FF482710A2072
:10589000FCF764F900BFFCF729FDFCF775FBA04895
:1058A0000078002846D0142D18DAA048007888B96E
:1058B00001209C49087000209B490880924800887C
:1058C000924A1288801A81B29148FEF70CFDABA073
:1058D000FEF7D6FF01209549087012E09348007842
:1058E00060B100208F4908708F4908808648018880
:1058F0008748FEF7F8FCAAA0FEF7C2FF00208B49FC
:10590000087088480078A8B187480088401C8649FC
:1059100008800846008832280CDB00208149087086
:1059200081490880784801887948FEF7DCFCA6A008
:10593000FEF7A6FF0020FBF77DFF0446042C49D1AB
:105940007D480078A8BBFBF7F1FD8046B8F1000F59
:1059500005D1012078490870FDF76CFB3AE0B8F1F9
:10596000020F0DD17548007838B92A469DF82810E5
:105970009DF82C00FDF7AAFD2CE0FDF763FC29E063
:105980009AA010210B46DC22CDE90010E6210A2066
:10599000FCF7E4F84FF47A70FFF740FE9AA010216C
:1059A0000B46DC22CDE90010E6210A20FCF7D6F8F0
:1059B00010E0FFE70020604908706048007838B9BF
:1059C0002A469DF828109DF82C00FDF77FFD01E088
:1059D000FDF738FC5848007800287DD1012C15D1FE
:1059E0005648007808B9012000E0002053490870AB
:1059F0000846007838B92A469DF828109DF82C00F2
:105A0000FDF764FD54E0FDF71DFC51E0022C2ED1A2
:105A10004348007808B9012000E0002040490870A0
:105A20000846007858B17EA0FEF72AFF00203D49C5
:105A30000870354801883648FEF755FC0CE080A018
:105A4000FEF71EFF002037490870374908802E48AE
:105A500001882F48FEF747FC3848007840BB2A46AB
:105A60009DF828109DF82C00FDF730FD20E0032C58
:105A70001ED17B48007820B97A480078FCF7A0F95D
:105A80000CE077480078012802D1FCF781F905E0A5
:105A900073480078022801D1FCF712FA27480078F1
:105AA00030B92A469DF828109DF82C00FDF70EFD10
:105AB000FDF738F80AA90BA8FBF7F3F848B91F4817
:105AC000007830B92A469DF828109DF82C00FDF783
:105AD000FDFCFCF7B1F800E0C6E00546142096FB9B
